{"contracts/GnosisFlashArbitrage.sol":{"GnosisFlashArbitrage":{"abi":[{"inputs":[{"internalType":"address","name":"_balancerVault","type":"address"},{"internalType":"address","name":"_swaprRouter","type":"address"},{"internalType":"address","name":"_futarchyRouter","type":"address"},{"internalType":"address","name":"_gnoToken","type":"address"},{"internalType":"address","name":"_sdaiToken","type":"address"},{"internalType":"address","name":"_wagnoToken","type":"address"},{"internalType":"bytes32","name":"_balancerPoolId","type":"bytes32"}],"stateMutability":"nonpayable","type":"constructor"},{"inputs":[{"internalType":"address","name":"owner","type":"address"}],"name":"OwnableInvalidOwner","type":"error"},{"inputs":[{"internalType":"address","name":"account","type":"address"}],"name":"OwnableUnauthorizedAccount","type":"error"},{"inputs":[],"name":"ReentrancyGuardReentrantCall","type":"error"},{"inputs":[{"internalType":"address","name":"token","type":"address"}],"name":"SafeERC20FailedOperation","type":"error"},{"anonymous":false,"inputs":[{"indexed":true,"internalType":"enum GnosisFlashArbitrage.ArbitrageType","name":"arbType","type":"uint8"},{"indexed":true,"internalType":"address","name":"borrowedToken","type":"address"},{"indexed":false,"internalType":"uint256","name":"borrowedAmount","type":"uint256"},{"indexed":false,"internalType":"uint256","name":"profit","type":"uint256"}],"name":"ArbitrageExecuted","type":"event"},{"anonymous":false,"inputs":[{"indexed":false,"internalType":"string","name":"configName","type":"string"},{"indexed":false,"internalType":"address","name":"newValue","type":"address"}],"name":"ConfigUpdated","type":"event"},{"anonymous":false,"inputs":[{"indexed":true,"internalType":"address","name":"previousOwner","type":"address"},{"indexed":true,"internalType":"address","name":"newOwner","type":"address"}],"name":"OwnershipTransferred","type":"event"},{"anonymous":false,"inputs":[{"indexed":false,"internalType":"bytes32","name":"newPoolId","type":"bytes32"}],"name":"PoolIdUpdated","type":"event"},{"anonymous":false,"inputs":[{"indexed":false,"internalType":"address","name":"token","type":"address"},{"indexed":false,"internalType":"uint256","name":"amount","type":"uint256"}],"name":"TokensRecovered","type":"event"},{"inputs":[],"name":"balancerPoolId","outputs":[{"internalType":"bytes32","name":"","type":"bytes32"}],"stateMutability":"view","type":"function"},{"inputs":[],"name":"balancerVault","outputs":[{"internalType":"contract IBalancerVault","name":"","type":"address"}],"stateMutability":"view","type":"function"},{"inputs":[{"internalType":"address","name":"borrowToken","type":"address"},{"internalType":"uint256","name":"borrowAmount","type":"uint256"},{"internalType":"enum GnosisFlashArbitrage.ArbitrageType","name":"arbType","type":"uint8"},{"internalType":"address","name":"proposal","type":"address"},{"internalType":"uint256","name":"minProfit","type":"uint256"}],"name":"executeArbitrage","outputs":[],"stateMutability":"nonpayable","type":"function"},{"inputs":[],"name":"futarchyRouter","outputs":[{"internalType":"contract IFutarchyRouter","name":"","type":"address"}],"stateMutability":"view","type":"function"},{"inputs":[],"name":"getPoolLiquidity","outputs":[{"internalType":"address[]","name":"tokens","type":"address[]"},{"internalType":"uint256[]","name":"balances","type":"uint256[]"}],"stateMutability":"view","type":"function"},{"inputs":[],"name":"gnoToken","outputs":[{"internalType":"address","name":"","type":"address"}],"stateMutability":"view","type":"function"},{"inputs":[],"name":"owner","outputs":[{"internalType":"address","name":"","type":"address"}],"stateMutability":"view","type":"function"},{"inputs":[{"internalType":"contract IERC20[]","name":"tokens","type":"address[]"},{"internalType":"uint256[]","name":"amounts","type":"uint256[]"},{"internalType":"uint256[]","name":"feeAmounts","type":"uint256[]"},{"internalType":"bytes","name":"userData","type":"bytes"}],"name":"receiveFlashLoan","outputs":[],"stateMutability":"nonpayable","type":"function"},{"inputs":[{"internalType":"address","name":"token","type":"address"},{"internalType":"uint256","name":"amount","type":"uint256"}],"name":"recoverTokens","outputs":[],"stateMutability":"nonpayable","type":"function"},{"inputs":[],"name":"refreshApprovals","outputs":[],"stateMutability":"nonpayable","type":"function"},{"inputs":[],"name":"renounceOwnership","outputs":[],"stateMutability":"nonpayable","type":"function"},{"inputs":[],"name":"sdaiToken","outputs":[{"internalType":"address","name":"","type":"address"}],"stateMutability":"view","type":"function"},{"inputs":[{"internalType":"bytes32","name":"_poolId","type":"bytes32"}],"name":"setBalancerPoolId","outputs":[],"stateMutability":"nonpayable","type":"function"},{"inputs":[{"internalType":"address","name":"_vault","type":"address"}],"name":"setBalancerVault","outputs":[],"stateMutability":"nonpayable","type":"function"},{"inputs":[{"internalType":"address","name":"_router","type":"address"}],"name":"setFutarchyRouter","outputs":[],"stateMutability":"nonpayable","type":"function"},{"inputs":[{"internalType":"address","name":"_router","type":"address"}],"name":"setSwaprRouter","outputs":[],"stateMutability":"nonpayable","type":"function"},{"inputs":[{"internalType":"address","name":"_gno","type":"address"},{"internalType":"address","name":"_sdai","type":"address"},{"internalType":"address","name":"_wagno","type":"address"}],"name":"setTokens","outputs":[],"stateMutability":"nonpayable","type":"function"},{"inputs":[],"name":"swaprRouter","outputs":[{"internalType":"contract IAlgebraSwapRouter","name":"","type":"address"}],"stateMutability":"view","type":"function"},{"inputs":[{"internalType":"address","name":"newOwner","type":"address"}],"name":"transferOwnership","outputs":[],"stateMutability":"nonpayable","type":"function"},{"inputs":[],"name":"wagnoToken","outputs":[{"internalType":"address","name":"","type":"address"}],"stateMutability":"view","type":"function"},{"inputs":[{"internalType":"address","name":"token","type":"address"}],"name":"withdrawProfits","outputs":[],"stateMutability":"nonpayable","type":"function"},{"stateMutability":"payable","type":"receive"}],"evm":{"bytecode":{"linkReferences":{},"object":"6080604090808252346200036e5760e08162001f4c803803809162000025828562000373565b8339810103126200036e576200003b81620003ad565b906020916200004c838301620003ad565b916200005a858201620003ad565b906200006960608201620003ad565b936200007860808301620003ad565b60c06200008860a08501620003ad565b9301513315620003565788600096879384549060018060a01b03809b819a82808097819760018060a01b03199a8d338d8416179055519c7f8be0079c531659141344cd1fd0a4f28419497f9722a3daafe3b4186f6b6457e0843393169180a360018055169a8b896002541617600255168760035416176003558660049e8f9216915416178d55168460055416176005551695868360065416176006551690600754161760075560085582620002a6575b505050806007541680620001e3575b508060055416928362000164575b8551611b6f9081620003dd8239f35b6044859282541691848851968794859363095ea7b360e01b855284015260001960248401525af1908115620001d85750620001a3575b80808062000155565b81620001c792903d10620001d0575b620001be818362000373565b810190620003c2565b5038806200019a565b503d620001b2565b8451903d90823e3d90fd5b8160025416865163095ea7b360e01b9182825286820152868160448188600019978860248401525af180156200029c57908792916200027a575b506044846007541691868660035416938b51968795869485528b85015260248401525af1801562000270571562000147576200026890853d8711620001d057620001be818362000373565b503862000147565b86513d85823e3d90fd5b6200029490833d8511620001d057620001be818362000373565b50386200021d565b88513d87823e3d90fd5b63095ea7b360e01b9182825286820152868160448188600019978860248401525af180156200029c579087929162000334575b506044846006541691868660035416938b51968795869485528b85015260248401525af18015620002705762000312575b808062000138565b6200032c90853d8711620001d057620001be818362000373565b50386200030a565b6200034e90833d8511620001d057620001be818362000373565b5038620002d9565b8851631e4fbdf760e01b815260006004820152602490fd5b600080fd5b601f909101601f19168101906001600160401b038211908210176200039757604052565b634e487b7160e01b600052604160045260246000fd5b51906001600160a01b03821682036200036e57565b908160209103126200036e575180151581036200036e579056fe6080604052600436101561001b575b361561001957600080fd5b005b6000803560e01c8062362a77146113b2578063069c9fae146113395780630db188b114611310578063158274a5146112e75780633fd0b3bf14610e6f57806343d57a6414610c3b578063443be20914610bca5780634ad7429914610ba15780635360e6b9146109df57806354a754e11461094f5780635bddd2dc14610926578063715018a6146108cc5780638da5cb5b146108a5578063aeda99ef1461087c578063c61f218414610853578063c83e413514610805578063dbbb64b9146107e7578063e33ad7541461075a578063f04f270714610229578063f2fde38b1461019e5763f8c464521461010d575061000e565b3461019b57602036600319011261019b577ff65c1c942037215826383c2092043ca15aa3e8927c39dc5d5d3f0e6190c2a61d6080610149611463565b610151611624565b60018060a01b0316806001600160601b0360a01b60025416176002556040519060408252600d60408301526c18985b185b98d95c95985d5b1d609a1b60608301526020820152a180f35b80fd5b503461019b57602036600319011261019b576101b8611463565b6101c0611624565b6001600160a01b0390811690811561021057600054826001600160601b0360a01b821617600055167f8be0079c531659141344cd1fd0a4f28419497f9722a3daafe3b4186f6b6457e0600080a380f35b604051631e4fbdf760e01b815260048101849052602490fd5b503461019b57608036600319011261019b576004356001600160401b03808211610716573660238301121561071657816004013560246102688261151a565b9361027660405195866114f9565b828552602092828487019160051b8301019136831161072f578301905b828210610737575050508035838111610733576102b4903690600401611531565b91604491823585811161072f576102cf903690600401611531565b9360648035968088116106d657366023890112156106d657876004013590811161071a57896040519861030b87601f19601f860116018b6114f9565b828a52868a01923687828401011161071657808789930185378a0101526002546001600160a01b039190821633036106de576040898051810103126106da57519760058910156106da5760400151818116036106d65761038c6103858261037461037e9c611591565b51169a8b95611591565b5198611591565b5188611617565b91604051868187816370a0823160e01b988982523060048301525afa9081156105315787916106ad575b508a906000958b156000146105495760065485168b8480830361053c576103ef92506103e98860075416925b8383611819565b91611713565b505b876040518094819382523060048301525afa908115610531578c916104ff575b508381106104be5783610423916115f4565b96600b5488106104875750509061043e916002541689611650565b6104755750916040917fcf1de04eaf7e052dc04d13b306241b13c50bda85b2a52e6713e866d4884f27ab938351928352820152a380f35b634e487b7160e01b8752602160045286fd5b7350726f6669742062656c6f77206d696e696d756d60601b87916014886040519462461bcd60e51b86526004860152840152820152fd5b5060405162461bcd60e51b815260048101879052601d818701527f496e73756666696369656e742062616c616e636520746f20726570617900000081890152fd5b90508681813d831161052a575b61051681836114f9565b81010312610525575138610411565b600080fd5b503d61050c565b6040513d8e823e3d90fd5b6103e96103ef93926103e2565b91505060018a03610595576006548b91889185168b8482810361058857610582925061057c8860075416925b8383611713565b91611819565b506103f1565b61057c6105829392610575565b92919099959a9698949793506002851460001461061e5760405162461bcd60e51b8152600481018c90526041818a01527f4675746172636879206d65726765206e6f742079657420696d706c656d656e74818b01527f6564202d206e65656473205945532f4e4f20746f6b656e206164647265737365818c0152607360f81b608482015260a490fd5b9091929693979599949860009360038a1461063b57868b916103f1565b60405162461bcd60e51b8152600481018890526041818801527f46757461726368792073706c6974206e6f742079657420696d706c656d656e74818a01527f6564202d206e65656473205945532f4e4f20746f6b656e20616464726573736581840152607360f81b608482015260a490fd5b813d83116106cf575b6106c081836114f9565b810103126105255785386103b6565b503d6106b6565b8980fd5b8a80fd5b60405162461bcd60e51b8152600481018790526013818701527213db9b1e4810985b185b98d95c8815985d5b1d606a1b818901528390fd5b8280fd5b83634e487b7160e01b60005260416004526000fd5b8780fd5b8580fd5b81356001600160a01b0381168103610756578152908401908401610293565b8880fd5b503461019b57602036600319011261019b577ff65c1c942037215826383c2092043ca15aa3e8927c39dc5d5d3f0e6190c2a61d6080610797611463565b61079f611624565b60018060a01b0316806001600160601b0360a01b60035416176003556040519060408252600b60408301526a39bbb0b8392937baba32b960a91b60608301526020820152a180f35b503461019b578060031936011261019b576020600854604051908152f35b503461019b57602036600319011261019b577f2f987c69600c7f43198d04b77e073010cfbc33a77c546ec849df4cfb628187976020600435610845611624565b80600855604051908152a180f35b503461019b578060031936011261019b576005546040516001600160a01b039091168152602090f35b503461019b578060031936011261019b576006546040516001600160a01b039091168152602090f35b503461019b578060031936011261019b57546040516001600160a01b039091168152602090f35b503461019b578060031936011261019b576108e5611624565b600080546001600160a01b0319811682556001600160a01b03167f8be0079c531659141344cd1fd0a4f28419497f9722a3daafe3b4186f6b6457e08280a380f35b503461019b578060031936011261019b576007546040516001600160a01b039091168152602090f35b503461019b57602036600319011261019b577ff65c1c942037215826383c2092043ca15aa3e8927c39dc5d5d3f0e6190c2a61d608061098c611463565b610994611624565b60018060a01b0316806001600160601b0360a01b60045416176004556040519060408252600e60408301526d333aba30b931b43ca937baba32b960911b60608301526020820152a180f35b503461019b578060031936011261019b5760018060a01b039081600254169080600854602460405180958193631f29a8cd60e31b835260048301525afa908115610b955780928192610a84575b506040519260408401906040855280518092526060850195602080920193905b838210610a6b578680610a678a898382036020850152611479565b0390f35b8451811688529682019693820193600190910190610a4c565b925090503d8082843e610a9781846114f9565b820191606081840312610b915780516001600160401b0390818111610b715782019084601f83011215610b7157815192602092610ad38561151a565b94610ae160405196876114f9565b808652848087019160051b8301019188831161072f578501905b828210610b795750505082810151918211610b7557019380601f86011215610b71578451610b288161151a565b95610b3660405197886114f9565b818752838088019260051b820101928311610733578301905b828210610b625750505050919038610a2c565b81518152908301908301610b4f565b8380fd5b8480fd5b81518a81168103610756578152908501908501610afb565b5080fd5b604051903d90823e3d90fd5b503461019b578060031936011261019b576003546040516001600160a01b039091168152602090f35b503461019b57606036600319011261019b57610be4611463565b6001600160a01b039060243582811690819003610525576044359280841680940361052557610c11611624565b6001600160601b0360a01b9216826005541617600555816006541617600655600754161760075580f35b503461019b578060031936011261019b57610c54611624565b60065481906001600160a01b03908290821680610dbe575b50816007541680610cf7575b5050806005541680610c88575050f35b604460209260045416604051948593849263095ea7b360e01b8452600484015260001960248401525af18015610cec57610cc0575080f35b610ce19060203d602011610ce5575b610cd981836114f9565b810190611693565b5080f35b503d610ccf565b6040513d84823e3d90fd5b82600254166040519063095ea7b360e01b908183526004830152600019928360248401528260448160209788945af1918215610db3578492610d96575b5060448560075416918787600354169360405196879586948552600485015260248401525af18015610d8b57610d6d575b839150610c78565b81610d8392903d10610ce557610cd981836114f9565b503880610d65565b6040513d86823e3d90fd5b610dac90833d8511610ce557610cd981836114f9565b5038610d34565b6040513d88823e3d90fd5b82600254166040519063095ea7b360e01b908183526004830152600019928360248401528260448160209788945af1918215610db3578492610e52575b5060448560065416918787600354169360405196879586948552600485015260248401525af18015610d8b57610e34575b839150610c6c565b81610e4a92903d10610ce557610cd981836114f9565b503880610e2c565b610e6890833d8511610ce557610cd981836114f9565b5038610dfb565b503461019b5760a036600319011261019b57610e89611463565b60056044351015610b91576064356001600160a01b03811681036107165760843590610eb3611624565b6002600154146112d55760026001556040516370a0823160e01b8152306004820152916020836024816001600160a01b0388165afa9283156112ca578593611296575b5060405190610f04826114ad565b85825260405160a081018181106001600160401b038211176112825760409081526044358083526001600160a01b0386166020840152602435918301829052606083018490526080909201849052600980546001600160a81b03191660ff90931692909217600886901b610100600160a81b031617909155600a55600b558051906001600160401b03821161126e5768010000000000000000821161126e57600c5482600c5580831061122d575b50602001600c8652855b8281106111f057505050604051610fd2816114de565b60018152602036818301376001600160a01b038416610ff082611591565b5260405190610ffe826114de565b600182526020368184013760243561101583611591565b526002546040805160443560208201526001600160a01b03958616818301529081529316906001600160401b0360608501908111908511176111dc5760608401604052813b156111d85790869291632e1c224f60e11b606086015260e4850130606487015260806084870152815180915260206101048701920190855b8181106111b6575050506110b39060631993848783030160a4880152611479565b918483030160c48501526060840191846110d0605f1992826115b4565b0301908360608601915af18015610d8b57611181575b506040516370a0823160e01b8152306004820152906020826024816001600160a01b0387165afa8015610d8b57849061114d575b61112492506115f4565b80611132575b826001805580f35b6111469133906001600160a01b0316611650565b388061112a565b506020823d602011611179575b81611167602093836114f9565b8101031261052557611124915161111a565b3d915061115a565b6001600160401b0360608295939501116111a25760600160405291386110e6565b634e487b7160e01b82526041600452602482fd5b82516001600160a01b031684528a965060209384019390920191600101611092565b8680fd5b634e487b7160e01b87526041600452602487fd5b81516001600160a01b03167fdf6966c971051c3d54ec59162606531493a51404a002842f56009d7e5cf4a8c7820155602090910190600101610fbc565b7fdf6966c971051c3d54ec59162606531493a51404a002842f56009d7e5cf4a8c7908382015b8183018110611263575050610fb2565b888155600101611253565b634e487b7160e01b86526041600452602486fd5b634e487b7160e01b88526041600452602488fd5b9092506020813d6020116112c2575b816112b2602093836114f9565b81010312610b7557519138610ef6565b3d91506112a5565b6040513d87823e3d90fd5b604051633ee5aeb560e01b8152600490fd5b503461019b578060031936011261019b576002546040516001600160a01b039091168152602090f35b503461019b578060031936011261019b576004546040516001600160a01b039091168152602090f35b503461019b57604036600319011261019b577f46d2e6e71fc567877b817ff3d940571f989d4ee4d40f2b70806d36e738feef6f611374611463565b60243590611380611624565b61139482336001600160a01b038416611650565b604080516001600160a01b039290921682526020820192909252a180f35b503461019b57602036600319011261019b576113cc611463565b6113d4611624565b6040516370a0823160e01b81523060048201526001600160a01b039190911690602081602481855afa908115611458578391611426575b5080611415578280f35b611420913390611650565b38808280f35b90506020813d602011611450575b81611441602093836114f9565b8101031261071657513861140b565b3d9150611434565b6040513d85823e3d90fd5b600435906001600160a01b038216820361052557565b90815180825260208080930193019160005b828110611499575050505090565b83518552938101939281019260010161148b565b602081019081106001600160401b038211176114c857604052565b634e487b7160e01b600052604160045260246000fd5b604081019081106001600160401b038211176114c857604052565b90601f801991011681019081106001600160401b038211176114c857604052565b6001600160401b0381116114c85760051b60200190565b9080601f8301121561052557602090823561154b8161151a565b9361155960405195866114f9565b81855260208086019260051b82010192831161052557602001905b828210611582575050505090565b81358152908301908301611574565b80511561159e5760200190565b634e487b7160e01b600052603260045260246000fd5b919082519283825260005b8481106115e0575050826000602080949584010152601f8019910116010190565b6020818301810151848301820152016115bf565b9190820391821161160157565b634e487b7160e01b600052601160045260246000fd5b9190820180921161160157565b6000546001600160a01b0316330361163857565b60405163118cdaa760e01b8152336004820152602490fd5b60405163a9059cbb60e01b60208201526001600160a01b039290921660248301526044808301939093529181526116919161168c6064836114f9565b6116ab565b565b90816020910312610525575180151581036105255790565b906000602091828151910182855af115611707576000513d6116fe57506001600160a01b0381163b155b6116dc5750565b604051635274afe760e01b81526001600160a01b039091166004820152602490fd5b600114156116d5565b6040513d6000823e3d90fd5b6003546001600160a01b0391821691906117319085908316846119ef565b60405160e08101908082106001600160401b038311176114c85760209360e4926040528152828482019516855260408101953087526060820196428852608083019182528460a08401986000998a9485825260c087019286845284806003541696816040519e8f9d8e9c8d63178ca23160e31b9052511660048d0152511660248b0152511660448901525160648801525160848701525160a4860152511660c48401525af1918215610b955780926117e857505090565b9091506020823d602011611811575b81611804602093836114f9565b8101031261019b57505190565b3d91506117f7565b6002546001600160a01b03939291841691906118399084908616846119ef565b6008549060409485519160c08301936001600160401b0394848110868211176114c85788528352602094858401916000978884528986019283528460608701921682526080860190815289519161188f836114ad565b89835260a087019283528a519760808901908111898210176119db57918b9795939160e49b9a999795938952308852898801938b85528989019530875260608a01988d8a5288600254169b519e8f916352bbbe2960e01b835260e06004840152519101525160028110156119c75794876119478f9b968f9994968f9e9c979b80978f9d82908f9d6101048f015251166101248d015251166101448b0152516101648a01525160c06101848a01526101a48901906115b4565b955116602487015251151560448601525116606484015251151560848301528260a48301524260c483015203925af19384156119bc5750819361198b575b50505090565b9091809350813d83116119b5575b6119a381836114f9565b8101031261019b575051388080611985565b503d611999565b51913d9150823e3d90fd5b634e487b7160e01b8d52602160045260248dfd5b634e487b7160e01b8b52604160045260248bfd5b604051636eb1769f60e11b81523060048201526001600160a01b038381166024830181905260209591841694909290918682604481895afa801561170757600090611b0a575b611a3f9250611617565b60405163095ea7b360e01b8782018181526001600160a01b039490941660248301526044808301939093529181529490918690600090611a806064896114f9565b87519082885af1903d6000519083611aeb575b50505015611aa3575b5050505050565b6040519485015260248401526000604484015260448352608083018381106001600160401b038211176114c857611ae19361168c91604052826116ab565b3880808080611a9c565b91925090611b0057503b15155b388080611a93565b6001915014611af8565b508682813d8311611b32575b611b2081836114f9565b8101031261052557611a3f9151611a35565b503d611b1656fea264697066735822122014d30b4d470fe51731cb0125fde79ef04813592d0013298b7db2280530008b9564736f6c63430008180033","opcodes":"PUSH1 0x80 PUSH1 0x40 SWAP1 DUP1 DUP3 MSTORE CALLVALUE PUSH3 0x36E JUMPI PUSH1 0xE0 DUP2 PUSH3 0x1F4C DUP1 CODESIZE SUB DUP1 SWAP2 PUSH3 0x25 DUP3 DUP6 PUSH3 0x373 JUMP JUMPDEST DUP4 CODECOPY DUP2 ADD SUB SLT PUSH3 0x36E JUMPI PUSH3 0x3B DUP2 PUSH3 0x3AD JUMP JUMPDEST SWAP1 PUSH1 0x20 SWAP2 PUSH3 0x4C DUP4 DUP4 ADD PUSH3 0x3AD JUMP JUMPDEST SWAP2 PUSH3 0x5A DUP6 DUP3 ADD PUSH3 0x3AD JUMP JUMPDEST SWAP1 PUSH3 0x69 PUSH1 0x60 DUP3 ADD PUSH3 0x3AD JUMP JUMPDEST SWAP4 PUSH3 0x78 PUSH1 0x80 DUP4 ADD PUSH3 0x3AD JUMP JUMPDEST PUSH1 0xC0 PUSH3 0x88 PUSH1 0xA0 DUP6 ADD PUSH3 0x3AD JUMP JUMPDEST SWAP4 ADD MLOAD CALLER ISZERO PUSH3 0x356 JUMPI DUP9 PUSH1 0x0 SWAP7 DUP8 SWAP4 DUP5 SLOAD SWAP1 PUSH1 0x1 DUP1 PUSH1 0xA0 SHL SUB DUP1 SWAP12 DUP2 SWAP11 DUP3 DUP1 DUP1 SWAP8 DUP2 SWAP8 PUSH1 0x1 DUP1 PUSH1 0xA0 SHL SUB NOT SWAP11 DUP14 CALLER DUP14 DUP5 AND OR SWAP1 SSTORE MLOAD SWAP13 PUSH32 0x8BE0079C531659141344CD1FD0A4F28419497F9722A3DAAFE3B4186F6B6457E0 DUP5 CALLER SWAP4 AND SWAP2 DUP1 LOG3 PUSH1 0x1 DUP1 SSTORE AND SWAP11 DUP12 DUP10 PUSH1 0x2 SLOAD AND OR PUSH1 0x2 SSTORE AND DUP8 PUSH1 0x3 SLOAD AND OR PUSH1 0x3 SSTORE DUP7 PUSH1 0x4 SWAP15 DUP16 SWAP3 AND SWAP2 SLOAD AND OR DUP14 SSTORE AND DUP5 PUSH1 0x5 SLOAD AND OR PUSH1 0x5 SSTORE AND SWAP6 DUP7 DUP4 PUSH1 0x6 SLOAD AND OR PUSH1 0x6 SSTORE AND SWAP1 PUSH1 0x7 SLOAD AND OR PUSH1 0x7 SSTORE PUSH1 0x8 SSTORE DUP3 PUSH3 0x2A6 JUMPI JUMPDEST POP POP POP DUP1 PUSH1 0x7 SLOAD AND DUP1 PUSH3 0x1E3 JUMPI JUMPDEST POP DUP1 PUSH1 0x5 SLOAD AND SWAP3 DUP4 PUSH3 0x164 JUMPI JUMPDEST DUP6 MLOAD PUSH2 0x1B6F SWAP1 DUP2 PUSH3 0x3DD DUP3 CODECOPY RETURN JUMPDEST PUSH1 0x44 DUP6 SWAP3 DUP3 SLOAD AND SWAP2 DUP5 DUP9 MLOAD SWAP7 DUP8 SWAP5 DUP6 SWAP4 PUSH4 0x95EA7B3 PUSH1 0xE0 SHL DUP6 MSTORE DUP5 ADD MSTORE PUSH1 0x0 NOT PUSH1 0x24 DUP5 ADD MSTORE GAS CALL SWAP1 DUP2 ISZERO PUSH3 0x1D8 JUMPI POP PUSH3 0x1A3 JUMPI JUMPDEST DUP1 DUP1 DUP1 PUSH3 0x155 JUMP JUMPDEST DUP2 PUSH3 0x1C7 SWAP3 SWAP1 RETURNDATASIZE LT PUSH3 0x1D0 JUMPI JUMPDEST PUSH3 0x1BE DUP2 DUP4 PUSH3 0x373 JUMP JUMPDEST DUP2 ADD SWAP1 PUSH3 0x3C2 JUMP JUMPDEST POP CODESIZE DUP1 PUSH3 0x19A JUMP JUMPDEST POP RETURNDATASIZE PUSH3 0x1B2 JUMP JUMPDEST DUP5 MLOAD SWAP1 RETURNDATASIZE SWAP1 DUP3 RETURNDATACOPY RETURNDATASIZE SWAP1 REVERT JUMPDEST DUP2 PUSH1 0x2 SLOAD AND DUP7 MLOAD PUSH4 0x95EA7B3 PUSH1 0xE0 SHL SWAP2 DUP3 DUP3 MSTORE DUP7 DUP3 ADD MSTORE DUP7 DUP2 PUSH1 0x44 DUP2 DUP9 PUSH1 0x0 NOT SWAP8 DUP9 PUSH1 0x24 DUP5 ADD MSTORE GAS CALL DUP1 ISZERO PUSH3 0x29C JUMPI SWAP1 DUP8 SWAP3 SWAP2 PUSH3 0x27A JUMPI JUMPDEST POP PUSH1 0x44 DUP5 PUSH1 0x7 SLOAD AND SWAP2 DUP7 DUP7 PUSH1 0x3 SLOAD AND SWAP4 DUP12 MLOAD SWAP7 DUP8 SWAP6 DUP7 SWAP5 DUP6 MSTORE DUP12 DUP6 ADD MSTORE PUSH1 0x24 DUP5 ADD MSTORE GAS CALL DUP1 ISZERO PUSH3 0x270 JUMPI ISZERO PUSH3 0x147 JUMPI PUSH3 0x268 SWAP1 DUP6 RETURNDATASIZE DUP8 GT PUSH3 0x1D0 JUMPI PUSH3 0x1BE DUP2 DUP4 PUSH3 0x373 JUMP JUMPDEST POP CODESIZE PUSH3 0x147 JUMP JUMPDEST DUP7 MLOAD RETURNDATASIZE DUP6 DUP3 RETURNDATACOPY RETURNDATASIZE SWAP1 REVERT JUMPDEST PUSH3 0x294 SWAP1 DUP4 RETURNDATASIZE DUP6 GT PUSH3 0x1D0 JUMPI PUSH3 0x1BE DUP2 DUP4 PUSH3 0x373 JUMP JUMPDEST POP CODESIZE PUSH3 0x21D JUMP JUMPDEST DUP9 MLOAD RETURNDATASIZE DUP8 DUP3 RETURNDATACOPY RETURNDATASIZE SWAP1 REVERT JUMPDEST PUSH4 0x95EA7B3 PUSH1 0xE0 SHL SWAP2 DUP3 DUP3 MSTORE DUP7 DUP3 ADD MSTORE DUP7 DUP2 PUSH1 0x44 DUP2 DUP9 PUSH1 0x0 NOT SWAP8 DUP9 PUSH1 0x24 DUP5 ADD MSTORE GAS CALL DUP1 ISZERO PUSH3 0x29C JUMPI SWAP1 DUP8 SWAP3 SWAP2 PUSH3 0x334 JUMPI JUMPDEST POP PUSH1 0x44 DUP5 PUSH1 0x6 SLOAD AND SWAP2 DUP7 DUP7 PUSH1 0x3 SLOAD AND SWAP4 DUP12 MLOAD SWAP7 DUP8 SWAP6 DUP7 SWAP5 DUP6 MSTORE DUP12 DUP6 ADD MSTORE PUSH1 0x24 DUP5 ADD MSTORE GAS CALL DUP1 ISZERO PUSH3 0x270 JUMPI PUSH3 0x312 JUMPI JUMPDEST DUP1 DUP1 PUSH3 0x138 JUMP JUMPDEST PUSH3 0x32C SWAP1 DUP6 RETURNDATASIZE DUP8 GT PUSH3 0x1D0 JUMPI PUSH3 0x1BE DUP2 DUP4 PUSH3 0x373 JUMP JUMPDEST POP CODESIZE PUSH3 0x30A JUMP JUMPDEST PUSH3 0x34E SWAP1 DUP4 RETURNDATASIZE DUP6 GT PUSH3 0x1D0 JUMPI PUSH3 0x1BE DUP2 DUP4 PUSH3 0x373 JUMP JUMPDEST POP CODESIZE PUSH3 0x2D9 JUMP JUMPDEST DUP9 MLOAD PUSH4 0x1E4FBDF7 PUSH1 0xE0 SHL DUP2 MSTORE PUSH1 0x0 PUSH1 0x4 DUP3 ADD MSTORE PUSH1 0x24 SWAP1 REVERT JUMPDEST PUSH1 0x0 DUP1 REVERT JUMPDEST PUSH1 0x1F SWAP1 SWAP2 ADD PUSH1 0x1F NOT AND DUP2 ADD SWAP1 PUSH1 0x1 PUSH1 0x1 PUSH1 0x40 SHL SUB DUP3 GT SWAP1 DUP3 LT OR PUSH3 0x397 JUMPI PUSH1 0x40 MSTORE JUMP JUMPDEST PUSH4 0x4E487B71 PUSH1 0xE0 SHL PUSH1 0x0 MSTORE PUSH1 0x41 PUSH1 0x4 MSTORE PUSH1 0x24 PUSH1 0x0 REVERT JUMPDEST MLOAD SWAP1 PUSH1 0x1 PUSH1 0x1 PUSH1 0xA0 SHL SUB DUP3 AND DUP3 SUB PUSH3 0x36E JUMPI JUMP JUMPDEST SWAP1 DUP2 PUSH1 0x20 SWAP2 SUB SLT PUSH3 0x36E JUMPI MLOAD DUP1 ISZERO ISZERO DUP2 SUB PUSH3 0x36E JUMPI SWAP1 JUMP INVALID PUSH1 0x80 PUSH1 0x40 MSTORE PUSH1 0x4 CALLDATASIZE LT ISZERO PUSH2 0x1B JUMPI JUMPDEST CALLDATASIZE ISZERO PUSH2 0x19 JUMPI PUSH1 0x0 DUP1 REVERT JUMPDEST STOP JUMPDEST PUSH1 0x0 DUP1 CALLDATALOAD PUSH1 0xE0 SHR DUP1 PUSH3 0x362A77 EQ PUSH2 0x13B2 JUMPI DUP1 PUSH4 0x69C9FAE EQ PUSH2 0x1339 JUMPI DUP1 PUSH4 0xDB188B1 EQ PUSH2 0x1310 JUMPI DUP1 PUSH4 0x158274A5 EQ PUSH2 0x12E7 JUMPI DUP1 PUSH4 0x3FD0B3BF EQ PUSH2 0xE6F JUMPI DUP1 PUSH4 0x43D57A64 EQ PUSH2 0xC3B JUMPI DUP1 PUSH4 0x443BE209 EQ PUSH2 0xBCA JUMPI DUP1 PUSH4 0x4AD74299 EQ PUSH2 0xBA1 JUMPI DUP1 PUSH4 0x5360E6B9 EQ PUSH2 0x9DF JUMPI DUP1 PUSH4 0x54A754E1 EQ PUSH2 0x94F JUMPI DUP1 PUSH4 0x5BDDD2DC EQ PUSH2 0x926 JUMPI DUP1 PUSH4 0x715018A6 EQ PUSH2 0x8CC JUMPI DUP1 PUSH4 0x8DA5CB5B EQ PUSH2 0x8A5 JUMPI DUP1 PUSH4 0xAEDA99EF EQ PUSH2 0x87C JUMPI DUP1 PUSH4 0xC61F2184 EQ PUSH2 0x853 JUMPI DUP1 PUSH4 0xC83E4135 EQ PUSH2 0x805 JUMPI DUP1 PUSH4 0xDBBB64B9 EQ PUSH2 0x7E7 JUMPI DUP1 PUSH4 0xE33AD754 EQ PUSH2 0x75A JUMPI DUP1 PUSH4 0xF04F2707 EQ PUSH2 0x229 JUMPI DUP1 PUSH4 0xF2FDE38B EQ PUSH2 0x19E JUMPI PUSH4 0xF8C46452 EQ PUSH2 0x10D JUMPI POP PUSH2 0xE JUMP JUMPDEST CALLVALUE PUSH2 0x19B JUMPI PUSH1 0x20 CALLDATASIZE PUSH1 0x3 NOT ADD SLT PUSH2 0x19B JUMPI PUSH32 0xF65C1C942037215826383C2092043CA15AA3E8927C39DC5D5D3F0E6190C2A61D PUSH1 0x80 PUSH2 0x149 PUSH2 0x1463 JUMP JUMPDEST PUSH2 0x151 PUSH2 0x1624 JUMP JUMPDEST PUSH1 0x1 DUP1 PUSH1 0xA0 SHL SUB AND DUP1 PUSH1 0x1 PUSH1 0x1 PUSH1 0x60 SHL SUB PUSH1 0xA0 SHL PUSH1 0x2 SLOAD AND OR PUSH1 0x2 SSTORE PUSH1 0x40 MLOAD SWAP1 PUSH1 0x40 DUP3 MSTORE PUSH1 0xD PUSH1 0x40 DUP4 ADD MSTORE PUSH13 0x18985B185B98D95C95985D5B1D PUSH1 0x9A SHL PUSH1 0x60 DUP4 ADD MSTORE PUSH1 0x20 DUP3 ADD MSTORE LOG1 DUP1 RETURN JUMPDEST DUP1 REVERT JUMPDEST POP CALLVALUE PUSH2 0x19B JUMPI PUSH1 0x20 CALLDATASIZE PUSH1 0x3 NOT ADD SLT PUSH2 0x19B JUMPI PUSH2 0x1B8 PUSH2 0x1463 JUMP JUMPDEST PUSH2 0x1C0 PUSH2 0x1624 JUMP JUMPDEST PUSH1 0x1 PUSH1 0x1 PUSH1 0xA0 SHL SUB SWAP1 DUP2 AND SWAP1 DUP2 ISZERO PUSH2 0x210 JUMPI PUSH1 0x0 SLOAD DUP3 PUSH1 0x1 PUSH1 0x1 PUSH1 0x60 SHL SUB PUSH1 0xA0 SHL DUP3 AND OR PUSH1 0x0 SSTORE AND PUSH32 0x8BE0079C531659141344CD1FD0A4F28419497F9722A3DAAFE3B4186F6B6457E0 PUSH1 0x0 DUP1 LOG3 DUP1 RETURN JUMPDEST PUSH1 0x40 MLOAD PUSH4 0x1E4FBDF7 PUSH1 0xE0 SHL DUP2 MSTORE PUSH1 0x4 DUP2 ADD DUP5 SWAP1 MSTORE PUSH1 0x24 SWAP1 REVERT JUMPDEST POP CALLVALUE PUSH2 0x19B JUMPI PUSH1 0x80 CALLDATASIZE PUSH1 0x3 NOT ADD SLT PUSH2 0x19B JUMPI PUSH1 0x4 CALLDATALOAD PUSH1 0x1 PUSH1 0x1 PUSH1 0x40 SHL SUB DUP1 DUP3 GT PUSH2 0x716 JUMPI CALLDATASIZE PUSH1 0x23 DUP4 ADD SLT ISZERO PUSH2 0x716 JUMPI DUP2 PUSH1 0x4 ADD CALLDATALOAD PUSH1 0x24 PUSH2 0x268 DUP3 PUSH2 0x151A JUMP JUMPDEST SWAP4 PUSH2 0x276 PUSH1 0x40 MLOAD SWAP6 DUP7 PUSH2 0x14F9 JUMP JUMPDEST DUP3 DUP6 MSTORE PUSH1 0x20 SWAP3 DUP3 DUP5 DUP8 ADD SWAP2 PUSH1 0x5 SHL DUP4 ADD ADD SWAP2 CALLDATASIZE DUP4 GT PUSH2 0x72F JUMPI DUP4 ADD SWAP1 JUMPDEST DUP3 DUP3 LT PUSH2 0x737 JUMPI POP POP POP DUP1 CALLDATALOAD DUP4 DUP2 GT PUSH2 0x733 JUMPI PUSH2 0x2B4 SWAP1 CALLDATASIZE SWAP1 PUSH1 0x4 ADD PUSH2 0x1531 JUMP JUMPDEST SWAP2 PUSH1 0x44 SWAP2 DUP3 CALLDATALOAD DUP6 DUP2 GT PUSH2 0x72F JUMPI PUSH2 0x2CF SWAP1 CALLDATASIZE SWAP1 PUSH1 0x4 ADD PUSH2 0x1531 JUMP JUMPDEST SWAP4 PUSH1 0x64 DUP1 CALLDATALOAD SWAP7 DUP1 DUP9 GT PUSH2 0x6D6 JUMPI CALLDATASIZE PUSH1 0x23 DUP10 ADD SLT ISZERO PUSH2 0x6D6 JUMPI DUP8 PUSH1 0x4 ADD CALLDATALOAD SWAP1 DUP2 GT PUSH2 0x71A JUMPI DUP10 PUSH1 0x40 MLOAD SWAP9 PUSH2 0x30B DUP8 PUSH1 0x1F NOT PUSH1 0x1F DUP7 ADD AND ADD DUP12 PUSH2 0x14F9 JUMP JUMPDEST DUP3 DUP11 MSTORE DUP7 DUP11 ADD SWAP3 CALLDATASIZE DUP8 DUP3 DUP5 ADD ADD GT PUSH2 0x716 JUMPI DUP1 DUP8 DUP10 SWAP4 ADD DUP6 CALLDATACOPY DUP11 ADD ADD MSTORE PUSH1 0x2 SLOAD PUSH1 0x1 PUSH1 0x1 PUSH1 0xA0 SHL SUB SWAP2 SWAP1 DUP3 AND CALLER SUB PUSH2 0x6DE JUMPI PUSH1 0x40 DUP10 DUP1 MLOAD DUP2 ADD SUB SLT PUSH2 0x6DA JUMPI MLOAD SWAP8 PUSH1 0x5 DUP10 LT ISZERO PUSH2 0x6DA JUMPI PUSH1 0x40 ADD MLOAD DUP2 DUP2 AND SUB PUSH2 0x6D6 JUMPI PUSH2 0x38C PUSH2 0x385 DUP3 PUSH2 0x374 PUSH2 0x37E SWAP13 PUSH2 0x1591 JUMP JUMPDEST MLOAD AND SWAP11 DUP12 SWAP6 PUSH2 0x1591 JUMP JUMPDEST MLOAD SWAP9 PUSH2 0x1591 JUMP JUMPDEST MLOAD DUP9 PUSH2 0x1617 JUMP JUMPDEST SWAP2 PUSH1 0x40 MLOAD DUP7 DUP2 DUP8 DUP2 PUSH4 0x70A08231 PUSH1 0xE0 SHL SWAP9 DUP10 DUP3 MSTORE ADDRESS PUSH1 0x4 DUP4 ADD MSTORE GAS STATICCALL SWAP1 DUP2 ISZERO PUSH2 0x531 JUMPI DUP8 SWAP2 PUSH2 0x6AD JUMPI JUMPDEST POP DUP11 SWAP1 PUSH1 0x0 SWAP6 DUP12 ISZERO PUSH1 0x0 EQ PUSH2 0x549 JUMPI PUSH1 0x6 SLOAD DUP6 AND DUP12 DUP5 DUP1 DUP4 SUB PUSH2 0x53C JUMPI PUSH2 0x3EF SWAP3 POP PUSH2 0x3E9 DUP9 PUSH1 0x7 SLOAD AND SWAP3 JUMPDEST DUP4 DUP4 PUSH2 0x1819 JUMP JUMPDEST SWAP2 PUSH2 0x1713 JUMP JUMPDEST POP JUMPDEST DUP8 PUSH1 0x40 MLOAD DUP1 SWAP5 DUP2 SWAP4 DUP3 MSTORE ADDRESS PUSH1 0x4 DUP4 ADD MSTORE GAS STATICCALL SWAP1 DUP2 ISZERO PUSH2 0x531 JUMPI DUP13 SWAP2 PUSH2 0x4FF JUMPI JUMPDEST POP DUP4 DUP2 LT PUSH2 0x4BE JUMPI DUP4 PUSH2 0x423 SWAP2 PUSH2 0x15F4 JUMP JUMPDEST SWAP7 PUSH1 0xB SLOAD DUP9 LT PUSH2 0x487 JUMPI POP POP SWAP1 PUSH2 0x43E SWAP2 PUSH1 0x2 SLOAD AND DUP10 PUSH2 0x1650 JUMP JUMPDEST PUSH2 0x475 JUMPI POP SWAP2 PUSH1 0x40 SWAP2 PUSH32 0xCF1DE04EAF7E052DC04D13B306241B13C50BDA85B2A52E6713E866D4884F27AB SWAP4 DUP4 MLOAD SWAP3 DUP4 MSTORE DUP3 ADD MSTORE LOG3 DUP1 RETURN JUMPDEST PUSH4 0x4E487B71 PUSH1 0xE0 SHL DUP8 MSTORE PUSH1 0x21 PUSH1 0x4 MSTORE DUP7 REVERT JUMPDEST PUSH20 0x50726F6669742062656C6F77206D696E696D756D PUSH1 0x60 SHL DUP8 SWAP2 PUSH1 0x14 DUP9 PUSH1 0x40 MLOAD SWAP5 PUSH3 0x461BCD PUSH1 0xE5 SHL DUP7 MSTORE PUSH1 0x4 DUP7 ADD MSTORE DUP5 ADD MSTORE DUP3 ADD MSTORE REVERT JUMPDEST POP PUSH1 0x40 MLOAD PUSH3 0x461BCD PUSH1 0xE5 SHL DUP2 MSTORE PUSH1 0x4 DUP2 ADD DUP8 SWAP1 MSTORE PUSH1 0x1D DUP2 DUP8 ADD MSTORE PUSH32 0x496E73756666696369656E742062616C616E636520746F207265706179000000 DUP2 DUP10 ADD MSTORE REVERT JUMPDEST SWAP1 POP DUP7 DUP2 DUP2 RETURNDATASIZE DUP4 GT PUSH2 0x52A JUMPI JUMPDEST PUSH2 0x516 DUP2 DUP4 PUSH2 0x14F9 JUMP JUMPDEST DUP2 ADD SUB SLT PUSH2 0x525 JUMPI MLOAD CODESIZE PUSH2 0x411 JUMP JUMPDEST PUSH1 0x0 DUP1 REVERT JUMPDEST POP RETURNDATASIZE PUSH2 0x50C JUMP JUMPDEST PUSH1 0x40 MLOAD RETURNDATASIZE DUP15 DUP3 RETURNDATACOPY RETURNDATASIZE SWAP1 REVERT JUMPDEST PUSH2 0x3E9 PUSH2 0x3EF SWAP4 SWAP3 PUSH2 0x3E2 JUMP JUMPDEST SWAP2 POP POP PUSH1 0x1 DUP11 SUB PUSH2 0x595 JUMPI PUSH1 0x6 SLOAD DUP12 SWAP2 DUP9 SWAP2 DUP6 AND DUP12 DUP5 DUP3 DUP2 SUB PUSH2 0x588 JUMPI PUSH2 0x582 SWAP3 POP PUSH2 0x57C DUP9 PUSH1 0x7 SLOAD AND SWAP3 JUMPDEST DUP4 DUP4 PUSH2 0x1713 JUMP JUMPDEST SWAP2 PUSH2 0x1819 JUMP JUMPDEST POP PUSH2 0x3F1 JUMP JUMPDEST PUSH2 0x57C PUSH2 0x582 SWAP4 SWAP3 PUSH2 0x575 JUMP JUMPDEST SWAP3 SWAP2 SWAP1 SWAP10 SWAP6 SWAP11 SWAP7 SWAP9 SWAP5 SWAP8 SWAP4 POP PUSH1 0x2 DUP6 EQ PUSH1 0x0 EQ PUSH2 0x61E JUMPI PUSH1 0x40 MLOAD PUSH3 0x461BCD PUSH1 0xE5 SHL DUP2 MSTORE PUSH1 0x4 DUP2 ADD DUP13 SWAP1 MSTORE PUSH1 0x41 DUP2 DUP11 ADD MSTORE PUSH32 0x4675746172636879206D65726765206E6F742079657420696D706C656D656E74 DUP2 DUP12 ADD MSTORE PUSH32 0x6564202D206E65656473205945532F4E4F20746F6B656E206164647265737365 DUP2 DUP13 ADD MSTORE PUSH1 0x73 PUSH1 0xF8 SHL PUSH1 0x84 DUP3 ADD MSTORE PUSH1 0xA4 SWAP1 REVERT JUMPDEST SWAP1 SWAP2 SWAP3 SWAP7 SWAP4 SWAP8 SWAP6 SWAP10 SWAP5 SWAP9 PUSH1 0x0 SWAP4 PUSH1 0x3 DUP11 EQ PUSH2 0x63B JUMPI DUP7 DUP12 SWAP2 PUSH2 0x3F1 JUMP JUMPDEST PUSH1 0x40 MLOAD PUSH3 0x461BCD PUSH1 0xE5 SHL DUP2 MSTORE PUSH1 0x4 DUP2 ADD DUP9 SWAP1 MSTORE PUSH1 0x41 DUP2 DUP9 ADD MSTORE PUSH32 0x46757461726368792073706C6974206E6F742079657420696D706C656D656E74 DUP2 DUP11 ADD MSTORE PUSH32 0x6564202D206E65656473205945532F4E4F20746F6B656E206164647265737365 DUP2 DUP5 ADD MSTORE PUSH1 0x73 PUSH1 0xF8 SHL PUSH1 0x84 DUP3 ADD MSTORE PUSH1 0xA4 SWAP1 REVERT JUMPDEST DUP2 RETURNDATASIZE DUP4 GT PUSH2 0x6CF JUMPI JUMPDEST PUSH2 0x6C0 DUP2 DUP4 PUSH2 0x14F9 JUMP JUMPDEST DUP2 ADD SUB SLT PUSH2 0x525 JUMPI DUP6 CODESIZE PUSH2 0x3B6 JUMP JUMPDEST POP RETURNDATASIZE PUSH2 0x6B6 JUMP JUMPDEST DUP10 DUP1 REVERT JUMPDEST DUP11 DUP1 REVERT JUMPDEST PUSH1 0x40 MLOAD PUSH3 0x461BCD PUSH1 0xE5 SHL DUP2 MSTORE PUSH1 0x4 DUP2 ADD DUP8 SWAP1 MSTORE PUSH1 0x13 DUP2 DUP8 ADD MSTORE PUSH19 0x13DB9B1E4810985B185B98D95C8815985D5B1D PUSH1 0x6A SHL DUP2 DUP10 ADD MSTORE DUP4 SWAP1 REVERT JUMPDEST DUP3 DUP1 REVERT JUMPDEST DUP4 PUSH4 0x4E487B71 PUSH1 0xE0 SHL PUSH1 0x0 MSTORE PUSH1 0x41 PUSH1 0x4 MSTORE PUSH1 0x0 REVERT JUMPDEST DUP8 DUP1 REVERT JUMPDEST DUP6 DUP1 REVERT JUMPDEST DUP2 CALLDATALOAD PUSH1 0x1 PUSH1 0x1 PUSH1 0xA0 SHL SUB DUP2 AND DUP2 SUB PUSH2 0x756 JUMPI DUP2 MSTORE SWAP1 DUP5 ADD SWAP1 DUP5 ADD PUSH2 0x293 JUMP JUMPDEST DUP9 DUP1 REVERT JUMPDEST POP CALLVALUE PUSH2 0x19B JUMPI PUSH1 0x20 CALLDATASIZE PUSH1 0x3 NOT ADD SLT PUSH2 0x19B JUMPI PUSH32 0xF65C1C942037215826383C2092043CA15AA3E8927C39DC5D5D3F0E6190C2A61D PUSH1 0x80 PUSH2 0x797 PUSH2 0x1463 JUMP JUMPDEST PUSH2 0x79F PUSH2 0x1624 JUMP JUMPDEST PUSH1 0x1 DUP1 PUSH1 0xA0 SHL SUB AND DUP1 PUSH1 0x1 PUSH1 0x1 PUSH1 0x60 SHL SUB PUSH1 0xA0 SHL PUSH1 0x3 SLOAD AND OR PUSH1 0x3 SSTORE PUSH1 0x40 MLOAD SWAP1 PUSH1 0x40 DUP3 MSTORE PUSH1 0xB PUSH1 0x40 DUP4 ADD MSTORE PUSH11 0x39BBB0B8392937BABA32B9 PUSH1 0xA9 SHL PUSH1 0x60 DUP4 ADD MSTORE PUSH1 0x20 DUP3 ADD MSTORE LOG1 DUP1 RETURN JUMPDEST POP CALLVALUE PUSH2 0x19B JUMPI DUP1 PUSH1 0x3 NOT CALLDATASIZE ADD SLT PUSH2 0x19B JUMPI PUSH1 0x20 PUSH1 0x8 SLOAD PUSH1 0x40 MLOAD SWAP1 DUP2 MSTORE RETURN JUMPDEST POP CALLVALUE PUSH2 0x19B JUMPI PUSH1 0x20 CALLDATASIZE PUSH1 0x3 NOT ADD SLT PUSH2 0x19B JUMPI PUSH32 0x2F987C69600C7F43198D04B77E073010CFBC33A77C546EC849DF4CFB62818797 PUSH1 0x20 PUSH1 0x4 CALLDATALOAD PUSH2 0x845 PUSH2 0x1624 JUMP JUMPDEST DUP1 PUSH1 0x8 SSTORE PUSH1 0x40 MLOAD SWAP1 DUP2 MSTORE LOG1 DUP1 RETURN JUMPDEST POP CALLVALUE PUSH2 0x19B JUMPI DUP1 PUSH1 0x3 NOT CALLDATASIZE ADD SLT PUSH2 0x19B JUMPI PUSH1 0x5 SLOAD PUSH1 0x40 MLOAD PUSH1 0x1 PUSH1 0x1 PUSH1 0xA0 SHL SUB SWAP1 SWAP2 AND DUP2 MSTORE PUSH1 0x20 SWAP1 RETURN JUMPDEST POP CALLVALUE PUSH2 0x19B JUMPI DUP1 PUSH1 0x3 NOT CALLDATASIZE ADD SLT PUSH2 0x19B JUMPI PUSH1 0x6 SLOAD PUSH1 0x40 MLOAD PUSH1 0x1 PUSH1 0x1 PUSH1 0xA0 SHL SUB SWAP1 SWAP2 AND DUP2 MSTORE PUSH1 0x20 SWAP1 RETURN JUMPDEST POP CALLVALUE PUSH2 0x19B JUMPI DUP1 PUSH1 0x3 NOT CALLDATASIZE ADD SLT PUSH2 0x19B JUMPI SLOAD PUSH1 0x40 MLOAD PUSH1 0x1 PUSH1 0x1 PUSH1 0xA0 SHL SUB SWAP1 SWAP2 AND DUP2 MSTORE PUSH1 0x20 SWAP1 RETURN JUMPDEST POP CALLVALUE PUSH2 0x19B JUMPI DUP1 PUSH1 0x3 NOT CALLDATASIZE ADD SLT PUSH2 0x19B JUMPI PUSH2 0x8E5 PUSH2 0x1624 JUMP JUMPDEST PUSH1 0x0 DUP1 SLOAD PUSH1 0x1 PUSH1 0x1 PUSH1 0xA0 SHL SUB NOT DUP2 AND DUP3 SSTORE PUSH1 0x1 PUSH1 0x1 PUSH1 0xA0 SHL SUB AND PUSH32 0x8BE0079C531659141344CD1FD0A4F28419497F9722A3DAAFE3B4186F6B6457E0 DUP3 DUP1 LOG3 DUP1 RETURN JUMPDEST POP CALLVALUE PUSH2 0x19B JUMPI DUP1 PUSH1 0x3 NOT CALLDATASIZE ADD SLT PUSH2 0x19B JUMPI PUSH1 0x7 SLOAD PUSH1 0x40 MLOAD PUSH1 0x1 PUSH1 0x1 PUSH1 0xA0 SHL SUB SWAP1 SWAP2 AND DUP2 MSTORE PUSH1 0x20 SWAP1 RETURN JUMPDEST POP CALLVALUE PUSH2 0x19B JUMPI PUSH1 0x20 CALLDATASIZE PUSH1 0x3 NOT ADD SLT PUSH2 0x19B JUMPI PUSH32 0xF65C1C942037215826383C2092043CA15AA3E8927C39DC5D5D3F0E6190C2A61D PUSH1 0x80 PUSH2 0x98C PUSH2 0x1463 JUMP JUMPDEST PUSH2 0x994 PUSH2 0x1624 JUMP JUMPDEST PUSH1 0x1 DUP1 PUSH1 0xA0 SHL SUB AND DUP1 PUSH1 0x1 PUSH1 0x1 PUSH1 0x60 SHL SUB PUSH1 0xA0 SHL PUSH1 0x4 SLOAD AND OR PUSH1 0x4 SSTORE PUSH1 0x40 MLOAD SWAP1 PUSH1 0x40 DUP3 MSTORE PUSH1 0xE PUSH1 0x40 DUP4 ADD MSTORE PUSH14 0x333ABA30B931B43CA937BABA32B9 PUSH1 0x91 SHL PUSH1 0x60 DUP4 ADD MSTORE PUSH1 0x20 DUP3 ADD MSTORE LOG1 DUP1 RETURN JUMPDEST POP CALLVALUE PUSH2 0x19B JUMPI DUP1 PUSH1 0x3 NOT CALLDATASIZE ADD SLT PUSH2 0x19B JUMPI PUSH1 0x1 DUP1 PUSH1 0xA0 SHL SUB SWAP1 DUP2 PUSH1 0x2 SLOAD AND SWAP1 DUP1 PUSH1 0x8 SLOAD PUSH1 0x24 PUSH1 0x40 MLOAD DUP1 SWAP6 DUP2 SWAP4 PUSH4 0x1F29A8CD PUSH1 0xE3 SHL DUP4 MSTORE PUSH1 0x4 DUP4 ADD MSTORE GAS STATICCALL SWAP1 DUP2 ISZERO PUSH2 0xB95 JUMPI DUP1 SWAP3 DUP2 SWAP3 PUSH2 0xA84 JUMPI JUMPDEST POP PUSH1 0x40 MLOAD SWAP3 PUSH1 0x40 DUP5 ADD SWAP1 PUSH1 0x40 DUP6 MSTORE DUP1 MLOAD DUP1 SWAP3 MSTORE PUSH1 0x60 DUP6 ADD SWAP6 PUSH1 0x20 DUP1 SWAP3 ADD SWAP4 SWAP1 JUMPDEST DUP4 DUP3 LT PUSH2 0xA6B JUMPI DUP7 DUP1 PUSH2 0xA67 DUP11 DUP10 DUP4 DUP3 SUB PUSH1 0x20 DUP6 ADD MSTORE PUSH2 0x1479 JUMP JUMPDEST SUB SWAP1 RETURN JUMPDEST DUP5 MLOAD DUP2 AND DUP9 MSTORE SWAP7 DUP3 ADD SWAP7 SWAP4 DUP3 ADD SWAP4 PUSH1 0x1 SWAP1 SWAP2 ADD SWAP1 PUSH2 0xA4C JUMP JUMPDEST SWAP3 POP SWAP1 POP RETURNDATASIZE DUP1 DUP3 DUP5 RETURNDATACOPY PUSH2 0xA97 DUP2 DUP5 PUSH2 0x14F9 JUMP JUMPDEST DUP3 ADD SWAP2 PUSH1 0x60 DUP2 DUP5 SUB SLT PUSH2 0xB91 JUMPI DUP1 MLOAD PUSH1 0x1 PUSH1 0x1 PUSH1 0x40 SHL SUB SWAP1 DUP2 DUP2 GT PUSH2 0xB71 JUMPI DUP3 ADD SWAP1 DUP5 PUSH1 0x1F DUP4 ADD SLT ISZERO PUSH2 0xB71 JUMPI DUP2 MLOAD SWAP3 PUSH1 0x20 SWAP3 PUSH2 0xAD3 DUP6 PUSH2 0x151A JUMP JUMPDEST SWAP5 PUSH2 0xAE1 PUSH1 0x40 MLOAD SWAP7 DUP8 PUSH2 0x14F9 JUMP JUMPDEST DUP1 DUP7 MSTORE DUP5 DUP1 DUP8 ADD SWAP2 PUSH1 0x5 SHL DUP4 ADD ADD SWAP2 DUP9 DUP4 GT PUSH2 0x72F JUMPI DUP6 ADD SWAP1 JUMPDEST DUP3 DUP3 LT PUSH2 0xB79 JUMPI POP POP POP DUP3 DUP2 ADD MLOAD SWAP2 DUP3 GT PUSH2 0xB75 JUMPI ADD SWAP4 DUP1 PUSH1 0x1F DUP7 ADD SLT ISZERO PUSH2 0xB71 JUMPI DUP5 MLOAD PUSH2 0xB28 DUP2 PUSH2 0x151A JUMP JUMPDEST SWAP6 PUSH2 0xB36 PUSH1 0x40 MLOAD SWAP8 DUP9 PUSH2 0x14F9 JUMP JUMPDEST DUP2 DUP8 MSTORE DUP4 DUP1 DUP9 ADD SWAP3 PUSH1 0x5 SHL DUP3 ADD ADD SWAP3 DUP4 GT PUSH2 0x733 JUMPI DUP4 ADD SWAP1 JUMPDEST DUP3 DUP3 LT PUSH2 0xB62 JUMPI POP POP POP POP SWAP2 SWAP1 CODESIZE PUSH2 0xA2C JUMP JUMPDEST DUP2 MLOAD DUP2 MSTORE SWAP1 DUP4 ADD SWAP1 DUP4 ADD PUSH2 0xB4F JUMP JUMPDEST DUP4 DUP1 REVERT JUMPDEST DUP5 DUP1 REVERT JUMPDEST DUP2 MLOAD DUP11 DUP2 AND DUP2 SUB PUSH2 0x756 JUMPI DUP2 MSTORE SWAP1 DUP6 ADD SWAP1 DUP6 ADD PUSH2 0xAFB JUMP JUMPDEST POP DUP1 REVERT JUMPDEST PUSH1 0x40 MLOAD SWAP1 RETURNDATASIZE SWAP1 DUP3 RETURNDATACOPY RETURNDATASIZE SWAP1 REVERT JUMPDEST POP CALLVALUE PUSH2 0x19B JUMPI DUP1 PUSH1 0x3 NOT CALLDATASIZE ADD SLT PUSH2 0x19B JUMPI PUSH1 0x3 SLOAD PUSH1 0x40 MLOAD PUSH1 0x1 PUSH1 0x1 PUSH1 0xA0 SHL SUB SWAP1 SWAP2 AND DUP2 MSTORE PUSH1 0x20 SWAP1 RETURN JUMPDEST POP CALLVALUE PUSH2 0x19B JUMPI PUSH1 0x60 CALLDATASIZE PUSH1 0x3 NOT ADD SLT PUSH2 0x19B JUMPI PUSH2 0xBE4 PUSH2 0x1463 JUMP JUMPDEST PUSH1 0x1 PUSH1 0x1 PUSH1 0xA0 SHL SUB SWAP1 PUSH1 0x24 CALLDATALOAD DUP3 DUP2 AND SWAP1 DUP2 SWAP1 SUB PUSH2 0x525 JUMPI PUSH1 0x44 CALLDATALOAD SWAP3 DUP1 DUP5 AND DUP1 SWAP5 SUB PUSH2 0x525 JUMPI PUSH2 0xC11 PUSH2 0x1624 JUMP JUMPDEST PUSH1 0x1 PUSH1 0x1 PUSH1 0x60 SHL SUB PUSH1 0xA0 SHL SWAP3 AND DUP3 PUSH1 0x5 SLOAD AND OR PUSH1 0x5 SSTORE DUP2 PUSH1 0x6 SLOAD AND OR PUSH1 0x6 SSTORE PUSH1 0x7 SLOAD AND OR PUSH1 0x7 SSTORE DUP1 RETURN JUMPDEST POP CALLVALUE PUSH2 0x19B JUMPI DUP1 PUSH1 0x3 NOT CALLDATASIZE ADD SLT PUSH2 0x19B JUMPI PUSH2 0xC54 PUSH2 0x1624 JUMP JUMPDEST PUSH1 0x6 SLOAD DUP2 SWAP1 PUSH1 0x1 PUSH1 0x1 PUSH1 0xA0 SHL SUB SWAP1 DUP3 SWAP1 DUP3 AND DUP1 PUSH2 0xDBE JUMPI JUMPDEST POP DUP2 PUSH1 0x7 SLOAD AND DUP1 PUSH2 0xCF7 JUMPI JUMPDEST POP POP DUP1 PUSH1 0x5 SLOAD AND DUP1 PUSH2 0xC88 JUMPI POP POP RETURN JUMPDEST PUSH1 0x44 PUSH1 0x20 SWAP3 PUSH1 0x4 SLOAD AND PUSH1 0x40 MLOAD SWAP5 DUP6 SWAP4 DUP5 SWAP3 PUSH4 0x95EA7B3 PUSH1 0xE0 SHL DUP5 MSTORE PUSH1 0x4 DUP5 ADD MSTORE PUSH1 0x0 NOT PUSH1 0x24 DUP5 ADD MSTORE GAS CALL DUP1 ISZERO PUSH2 0xCEC JUMPI PUSH2 0xCC0 JUMPI POP DUP1 RETURN JUMPDEST PUSH2 0xCE1 SWAP1 PUSH1 0x20 RETURNDATASIZE PUSH1 0x20 GT PUSH2 0xCE5 JUMPI JUMPDEST PUSH2 0xCD9 DUP2 DUP4 PUSH2 0x14F9 JUMP JUMPDEST DUP2 ADD SWAP1 PUSH2 0x1693 JUMP JUMPDEST POP DUP1 RETURN JUMPDEST POP RETURNDATASIZE PUSH2 0xCCF JUMP JUMPDEST PUSH1 0x40 MLOAD RETURNDATASIZE DUP5 DUP3 RETURNDATACOPY RETURNDATASIZE SWAP1 REVERT JUMPDEST DUP3 PUSH1 0x2 SLOAD AND PUSH1 0x40 MLOAD SWAP1 PUSH4 0x95EA7B3 PUSH1 0xE0 SHL SWAP1 DUP2 DUP4 MSTORE PUSH1 0x4 DUP4 ADD MSTORE PUSH1 0x0 NOT SWAP3 DUP4 PUSH1 0x24 DUP5 ADD MSTORE DUP3 PUSH1 0x44 DUP2 PUSH1 0x20 SWAP8 DUP9 SWAP5 GAS CALL SWAP2 DUP3 ISZERO PUSH2 0xDB3 JUMPI DUP5 SWAP3 PUSH2 0xD96 JUMPI JUMPDEST POP PUSH1 0x44 DUP6 PUSH1 0x7 SLOAD AND SWAP2 DUP8 DUP8 PUSH1 0x3 SLOAD AND SWAP4 PUSH1 0x40 MLOAD SWAP7 DUP8 SWAP6 DUP7 SWAP5 DUP6 MSTORE PUSH1 0x4 DUP6 ADD MSTORE PUSH1 0x24 DUP5 ADD MSTORE GAS CALL DUP1 ISZERO PUSH2 0xD8B JUMPI PUSH2 0xD6D JUMPI JUMPDEST DUP4 SWAP2 POP PUSH2 0xC78 JUMP JUMPDEST DUP2 PUSH2 0xD83 SWAP3 SWAP1 RETURNDATASIZE LT PUSH2 0xCE5 JUMPI PUSH2 0xCD9 DUP2 DUP4 PUSH2 0x14F9 JUMP JUMPDEST POP CODESIZE DUP1 PUSH2 0xD65 JUMP JUMPDEST PUSH1 0x40 MLOAD RETURNDATASIZE DUP7 DUP3 RETURNDATACOPY RETURNDATASIZE SWAP1 REVERT JUMPDEST PUSH2 0xDAC SWAP1 DUP4 RETURNDATASIZE DUP6 GT PUSH2 0xCE5 JUMPI PUSH2 0xCD9 DUP2 DUP4 PUSH2 0x14F9 JUMP JUMPDEST POP CODESIZE PUSH2 0xD34 JUMP JUMPDEST PUSH1 0x40 MLOAD RETURNDATASIZE DUP9 DUP3 RETURNDATACOPY RETURNDATASIZE SWAP1 REVERT JUMPDEST DUP3 PUSH1 0x2 SLOAD AND PUSH1 0x40 MLOAD SWAP1 PUSH4 0x95EA7B3 PUSH1 0xE0 SHL SWAP1 DUP2 DUP4 MSTORE PUSH1 0x4 DUP4 ADD MSTORE PUSH1 0x0 NOT SWAP3 DUP4 PUSH1 0x24 DUP5 ADD MSTORE DUP3 PUSH1 0x44 DUP2 PUSH1 0x20 SWAP8 DUP9 SWAP5 GAS CALL SWAP2 DUP3 ISZERO PUSH2 0xDB3 JUMPI DUP5 SWAP3 PUSH2 0xE52 JUMPI JUMPDEST POP PUSH1 0x44 DUP6 PUSH1 0x6 SLOAD AND SWAP2 DUP8 DUP8 PUSH1 0x3 SLOAD AND SWAP4 PUSH1 0x40 MLOAD SWAP7 DUP8 SWAP6 DUP7 SWAP5 DUP6 MSTORE PUSH1 0x4 DUP6 ADD MSTORE PUSH1 0x24 DUP5 ADD MSTORE GAS CALL DUP1 ISZERO PUSH2 0xD8B JUMPI PUSH2 0xE34 JUMPI JUMPDEST DUP4 SWAP2 POP PUSH2 0xC6C JUMP JUMPDEST DUP2 PUSH2 0xE4A SWAP3 SWAP1 RETURNDATASIZE LT PUSH2 0xCE5 JUMPI PUSH2 0xCD9 DUP2 DUP4 PUSH2 0x14F9 JUMP JUMPDEST POP CODESIZE DUP1 PUSH2 0xE2C JUMP JUMPDEST PUSH2 0xE68 SWAP1 DUP4 RETURNDATASIZE DUP6 GT PUSH2 0xCE5 JUMPI PUSH2 0xCD9 DUP2 DUP4 PUSH2 0x14F9 JUMP JUMPDEST POP CODESIZE PUSH2 0xDFB JUMP JUMPDEST POP CALLVALUE PUSH2 0x19B JUMPI PUSH1 0xA0 CALLDATASIZE PUSH1 0x3 NOT ADD SLT PUSH2 0x19B JUMPI PUSH2 0xE89 PUSH2 0x1463 JUMP JUMPDEST PUSH1 0x5 PUSH1 0x44 CALLDATALOAD LT ISZERO PUSH2 0xB91 JUMPI PUSH1 0x64 CALLDATALOAD PUSH1 0x1 PUSH1 0x1 PUSH1 0xA0 SHL SUB DUP2 AND DUP2 SUB PUSH2 0x716 JUMPI PUSH1 0x84 CALLDATALOAD SWAP1 PUSH2 0xEB3 PUSH2 0x1624 JUMP JUMPDEST PUSH1 0x2 PUSH1 0x1 SLOAD EQ PUSH2 0x12D5 JUMPI PUSH1 0x2 PUSH1 0x1 SSTORE PUSH1 0x40 MLOAD PUSH4 0x70A08231 PUSH1 0xE0 SHL DUP2 MSTORE ADDRESS PUSH1 0x4 DUP3 ADD MSTORE SWAP2 PUSH1 0x20 DUP4 PUSH1 0x24 DUP2 PUSH1 0x1 PUSH1 0x1 PUSH1 0xA0 SHL SUB DUP9 AND GAS STATICCALL SWAP3 DUP4 ISZERO PUSH2 0x12CA JUMPI DUP6 SWAP4 PUSH2 0x1296 JUMPI JUMPDEST POP PUSH1 0x40 MLOAD SWAP1 PUSH2 0xF04 DUP3 PUSH2 0x14AD JUMP JUMPDEST DUP6 DUP3 MSTORE PUSH1 0x40 MLOAD PUSH1 0xA0 DUP2 ADD DUP2 DUP2 LT PUSH1 0x1 PUSH1 0x1 PUSH1 0x40 SHL SUB DUP3 GT OR PUSH2 0x1282 JUMPI PUSH1 0x40 SWAP1 DUP2 MSTORE PUSH1 0x44 CALLDATALOAD DUP1 DUP4 MSTORE PUSH1 0x1 PUSH1 0x1 PUSH1 0xA0 SHL SUB DUP7 AND PUSH1 0x20 DUP5 ADD MSTORE PUSH1 0x24 CALLDATALOAD SWAP2 DUP4 ADD DUP3 SWAP1 MSTORE PUSH1 0x60 DUP4 ADD DUP5 SWAP1 MSTORE PUSH1 0x80 SWAP1 SWAP3 ADD DUP5 SWAP1 MSTORE PUSH1 0x9 DUP1 SLOAD PUSH1 0x1 PUSH1 0x1 PUSH1 0xA8 SHL SUB NOT AND PUSH1 0xFF SWAP1 SWAP4 AND SWAP3 SWAP1 SWAP3 OR PUSH1 0x8 DUP7 SWAP1 SHL PUSH2 0x100 PUSH1 0x1 PUSH1 0xA8 SHL SUB AND OR SWAP1 SWAP2 SSTORE PUSH1 0xA SSTORE PUSH1 0xB SSTORE DUP1 MLOAD SWAP1 PUSH1 0x1 PUSH1 0x1 PUSH1 0x40 SHL SUB DUP3 GT PUSH2 0x126E JUMPI PUSH9 0x10000000000000000 DUP3 GT PUSH2 0x126E JUMPI PUSH1 0xC SLOAD DUP3 PUSH1 0xC SSTORE DUP1 DUP4 LT PUSH2 0x122D JUMPI JUMPDEST POP PUSH1 0x20 ADD PUSH1 0xC DUP7 MSTORE DUP6 JUMPDEST DUP3 DUP2 LT PUSH2 0x11F0 JUMPI POP POP POP PUSH1 0x40 MLOAD PUSH2 0xFD2 DUP2 PUSH2 0x14DE JUMP JUMPDEST PUSH1 0x1 DUP2 MSTORE PUSH1 0x20 CALLDATASIZE DUP2 DUP4 ADD CALLDATACOPY PUSH1 0x1 PUSH1 0x1 PUSH1 0xA0 SHL SUB DUP5 AND PUSH2 0xFF0 DUP3 PUSH2 0x1591 JUMP JUMPDEST MSTORE PUSH1 0x40 MLOAD SWAP1 PUSH2 0xFFE DUP3 PUSH2 0x14DE JUMP JUMPDEST PUSH1 0x1 DUP3 MSTORE PUSH1 0x20 CALLDATASIZE DUP2 DUP5 ADD CALLDATACOPY PUSH1 0x24 CALLDATALOAD PUSH2 0x1015 DUP4 PUSH2 0x1591 JUMP JUMPDEST MSTORE PUSH1 0x2 SLOAD PUSH1 0x40 DUP1 MLOAD PUSH1 0x44 CALLDATALOAD PUSH1 0x20 DUP3 ADD MSTORE PUSH1 0x1 PUSH1 0x1 PUSH1 0xA0 SHL SUB SWAP6 DUP7 AND DUP2 DUP4 ADD MSTORE SWAP1 DUP2 MSTORE SWAP4 AND SWAP1 PUSH1 0x1 PUSH1 0x1 PUSH1 0x40 SHL SUB PUSH1 0x60 DUP6 ADD SWAP1 DUP2 GT SWAP1 DUP6 GT OR PUSH2 0x11DC JUMPI PUSH1 0x60 DUP5 ADD PUSH1 0x40 MSTORE DUP2 EXTCODESIZE ISZERO PUSH2 0x11D8 JUMPI SWAP1 DUP7 SWAP3 SWAP2 PUSH4 0x2E1C224F PUSH1 0xE1 SHL PUSH1 0x60 DUP7 ADD MSTORE PUSH1 0xE4 DUP6 ADD ADDRESS PUSH1 0x64 DUP8 ADD MSTORE PUSH1 0x80 PUSH1 0x84 DUP8 ADD MSTORE DUP2 MLOAD DUP1 SWAP2 MSTORE PUSH1 0x20 PUSH2 0x104 DUP8 ADD SWAP3 ADD SWAP1 DUP6 JUMPDEST DUP2 DUP2 LT PUSH2 0x11B6 JUMPI POP POP POP PUSH2 0x10B3 SWAP1 PUSH1 0x63 NOT SWAP4 DUP5 DUP8 DUP4 SUB ADD PUSH1 0xA4 DUP9 ADD MSTORE PUSH2 0x1479 JUMP JUMPDEST SWAP2 DUP5 DUP4 SUB ADD PUSH1 0xC4 DUP6 ADD MSTORE PUSH1 0x60 DUP5 ADD SWAP2 DUP5 PUSH2 0x10D0 PUSH1 0x5F NOT SWAP3 DUP3 PUSH2 0x15B4 JUMP JUMPDEST SUB ADD SWAP1 DUP4 PUSH1 0x60 DUP7 ADD SWAP2 GAS CALL DUP1 ISZERO PUSH2 0xD8B JUMPI PUSH2 0x1181 JUMPI JUMPDEST POP PUSH1 0x40 MLOAD PUSH4 0x70A08231 PUSH1 0xE0 SHL DUP2 MSTORE ADDRESS PUSH1 0x4 DUP3 ADD MSTORE SWAP1 PUSH1 0x20 DUP3 PUSH1 0x24 DUP2 PUSH1 0x1 PUSH1 0x1 PUSH1 0xA0 SHL SUB DUP8 AND GAS STATICCALL DUP1 ISZERO PUSH2 0xD8B JUMPI DUP5 SWAP1 PUSH2 0x114D JUMPI JUMPDEST PUSH2 0x1124 SWAP3 POP PUSH2 0x15F4 JUMP JUMPDEST DUP1 PUSH2 0x1132 JUMPI JUMPDEST DUP3 PUSH1 0x1 DUP1 SSTORE DUP1 RETURN JUMPDEST PUSH2 0x1146 SWAP2 CALLER SWAP1 PUSH1 0x1 PUSH1 0x1 PUSH1 0xA0 SHL SUB AND PUSH2 0x1650 JUMP JUMPDEST CODESIZE DUP1 PUSH2 0x112A JUMP JUMPDEST POP PUSH1 0x20 DUP3 RETURNDATASIZE PUSH1 0x20 GT PUSH2 0x1179 JUMPI JUMPDEST DUP2 PUSH2 0x1167 PUSH1 0x20 SWAP4 DUP4 PUSH2 0x14F9 JUMP JUMPDEST DUP2 ADD SUB SLT PUSH2 0x525 JUMPI PUSH2 0x1124 SWAP2 MLOAD PUSH2 0x111A JUMP JUMPDEST RETURNDATASIZE SWAP2 POP PUSH2 0x115A JUMP JUMPDEST PUSH1 0x1 PUSH1 0x1 PUSH1 0x40 SHL SUB PUSH1 0x60 DUP3 SWAP6 SWAP4 SWAP6 ADD GT PUSH2 0x11A2 JUMPI PUSH1 0x60 ADD PUSH1 0x40 MSTORE SWAP2 CODESIZE PUSH2 0x10E6 JUMP JUMPDEST PUSH4 0x4E487B71 PUSH1 0xE0 SHL DUP3 MSTORE PUSH1 0x41 PUSH1 0x4 MSTORE PUSH1 0x24 DUP3 REVERT JUMPDEST DUP3 MLOAD PUSH1 0x1 PUSH1 0x1 PUSH1 0xA0 SHL SUB AND DUP5 MSTORE DUP11 SWAP7 POP PUSH1 0x20 SWAP4 DUP5 ADD SWAP4 SWAP1 SWAP3 ADD SWAP2 PUSH1 0x1 ADD PUSH2 0x1092 JUMP JUMPDEST DUP7 DUP1 REVERT JUMPDEST PUSH4 0x4E487B71 PUSH1 0xE0 SHL DUP8 MSTORE PUSH1 0x41 PUSH1 0x4 MSTORE PUSH1 0x24 DUP8 REVERT JUMPDEST DUP2 MLOAD PUSH1 0x1 PUSH1 0x1 PUSH1 0xA0 SHL SUB AND PUSH32 0xDF6966C971051C3D54EC59162606531493A51404A002842F56009D7E5CF4A8C7 DUP3 ADD SSTORE PUSH1 0x20 SWAP1 SWAP2 ADD SWAP1 PUSH1 0x1 ADD PUSH2 0xFBC JUMP JUMPDEST PUSH32 0xDF6966C971051C3D54EC59162606531493A51404A002842F56009D7E5CF4A8C7 SWAP1 DUP4 DUP3 ADD JUMPDEST DUP2 DUP4 ADD DUP2 LT PUSH2 0x1263 JUMPI POP POP PUSH2 0xFB2 JUMP JUMPDEST DUP9 DUP2 SSTORE PUSH1 0x1 ADD PUSH2 0x1253 JUMP JUMPDEST PUSH4 0x4E487B71 PUSH1 0xE0 SHL DUP7 MSTORE PUSH1 0x41 PUSH1 0x4 MSTORE PUSH1 0x24 DUP7 REVERT JUMPDEST PUSH4 0x4E487B71 PUSH1 0xE0 SHL DUP9 MSTORE PUSH1 0x41 PUSH1 0x4 MSTORE PUSH1 0x24 DUP9 REVERT JUMPDEST SWAP1 SWAP3 POP PUSH1 0x20 DUP2 RETURNDATASIZE PUSH1 0x20 GT PUSH2 0x12C2 JUMPI JUMPDEST DUP2 PUSH2 0x12B2 PUSH1 0x20 SWAP4 DUP4 PUSH2 0x14F9 JUMP JUMPDEST DUP2 ADD SUB SLT PUSH2 0xB75 JUMPI MLOAD SWAP2 CODESIZE PUSH2 0xEF6 JUMP JUMPDEST RETURNDATASIZE SWAP2 POP PUSH2 0x12A5 JUMP JUMPDEST PUSH1 0x40 MLOAD RETURNDATASIZE DUP8 DUP3 RETURNDATACOPY RETURNDATASIZE SWAP1 REVERT JUMPDEST PUSH1 0x40 MLOAD PUSH4 0x3EE5AEB5 PUSH1 0xE0 SHL DUP2 MSTORE PUSH1 0x4 SWAP1 REVERT JUMPDEST POP CALLVALUE PUSH2 0x19B JUMPI DUP1 PUSH1 0x3 NOT CALLDATASIZE ADD SLT PUSH2 0x19B JUMPI PUSH1 0x2 SLOAD PUSH1 0x40 MLOAD PUSH1 0x1 PUSH1 0x1 PUSH1 0xA0 SHL SUB SWAP1 SWAP2 AND DUP2 MSTORE PUSH1 0x20 SWAP1 RETURN JUMPDEST POP CALLVALUE PUSH2 0x19B JUMPI DUP1 PUSH1 0x3 NOT CALLDATASIZE ADD SLT PUSH2 0x19B JUMPI PUSH1 0x4 SLOAD PUSH1 0x40 MLOAD PUSH1 0x1 PUSH1 0x1 PUSH1 0xA0 SHL SUB SWAP1 SWAP2 AND DUP2 MSTORE PUSH1 0x20 SWAP1 RETURN JUMPDEST POP CALLVALUE PUSH2 0x19B JUMPI PUSH1 0x40 CALLDATASIZE PUSH1 0x3 NOT ADD SLT PUSH2 0x19B JUMPI PUSH32 0x46D2E6E71FC567877B817FF3D940571F989D4EE4D40F2B70806D36E738FEEF6F PUSH2 0x1374 PUSH2 0x1463 JUMP JUMPDEST PUSH1 0x24 CALLDATALOAD SWAP1 PUSH2 0x1380 PUSH2 0x1624 JUMP JUMPDEST PUSH2 0x1394 DUP3 CALLER PUSH1 0x1 PUSH1 0x1 PUSH1 0xA0 SHL SUB DUP5 AND PUSH2 0x1650 JUMP JUMPDEST PUSH1 0x40 DUP1 MLOAD PUSH1 0x1 PUSH1 0x1 PUSH1 0xA0 SHL SUB SWAP3 SWAP1 SWAP3 AND DUP3 MSTORE PUSH1 0x20 DUP3 ADD SWAP3 SWAP1 SWAP3 MSTORE LOG1 DUP1 RETURN JUMPDEST POP CALLVALUE PUSH2 0x19B JUMPI PUSH1 0x20 CALLDATASIZE PUSH1 0x3 NOT ADD SLT PUSH2 0x19B JUMPI PUSH2 0x13CC PUSH2 0x1463 JUMP JUMPDEST PUSH2 0x13D4 PUSH2 0x1624 JUMP JUMPDEST PUSH1 0x40 MLOAD PUSH4 0x70A08231 PUSH1 0xE0 SHL DUP2 MSTORE ADDRESS PUSH1 0x4 DUP3 ADD MSTORE PUSH1 0x1 PUSH1 0x1 PUSH1 0xA0 SHL SUB SWAP2 SWAP1 SWAP2 AND SWAP1 PUSH1 0x20 DUP2 PUSH1 0x24 DUP2 DUP6 GAS STATICCALL SWAP1 DUP2 ISZERO PUSH2 0x1458 JUMPI DUP4 SWAP2 PUSH2 0x1426 JUMPI JUMPDEST POP DUP1 PUSH2 0x1415 JUMPI DUP3 DUP1 RETURN JUMPDEST PUSH2 0x1420 SWAP2 CALLER SWAP1 PUSH2 0x1650 JUMP JUMPDEST CODESIZE DUP1 DUP3 DUP1 RETURN JUMPDEST SWAP1 POP PUSH1 0x20 DUP2 RETURNDATASIZE PUSH1 0x20 GT PUSH2 0x1450 JUMPI JUMPDEST DUP2 PUSH2 0x1441 PUSH1 0x20 SWAP4 DUP4 PUSH2 0x14F9 JUMP JUMPDEST DUP2 ADD SUB SLT PUSH2 0x716 JUMPI MLOAD CODESIZE PUSH2 0x140B JUMP JUMPDEST RETURNDATASIZE SWAP2 POP PUSH2 0x1434 JUMP JUMPDEST PUSH1 0x40 MLOAD RETURNDATASIZE DUP6 DUP3 RETURNDATACOPY RETURNDATASIZE SWAP1 REVERT JUMPDEST PUSH1 0x4 CALLDATALOAD SWAP1 PUSH1 0x1 PUSH1 0x1 PUSH1 0xA0 SHL SUB DUP3 AND DUP3 SUB PUSH2 0x525 JUMPI JUMP JUMPDEST SWAP1 DUP2 MLOAD DUP1 DUP3 MSTORE PUSH1 0x20 DUP1 DUP1 SWAP4 ADD SWAP4 ADD SWAP2 PUSH1 0x0 JUMPDEST DUP3 DUP2 LT PUSH2 0x1499 JUMPI POP POP POP POP SWAP1 JUMP JUMPDEST DUP4 MLOAD DUP6 MSTORE SWAP4 DUP2 ADD SWAP4 SWAP3 DUP2 ADD SWAP3 PUSH1 0x1 ADD PUSH2 0x148B JUMP JUMPDEST PUSH1 0x20 DUP2 ADD SWAP1 DUP2 LT PUSH1 0x1 PUSH1 0x1 PUSH1 0x40 SHL SUB DUP3 GT OR PUSH2 0x14C8 JUMPI PUSH1 0x40 MSTORE JUMP JUMPDEST PUSH4 0x4E487B71 PUSH1 0xE0 SHL PUSH1 0x0 MSTORE PUSH1 0x41 PUSH1 0x4 MSTORE PUSH1 0x24 PUSH1 0x0 REVERT JUMPDEST PUSH1 0x40 DUP2 ADD SWAP1 DUP2 LT PUSH1 0x1 PUSH1 0x1 PUSH1 0x40 SHL SUB DUP3 GT OR PUSH2 0x14C8 JUMPI PUSH1 0x40 MSTORE JUMP JUMPDEST SWAP1 PUSH1 0x1F DUP1 NOT SWAP2 ADD AND DUP2 ADD SWAP1 DUP2 LT PUSH1 0x1 PUSH1 0x1 PUSH1 0x40 SHL SUB DUP3 GT OR PUSH2 0x14C8 JUMPI PUSH1 0x40 MSTORE JUMP JUMPDEST PUSH1 0x1 PUSH1 0x1 PUSH1 0x40 SHL SUB DUP2 GT PUSH2 0x14C8 JUMPI PUSH1 0x5 SHL PUSH1 0x20 ADD SWAP1 JUMP JUMPDEST SWAP1 DUP1 PUSH1 0x1F DUP4 ADD SLT ISZERO PUSH2 0x525 JUMPI PUSH1 0x20 SWAP1 DUP3 CALLDATALOAD PUSH2 0x154B DUP2 PUSH2 0x151A JUMP JUMPDEST SWAP4 PUSH2 0x1559 PUSH1 0x40 MLOAD SWAP6 DUP7 PUSH2 0x14F9 JUMP JUMPDEST DUP2 DUP6 MSTORE PUSH1 0x20 DUP1 DUP7 ADD SWAP3 PUSH1 0x5 SHL DUP3 ADD ADD SWAP3 DUP4 GT PUSH2 0x525 JUMPI PUSH1 0x20 ADD SWAP1 JUMPDEST DUP3 DUP3 LT PUSH2 0x1582 JUMPI POP POP POP POP SWAP1 JUMP JUMPDEST DUP2 CALLDATALOAD DUP2 MSTORE SWAP1 DUP4 ADD SWAP1 DUP4 ADD PUSH2 0x1574 JUMP JUMPDEST DUP1 MLOAD ISZERO PUSH2 0x159E JUMPI PUSH1 0x20 ADD SWAP1 JUMP JUMPDEST PUSH4 0x4E487B71 PUSH1 0xE0 SHL PUSH1 0x0 MSTORE PUSH1 0x32 PUSH1 0x4 MSTORE PUSH1 0x24 PUSH1 0x0 REVERT JUMPDEST SWAP2 SWAP1 DUP3 MLOAD SWAP3 DUP4 DUP3 MSTORE PUSH1 0x0 JUMPDEST DUP5 DUP2 LT PUSH2 0x15E0 JUMPI POP POP DUP3 PUSH1 0x0 PUSH1 0x20 DUP1 SWAP5 SWAP6 DUP5 ADD ADD MSTORE PUSH1 0x1F DUP1 NOT SWAP2 ADD AND ADD ADD SWAP1 JUMP JUMPDEST PUSH1 0x20 DUP2 DUP4 ADD DUP2 ADD MLOAD DUP5 DUP4 ADD DUP3 ADD MSTORE ADD PUSH2 0x15BF JUMP JUMPDEST SWAP2 SWAP1 DUP3 SUB SWAP2 DUP3 GT PUSH2 0x1601 JUMPI JUMP JUMPDEST PUSH4 0x4E487B71 PUSH1 0xE0 SHL PUSH1 0x0 MSTORE PUSH1 0x11 PUSH1 0x4 MSTORE PUSH1 0x24 PUSH1 0x0 REVERT JUMPDEST SWAP2 SWAP1 DUP3 ADD DUP1 SWAP3 GT PUSH2 0x1601 JUMPI JUMP JUMPDEST PUSH1 0x0 SLOAD PUSH1 0x1 PUSH1 0x1 PUSH1 0xA0 SHL SUB AND CALLER SUB PUSH2 0x1638 JUMPI JUMP JUMPDEST PUSH1 0x40 MLOAD PUSH4 0x118CDAA7 PUSH1 0xE0 SHL DUP2 MSTORE CALLER PUSH1 0x4 DUP3 ADD MSTORE PUSH1 0x24 SWAP1 REVERT JUMPDEST PUSH1 0x40 MLOAD PUSH4 0xA9059CBB PUSH1 0xE0 SHL PUSH1 0x20 DUP3 ADD MSTORE PUSH1 0x1 PUSH1 0x1 PUSH1 0xA0 SHL SUB SWAP3 SWAP1 SWAP3 AND PUSH1 0x24 DUP4 ADD MSTORE PUSH1 0x44 DUP1 DUP4 ADD SWAP4 SWAP1 SWAP4 MSTORE SWAP2 DUP2 MSTORE PUSH2 0x1691 SWAP2 PUSH2 0x168C PUSH1 0x64 DUP4 PUSH2 0x14F9 JUMP JUMPDEST PUSH2 0x16AB JUMP JUMPDEST JUMP JUMPDEST SWAP1 DUP2 PUSH1 0x20 SWAP2 SUB SLT PUSH2 0x525 JUMPI MLOAD DUP1 ISZERO ISZERO DUP2 SUB PUSH2 0x525 JUMPI SWAP1 JUMP JUMPDEST SWAP1 PUSH1 0x0 PUSH1 0x20 SWAP2 DUP3 DUP2 MLOAD SWAP2 ADD DUP3 DUP6 GAS CALL ISZERO PUSH2 0x1707 JUMPI PUSH1 0x0 MLOAD RETURNDATASIZE PUSH2 0x16FE JUMPI POP PUSH1 0x1 PUSH1 0x1 PUSH1 0xA0 SHL SUB DUP2 AND EXTCODESIZE ISZERO JUMPDEST PUSH2 0x16DC JUMPI POP JUMP JUMPDEST PUSH1 0x40 MLOAD PUSH4 0x5274AFE7 PUSH1 0xE0 SHL DUP2 MSTORE PUSH1 0x1 PUSH1 0x1 PUSH1 0xA0 SHL SUB SWAP1 SWAP2 AND PUSH1 0x4 DUP3 ADD MSTORE PUSH1 0x24 SWAP1 REVERT JUMPDEST PUSH1 0x1 EQ ISZERO PUSH2 0x16D5 JUMP JUMPDEST PUSH1 0x40 MLOAD RETURNDATASIZE PUSH1 0x0 DUP3 RETURNDATACOPY RETURNDATASIZE SWAP1 REVERT JUMPDEST PUSH1 0x3 SLOAD PUSH1 0x1 PUSH1 0x1 PUSH1 0xA0 SHL SUB SWAP2 DUP3 AND SWAP2 SWAP1 PUSH2 0x1731 SWAP1 DUP6 SWAP1 DUP4 AND DUP5 PUSH2 0x19EF JUMP JUMPDEST PUSH1 0x40 MLOAD PUSH1 0xE0 DUP2 ADD SWAP1 DUP1 DUP3 LT PUSH1 0x1 PUSH1 0x1 PUSH1 0x40 SHL SUB DUP4 GT OR PUSH2 0x14C8 JUMPI PUSH1 0x20 SWAP4 PUSH1 0xE4 SWAP3 PUSH1 0x40 MSTORE DUP2 MSTORE DUP3 DUP5 DUP3 ADD SWAP6 AND DUP6 MSTORE PUSH1 0x40 DUP2 ADD SWAP6 ADDRESS DUP8 MSTORE PUSH1 0x60 DUP3 ADD SWAP7 TIMESTAMP DUP9 MSTORE PUSH1 0x80 DUP4 ADD SWAP2 DUP3 MSTORE DUP5 PUSH1 0xA0 DUP5 ADD SWAP9 PUSH1 0x0 SWAP10 DUP11 SWAP5 DUP6 DUP3 MSTORE PUSH1 0xC0 DUP8 ADD SWAP3 DUP7 DUP5 MSTORE DUP5 DUP1 PUSH1 0x3 SLOAD AND SWAP7 DUP2 PUSH1 0x40 MLOAD SWAP15 DUP16 SWAP14 DUP15 SWAP13 DUP14 PUSH4 0x178CA231 PUSH1 0xE3 SHL SWAP1 MSTORE MLOAD AND PUSH1 0x4 DUP14 ADD MSTORE MLOAD AND PUSH1 0x24 DUP12 ADD MSTORE MLOAD AND PUSH1 0x44 DUP10 ADD MSTORE MLOAD PUSH1 0x64 DUP9 ADD MSTORE MLOAD PUSH1 0x84 DUP8 ADD MSTORE MLOAD PUSH1 0xA4 DUP7 ADD MSTORE MLOAD AND PUSH1 0xC4 DUP5 ADD MSTORE GAS CALL SWAP2 DUP3 ISZERO PUSH2 0xB95 JUMPI DUP1 SWAP3 PUSH2 0x17E8 JUMPI POP POP SWAP1 JUMP JUMPDEST SWAP1 SWAP2 POP PUSH1 0x20 DUP3 RETURNDATASIZE PUSH1 0x20 GT PUSH2 0x1811 JUMPI JUMPDEST DUP2 PUSH2 0x1804 PUSH1 0x20 SWAP4 DUP4 PUSH2 0x14F9 JUMP JUMPDEST DUP2 ADD SUB SLT PUSH2 0x19B JUMPI POP MLOAD SWAP1 JUMP JUMPDEST RETURNDATASIZE SWAP2 POP PUSH2 0x17F7 JUMP JUMPDEST PUSH1 0x2 SLOAD PUSH1 0x1 PUSH1 0x1 PUSH1 0xA0 SHL SUB SWAP4 SWAP3 SWAP2 DUP5 AND SWAP2 SWAP1 PUSH2 0x1839 SWAP1 DUP5 SWAP1 DUP7 AND DUP5 PUSH2 0x19EF JUMP JUMPDEST PUSH1 0x8 SLOAD SWAP1 PUSH1 0x40 SWAP5 DUP6 MLOAD SWAP2 PUSH1 0xC0 DUP4 ADD SWAP4 PUSH1 0x1 PUSH1 0x1 PUSH1 0x40 SHL SUB SWAP5 DUP5 DUP2 LT DUP7 DUP3 GT OR PUSH2 0x14C8 JUMPI DUP9 MSTORE DUP4 MSTORE PUSH1 0x20 SWAP5 DUP6 DUP5 ADD SWAP2 PUSH1 0x0 SWAP8 DUP9 DUP5 MSTORE DUP10 DUP7 ADD SWAP3 DUP4 MSTORE DUP5 PUSH1 0x60 DUP8 ADD SWAP3 AND DUP3 MSTORE PUSH1 0x80 DUP7 ADD SWAP1 DUP2 MSTORE DUP10 MLOAD SWAP2 PUSH2 0x188F DUP4 PUSH2 0x14AD JUMP JUMPDEST DUP10 DUP4 MSTORE PUSH1 0xA0 DUP8 ADD SWAP3 DUP4 MSTORE DUP11 MLOAD SWAP8 PUSH1 0x80 DUP10 ADD SWAP1 DUP2 GT DUP10 DUP3 LT OR PUSH2 0x19DB JUMPI SWAP2 DUP12 SWAP8 SWAP6 SWAP4 SWAP2 PUSH1 0xE4 SWAP12 SWAP11 SWAP10 SWAP8 SWAP6 SWAP4 DUP10 MSTORE ADDRESS DUP9 MSTORE DUP10 DUP9 ADD SWAP4 DUP12 DUP6 MSTORE DUP10 DUP10 ADD SWAP6 ADDRESS DUP8 MSTORE PUSH1 0x60 DUP11 ADD SWAP9 DUP14 DUP11 MSTORE DUP9 PUSH1 0x2 SLOAD AND SWAP12 MLOAD SWAP15 DUP16 SWAP2 PUSH4 0x52BBBE29 PUSH1 0xE0 SHL DUP4 MSTORE PUSH1 0xE0 PUSH1 0x4 DUP5 ADD MSTORE MLOAD SWAP2 ADD MSTORE MLOAD PUSH1 0x2 DUP2 LT ISZERO PUSH2 0x19C7 JUMPI SWAP5 DUP8 PUSH2 0x1947 DUP16 SWAP12 SWAP7 DUP16 SWAP10 SWAP5 SWAP7 DUP16 SWAP15 SWAP13 SWAP8 SWAP12 DUP1 SWAP8 DUP16 SWAP14 DUP3 SWAP1 DUP16 SWAP14 PUSH2 0x104 DUP16 ADD MSTORE MLOAD AND PUSH2 0x124 DUP14 ADD MSTORE MLOAD AND PUSH2 0x144 DUP12 ADD MSTORE MLOAD PUSH2 0x164 DUP11 ADD MSTORE MLOAD PUSH1 0xC0 PUSH2 0x184 DUP11 ADD MSTORE PUSH2 0x1A4 DUP10 ADD SWAP1 PUSH2 0x15B4 JUMP JUMPDEST SWAP6 MLOAD AND PUSH1 0x24 DUP8 ADD MSTORE MLOAD ISZERO ISZERO PUSH1 0x44 DUP7 ADD MSTORE MLOAD AND PUSH1 0x64 DUP5 ADD MSTORE MLOAD ISZERO ISZERO PUSH1 0x84 DUP4 ADD MSTORE DUP3 PUSH1 0xA4 DUP4 ADD MSTORE TIMESTAMP PUSH1 0xC4 DUP4 ADD MSTORE SUB SWAP3 GAS CALL SWAP4 DUP5 ISZERO PUSH2 0x19BC JUMPI POP DUP2 SWAP4 PUSH2 0x198B JUMPI JUMPDEST POP POP POP SWAP1 JUMP JUMPDEST SWAP1 SWAP2 DUP1 SWAP4 POP DUP2 RETURNDATASIZE DUP4 GT PUSH2 0x19B5 JUMPI JUMPDEST PUSH2 0x19A3 DUP2 DUP4 PUSH2 0x14F9 JUMP JUMPDEST DUP2 ADD SUB SLT PUSH2 0x19B JUMPI POP MLOAD CODESIZE DUP1 DUP1 PUSH2 0x1985 JUMP JUMPDEST POP RETURNDATASIZE PUSH2 0x1999 JUMP JUMPDEST MLOAD SWAP2 RETURNDATASIZE SWAP2 POP DUP3 RETURNDATACOPY RETURNDATASIZE SWAP1 REVERT JUMPDEST PUSH4 0x4E487B71 PUSH1 0xE0 SHL DUP14 MSTORE PUSH1 0x21 PUSH1 0x4 MSTORE PUSH1 0x24 DUP14 REVERT JUMPDEST PUSH4 0x4E487B71 PUSH1 0xE0 SHL DUP12 MSTORE PUSH1 0x41 PUSH1 0x4 MSTORE PUSH1 0x24 DUP12 REVERT JUMPDEST PUSH1 0x40 MLOAD PUSH4 0x6EB1769F PUSH1 0xE1 SHL DUP2 MSTORE ADDRESS PUSH1 0x4 DUP3 ADD MSTORE PUSH1 0x1 PUSH1 0x1 PUSH1 0xA0 SHL SUB DUP4 DUP2 AND PUSH1 0x24 DUP4 ADD DUP2 SWAP1 MSTORE PUSH1 0x20 SWAP6 SWAP2 DUP5 AND SWAP5 SWAP1 SWAP3 SWAP1 SWAP2 DUP7 DUP3 PUSH1 0x44 DUP2 DUP10 GAS STATICCALL DUP1 ISZERO PUSH2 0x1707 JUMPI PUSH1 0x0 SWAP1 PUSH2 0x1B0A JUMPI JUMPDEST PUSH2 0x1A3F SWAP3 POP PUSH2 0x1617 JUMP JUMPDEST PUSH1 0x40 MLOAD PUSH4 0x95EA7B3 PUSH1 0xE0 SHL DUP8 DUP3 ADD DUP2 DUP2 MSTORE PUSH1 0x1 PUSH1 0x1 PUSH1 0xA0 SHL SUB SWAP5 SWAP1 SWAP5 AND PUSH1 0x24 DUP4 ADD MSTORE PUSH1 0x44 DUP1 DUP4 ADD SWAP4 SWAP1 SWAP4 MSTORE SWAP2 DUP2 MSTORE SWAP5 SWAP1 SWAP2 DUP7 SWAP1 PUSH1 0x0 SWAP1 PUSH2 0x1A80 PUSH1 0x64 DUP10 PUSH2 0x14F9 JUMP JUMPDEST DUP8 MLOAD SWAP1 DUP3 DUP9 GAS CALL SWAP1 RETURNDATASIZE PUSH1 0x0 MLOAD SWAP1 DUP4 PUSH2 0x1AEB JUMPI JUMPDEST POP POP POP ISZERO PUSH2 0x1AA3 JUMPI JUMPDEST POP POP POP POP POP JUMP JUMPDEST PUSH1 0x40 MLOAD SWAP5 DUP6 ADD MSTORE PUSH1 0x24 DUP5 ADD MSTORE PUSH1 0x0 PUSH1 0x44 DUP5 ADD MSTORE PUSH1 0x44 DUP4 MSTORE PUSH1 0x80 DUP4 ADD DUP4 DUP2 LT PUSH1 0x1 PUSH1 0x1 PUSH1 0x40 SHL SUB DUP3 GT OR PUSH2 0x14C8 JUMPI PUSH2 0x1AE1 SWAP4 PUSH2 0x168C SWAP2 PUSH1 0x40 MSTORE DUP3 PUSH2 0x16AB JUMP JUMPDEST CODESIZE DUP1 DUP1 DUP1 DUP1 PUSH2 0x1A9C JUMP JUMPDEST SWAP2 SWAP3 POP SWAP1 PUSH2 0x1B00 JUMPI POP EXTCODESIZE ISZERO ISZERO JUMPDEST CODESIZE DUP1 DUP1 PUSH2 0x1A93 JUMP JUMPDEST PUSH1 0x1 SWAP2 POP EQ PUSH2 0x1AF8 JUMP JUMPDEST POP DUP7 DUP3 DUP2 RETURNDATASIZE DUP4 GT PUSH2 0x1B32 JUMPI JUMPDEST PUSH2 0x1B20 DUP2 DUP4 PUSH2 0x14F9 JUMP JUMPDEST DUP2 ADD SUB SLT PUSH2 0x525 JUMPI PUSH2 0x1A3F SWAP2 MLOAD PUSH2 0x1A35 JUMP JUMPDEST POP RETURNDATASIZE PUSH2 0x1B16 JUMP INVALID LOG2 PUSH5 0x6970667358 0x22 SLT KECCAK256 EQ 0xD3 SIGNEXTEND 0x4D SELFBALANCE 0xF 0xE5 OR BALANCE 0xCB ADD 0x25 REVERT 0xE7 SWAP15 CREATE BASEFEE SGT MSIZE 0x2D STOP SGT 0x29 DUP12 PUSH30 0xB2280530008B9564736F6C63430008180033000000000000000000000000 "},"methodIdentifiers":{"balancerPoolId()":"dbbb64b9","balancerVault()":"158274a5","executeArbitrage(address,uint256,uint8,address,uint256)":"3fd0b3bf","futarchyRouter()":"0db188b1","getPoolLiquidity()":"5360e6b9","gnoToken()":"c61f2184","owner()":"8da5cb5b","receiveFlashLoan(address[],uint256[],uint256[],bytes)":"f04f2707","recoverTokens(address,uint256)":"069c9fae","refreshApprovals()":"43d57a64","renounceOwnership()":"715018a6","sdaiToken()":"aeda99ef","setBalancerPoolId(bytes32)":"c83e4135","setBalancerVault(address)":"f8c46452","setFutarchyRouter(address)":"54a754e1","setSwaprRouter(address)":"e33ad754","setTokens(address,address,address)":"443be209","swaprRouter()":"4ad74299","transferOwnership(address)":"f2fde38b","wagnoToken()":"5bddd2dc","withdrawProfits(address)":"00362a77"}}}}}