{"contracts/GnosisFlashArbitrageV2.sol":{"GnosisFlashArbitrageV2":{"abi":[{"inputs":[{"internalType":"address","name":"_balancerVault","type":"address"},{"internalType":"address","name":"_swaprRouter","type":"address"},{"internalType":"address","name":"_futarchyRouter","type":"address"},{"internalType":"address","name":"_algebraFactory","type":"address"},{"internalType":"address","name":"_gnoToken","type":"address"},{"internalType":"address","name":"_sdaiToken","type":"address"}],"stateMutability":"nonpayable","type":"constructor"},{"inputs":[{"internalType":"address","name":"owner","type":"address"}],"name":"OwnableInvalidOwner","type":"error"},{"inputs":[{"internalType":"address","name":"account","type":"address"}],"name":"OwnableUnauthorizedAccount","type":"error"},{"inputs":[],"name":"ReentrancyGuardReentrantCall","type":"error"},{"inputs":[{"internalType":"address","name":"token","type":"address"}],"name":"SafeERC20FailedOperation","type":"error"},{"anonymous":false,"inputs":[{"indexed":true,"internalType":"address","name":"proposal","type":"address"},{"indexed":false,"internalType":"enum GnosisFlashArbitrageV2.ArbitrageDirection","name":"direction","type":"uint8"},{"indexed":false,"internalType":"address","name":"borrowToken","type":"address"},{"indexed":false,"internalType":"uint256","name":"borrowAmount","type":"uint256"},{"indexed":false,"internalType":"uint256","name":"profit","type":"uint256"},{"indexed":false,"internalType":"address","name":"profitRecipient","type":"address"}],"name":"ArbitrageExecuted","type":"event"},{"anonymous":false,"inputs":[{"indexed":true,"internalType":"address","name":"previousOwner","type":"address"},{"indexed":true,"internalType":"address","name":"newOwner","type":"address"}],"name":"OwnershipTransferred","type":"event"},{"anonymous":false,"inputs":[{"indexed":true,"internalType":"address","name":"proposal","type":"address"},{"indexed":false,"internalType":"address","name":"yesPool","type":"address"},{"indexed":false,"internalType":"uint128","name":"yesLiquidity","type":"uint128"},{"indexed":false,"internalType":"address","name":"noPool","type":"address"},{"indexed":false,"internalType":"uint128","name":"noLiquidity","type":"uint128"}],"name":"PoolsDiscovered","type":"event"},{"anonymous":false,"inputs":[{"indexed":true,"internalType":"address","name":"proposal","type":"address"},{"indexed":false,"internalType":"address","name":"yesGno","type":"address"},{"indexed":false,"internalType":"address","name":"noGno","type":"address"},{"indexed":false,"internalType":"address","name":"yesSdai","type":"address"},{"indexed":false,"internalType":"address","name":"noSdai","type":"address"},{"indexed":false,"internalType":"address","name":"yesPool","type":"address"},{"indexed":false,"internalType":"address","name":"noPool","type":"address"}],"name":"ProposalValidated","type":"event"},{"inputs":[],"name":"algebraFactory","outputs":[{"internalType":"contract IAlgebraFactory","name":"","type":"address"}],"stateMutability":"view","type":"function"},{"inputs":[{"internalType":"address","name":"proposalAddress","type":"address"}],"name":"analyzeArbitrageOpportunity","outputs":[{"components":[{"internalType":"address","name":"proposal","type":"address"},{"internalType":"address","name":"collateralToken1","type":"address"},{"internalType":"address","name":"collateralToken2","type":"address"},{"internalType":"address","name":"yesGno","type":"address"},{"internalType":"address","name":"noGno","type":"address"},{"internalType":"address","name":"yesSdai","type":"address"},{"internalType":"address","name":"noSdai","type":"address"},{"internalType":"address","name":"yesPool","type":"address"},{"internalType":"address","name":"noPool","type":"address"},{"internalType":"bool","name":"isValid","type":"bool"}],"internalType":"struct GnosisFlashArbitrageV2.ProposalInfo","name":"proposalInfo","type":"tuple"},{"components":[{"internalType":"address","name":"pool","type":"address"},{"internalType":"address","name":"token0","type":"address"},{"internalType":"address","name":"token1","type":"address"},{"internalType":"uint160","name":"sqrtPriceX96","type":"uint160"},{"internalType":"uint128","name":"liquidity","type":"uint128"},{"internalType":"bool","name":"exists","type":"bool"}],"internalType":"struct GnosisFlashArbitrageV2.PoolInfo","name":"yesPoolInfo","type":"tuple"},{"components":[{"internalType":"address","name":"pool","type":"address"},{"internalType":"address","name":"token0","type":"address"},{"internalType":"address","name":"token1","type":"address"},{"internalType":"uint160","name":"sqrtPriceX96","type":"uint160"},{"internalType":"uint128","name":"liquidity","type":"uint128"},{"internalType":"bool","name":"exists","type":"bool"}],"internalType":"struct GnosisFlashArbitrageV2.PoolInfo","name":"noPoolInfo","type":"tuple"}],"stateMutability":"view","type":"function"},{"inputs":[],"name":"balancerVault","outputs":[{"internalType":"contract IBalancerVault","name":"","type":"address"}],"stateMutability":"view","type":"function"},{"inputs":[{"internalType":"address","name":"proposalAddress","type":"address"},{"internalType":"address","name":"borrowToken","type":"address"},{"internalType":"uint256","name":"borrowAmount","type":"uint256"},{"internalType":"enum GnosisFlashArbitrageV2.ArbitrageDirection","name":"direction","type":"uint8"},{"internalType":"uint256","name":"minProfit","type":"uint256"}],"name":"executeProposalArbitrage","outputs":[],"stateMutability":"nonpayable","type":"function"},{"inputs":[],"name":"futarchyRouter","outputs":[{"internalType":"contract IFutarchyRouter","name":"","type":"address"}],"stateMutability":"view","type":"function"},{"inputs":[{"internalType":"address","name":"poolAddress","type":"address"}],"name":"getPoolInfo","outputs":[{"components":[{"internalType":"address","name":"pool","type":"address"},{"internalType":"address","name":"token0","type":"address"},{"internalType":"address","name":"token1","type":"address"},{"internalType":"uint160","name":"sqrtPriceX96","type":"uint160"},{"internalType":"uint128","name":"liquidity","type":"uint128"},{"internalType":"bool","name":"exists","type":"bool"}],"internalType":"struct GnosisFlashArbitrageV2.PoolInfo","name":"info","type":"tuple"}],"stateMutability":"view","type":"function"},{"inputs":[],"name":"gnoToken","outputs":[{"internalType":"address","name":"","type":"address"}],"stateMutability":"view","type":"function"},{"inputs":[{"internalType":"address","name":"proposalAddress","type":"address"}],"name":"loadProposal","outputs":[{"components":[{"internalType":"address","name":"proposal","type":"address"},{"internalType":"address","name":"collateralToken1","type":"address"},{"internalType":"address","name":"collateralToken2","type":"address"},{"internalType":"address","name":"yesGno","type":"address"},{"internalType":"address","name":"noGno","type":"address"},{"internalType":"address","name":"yesSdai","type":"address"},{"internalType":"address","name":"noSdai","type":"address"},{"internalType":"address","name":"yesPool","type":"address"},{"internalType":"address","name":"noPool","type":"address"},{"internalType":"bool","name":"isValid","type":"bool"}],"internalType":"struct GnosisFlashArbitrageV2.ProposalInfo","name":"info","type":"tuple"}],"stateMutability":"view","type":"function"},{"inputs":[],"name":"owner","outputs":[{"internalType":"address","name":"","type":"address"}],"stateMutability":"view","type":"function"},{"inputs":[{"internalType":"contract IERC20[]","name":"tokens","type":"address[]"},{"internalType":"uint256[]","name":"amounts","type":"uint256[]"},{"internalType":"uint256[]","name":"feeAmounts","type":"uint256[]"},{"internalType":"bytes","name":"userData","type":"bytes"}],"name":"receiveFlashLoan","outputs":[],"stateMutability":"nonpayable","type":"function"},{"inputs":[{"internalType":"address","name":"token","type":"address"},{"internalType":"uint256","name":"amount","type":"uint256"}],"name":"recoverTokens","outputs":[],"stateMutability":"nonpayable","type":"function"},{"inputs":[],"name":"renounceOwnership","outputs":[],"stateMutability":"nonpayable","type":"function"},{"inputs":[],"name":"sdaiToken","outputs":[{"internalType":"address","name":"","type":"address"}],"stateMutability":"view","type":"function"},{"inputs":[{"internalType":"address","name":"_balancerVault","type":"address"},{"internalType":"address","name":"_swaprRouter","type":"address"},{"internalType":"address","name":"_futarchyRouter","type":"address"},{"internalType":"address","name":"_algebraFactory","type":"address"}],"name":"setContracts","outputs":[],"stateMutability":"nonpayable","type":"function"},{"inputs":[{"internalType":"address","name":"_gno","type":"address"},{"internalType":"address","name":"_sdai","type":"address"}],"name":"setExpectedTokens","outputs":[],"stateMutability":"nonpayable","type":"function"},{"inputs":[],"name":"swaprRouter","outputs":[{"internalType":"contract IAlgebraSwapRouter","name":"","type":"address"}],"stateMutability":"view","type":"function"},{"inputs":[{"internalType":"address","name":"newOwner","type":"address"}],"name":"transferOwnership","outputs":[],"stateMutability":"nonpayable","type":"function"},{"stateMutability":"payable","type":"receive"}],"evm":{"bytecode":{"linkReferences":{},"object":"6080346200015657601f6200261a38819003918201601f19168301916001600160401b038311848410176200015b5780849260c09460405283398101031262000156576200004d8162000171565b6200005b6020830162000171565b916200006a6040820162000171565b90620000796060820162000171565b916200009660a06200008e6080850162000171565b930162000171565b9133156200013d576000549560018060a01b03948580948180948160018060a01b03199b8d8d339116176000556040519d823391167f8be0079c531659141344cd1fd0a4f28419497f9722a3daafe3b4186f6b6457e0600080a360018055168b600254161760025516896003541617600355168760045416176004551685600554161760055516836006541617600655169060075416176007556124939081620001878239f35b604051631e4fbdf760e01b815260006004820152602490fd5b600080fd5b634e487b7160e01b600052604160045260246000fd5b51906001600160a01b0382168203620001565756fe6080604052600436101561001b575b361561001957600080fd5b005b600060e08135811c908163069c9fae1461176657816306bfa938146117355781630db188b11461170c578163158274a5146116e35781634ad74299146116ba5781634c16effc1461168857816350b1776a146115d7578163715018a61461157d5781638da5cb5b14611556578163a7b64b041461152d578163aeda99ef14611504578163b4830f5614610f83578163bf989b6e14610eb1578163c61f218414610e88578163e2d1af1e14610e32578163f04f270714610172575063f2fde38b146100e5575061000e565b3461016f57602036600319011261016f576100fe61179f565b610106612128565b6001600160a01b0390811690811561015657600054826001600160601b0360a01b821617600055167f8be0079c531659141344cd1fd0a4f28419497f9722a3daafe3b4186f6b6457e0600080a380f35b604051631e4fbdf760e01b815260048101849052602490fd5b80fd5b823461016f57608036600319011261016f5767ffffffffffffffff91600435838111610e2e5736602382011215610e2e5760249360048201356101b4816118fe565b926101c260405194856118dc565b818452602091878386019160051b83010191368311610ce1578801905b828210610e0f575050508535828111610e0b57610200903690600401611916565b92604435838111610e0757610219903690600401611916565b94606435938411610e075736602385011215610e075783600401359561023e87611976565b9661024c60405198896118dc565b80885284880195368b8383010111610d2557818a928c8893018937890101526002546001600160a01b03959086163303610dcd576040888051810103126108855751968588168098036108855760400151926004841015610885576102bf866102b76102c6936120bf565b5116976120bf565b51916120bf565b51810196878211610dba57856102dc8892611d49565b93856104cd578461030695965001818151161515806104bd575b6102ff906121f3565b5116612235565b5060a081015183168481036104b85750826060820151165b6040516370a0823160e01b81523060048201529083828a818885165afa9182156104ad57889261047e575b508482610465575b505050505b6040516370a0823160e01b815230600482015281818881875afa90811561045a578691610428575b508481106103e6578461039091612105565b600b54116103ac57506103a99394506002541690612154565b80f35b6064906014876040519262461bcd60e51b845260048401528201527350726f6669742062656c6f77206d696e696d756d60601b6044820152fd5b606487836040519162461bcd60e51b83528160048401528201527f496e73756666696369656e7420746f20726570617920666c617368206c6f616e6044820152fd5b90508181813d8311610453575b61043f81836118dc565b8101031261044e57518761037e565b600080fd5b503d610435565b6040513d88823e3d90fd5b61010061047494015116612235565b5086808084610351565b9091508381813d83116104a6575b61049681836118dc565b8101031261044e57519089610349565b503d61048c565b6040513d8a823e3d90fd5b61031e565b50610100860151821615156102f6565b9150929193600181146000146105b6575061050890820193838551161515806105a6575b6104fa906121f3565b878461010085015116612235565b5060c0810151821686810361059e575060800151165b6040516370a0823160e01b81523060048201529083828a818885165afa9182156104ad57889261056f575b50848261055a575b50505050610356565b610565935116612235565b5086808084610551565b9091508381813d8311610597575b61058781836118dc565b8101031261044e57519089610549565b503d61057d565b91505061051e565b50610100830151841615156104f1565b9192909160028103610af15750506040820190858251168714610a9a5784830180516004805460405163095ea7b360e01b808252918b166001600160a01b03169281019290925260248201889052969291889082908b16818f816044810103925af1801561095357610a62575b50876004541690888087511691511690823b15610a5e576040516301abf04560e71b81526001600160a01b0391821660048201529116602482015260448101929092528a908290606490829084905af18015610a5357908a91610a3f575b505060608301908a8783511692876040518093816370a0823160e01b978882523060048301525afa918215610953578c92610a10575b508882151580610a02575b6109e6575b50505050608083018a8688835116604051928380928782523060048301525afa90811561090c578b916109b9575b50801515806109a9575b61098b575b505060a08301938a8688875116604051928380928782523060048301525afa90811561090c578b9161095e575b508b8760c08701948a865116926040518094819382523060048301525afa908115610953579188918a938e9161091f575b50808210156109175750965b87610781575b5050505050505050610356565b5160048054604051868152908c166001600160a01b0316918101919091526024810189905292839116818e816044810103925af1801561090c579188879289946108c8575b509351600480546040519384528b166001600160a01b031690830152602482019290925292839116818c81604481015b03925af180156108bd57610889575b508480806004541693511691511690823b1561088557604051637abef8d160e01b81526001600160a01b03918216600482015291166024820152604481019290925286908290606490829084905af1801561045a5790869161086d575b808080868682610774565b61087690611896565b610881578487610862565b8480fd5b8880fd5b8481813d83116108b6575b61089e81836118dc565b81010312610885576108af90611a11565b5089610805565b503d610894565b6040513d8b823e3d90fd5b925050929181813d8311610905575b6108e181836118dc565b81010312610901576107f6928888936108fa8994611a11565b50946107c6565b8a80fd5b503d6108d7565b6040513d8d823e3d90fd5b90509661076e565b92809294508391503d831161094c575b61093981836118dc565b8101031261044e5788918891518f610762565b503d61092f565b6040513d8e823e3d90fd5b90508681813d8311610984575b61097581836118dc565b8101031261044e57518c610731565b503d61096b565b6109a19188806101008801511691511690612235565b508a80610704565b50876101008601511615156106ff565b90508681813d83116109df575b6109d081836118dc565b8101031261044e57518c6106f5565b503d6109c6565b806109f8948801511691511690612235565b508a8080886106c7565b5080848801511615156106c2565b9091508781813d8311610a38575b610a2881836118dc565b8101031261044e5751908d6106b7565b503d610a1e565b610a4890611896565b61088557888b610681565b6040513d8c823e3d90fd5b8c80fd5b8781813d8311610a93575b610a7781836118dc565b81010312610a8f57610a8890611a11565b508c610623565b8b80fd5b503d610a6d565b60405162461bcd60e51b815260048101869052602a818c01527f53504f545f53504c495420726571756972657320626f72726f77696e6720474e6044820152694f206469726563746c7960b01b6064820152608490fd5b600390949192939414610b075750505050610356565b60011c9183015116818682610da8575b5050508361010083015116908582610d96575b50505060608101908382511660405184818b816370a0823160e01b958682523060048301525afa9081156108bd578991610d69575b5060808301918587845116918c6040518094819382523060048301525afa908115610a5357908792918b91610d38575b5080821015610d305750935b84610ba8575b5090610551565b516004805460405163095ea7b360e01b808252918a166001600160a01b031692810192909252602482018790529290918791839116818d816044810103925af18015610a5357918786928894610cec575b509351600480546040519384528a166001600160a01b031690830152602482019290925292839116818b81604481015b03925af180156104ad57610cb4575b508360045416908484818351169201511690823b1561088557604051637abef8d160e01b81526001600160a01b03918216600482015291166024820152604481019290925286908290606490829084905af1801561045a57908691610ca0575b808481610ba1565b610ca990611896565b610881578487610c98565b8381813d8311610ce5575b610cc981836118dc565b81010312610ce157610cda90611a11565b5088610c38565b8780fd5b503d610cbf565b925050929181813d8311610d29575b610d0581836118dc565b81010312610d2557610c2992878793610d1e8894611a11565b5094610bf9565b8980fd5b503d610cfb565b905093610b9b565b809350878092503d8311610d62575b610d5181836118dc565b8101031261044e578691518c610b8f565b503d610d47565b90508481813d8311610d8f575b610d8081836118dc565b8101031261044e57518a610b5f565b503d610d76565b610d9f92612235565b50878085610b2a565b610db192612235565b50888186610b17565b634e487b7160e01b895260116004528989fd5b60405162461bcd60e51b8152600481018690526013818c01527213db9b1e4810985b185b98d95c8815985d5b1d606a1b6044820152606490fd5b8680fd5b8580fd5b81356001600160a01b03811681036108855781529083019083016101df565b8280fd5b823461016f57604036600319011261016f57610e4c61179f565b610e546117b5565b610e5c612128565b60018060a01b0390816001600160601b0360a01b93168360065416176006551690600754161760075580f35b823461016f578060031936011261016f576006546040516001600160a01b039091168152602090f35b823461016f57608036600319011261016f57610ecb61179f565b610ed36117b5565b6001600160a01b03604435818116929083900361044e576064359382851680950361044e578290610f02612128565b1680610f6a575b501680610f51575b5080610f38575b5080610f22575080f35b6001600160601b0360a01b600554161760055580f35b6001600160601b0360a01b600454161760045582610f18565b6001600160601b0360a01b600354161760035583610f11565b6001600160601b0360a01b600254161760025585610f09565b9050346115005760a036600319011261150057610f9e61179f565b610fa66117b5565b91600460643510156114fc5760843590610fbe612128565b6002600154146114ea576002600155610fd683611d49565b9061012082015115611490578101805161010090610ffc906001600160a01b0316611a1e565b92018051909190611015906001600160a01b0316611a1e565b9060a084015115801590611483575b1561143e5751608093840151925191840151604080516001600160a01b0393841681526001600160801b039586166020820152938316908401529092166060820152908416917fd90ad5a9a96a2cc69b90ec290ccb6ef651d2507f677baba2ff37a8bd3336731a91a26040516370a0823160e01b8152306004820152906020826024816001600160a01b0388165afa91821561139a57859261140a575b5060405167ffffffffffffffff919060a08101838111828210176113f65760405260018060a01b038516815260018060a01b0386166020820152604435604082015281606082015260806064359101526001600160601b0360a01b60018060a01b03851681600854161760085560018060a01b038616906009541617600955604435600a55600b5560ff19600c541660ff6064351617600c55604051611166816118c0565b60018152602036818301376001600160a01b038516611184826120bf565b5260405190611192826118c0565b60018252602036818401376044356111a9836120bf565b52600254604080516001600160a01b038881166020830152909592169291906111d69086016064356120e2565b60408552846060810110906060860111176113f65760608401604052813b15610ce15790879291632e1c224f60e11b606086015260e4850130606487015260806084870152815180915260206101048701920190855b8181106113d4575050506063198582030160a486015260208084519283815201930190845b8181106113bb575050506063198483030160c4850152835180835261127d816020850160208801611cb5565b6060850192601f909101601f191601849003603f190190829084905af1801561139a576113a5575b506040516370a0823160e01b81523060048201526020816024816001600160a01b0388165afa90811561139a578591611364575b509161130860a0927f54577c03a6068d982e6e64819897c53751527329a92f19bdd64963313175c4a194612105565b8061134d575b6040519461131e866064356120e2565b600180851b0316602086015260443560408601526060850152336080850152600180831b031692a26001805580f35b61135f8133600180871b038816612154565b61130e565b9290506020833d602011611392575b81611380602093836118dc565b8101031261044e5791516113086112d9565b3d9150611373565b6040513d87823e3d90fd5b60606113b49195929501611896565b92386112a5565b825185528a955060209485019490920191600101611251565b82516001600160a01b031684528b96506020938401939092019160010161122c565b634e487b7160e01b88526041600452602488fd5b9091506020813d602011611436575b81611426602093836118dc565b81010312610881575190386110c1565b3d9150611419565b60405162461bcd60e51b815260206004820152601c60248201527f4e6f20706f6f6c7320666f756e6420666f7220617262697472616765000000006044820152606490fd5b5060a08201511515611024565b60405162461bcd60e51b815260206004820152602c60248201527f496e76616c69642070726f706f73616c3a20636f6c6c61746572616c20746f6b60448201526b0cadce640dad2e6dac2e8c6d60a31b6064820152608490fd5b604051633ee5aeb560e01b8152600490fd5b8380fd5b5080fd5b823461016f578060031936011261016f576007546040516001600160a01b039091168152602090f35b823461016f578060031936011261016f576005546040516001600160a01b039091168152602090f35b823461016f578060031936011261016f57546040516001600160a01b039091168152602090f35b823461016f578060031936011261016f57611596612128565b80546001600160a01b03198116825581906001600160a01b03167f8be0079c531659141344cd1fd0a4f28419497f9722a3daafe3b4186f6b6457e08280a380f35b905034611500576020366003190112611500576116516102c0926115f961179f565b9050611603611c43565b5061160c611992565b61161d611617611992565b92611d49565b93610120850151611653575b506116469061163b604051809661181a565b6101408501906117cb565b6102008301906117cb565bf35b8401516001600160a01b039250611646915061168190611674908416611a1e565b9261010086015116611a1e565b9190611629565b823461016f57602036600319011261016f576101406116ad6116a861179f565b611d49565b611651604051809261181a565b823461016f578060031936011261016f576003546040516001600160a01b039091168152602090f35b823461016f578060031936011261016f576002546040516001600160a01b039091168152602090f35b823461016f578060031936011261016f576004546040516001600160a01b039091168152602090f35b823461016f57602036600319011261016f5760c061175961175461179f565b611a1e565b61165160405180926117cb565b823461016f57604036600319011261016f576103a961178361179f565b61178b612128565b6024359033906001600160a01b0316612154565b600435906001600160a01b038216820361044e57565b602435906001600160a01b038216820361044e57565b60a08091600180831b0380825116855280602083015116602086015280604083015116604086015260608201511660608501526001600160801b03608082015116608085015201511515910152565b60018060a01b038082511683528060208301511660208401528060408301511660408401528060608301511660608401528060808301511660808401528060a08301511660a08401528060c08301511660c08401528060e08301511660e084015261010090818301511690830152610120809101511515910152565b67ffffffffffffffff81116118aa57604052565b634e487b7160e01b600052604160045260246000fd5b6040810190811067ffffffffffffffff8211176118aa57604052565b90601f8019910116810190811067ffffffffffffffff8211176118aa57604052565b67ffffffffffffffff81116118aa5760051b60200190565b9080601f8301121561044e576020908235611930816118fe565b9361193e60405195866118dc565b81855260208086019260051b82010192831161044e57602001905b828210611967575050505090565b81358152908301908301611959565b67ffffffffffffffff81116118aa57601f01601f191660200190565b6040519060c0820182811067ffffffffffffffff8211176118aa576040528160a06000918281528260208201528260408201528260608201528260808201520152565b9081602091031261044e57516001600160a01b038116810361044e5790565b519061ffff8216820361044e57565b519060ff8216820361044e57565b5190811515820361044e57565b611a26611992565b906001600160a01b039081168015611c375780835260408051630dfe168160e01b815260209391908481600481875afa908115611be257908391600091611c1a575b501685850152805163d21220a760e01b81528481600481875afa908115611be257908391600091611bed575b5016858201528051630d34328160e11b8152938085600481875afa948515611be257600095611ba2575b50600460e060808801956001600160801b0380981687528451928380926339db007960e21b82525afa928315611b9857600093611b0b575b5050501660608401525116151560a082015290565b90919260e0833d60e011611b90575b81611b2760e093836118dc565b8101031261016f578251938585168503611500578301518060020b0361016f575081611b5960c092611b8794016119f4565b50611b66606082016119f4565b50611b7360808201611a03565b50611b8060a08201611a03565b5001611a11565b50388080611af6565b3d9150611b1a565b513d6000823e3d90fd5b81818197933d8311611bdb575b611bb981836118dc565b810103126115005751906001600160801b038216820361016f57509338611abe565b503d611baf565b82513d6000823e3d90fd5b611c0d9150863d8811611c13575b611c0581836118dc565b8101906119d5565b38611a94565b503d611bfb565b611c319150863d8811611c1357611c0581836118dc565b38611a68565b5050600060a082015290565b60405190610140820182811067ffffffffffffffff8211176118aa57604052816101206000918281528260208201528260408201528260608201528260808201528260a08201528260c08201528260e0820152826101008201520152565b51906001600160a01b038216820361044e57565b60005b838110611cc85750506000910152565b8181015183820152602001611cb8565b919060408382031261044e57611ced83611ca1565b9260208101519067ffffffffffffffff821161044e570181601f8201121561044e578051611d1a81611976565b92611d2860405194856118dc565b8184526020828401011161044e57611d469160208085019101611cb5565b90565b611d51611c43565b6001600160a01b0391821680825260408051624d7b0960e81b815292939290916004916020919082818581855afa9081156120b45760009161207f575b508516868301908152845163625048e960e11b815283818681865afa8015612028578790600090612049575b819250169182878a01525116866006541614908161203b575b50158015610120880152612033578351630315311560e31b93848252600081830152600082602481865afa9182156120285760009261200a575b50855191858352600182840152600083602481875afa928315611fc157600093611fec575b50865195808752600283880152600087602481885afa968715611f8e57600097611fcc575b50600090602489518097819382526003878301525afa938415611fc157908891600095611f99575b50811660608a0181905292811660808a01908152951660a0890181905292871660c08901908152600554875163d9a641e160e01b8082526001600160a01b0395861685830190815295909616602086015294969194908916938690829081906040010381875afa908115611f8e5786959493928a80938193600091611f71575b501660e08d0152519451895198895294166001600160a01b039081169288019283529316909216602083015284918290819060400103915afa928315611b985750600092611f54575b50501661010082015290565b611f6a9250803d10611c1357611c0581836118dc565b3880611f48565b611f889150893d8b11611c1357611c0581836118dc565b38611eff565b88513d6000823e3d90fd5b82919550611fb9903d806000833e611fb181836118dc565b810190611cd8565b509490611e7f565b87513d6000823e3d90fd5b6000919750611fe4903d8084833e611fb181836118dc565b509690611e57565b6120029193503d806000833e611fb181836118dc565b509138611e32565b6120209192503d806000833e611fb181836118dc565b509038611e0d565b86513d6000823e3d90fd5b505050505090565b905085600754161438611dd3565b50508381813d8311612078575b61206081836118dc565b8101031261044e57866120738192611ca1565b611dba565b503d612056565b90508281813d83116120ad575b61209681836118dc565b8101031261044e576120a790611ca1565b38611d8e565b503d61208c565b85513d6000823e3d90fd5b8051156120cc5760200190565b634e487b7160e01b600052603260045260246000fd5b9060048210156120ef5752565b634e487b7160e01b600052602160045260246000fd5b9190820391821161211257565b634e487b7160e01b600052601160045260246000fd5b6000546001600160a01b0316330361213c57565b60405163118cdaa760e01b8152336004820152602490fd5b60405163a9059cbb60e01b60208083019182526001600160a01b0394909416602483015260448083019590955293815290926000916121946064826118dc565b519082855af1156121e7576000513d6121de57506001600160a01b0381163b155b6121bc5750565b604051635274afe760e01b81526001600160a01b039091166004820152602490fd5b600114156121b5565b6040513d6000823e3d90fd5b156121fa57565b60405162461bcd60e51b8152602060048201526013602482015272109bdd1a081c1bdbdb1cc81c995c5d5a5c9959606a1b6044820152606490fd5b6001600160a01b039081169290919083158015612455575b61244c576040938451630dfe168160e01b81526020938482600481865afa918215611fc157859060009361242c575b50875163d21220a760e01b81529293839060049082905afa918215611fc15790869160009361240d575b50169185811683036124055750905b600354865163095ea7b360e01b81529086166001600160a01b031660048201526024810184905284816044816000865af18015611fc1576123d1575b5085519160e083019083821067ffffffffffffffff8311176118aa578594889388938552855282868601921682528385019030825260608601428152608087019182528460a0880193600085528160c08a019660008852816003541699519d8e9b63178ca23160e31b8d52511660048c0152511660248a0152511660448801525160648701525160848601525160a4850152511660c4830152815a60e492600091f1928315611b9857506000926123a757505090565b90809250813d83116123ca575b6123be81836118dc565b8101031261044e575190565b503d6123b4565b8481813d83116123fe575b6123e681836118dc565b8101031261044e576123f790611a11565b50386122f1565b503d6123dc565b9050906122b5565b612425919350863d8811611c1357611c0581836118dc565b91386122a6565b6004935061244690823d8411611c1357611c0581836118dc565b9261227c565b50505050600090565b50801561224d56fea264697066735822122069fe4ab92205539a7e7ad2d1cc1f043048d67a6e4e1656ee1ccf3c3a36f73c6d64736f6c63430008180033","opcodes":"PUSH1 0x80 CALLVALUE PUSH3 0x156 JUMPI PUSH1 0x1F PUSH3 0x261A CODESIZE DUP2 SWAP1 SUB SWAP2 DUP3 ADD PUSH1 0x1F NOT AND DUP4 ADD SWAP2 PUSH1 0x1 PUSH1 0x1 PUSH1 0x40 SHL SUB DUP4 GT DUP5 DUP5 LT OR PUSH3 0x15B JUMPI DUP1 DUP5 SWAP3 PUSH1 0xC0 SWAP5 PUSH1 0x40 MSTORE DUP4 CODECOPY DUP2 ADD SUB SLT PUSH3 0x156 JUMPI PUSH3 0x4D DUP2 PUSH3 0x171 JUMP JUMPDEST PUSH3 0x5B PUSH1 0x20 DUP4 ADD PUSH3 0x171 JUMP JUMPDEST SWAP2 PUSH3 0x6A PUSH1 0x40 DUP3 ADD PUSH3 0x171 JUMP JUMPDEST SWAP1 PUSH3 0x79 PUSH1 0x60 DUP3 ADD PUSH3 0x171 JUMP JUMPDEST SWAP2 PUSH3 0x96 PUSH1 0xA0 PUSH3 0x8E PUSH1 0x80 DUP6 ADD PUSH3 0x171 JUMP JUMPDEST SWAP4 ADD PUSH3 0x171 JUMP JUMPDEST SWAP2 CALLER ISZERO PUSH3 0x13D JUMPI PUSH1 0x0 SLOAD SWAP6 PUSH1 0x1 DUP1 PUSH1 0xA0 SHL SUB SWAP5 DUP6 DUP1 SWAP5 DUP2 DUP1 SWAP5 DUP2 PUSH1 0x1 DUP1 PUSH1 0xA0 SHL SUB NOT SWAP12 DUP14 DUP14 CALLER SWAP2 AND OR PUSH1 0x0 SSTORE PUSH1 0x40 MLOAD SWAP14 DUP3 CALLER SWAP2 AND PUSH32 0x8BE0079C531659141344CD1FD0A4F28419497F9722A3DAAFE3B4186F6B6457E0 PUSH1 0x0 DUP1 LOG3 PUSH1 0x1 DUP1 SSTORE AND DUP12 PUSH1 0x2 SLOAD AND OR PUSH1 0x2 SSTORE AND DUP10 PUSH1 0x3 SLOAD AND OR PUSH1 0x3 SSTORE AND DUP8 PUSH1 0x4 SLOAD AND OR PUSH1 0x4 SSTORE AND DUP6 PUSH1 0x5 SLOAD AND OR PUSH1 0x5 SSTORE AND DUP4 PUSH1 0x6 SLOAD AND OR PUSH1 0x6 SSTORE AND SWAP1 PUSH1 0x7 SLOAD AND OR PUSH1 0x7 SSTORE PUSH2 0x2493 SWAP1 DUP2 PUSH3 0x187 DUP3 CODECOPY RETURN JUMPDEST PUSH1 0x40 MLOAD PUSH4 0x1E4FBDF7 PUSH1 0xE0 SHL DUP2 MSTORE PUSH1 0x0 PUSH1 0x4 DUP3 ADD MSTORE PUSH1 0x24 SWAP1 REVERT JUMPDEST PUSH1 0x0 DUP1 REVERT JUMPDEST PUSH4 0x4E487B71 PUSH1 0xE0 SHL PUSH1 0x0 MSTORE PUSH1 0x41 PUSH1 0x4 MSTORE PUSH1 0x24 PUSH1 0x0 REVERT JUMPDEST MLOAD SWAP1 PUSH1 0x1 PUSH1 0x1 PUSH1 0xA0 SHL SUB DUP3 AND DUP3 SUB PUSH3 0x156 JUMPI JUMP INVALID PUSH1 0x80 PUSH1 0x40 MSTORE PUSH1 0x4 CALLDATASIZE LT ISZERO PUSH2 0x1B JUMPI JUMPDEST CALLDATASIZE ISZERO PUSH2 0x19 JUMPI PUSH1 0x0 DUP1 REVERT JUMPDEST STOP JUMPDEST PUSH1 0x0 PUSH1 0xE0 DUP2 CALLDATALOAD DUP2 SHR SWAP1 DUP2 PUSH4 0x69C9FAE EQ PUSH2 0x1766 JUMPI DUP2 PUSH4 0x6BFA938 EQ PUSH2 0x1735 JUMPI DUP2 PUSH4 0xDB188B1 EQ PUSH2 0x170C JUMPI DUP2 PUSH4 0x158274A5 EQ PUSH2 0x16E3 JUMPI DUP2 PUSH4 0x4AD74299 EQ PUSH2 0x16BA JUMPI DUP2 PUSH4 0x4C16EFFC EQ PUSH2 0x1688 JUMPI DUP2 PUSH4 0x50B1776A EQ PUSH2 0x15D7 JUMPI DUP2 PUSH4 0x715018A6 EQ PUSH2 0x157D JUMPI DUP2 PUSH4 0x8DA5CB5B EQ PUSH2 0x1556 JUMPI DUP2 PUSH4 0xA7B64B04 EQ PUSH2 0x152D JUMPI DUP2 PUSH4 0xAEDA99EF EQ PUSH2 0x1504 JUMPI DUP2 PUSH4 0xB4830F56 EQ PUSH2 0xF83 JUMPI DUP2 PUSH4 0xBF989B6E EQ PUSH2 0xEB1 JUMPI DUP2 PUSH4 0xC61F2184 EQ PUSH2 0xE88 JUMPI DUP2 PUSH4 0xE2D1AF1E EQ PUSH2 0xE32 JUMPI DUP2 PUSH4 0xF04F2707 EQ PUSH2 0x172 JUMPI POP PUSH4 0xF2FDE38B EQ PUSH2 0xE5 JUMPI POP PUSH2 0xE JUMP JUMPDEST CALLVALUE PUSH2 0x16F JUMPI PUSH1 0x20 CALLDATASIZE PUSH1 0x3 NOT ADD SLT PUSH2 0x16F JUMPI PUSH2 0xFE PUSH2 0x179F JUMP JUMPDEST PUSH2 0x106 PUSH2 0x2128 JUMP JUMPDEST PUSH1 0x1 PUSH1 0x1 PUSH1 0xA0 SHL SUB SWAP1 DUP2 AND SWAP1 DUP2 ISZERO PUSH2 0x156 JUMPI PUSH1 0x0 SLOAD DUP3 PUSH1 0x1 PUSH1 0x1 PUSH1 0x60 SHL SUB PUSH1 0xA0 SHL DUP3 AND OR PUSH1 0x0 SSTORE AND PUSH32 0x8BE0079C531659141344CD1FD0A4F28419497F9722A3DAAFE3B4186F6B6457E0 PUSH1 0x0 DUP1 LOG3 DUP1 RETURN JUMPDEST PUSH1 0x40 MLOAD PUSH4 0x1E4FBDF7 PUSH1 0xE0 SHL DUP2 MSTORE PUSH1 0x4 DUP2 ADD DUP5 SWAP1 MSTORE PUSH1 0x24 SWAP1 REVERT JUMPDEST DUP1 REVERT JUMPDEST DUP3 CALLVALUE PUSH2 0x16F JUMPI PUSH1 0x80 CALLDATASIZE PUSH1 0x3 NOT ADD SLT PUSH2 0x16F JUMPI PUSH8 0xFFFFFFFFFFFFFFFF SWAP2 PUSH1 0x4 CALLDATALOAD DUP4 DUP2 GT PUSH2 0xE2E JUMPI CALLDATASIZE PUSH1 0x23 DUP3 ADD SLT ISZERO PUSH2 0xE2E JUMPI PUSH1 0x24 SWAP4 PUSH1 0x4 DUP3 ADD CALLDATALOAD PUSH2 0x1B4 DUP2 PUSH2 0x18FE JUMP JUMPDEST SWAP3 PUSH2 0x1C2 PUSH1 0x40 MLOAD SWAP5 DUP6 PUSH2 0x18DC JUMP JUMPDEST DUP2 DUP5 MSTORE PUSH1 0x20 SWAP2 DUP8 DUP4 DUP7 ADD SWAP2 PUSH1 0x5 SHL DUP4 ADD ADD SWAP2 CALLDATASIZE DUP4 GT PUSH2 0xCE1 JUMPI DUP9 ADD SWAP1 JUMPDEST DUP3 DUP3 LT PUSH2 0xE0F JUMPI POP POP POP DUP6 CALLDATALOAD DUP3 DUP2 GT PUSH2 0xE0B JUMPI PUSH2 0x200 SWAP1 CALLDATASIZE SWAP1 PUSH1 0x4 ADD PUSH2 0x1916 JUMP JUMPDEST SWAP3 PUSH1 0x44 CALLDATALOAD DUP4 DUP2 GT PUSH2 0xE07 JUMPI PUSH2 0x219 SWAP1 CALLDATASIZE SWAP1 PUSH1 0x4 ADD PUSH2 0x1916 JUMP JUMPDEST SWAP5 PUSH1 0x64 CALLDATALOAD SWAP4 DUP5 GT PUSH2 0xE07 JUMPI CALLDATASIZE PUSH1 0x23 DUP6 ADD SLT ISZERO PUSH2 0xE07 JUMPI DUP4 PUSH1 0x4 ADD CALLDATALOAD SWAP6 PUSH2 0x23E DUP8 PUSH2 0x1976 JUMP JUMPDEST SWAP7 PUSH2 0x24C PUSH1 0x40 MLOAD SWAP9 DUP10 PUSH2 0x18DC JUMP JUMPDEST DUP1 DUP9 MSTORE DUP5 DUP9 ADD SWAP6 CALLDATASIZE DUP12 DUP4 DUP4 ADD ADD GT PUSH2 0xD25 JUMPI DUP2 DUP11 SWAP3 DUP13 DUP9 SWAP4 ADD DUP10 CALLDATACOPY DUP10 ADD ADD MSTORE PUSH1 0x2 SLOAD PUSH1 0x1 PUSH1 0x1 PUSH1 0xA0 SHL SUB SWAP6 SWAP1 DUP7 AND CALLER SUB PUSH2 0xDCD JUMPI PUSH1 0x40 DUP9 DUP1 MLOAD DUP2 ADD SUB SLT PUSH2 0x885 JUMPI MLOAD SWAP7 DUP6 DUP9 AND DUP1 SWAP9 SUB PUSH2 0x885 JUMPI PUSH1 0x40 ADD MLOAD SWAP3 PUSH1 0x4 DUP5 LT ISZERO PUSH2 0x885 JUMPI PUSH2 0x2BF DUP7 PUSH2 0x2B7 PUSH2 0x2C6 SWAP4 PUSH2 0x20BF JUMP JUMPDEST MLOAD AND SWAP8 PUSH2 0x20BF JUMP JUMPDEST MLOAD SWAP2 PUSH2 0x20BF JUMP JUMPDEST MLOAD DUP2 ADD SWAP7 DUP8 DUP3 GT PUSH2 0xDBA JUMPI DUP6 PUSH2 0x2DC DUP9 SWAP3 PUSH2 0x1D49 JUMP JUMPDEST SWAP4 DUP6 PUSH2 0x4CD JUMPI DUP5 PUSH2 0x306 SWAP6 SWAP7 POP ADD DUP2 DUP2 MLOAD AND ISZERO ISZERO DUP1 PUSH2 0x4BD JUMPI JUMPDEST PUSH2 0x2FF SWAP1 PUSH2 0x21F3 JUMP JUMPDEST MLOAD AND PUSH2 0x2235 JUMP JUMPDEST POP PUSH1 0xA0 DUP2 ADD MLOAD DUP4 AND DUP5 DUP2 SUB PUSH2 0x4B8 JUMPI POP DUP3 PUSH1 0x60 DUP3 ADD MLOAD AND JUMPDEST PUSH1 0x40 MLOAD PUSH4 0x70A08231 PUSH1 0xE0 SHL DUP2 MSTORE ADDRESS PUSH1 0x4 DUP3 ADD MSTORE SWAP1 DUP4 DUP3 DUP11 DUP2 DUP9 DUP6 AND GAS STATICCALL SWAP2 DUP3 ISZERO PUSH2 0x4AD JUMPI DUP9 SWAP3 PUSH2 0x47E JUMPI JUMPDEST POP DUP5 DUP3 PUSH2 0x465 JUMPI JUMPDEST POP POP POP POP JUMPDEST PUSH1 0x40 MLOAD PUSH4 0x70A08231 PUSH1 0xE0 SHL DUP2 MSTORE ADDRESS PUSH1 0x4 DUP3 ADD MSTORE DUP2 DUP2 DUP9 DUP2 DUP8 GAS STATICCALL SWAP1 DUP2 ISZERO PUSH2 0x45A JUMPI DUP7 SWAP2 PUSH2 0x428 JUMPI JUMPDEST POP DUP5 DUP2 LT PUSH2 0x3E6 JUMPI DUP5 PUSH2 0x390 SWAP2 PUSH2 0x2105 JUMP JUMPDEST PUSH1 0xB SLOAD GT PUSH2 0x3AC JUMPI POP PUSH2 0x3A9 SWAP4 SWAP5 POP PUSH1 0x2 SLOAD AND SWAP1 PUSH2 0x2154 JUMP JUMPDEST DUP1 RETURN JUMPDEST PUSH1 0x64 SWAP1 PUSH1 0x14 DUP8 PUSH1 0x40 MLOAD SWAP3 PUSH3 0x461BCD PUSH1 0xE5 SHL DUP5 MSTORE PUSH1 0x4 DUP5 ADD MSTORE DUP3 ADD MSTORE PUSH20 0x50726F6669742062656C6F77206D696E696D756D PUSH1 0x60 SHL PUSH1 0x44 DUP3 ADD MSTORE REVERT JUMPDEST PUSH1 0x64 DUP8 DUP4 PUSH1 0x40 MLOAD SWAP2 PUSH3 0x461BCD PUSH1 0xE5 SHL DUP4 MSTORE DUP2 PUSH1 0x4 DUP5 ADD MSTORE DUP3 ADD MSTORE PUSH32 0x496E73756666696369656E7420746F20726570617920666C617368206C6F616E PUSH1 0x44 DUP3 ADD MSTORE REVERT JUMPDEST SWAP1 POP DUP2 DUP2 DUP2 RETURNDATASIZE DUP4 GT PUSH2 0x453 JUMPI JUMPDEST PUSH2 0x43F DUP2 DUP4 PUSH2 0x18DC JUMP JUMPDEST DUP2 ADD SUB SLT PUSH2 0x44E JUMPI MLOAD DUP8 PUSH2 0x37E JUMP JUMPDEST PUSH1 0x0 DUP1 REVERT JUMPDEST POP RETURNDATASIZE PUSH2 0x435 JUMP JUMPDEST PUSH1 0x40 MLOAD RETURNDATASIZE DUP9 DUP3 RETURNDATACOPY RETURNDATASIZE SWAP1 REVERT JUMPDEST PUSH2 0x100 PUSH2 0x474 SWAP5 ADD MLOAD AND PUSH2 0x2235 JUMP JUMPDEST POP DUP7 DUP1 DUP1 DUP5 PUSH2 0x351 JUMP JUMPDEST SWAP1 SWAP2 POP DUP4 DUP2 DUP2 RETURNDATASIZE DUP4 GT PUSH2 0x4A6 JUMPI JUMPDEST PUSH2 0x496 DUP2 DUP4 PUSH2 0x18DC JUMP JUMPDEST DUP2 ADD SUB SLT PUSH2 0x44E JUMPI MLOAD SWAP1 DUP10 PUSH2 0x349 JUMP JUMPDEST POP RETURNDATASIZE PUSH2 0x48C JUMP JUMPDEST PUSH1 0x40 MLOAD RETURNDATASIZE DUP11 DUP3 RETURNDATACOPY RETURNDATASIZE SWAP1 REVERT JUMPDEST PUSH2 0x31E JUMP JUMPDEST POP PUSH2 0x100 DUP7 ADD MLOAD DUP3 AND ISZERO ISZERO PUSH2 0x2F6 JUMP JUMPDEST SWAP2 POP SWAP3 SWAP2 SWAP4 PUSH1 0x1 DUP2 EQ PUSH1 0x0 EQ PUSH2 0x5B6 JUMPI POP PUSH2 0x508 SWAP1 DUP3 ADD SWAP4 DUP4 DUP6 MLOAD AND ISZERO ISZERO DUP1 PUSH2 0x5A6 JUMPI JUMPDEST PUSH2 0x4FA SWAP1 PUSH2 0x21F3 JUMP JUMPDEST DUP8 DUP5 PUSH2 0x100 DUP6 ADD MLOAD AND PUSH2 0x2235 JUMP JUMPDEST POP PUSH1 0xC0 DUP2 ADD MLOAD DUP3 AND DUP7 DUP2 SUB PUSH2 0x59E JUMPI POP PUSH1 0x80 ADD MLOAD AND JUMPDEST PUSH1 0x40 MLOAD PUSH4 0x70A08231 PUSH1 0xE0 SHL DUP2 MSTORE ADDRESS PUSH1 0x4 DUP3 ADD MSTORE SWAP1 DUP4 DUP3 DUP11 DUP2 DUP9 DUP6 AND GAS STATICCALL SWAP2 DUP3 ISZERO PUSH2 0x4AD JUMPI DUP9 SWAP3 PUSH2 0x56F JUMPI JUMPDEST POP DUP5 DUP3 PUSH2 0x55A JUMPI JUMPDEST POP POP POP POP PUSH2 0x356 JUMP JUMPDEST PUSH2 0x565 SWAP4 MLOAD AND PUSH2 0x2235 JUMP JUMPDEST POP DUP7 DUP1 DUP1 DUP5 PUSH2 0x551 JUMP JUMPDEST SWAP1 SWAP2 POP DUP4 DUP2 DUP2 RETURNDATASIZE DUP4 GT PUSH2 0x597 JUMPI JUMPDEST PUSH2 0x587 DUP2 DUP4 PUSH2 0x18DC JUMP JUMPDEST DUP2 ADD SUB SLT PUSH2 0x44E JUMPI MLOAD SWAP1 DUP10 PUSH2 0x549 JUMP JUMPDEST POP RETURNDATASIZE PUSH2 0x57D JUMP JUMPDEST SWAP2 POP POP PUSH2 0x51E JUMP JUMPDEST POP PUSH2 0x100 DUP4 ADD MLOAD DUP5 AND ISZERO ISZERO PUSH2 0x4F1 JUMP JUMPDEST SWAP2 SWAP3 SWAP1 SWAP2 PUSH1 0x2 DUP2 SUB PUSH2 0xAF1 JUMPI POP POP PUSH1 0x40 DUP3 ADD SWAP1 DUP6 DUP3 MLOAD AND DUP8 EQ PUSH2 0xA9A JUMPI DUP5 DUP4 ADD DUP1 MLOAD PUSH1 0x4 DUP1 SLOAD PUSH1 0x40 MLOAD PUSH4 0x95EA7B3 PUSH1 0xE0 SHL DUP1 DUP3 MSTORE SWAP2 DUP12 AND PUSH1 0x1 PUSH1 0x1 PUSH1 0xA0 SHL SUB AND SWAP3 DUP2 ADD SWAP3 SWAP1 SWAP3 MSTORE PUSH1 0x24 DUP3 ADD DUP9 SWAP1 MSTORE SWAP7 SWAP3 SWAP2 DUP9 SWAP1 DUP3 SWAP1 DUP12 AND DUP2 DUP16 DUP2 PUSH1 0x44 DUP2 ADD SUB SWAP3 GAS CALL DUP1 ISZERO PUSH2 0x953 JUMPI PUSH2 0xA62 JUMPI JUMPDEST POP DUP8 PUSH1 0x4 SLOAD AND SWAP1 DUP9 DUP1 DUP8 MLOAD AND SWAP2 MLOAD AND SWAP1 DUP3 EXTCODESIZE ISZERO PUSH2 0xA5E JUMPI PUSH1 0x40 MLOAD PUSH4 0x1ABF045 PUSH1 0xE7 SHL DUP2 MSTORE PUSH1 0x1 PUSH1 0x1 PUSH1 0xA0 SHL SUB SWAP2 DUP3 AND PUSH1 0x4 DUP3 ADD MSTORE SWAP2 AND PUSH1 0x24 DUP3 ADD MSTORE PUSH1 0x44 DUP2 ADD SWAP3 SWAP1 SWAP3 MSTORE DUP11 SWAP1 DUP3 SWAP1 PUSH1 0x64 SWAP1 DUP3 SWAP1 DUP5 SWAP1 GAS CALL DUP1 ISZERO PUSH2 0xA53 JUMPI SWAP1 DUP11 SWAP2 PUSH2 0xA3F JUMPI JUMPDEST POP POP PUSH1 0x60 DUP4 ADD SWAP1 DUP11 DUP8 DUP4 MLOAD AND SWAP3 DUP8 PUSH1 0x40 MLOAD DUP1 SWAP4 DUP2 PUSH4 0x70A08231 PUSH1 0xE0 SHL SWAP8 DUP9 DUP3 MSTORE ADDRESS PUSH1 0x4 DUP4 ADD MSTORE GAS STATICCALL SWAP2 DUP3 ISZERO PUSH2 0x953 JUMPI DUP13 SWAP3 PUSH2 0xA10 JUMPI JUMPDEST POP DUP9 DUP3 ISZERO ISZERO DUP1 PUSH2 0xA02 JUMPI JUMPDEST PUSH2 0x9E6 JUMPI JUMPDEST POP POP POP POP PUSH1 0x80 DUP4 ADD DUP11 DUP7 DUP9 DUP4 MLOAD AND PUSH1 0x40 MLOAD SWAP3 DUP4 DUP1 SWAP3 DUP8 DUP3 MSTORE ADDRESS PUSH1 0x4 DUP4 ADD MSTORE GAS STATICCALL SWAP1 DUP2 ISZERO PUSH2 0x90C JUMPI DUP12 SWAP2 PUSH2 0x9B9 JUMPI JUMPDEST POP DUP1 ISZERO ISZERO DUP1 PUSH2 0x9A9 JUMPI JUMPDEST PUSH2 0x98B JUMPI JUMPDEST POP POP PUSH1 0xA0 DUP4 ADD SWAP4 DUP11 DUP7 DUP9 DUP8 MLOAD AND PUSH1 0x40 MLOAD SWAP3 DUP4 DUP1 SWAP3 DUP8 DUP3 MSTORE ADDRESS PUSH1 0x4 DUP4 ADD MSTORE GAS STATICCALL SWAP1 DUP2 ISZERO PUSH2 0x90C JUMPI DUP12 SWAP2 PUSH2 0x95E JUMPI JUMPDEST POP DUP12 DUP8 PUSH1 0xC0 DUP8 ADD SWAP5 DUP11 DUP7 MLOAD AND SWAP3 PUSH1 0x40 MLOAD DUP1 SWAP5 DUP2 SWAP4 DUP3 MSTORE ADDRESS PUSH1 0x4 DUP4 ADD MSTORE GAS STATICCALL SWAP1 DUP2 ISZERO PUSH2 0x953 JUMPI SWAP2 DUP9 SWAP2 DUP11 SWAP4 DUP15 SWAP2 PUSH2 0x91F JUMPI JUMPDEST POP DUP1 DUP3 LT ISZERO PUSH2 0x917 JUMPI POP SWAP7 JUMPDEST DUP8 PUSH2 0x781 JUMPI JUMPDEST POP POP POP POP POP POP POP POP PUSH2 0x356 JUMP JUMPDEST MLOAD PUSH1 0x4 DUP1 SLOAD PUSH1 0x40 MLOAD DUP7 DUP2 MSTORE SWAP1 DUP13 AND PUSH1 0x1 PUSH1 0x1 PUSH1 0xA0 SHL SUB AND SWAP2 DUP2 ADD SWAP2 SWAP1 SWAP2 MSTORE PUSH1 0x24 DUP2 ADD DUP10 SWAP1 MSTORE SWAP3 DUP4 SWAP2 AND DUP2 DUP15 DUP2 PUSH1 0x44 DUP2 ADD SUB SWAP3 GAS CALL DUP1 ISZERO PUSH2 0x90C JUMPI SWAP2 DUP9 DUP8 SWAP3 DUP10 SWAP5 PUSH2 0x8C8 JUMPI JUMPDEST POP SWAP4 MLOAD PUSH1 0x4 DUP1 SLOAD PUSH1 0x40 MLOAD SWAP4 DUP5 MSTORE DUP12 AND PUSH1 0x1 PUSH1 0x1 PUSH1 0xA0 SHL SUB AND SWAP1 DUP4 ADD MSTORE PUSH1 0x24 DUP3 ADD SWAP3 SWAP1 SWAP3 MSTORE SWAP3 DUP4 SWAP2 AND DUP2 DUP13 DUP2 PUSH1 0x44 DUP2 ADD JUMPDEST SUB SWAP3 GAS CALL DUP1 ISZERO PUSH2 0x8BD JUMPI PUSH2 0x889 JUMPI JUMPDEST POP DUP5 DUP1 DUP1 PUSH1 0x4 SLOAD AND SWAP4 MLOAD AND SWAP2 MLOAD AND SWAP1 DUP3 EXTCODESIZE ISZERO PUSH2 0x885 JUMPI PUSH1 0x40 MLOAD PUSH4 0x7ABEF8D1 PUSH1 0xE0 SHL DUP2 MSTORE PUSH1 0x1 PUSH1 0x1 PUSH1 0xA0 SHL SUB SWAP2 DUP3 AND PUSH1 0x4 DUP3 ADD MSTORE SWAP2 AND PUSH1 0x24 DUP3 ADD MSTORE PUSH1 0x44 DUP2 ADD SWAP3 SWAP1 SWAP3 MSTORE DUP7 SWAP1 DUP3 SWAP1 PUSH1 0x64 SWAP1 DUP3 SWAP1 DUP5 SWAP1 GAS CALL DUP1 ISZERO PUSH2 0x45A JUMPI SWAP1 DUP7 SWAP2 PUSH2 0x86D JUMPI JUMPDEST DUP1 DUP1 DUP1 DUP7 DUP7 DUP3 PUSH2 0x774 JUMP JUMPDEST PUSH2 0x876 SWAP1 PUSH2 0x1896 JUMP JUMPDEST PUSH2 0x881 JUMPI DUP5 DUP8 PUSH2 0x862 JUMP JUMPDEST DUP5 DUP1 REVERT JUMPDEST DUP9 DUP1 REVERT JUMPDEST DUP5 DUP2 DUP2 RETURNDATASIZE DUP4 GT PUSH2 0x8B6 JUMPI JUMPDEST PUSH2 0x89E DUP2 DUP4 PUSH2 0x18DC JUMP JUMPDEST DUP2 ADD SUB SLT PUSH2 0x885 JUMPI PUSH2 0x8AF SWAP1 PUSH2 0x1A11 JUMP JUMPDEST POP DUP10 PUSH2 0x805 JUMP JUMPDEST POP RETURNDATASIZE PUSH2 0x894 JUMP JUMPDEST PUSH1 0x40 MLOAD RETURNDATASIZE DUP12 DUP3 RETURNDATACOPY RETURNDATASIZE SWAP1 REVERT JUMPDEST SWAP3 POP POP SWAP3 SWAP2 DUP2 DUP2 RETURNDATASIZE DUP4 GT PUSH2 0x905 JUMPI JUMPDEST PUSH2 0x8E1 DUP2 DUP4 PUSH2 0x18DC JUMP JUMPDEST DUP2 ADD SUB SLT PUSH2 0x901 JUMPI PUSH2 0x7F6 SWAP3 DUP9 DUP9 SWAP4 PUSH2 0x8FA DUP10 SWAP5 PUSH2 0x1A11 JUMP JUMPDEST POP SWAP5 PUSH2 0x7C6 JUMP JUMPDEST DUP11 DUP1 REVERT JUMPDEST POP RETURNDATASIZE PUSH2 0x8D7 JUMP JUMPDEST PUSH1 0x40 MLOAD RETURNDATASIZE DUP14 DUP3 RETURNDATACOPY RETURNDATASIZE SWAP1 REVERT JUMPDEST SWAP1 POP SWAP7 PUSH2 0x76E JUMP JUMPDEST SWAP3 DUP1 SWAP3 SWAP5 POP DUP4 SWAP2 POP RETURNDATASIZE DUP4 GT PUSH2 0x94C JUMPI JUMPDEST PUSH2 0x939 DUP2 DUP4 PUSH2 0x18DC JUMP JUMPDEST DUP2 ADD SUB SLT PUSH2 0x44E JUMPI DUP9 SWAP2 DUP9 SWAP2 MLOAD DUP16 PUSH2 0x762 JUMP JUMPDEST POP RETURNDATASIZE PUSH2 0x92F JUMP JUMPDEST PUSH1 0x40 MLOAD RETURNDATASIZE DUP15 DUP3 RETURNDATACOPY RETURNDATASIZE SWAP1 REVERT JUMPDEST SWAP1 POP DUP7 DUP2 DUP2 RETURNDATASIZE DUP4 GT PUSH2 0x984 JUMPI JUMPDEST PUSH2 0x975 DUP2 DUP4 PUSH2 0x18DC JUMP JUMPDEST DUP2 ADD SUB SLT PUSH2 0x44E JUMPI MLOAD DUP13 PUSH2 0x731 JUMP JUMPDEST POP RETURNDATASIZE PUSH2 0x96B JUMP JUMPDEST PUSH2 0x9A1 SWAP2 DUP9 DUP1 PUSH2 0x100 DUP9 ADD MLOAD AND SWAP2 MLOAD AND SWAP1 PUSH2 0x2235 JUMP JUMPDEST POP DUP11 DUP1 PUSH2 0x704 JUMP JUMPDEST POP DUP8 PUSH2 0x100 DUP7 ADD MLOAD AND ISZERO ISZERO PUSH2 0x6FF JUMP JUMPDEST SWAP1 POP DUP7 DUP2 DUP2 RETURNDATASIZE DUP4 GT PUSH2 0x9DF JUMPI JUMPDEST PUSH2 0x9D0 DUP2 DUP4 PUSH2 0x18DC JUMP JUMPDEST DUP2 ADD SUB SLT PUSH2 0x44E JUMPI MLOAD DUP13 PUSH2 0x6F5 JUMP JUMPDEST POP RETURNDATASIZE PUSH2 0x9C6 JUMP JUMPDEST DUP1 PUSH2 0x9F8 SWAP5 DUP9 ADD MLOAD AND SWAP2 MLOAD AND SWAP1 PUSH2 0x2235 JUMP JUMPDEST POP DUP11 DUP1 DUP1 DUP9 PUSH2 0x6C7 JUMP JUMPDEST POP DUP1 DUP5 DUP9 ADD MLOAD AND ISZERO ISZERO PUSH2 0x6C2 JUMP JUMPDEST SWAP1 SWAP2 POP DUP8 DUP2 DUP2 RETURNDATASIZE DUP4 GT PUSH2 0xA38 JUMPI JUMPDEST PUSH2 0xA28 DUP2 DUP4 PUSH2 0x18DC JUMP JUMPDEST DUP2 ADD SUB SLT PUSH2 0x44E JUMPI MLOAD SWAP1 DUP14 PUSH2 0x6B7 JUMP JUMPDEST POP RETURNDATASIZE PUSH2 0xA1E JUMP JUMPDEST PUSH2 0xA48 SWAP1 PUSH2 0x1896 JUMP JUMPDEST PUSH2 0x885 JUMPI DUP9 DUP12 PUSH2 0x681 JUMP JUMPDEST PUSH1 0x40 MLOAD RETURNDATASIZE DUP13 DUP3 RETURNDATACOPY RETURNDATASIZE SWAP1 REVERT JUMPDEST DUP13 DUP1 REVERT JUMPDEST DUP8 DUP2 DUP2 RETURNDATASIZE DUP4 GT PUSH2 0xA93 JUMPI JUMPDEST PUSH2 0xA77 DUP2 DUP4 PUSH2 0x18DC JUMP JUMPDEST DUP2 ADD SUB SLT PUSH2 0xA8F JUMPI PUSH2 0xA88 SWAP1 PUSH2 0x1A11 JUMP JUMPDEST POP DUP13 PUSH2 0x623 JUMP JUMPDEST DUP12 DUP1 REVERT JUMPDEST POP RETURNDATASIZE PUSH2 0xA6D JUMP JUMPDEST PUSH1 0x40 MLOAD PUSH3 0x461BCD PUSH1 0xE5 SHL DUP2 MSTORE PUSH1 0x4 DUP2 ADD DUP7 SWAP1 MSTORE PUSH1 0x2A DUP2 DUP13 ADD MSTORE PUSH32 0x53504F545F53504C495420726571756972657320626F72726F77696E6720474E PUSH1 0x44 DUP3 ADD MSTORE PUSH10 0x4F206469726563746C79 PUSH1 0xB0 SHL PUSH1 0x64 DUP3 ADD MSTORE PUSH1 0x84 SWAP1 REVERT JUMPDEST PUSH1 0x3 SWAP1 SWAP5 SWAP2 SWAP3 SWAP4 SWAP5 EQ PUSH2 0xB07 JUMPI POP POP POP POP PUSH2 0x356 JUMP JUMPDEST PUSH1 0x1 SHR SWAP2 DUP4 ADD MLOAD AND DUP2 DUP7 DUP3 PUSH2 0xDA8 JUMPI JUMPDEST POP POP POP DUP4 PUSH2 0x100 DUP4 ADD MLOAD AND SWAP1 DUP6 DUP3 PUSH2 0xD96 JUMPI JUMPDEST POP POP POP PUSH1 0x60 DUP2 ADD SWAP1 DUP4 DUP3 MLOAD AND PUSH1 0x40 MLOAD DUP5 DUP2 DUP12 DUP2 PUSH4 0x70A08231 PUSH1 0xE0 SHL SWAP6 DUP7 DUP3 MSTORE ADDRESS PUSH1 0x4 DUP4 ADD MSTORE GAS STATICCALL SWAP1 DUP2 ISZERO PUSH2 0x8BD JUMPI DUP10 SWAP2 PUSH2 0xD69 JUMPI JUMPDEST POP PUSH1 0x80 DUP4 ADD SWAP2 DUP6 DUP8 DUP5 MLOAD AND SWAP2 DUP13 PUSH1 0x40 MLOAD DUP1 SWAP5 DUP2 SWAP4 DUP3 MSTORE ADDRESS PUSH1 0x4 DUP4 ADD MSTORE GAS STATICCALL SWAP1 DUP2 ISZERO PUSH2 0xA53 JUMPI SWAP1 DUP8 SWAP3 SWAP2 DUP12 SWAP2 PUSH2 0xD38 JUMPI JUMPDEST POP DUP1 DUP3 LT ISZERO PUSH2 0xD30 JUMPI POP SWAP4 JUMPDEST DUP5 PUSH2 0xBA8 JUMPI JUMPDEST POP SWAP1 PUSH2 0x551 JUMP JUMPDEST MLOAD PUSH1 0x4 DUP1 SLOAD PUSH1 0x40 MLOAD PUSH4 0x95EA7B3 PUSH1 0xE0 SHL DUP1 DUP3 MSTORE SWAP2 DUP11 AND PUSH1 0x1 PUSH1 0x1 PUSH1 0xA0 SHL SUB AND SWAP3 DUP2 ADD SWAP3 SWAP1 SWAP3 MSTORE PUSH1 0x24 DUP3 ADD DUP8 SWAP1 MSTORE SWAP3 SWAP1 SWAP2 DUP8 SWAP2 DUP4 SWAP2 AND DUP2 DUP14 DUP2 PUSH1 0x44 DUP2 ADD SUB SWAP3 GAS CALL DUP1 ISZERO PUSH2 0xA53 JUMPI SWAP2 DUP8 DUP7 SWAP3 DUP9 SWAP5 PUSH2 0xCEC JUMPI JUMPDEST POP SWAP4 MLOAD PUSH1 0x4 DUP1 SLOAD PUSH1 0x40 MLOAD SWAP4 DUP5 MSTORE DUP11 AND PUSH1 0x1 PUSH1 0x1 PUSH1 0xA0 SHL SUB AND SWAP1 DUP4 ADD MSTORE PUSH1 0x24 DUP3 ADD SWAP3 SWAP1 SWAP3 MSTORE SWAP3 DUP4 SWAP2 AND DUP2 DUP12 DUP2 PUSH1 0x44 DUP2 ADD JUMPDEST SUB SWAP3 GAS CALL DUP1 ISZERO PUSH2 0x4AD JUMPI PUSH2 0xCB4 JUMPI JUMPDEST POP DUP4 PUSH1 0x4 SLOAD AND SWAP1 DUP5 DUP5 DUP2 DUP4 MLOAD AND SWAP3 ADD MLOAD AND SWAP1 DUP3 EXTCODESIZE ISZERO PUSH2 0x885 JUMPI PUSH1 0x40 MLOAD PUSH4 0x7ABEF8D1 PUSH1 0xE0 SHL DUP2 MSTORE PUSH1 0x1 PUSH1 0x1 PUSH1 0xA0 SHL SUB SWAP2 DUP3 AND PUSH1 0x4 DUP3 ADD MSTORE SWAP2 AND PUSH1 0x24 DUP3 ADD MSTORE PUSH1 0x44 DUP2 ADD SWAP3 SWAP1 SWAP3 MSTORE DUP7 SWAP1 DUP3 SWAP1 PUSH1 0x64 SWAP1 DUP3 SWAP1 DUP5 SWAP1 GAS CALL DUP1 ISZERO PUSH2 0x45A JUMPI SWAP1 DUP7 SWAP2 PUSH2 0xCA0 JUMPI JUMPDEST DUP1 DUP5 DUP2 PUSH2 0xBA1 JUMP JUMPDEST PUSH2 0xCA9 SWAP1 PUSH2 0x1896 JUMP JUMPDEST PUSH2 0x881 JUMPI DUP5 DUP8 PUSH2 0xC98 JUMP JUMPDEST DUP4 DUP2 DUP2 RETURNDATASIZE DUP4 GT PUSH2 0xCE5 JUMPI JUMPDEST PUSH2 0xCC9 DUP2 DUP4 PUSH2 0x18DC JUMP JUMPDEST DUP2 ADD SUB SLT PUSH2 0xCE1 JUMPI PUSH2 0xCDA SWAP1 PUSH2 0x1A11 JUMP JUMPDEST POP DUP9 PUSH2 0xC38 JUMP JUMPDEST DUP8 DUP1 REVERT JUMPDEST POP RETURNDATASIZE PUSH2 0xCBF JUMP JUMPDEST SWAP3 POP POP SWAP3 SWAP2 DUP2 DUP2 RETURNDATASIZE DUP4 GT PUSH2 0xD29 JUMPI JUMPDEST PUSH2 0xD05 DUP2 DUP4 PUSH2 0x18DC JUMP JUMPDEST DUP2 ADD SUB SLT PUSH2 0xD25 JUMPI PUSH2 0xC29 SWAP3 DUP8 DUP8 SWAP4 PUSH2 0xD1E DUP9 SWAP5 PUSH2 0x1A11 JUMP JUMPDEST POP SWAP5 PUSH2 0xBF9 JUMP JUMPDEST DUP10 DUP1 REVERT JUMPDEST POP RETURNDATASIZE PUSH2 0xCFB JUMP JUMPDEST SWAP1 POP SWAP4 PUSH2 0xB9B JUMP JUMPDEST DUP1 SWAP4 POP DUP8 DUP1 SWAP3 POP RETURNDATASIZE DUP4 GT PUSH2 0xD62 JUMPI JUMPDEST PUSH2 0xD51 DUP2 DUP4 PUSH2 0x18DC JUMP JUMPDEST DUP2 ADD SUB SLT PUSH2 0x44E JUMPI DUP7 SWAP2 MLOAD DUP13 PUSH2 0xB8F JUMP JUMPDEST POP RETURNDATASIZE PUSH2 0xD47 JUMP JUMPDEST SWAP1 POP DUP5 DUP2 DUP2 RETURNDATASIZE DUP4 GT PUSH2 0xD8F JUMPI JUMPDEST PUSH2 0xD80 DUP2 DUP4 PUSH2 0x18DC JUMP JUMPDEST DUP2 ADD SUB SLT PUSH2 0x44E JUMPI MLOAD DUP11 PUSH2 0xB5F JUMP JUMPDEST POP RETURNDATASIZE PUSH2 0xD76 JUMP JUMPDEST PUSH2 0xD9F SWAP3 PUSH2 0x2235 JUMP JUMPDEST POP DUP8 DUP1 DUP6 PUSH2 0xB2A JUMP JUMPDEST PUSH2 0xDB1 SWAP3 PUSH2 0x2235 JUMP JUMPDEST POP DUP9 DUP2 DUP7 PUSH2 0xB17 JUMP JUMPDEST PUSH4 0x4E487B71 PUSH1 0xE0 SHL DUP10 MSTORE PUSH1 0x11 PUSH1 0x4 MSTORE DUP10 DUP10 REVERT JUMPDEST PUSH1 0x40 MLOAD PUSH3 0x461BCD PUSH1 0xE5 SHL DUP2 MSTORE PUSH1 0x4 DUP2 ADD DUP7 SWAP1 MSTORE PUSH1 0x13 DUP2 DUP13 ADD MSTORE PUSH19 0x13DB9B1E4810985B185B98D95C8815985D5B1D PUSH1 0x6A SHL PUSH1 0x44 DUP3 ADD MSTORE PUSH1 0x64 SWAP1 REVERT JUMPDEST DUP7 DUP1 REVERT JUMPDEST DUP6 DUP1 REVERT JUMPDEST DUP2 CALLDATALOAD PUSH1 0x1 PUSH1 0x1 PUSH1 0xA0 SHL SUB DUP2 AND DUP2 SUB PUSH2 0x885 JUMPI DUP2 MSTORE SWAP1 DUP4 ADD SWAP1 DUP4 ADD PUSH2 0x1DF JUMP JUMPDEST DUP3 DUP1 REVERT JUMPDEST DUP3 CALLVALUE PUSH2 0x16F JUMPI PUSH1 0x40 CALLDATASIZE PUSH1 0x3 NOT ADD SLT PUSH2 0x16F JUMPI PUSH2 0xE4C PUSH2 0x179F JUMP JUMPDEST PUSH2 0xE54 PUSH2 0x17B5 JUMP JUMPDEST PUSH2 0xE5C PUSH2 0x2128 JUMP JUMPDEST PUSH1 0x1 DUP1 PUSH1 0xA0 SHL SUB SWAP1 DUP2 PUSH1 0x1 PUSH1 0x1 PUSH1 0x60 SHL SUB PUSH1 0xA0 SHL SWAP4 AND DUP4 PUSH1 0x6 SLOAD AND OR PUSH1 0x6 SSTORE AND SWAP1 PUSH1 0x7 SLOAD AND OR PUSH1 0x7 SSTORE DUP1 RETURN JUMPDEST DUP3 CALLVALUE PUSH2 0x16F JUMPI DUP1 PUSH1 0x3 NOT CALLDATASIZE ADD SLT PUSH2 0x16F JUMPI PUSH1 0x6 SLOAD PUSH1 0x40 MLOAD PUSH1 0x1 PUSH1 0x1 PUSH1 0xA0 SHL SUB SWAP1 SWAP2 AND DUP2 MSTORE PUSH1 0x20 SWAP1 RETURN JUMPDEST DUP3 CALLVALUE PUSH2 0x16F JUMPI PUSH1 0x80 CALLDATASIZE PUSH1 0x3 NOT ADD SLT PUSH2 0x16F JUMPI PUSH2 0xECB PUSH2 0x179F JUMP JUMPDEST PUSH2 0xED3 PUSH2 0x17B5 JUMP JUMPDEST PUSH1 0x1 PUSH1 0x1 PUSH1 0xA0 SHL SUB PUSH1 0x44 CALLDATALOAD DUP2 DUP2 AND SWAP3 SWAP1 DUP4 SWAP1 SUB PUSH2 0x44E JUMPI PUSH1 0x64 CALLDATALOAD SWAP4 DUP3 DUP6 AND DUP1 SWAP6 SUB PUSH2 0x44E JUMPI DUP3 SWAP1 PUSH2 0xF02 PUSH2 0x2128 JUMP JUMPDEST AND DUP1 PUSH2 0xF6A JUMPI JUMPDEST POP AND DUP1 PUSH2 0xF51 JUMPI JUMPDEST POP DUP1 PUSH2 0xF38 JUMPI JUMPDEST POP DUP1 PUSH2 0xF22 JUMPI POP DUP1 RETURN JUMPDEST PUSH1 0x1 PUSH1 0x1 PUSH1 0x60 SHL SUB PUSH1 0xA0 SHL PUSH1 0x5 SLOAD AND OR PUSH1 0x5 SSTORE DUP1 RETURN JUMPDEST PUSH1 0x1 PUSH1 0x1 PUSH1 0x60 SHL SUB PUSH1 0xA0 SHL PUSH1 0x4 SLOAD AND OR PUSH1 0x4 SSTORE DUP3 PUSH2 0xF18 JUMP JUMPDEST PUSH1 0x1 PUSH1 0x1 PUSH1 0x60 SHL SUB PUSH1 0xA0 SHL PUSH1 0x3 SLOAD AND OR PUSH1 0x3 SSTORE DUP4 PUSH2 0xF11 JUMP JUMPDEST PUSH1 0x1 PUSH1 0x1 PUSH1 0x60 SHL SUB PUSH1 0xA0 SHL PUSH1 0x2 SLOAD AND OR PUSH1 0x2 SSTORE DUP6 PUSH2 0xF09 JUMP JUMPDEST SWAP1 POP CALLVALUE PUSH2 0x1500 JUMPI PUSH1 0xA0 CALLDATASIZE PUSH1 0x3 NOT ADD SLT PUSH2 0x1500 JUMPI PUSH2 0xF9E PUSH2 0x179F JUMP JUMPDEST PUSH2 0xFA6 PUSH2 0x17B5 JUMP JUMPDEST SWAP2 PUSH1 0x4 PUSH1 0x64 CALLDATALOAD LT ISZERO PUSH2 0x14FC JUMPI PUSH1 0x84 CALLDATALOAD SWAP1 PUSH2 0xFBE PUSH2 0x2128 JUMP JUMPDEST PUSH1 0x2 PUSH1 0x1 SLOAD EQ PUSH2 0x14EA JUMPI PUSH1 0x2 PUSH1 0x1 SSTORE PUSH2 0xFD6 DUP4 PUSH2 0x1D49 JUMP JUMPDEST SWAP1 PUSH2 0x120 DUP3 ADD MLOAD ISZERO PUSH2 0x1490 JUMPI DUP2 ADD DUP1 MLOAD PUSH2 0x100 SWAP1 PUSH2 0xFFC SWAP1 PUSH1 0x1 PUSH1 0x1 PUSH1 0xA0 SHL SUB AND PUSH2 0x1A1E JUMP JUMPDEST SWAP3 ADD DUP1 MLOAD SWAP1 SWAP2 SWAP1 PUSH2 0x1015 SWAP1 PUSH1 0x1 PUSH1 0x1 PUSH1 0xA0 SHL SUB AND PUSH2 0x1A1E JUMP JUMPDEST SWAP1 PUSH1 0xA0 DUP5 ADD MLOAD ISZERO DUP1 ISZERO SWAP1 PUSH2 0x1483 JUMPI JUMPDEST ISZERO PUSH2 0x143E JUMPI MLOAD PUSH1 0x80 SWAP4 DUP5 ADD MLOAD SWAP3 MLOAD SWAP2 DUP5 ADD MLOAD PUSH1 0x40 DUP1 MLOAD PUSH1 0x1 PUSH1 0x1 PUSH1 0xA0 SHL SUB SWAP4 DUP5 AND DUP2 MSTORE PUSH1 0x1 PUSH1 0x1 PUSH1 0x80 SHL SUB SWAP6 DUP7 AND PUSH1 0x20 DUP3 ADD MSTORE SWAP4 DUP4 AND SWAP1 DUP5 ADD MSTORE SWAP1 SWAP3 AND PUSH1 0x60 DUP3 ADD MSTORE SWAP1 DUP5 AND SWAP2 PUSH32 0xD90AD5A9A96A2CC69B90EC290CCB6EF651D2507F677BABA2FF37A8BD3336731A SWAP2 LOG2 PUSH1 0x40 MLOAD PUSH4 0x70A08231 PUSH1 0xE0 SHL DUP2 MSTORE ADDRESS PUSH1 0x4 DUP3 ADD MSTORE SWAP1 PUSH1 0x20 DUP3 PUSH1 0x24 DUP2 PUSH1 0x1 PUSH1 0x1 PUSH1 0xA0 SHL SUB DUP9 AND GAS STATICCALL SWAP2 DUP3 ISZERO PUSH2 0x139A JUMPI DUP6 SWAP3 PUSH2 0x140A JUMPI JUMPDEST POP PUSH1 0x40 MLOAD PUSH8 0xFFFFFFFFFFFFFFFF SWAP2 SWAP1 PUSH1 0xA0 DUP2 ADD DUP4 DUP2 GT DUP3 DUP3 LT OR PUSH2 0x13F6 JUMPI PUSH1 0x40 MSTORE PUSH1 0x1 DUP1 PUSH1 0xA0 SHL SUB DUP6 AND DUP2 MSTORE PUSH1 0x1 DUP1 PUSH1 0xA0 SHL SUB DUP7 AND PUSH1 0x20 DUP3 ADD MSTORE PUSH1 0x44 CALLDATALOAD PUSH1 0x40 DUP3 ADD MSTORE DUP2 PUSH1 0x60 DUP3 ADD MSTORE PUSH1 0x80 PUSH1 0x64 CALLDATALOAD SWAP2 ADD MSTORE PUSH1 0x1 PUSH1 0x1 PUSH1 0x60 SHL SUB PUSH1 0xA0 SHL PUSH1 0x1 DUP1 PUSH1 0xA0 SHL SUB DUP6 AND DUP2 PUSH1 0x8 SLOAD AND OR PUSH1 0x8 SSTORE PUSH1 0x1 DUP1 PUSH1 0xA0 SHL SUB DUP7 AND SWAP1 PUSH1 0x9 SLOAD AND OR PUSH1 0x9 SSTORE PUSH1 0x44 CALLDATALOAD PUSH1 0xA SSTORE PUSH1 0xB SSTORE PUSH1 0xFF NOT PUSH1 0xC SLOAD AND PUSH1 0xFF PUSH1 0x64 CALLDATALOAD AND OR PUSH1 0xC SSTORE PUSH1 0x40 MLOAD PUSH2 0x1166 DUP2 PUSH2 0x18C0 JUMP JUMPDEST PUSH1 0x1 DUP2 MSTORE PUSH1 0x20 CALLDATASIZE DUP2 DUP4 ADD CALLDATACOPY PUSH1 0x1 PUSH1 0x1 PUSH1 0xA0 SHL SUB DUP6 AND PUSH2 0x1184 DUP3 PUSH2 0x20BF JUMP JUMPDEST MSTORE PUSH1 0x40 MLOAD SWAP1 PUSH2 0x1192 DUP3 PUSH2 0x18C0 JUMP JUMPDEST PUSH1 0x1 DUP3 MSTORE PUSH1 0x20 CALLDATASIZE DUP2 DUP5 ADD CALLDATACOPY PUSH1 0x44 CALLDATALOAD PUSH2 0x11A9 DUP4 PUSH2 0x20BF JUMP JUMPDEST MSTORE PUSH1 0x2 SLOAD PUSH1 0x40 DUP1 MLOAD PUSH1 0x1 PUSH1 0x1 PUSH1 0xA0 SHL SUB DUP9 DUP2 AND PUSH1 0x20 DUP4 ADD MSTORE SWAP1 SWAP6 SWAP3 AND SWAP3 SWAP2 SWAP1 PUSH2 0x11D6 SWAP1 DUP7 ADD PUSH1 0x64 CALLDATALOAD PUSH2 0x20E2 JUMP JUMPDEST PUSH1 0x40 DUP6 MSTORE DUP5 PUSH1 0x60 DUP2 ADD LT SWAP1 PUSH1 0x60 DUP7 ADD GT OR PUSH2 0x13F6 JUMPI PUSH1 0x60 DUP5 ADD PUSH1 0x40 MSTORE DUP2 EXTCODESIZE ISZERO PUSH2 0xCE1 JUMPI SWAP1 DUP8 SWAP3 SWAP2 PUSH4 0x2E1C224F PUSH1 0xE1 SHL PUSH1 0x60 DUP7 ADD MSTORE PUSH1 0xE4 DUP6 ADD ADDRESS PUSH1 0x64 DUP8 ADD MSTORE PUSH1 0x80 PUSH1 0x84 DUP8 ADD MSTORE DUP2 MLOAD DUP1 SWAP2 MSTORE PUSH1 0x20 PUSH2 0x104 DUP8 ADD SWAP3 ADD SWAP1 DUP6 JUMPDEST DUP2 DUP2 LT PUSH2 0x13D4 JUMPI POP POP POP PUSH1 0x63 NOT DUP6 DUP3 SUB ADD PUSH1 0xA4 DUP7 ADD MSTORE PUSH1 0x20 DUP1 DUP5 MLOAD SWAP3 DUP4 DUP2 MSTORE ADD SWAP4 ADD SWAP1 DUP5 JUMPDEST DUP2 DUP2 LT PUSH2 0x13BB JUMPI POP POP POP PUSH1 0x63 NOT DUP5 DUP4 SUB ADD PUSH1 0xC4 DUP6 ADD MSTORE DUP4 MLOAD DUP1 DUP4 MSTORE PUSH2 0x127D DUP2 PUSH1 0x20 DUP6 ADD PUSH1 0x20 DUP9 ADD PUSH2 0x1CB5 JUMP JUMPDEST PUSH1 0x60 DUP6 ADD SWAP3 PUSH1 0x1F SWAP1 SWAP2 ADD PUSH1 0x1F NOT AND ADD DUP5 SWAP1 SUB PUSH1 0x3F NOT ADD SWAP1 DUP3 SWAP1 DUP5 SWAP1 GAS CALL DUP1 ISZERO PUSH2 0x139A JUMPI PUSH2 0x13A5 JUMPI JUMPDEST POP PUSH1 0x40 MLOAD PUSH4 0x70A08231 PUSH1 0xE0 SHL DUP2 MSTORE ADDRESS PUSH1 0x4 DUP3 ADD MSTORE PUSH1 0x20 DUP2 PUSH1 0x24 DUP2 PUSH1 0x1 PUSH1 0x1 PUSH1 0xA0 SHL SUB DUP9 AND GAS STATICCALL SWAP1 DUP2 ISZERO PUSH2 0x139A JUMPI DUP6 SWAP2 PUSH2 0x1364 JUMPI JUMPDEST POP SWAP2 PUSH2 0x1308 PUSH1 0xA0 SWAP3 PUSH32 0x54577C03A6068D982E6E64819897C53751527329A92F19BDD64963313175C4A1 SWAP5 PUSH2 0x2105 JUMP JUMPDEST DUP1 PUSH2 0x134D JUMPI JUMPDEST PUSH1 0x40 MLOAD SWAP5 PUSH2 0x131E DUP7 PUSH1 0x64 CALLDATALOAD PUSH2 0x20E2 JUMP JUMPDEST PUSH1 0x1 DUP1 DUP6 SHL SUB AND PUSH1 0x20 DUP7 ADD MSTORE PUSH1 0x44 CALLDATALOAD PUSH1 0x40 DUP7 ADD MSTORE PUSH1 0x60 DUP6 ADD MSTORE CALLER PUSH1 0x80 DUP6 ADD MSTORE PUSH1 0x1 DUP1 DUP4 SHL SUB AND SWAP3 LOG2 PUSH1 0x1 DUP1 SSTORE DUP1 RETURN JUMPDEST PUSH2 0x135F DUP2 CALLER PUSH1 0x1 DUP1 DUP8 SHL SUB DUP9 AND PUSH2 0x2154 JUMP JUMPDEST PUSH2 0x130E JUMP JUMPDEST SWAP3 SWAP1 POP PUSH1 0x20 DUP4 RETURNDATASIZE PUSH1 0x20 GT PUSH2 0x1392 JUMPI JUMPDEST DUP2 PUSH2 0x1380 PUSH1 0x20 SWAP4 DUP4 PUSH2 0x18DC JUMP JUMPDEST DUP2 ADD SUB SLT PUSH2 0x44E JUMPI SWAP2 MLOAD PUSH2 0x1308 PUSH2 0x12D9 JUMP JUMPDEST RETURNDATASIZE SWAP2 POP PUSH2 0x1373 JUMP JUMPDEST PUSH1 0x40 MLOAD RETURNDATASIZE DUP8 DUP3 RETURNDATACOPY RETURNDATASIZE SWAP1 REVERT JUMPDEST PUSH1 0x60 PUSH2 0x13B4 SWAP2 SWAP6 SWAP3 SWAP6 ADD PUSH2 0x1896 JUMP JUMPDEST SWAP3 CODESIZE PUSH2 0x12A5 JUMP JUMPDEST DUP3 MLOAD DUP6 MSTORE DUP11 SWAP6 POP PUSH1 0x20 SWAP5 DUP6 ADD SWAP5 SWAP1 SWAP3 ADD SWAP2 PUSH1 0x1 ADD PUSH2 0x1251 JUMP JUMPDEST DUP3 MLOAD PUSH1 0x1 PUSH1 0x1 PUSH1 0xA0 SHL SUB AND DUP5 MSTORE DUP12 SWAP7 POP PUSH1 0x20 SWAP4 DUP5 ADD SWAP4 SWAP1 SWAP3 ADD SWAP2 PUSH1 0x1 ADD PUSH2 0x122C JUMP JUMPDEST PUSH4 0x4E487B71 PUSH1 0xE0 SHL DUP9 MSTORE PUSH1 0x41 PUSH1 0x4 MSTORE PUSH1 0x24 DUP9 REVERT JUMPDEST SWAP1 SWAP2 POP PUSH1 0x20 DUP2 RETURNDATASIZE PUSH1 0x20 GT PUSH2 0x1436 JUMPI JUMPDEST DUP2 PUSH2 0x1426 PUSH1 0x20 SWAP4 DUP4 PUSH2 0x18DC JUMP JUMPDEST DUP2 ADD SUB SLT PUSH2 0x881 JUMPI MLOAD SWAP1 CODESIZE PUSH2 0x10C1 JUMP JUMPDEST RETURNDATASIZE SWAP2 POP PUSH2 0x1419 JUMP JUMPDEST PUSH1 0x40 MLOAD PUSH3 0x461BCD PUSH1 0xE5 SHL DUP2 MSTORE PUSH1 0x20 PUSH1 0x4 DUP3 ADD MSTORE PUSH1 0x1C PUSH1 0x24 DUP3 ADD MSTORE PUSH32 0x4E6F20706F6F6C7320666F756E6420666F722061726269747261676500000000 PUSH1 0x44 DUP3 ADD MSTORE PUSH1 0x64 SWAP1 REVERT JUMPDEST POP PUSH1 0xA0 DUP3 ADD MLOAD ISZERO ISZERO PUSH2 0x1024 JUMP JUMPDEST PUSH1 0x40 MLOAD PUSH3 0x461BCD PUSH1 0xE5 SHL DUP2 MSTORE PUSH1 0x20 PUSH1 0x4 DUP3 ADD MSTORE PUSH1 0x2C PUSH1 0x24 DUP3 ADD MSTORE PUSH32 0x496E76616C69642070726F706F73616C3A20636F6C6C61746572616C20746F6B PUSH1 0x44 DUP3 ADD MSTORE PUSH12 0xCADCE640DAD2E6DAC2E8C6D PUSH1 0xA3 SHL PUSH1 0x64 DUP3 ADD MSTORE PUSH1 0x84 SWAP1 REVERT JUMPDEST PUSH1 0x40 MLOAD PUSH4 0x3EE5AEB5 PUSH1 0xE0 SHL DUP2 MSTORE PUSH1 0x4 SWAP1 REVERT JUMPDEST DUP4 DUP1 REVERT JUMPDEST POP DUP1 REVERT JUMPDEST DUP3 CALLVALUE PUSH2 0x16F JUMPI DUP1 PUSH1 0x3 NOT CALLDATASIZE ADD SLT PUSH2 0x16F JUMPI PUSH1 0x7 SLOAD PUSH1 0x40 MLOAD PUSH1 0x1 PUSH1 0x1 PUSH1 0xA0 SHL SUB SWAP1 SWAP2 AND DUP2 MSTORE PUSH1 0x20 SWAP1 RETURN JUMPDEST DUP3 CALLVALUE PUSH2 0x16F JUMPI DUP1 PUSH1 0x3 NOT CALLDATASIZE ADD SLT PUSH2 0x16F JUMPI PUSH1 0x5 SLOAD PUSH1 0x40 MLOAD PUSH1 0x1 PUSH1 0x1 PUSH1 0xA0 SHL SUB SWAP1 SWAP2 AND DUP2 MSTORE PUSH1 0x20 SWAP1 RETURN JUMPDEST DUP3 CALLVALUE PUSH2 0x16F JUMPI DUP1 PUSH1 0x3 NOT CALLDATASIZE ADD SLT PUSH2 0x16F JUMPI SLOAD PUSH1 0x40 MLOAD PUSH1 0x1 PUSH1 0x1 PUSH1 0xA0 SHL SUB SWAP1 SWAP2 AND DUP2 MSTORE PUSH1 0x20 SWAP1 RETURN JUMPDEST DUP3 CALLVALUE PUSH2 0x16F JUMPI DUP1 PUSH1 0x3 NOT CALLDATASIZE ADD SLT PUSH2 0x16F JUMPI PUSH2 0x1596 PUSH2 0x2128 JUMP JUMPDEST DUP1 SLOAD PUSH1 0x1 PUSH1 0x1 PUSH1 0xA0 SHL SUB NOT DUP2 AND DUP3 SSTORE DUP2 SWAP1 PUSH1 0x1 PUSH1 0x1 PUSH1 0xA0 SHL SUB AND PUSH32 0x8BE0079C531659141344CD1FD0A4F28419497F9722A3DAAFE3B4186F6B6457E0 DUP3 DUP1 LOG3 DUP1 RETURN JUMPDEST SWAP1 POP CALLVALUE PUSH2 0x1500 JUMPI PUSH1 0x20 CALLDATASIZE PUSH1 0x3 NOT ADD SLT PUSH2 0x1500 JUMPI PUSH2 0x1651 PUSH2 0x2C0 SWAP3 PUSH2 0x15F9 PUSH2 0x179F JUMP JUMPDEST SWAP1 POP PUSH2 0x1603 PUSH2 0x1C43 JUMP JUMPDEST POP PUSH2 0x160C PUSH2 0x1992 JUMP JUMPDEST PUSH2 0x161D PUSH2 0x1617 PUSH2 0x1992 JUMP JUMPDEST SWAP3 PUSH2 0x1D49 JUMP JUMPDEST SWAP4 PUSH2 0x120 DUP6 ADD MLOAD PUSH2 0x1653 JUMPI JUMPDEST POP PUSH2 0x1646 SWAP1 PUSH2 0x163B PUSH1 0x40 MLOAD DUP1 SWAP7 PUSH2 0x181A JUMP JUMPDEST PUSH2 0x140 DUP6 ADD SWAP1 PUSH2 0x17CB JUMP JUMPDEST PUSH2 0x200 DUP4 ADD SWAP1 PUSH2 0x17CB JUMP JUMPDEST RETURN JUMPDEST DUP5 ADD MLOAD PUSH1 0x1 PUSH1 0x1 PUSH1 0xA0 SHL SUB SWAP3 POP PUSH2 0x1646 SWAP2 POP PUSH2 0x1681 SWAP1 PUSH2 0x1674 SWAP1 DUP5 AND PUSH2 0x1A1E JUMP JUMPDEST SWAP3 PUSH2 0x100 DUP7 ADD MLOAD AND PUSH2 0x1A1E JUMP JUMPDEST SWAP2 SWAP1 PUSH2 0x1629 JUMP JUMPDEST DUP3 CALLVALUE PUSH2 0x16F JUMPI PUSH1 0x20 CALLDATASIZE PUSH1 0x3 NOT ADD SLT PUSH2 0x16F JUMPI PUSH2 0x140 PUSH2 0x16AD PUSH2 0x16A8 PUSH2 0x179F JUMP JUMPDEST PUSH2 0x1D49 JUMP JUMPDEST PUSH2 0x1651 PUSH1 0x40 MLOAD DUP1 SWAP3 PUSH2 0x181A JUMP JUMPDEST DUP3 CALLVALUE PUSH2 0x16F JUMPI DUP1 PUSH1 0x3 NOT CALLDATASIZE ADD SLT PUSH2 0x16F JUMPI PUSH1 0x3 SLOAD PUSH1 0x40 MLOAD PUSH1 0x1 PUSH1 0x1 PUSH1 0xA0 SHL SUB SWAP1 SWAP2 AND DUP2 MSTORE PUSH1 0x20 SWAP1 RETURN JUMPDEST DUP3 CALLVALUE PUSH2 0x16F JUMPI DUP1 PUSH1 0x3 NOT CALLDATASIZE ADD SLT PUSH2 0x16F JUMPI PUSH1 0x2 SLOAD PUSH1 0x40 MLOAD PUSH1 0x1 PUSH1 0x1 PUSH1 0xA0 SHL SUB SWAP1 SWAP2 AND DUP2 MSTORE PUSH1 0x20 SWAP1 RETURN JUMPDEST DUP3 CALLVALUE PUSH2 0x16F JUMPI DUP1 PUSH1 0x3 NOT CALLDATASIZE ADD SLT PUSH2 0x16F JUMPI PUSH1 0x4 SLOAD PUSH1 0x40 MLOAD PUSH1 0x1 PUSH1 0x1 PUSH1 0xA0 SHL SUB SWAP1 SWAP2 AND DUP2 MSTORE PUSH1 0x20 SWAP1 RETURN JUMPDEST DUP3 CALLVALUE PUSH2 0x16F JUMPI PUSH1 0x20 CALLDATASIZE PUSH1 0x3 NOT ADD SLT PUSH2 0x16F JUMPI PUSH1 0xC0 PUSH2 0x1759 PUSH2 0x1754 PUSH2 0x179F JUMP JUMPDEST PUSH2 0x1A1E JUMP JUMPDEST PUSH2 0x1651 PUSH1 0x40 MLOAD DUP1 SWAP3 PUSH2 0x17CB JUMP JUMPDEST DUP3 CALLVALUE PUSH2 0x16F JUMPI PUSH1 0x40 CALLDATASIZE PUSH1 0x3 NOT ADD SLT PUSH2 0x16F JUMPI PUSH2 0x3A9 PUSH2 0x1783 PUSH2 0x179F JUMP JUMPDEST PUSH2 0x178B PUSH2 0x2128 JUMP JUMPDEST PUSH1 0x24 CALLDATALOAD SWAP1 CALLER SWAP1 PUSH1 0x1 PUSH1 0x1 PUSH1 0xA0 SHL SUB AND PUSH2 0x2154 JUMP JUMPDEST PUSH1 0x4 CALLDATALOAD SWAP1 PUSH1 0x1 PUSH1 0x1 PUSH1 0xA0 SHL SUB DUP3 AND DUP3 SUB PUSH2 0x44E JUMPI JUMP JUMPDEST PUSH1 0x24 CALLDATALOAD SWAP1 PUSH1 0x1 PUSH1 0x1 PUSH1 0xA0 SHL SUB DUP3 AND DUP3 SUB PUSH2 0x44E JUMPI JUMP JUMPDEST PUSH1 0xA0 DUP1 SWAP2 PUSH1 0x1 DUP1 DUP4 SHL SUB DUP1 DUP3 MLOAD AND DUP6 MSTORE DUP1 PUSH1 0x20 DUP4 ADD MLOAD AND PUSH1 0x20 DUP7 ADD MSTORE DUP1 PUSH1 0x40 DUP4 ADD MLOAD AND PUSH1 0x40 DUP7 ADD MSTORE PUSH1 0x60 DUP3 ADD MLOAD AND PUSH1 0x60 DUP6 ADD MSTORE PUSH1 0x1 PUSH1 0x1 PUSH1 0x80 SHL SUB PUSH1 0x80 DUP3 ADD MLOAD AND PUSH1 0x80 DUP6 ADD MSTORE ADD MLOAD ISZERO ISZERO SWAP2 ADD MSTORE JUMP JUMPDEST PUSH1 0x1 DUP1 PUSH1 0xA0 SHL SUB DUP1 DUP3 MLOAD AND DUP4 MSTORE DUP1 PUSH1 0x20 DUP4 ADD MLOAD AND PUSH1 0x20 DUP5 ADD MSTORE DUP1 PUSH1 0x40 DUP4 ADD MLOAD AND PUSH1 0x40 DUP5 ADD MSTORE DUP1 PUSH1 0x60 DUP4 ADD MLOAD AND PUSH1 0x60 DUP5 ADD MSTORE DUP1 PUSH1 0x80 DUP4 ADD MLOAD AND PUSH1 0x80 DUP5 ADD MSTORE DUP1 PUSH1 0xA0 DUP4 ADD MLOAD AND PUSH1 0xA0 DUP5 ADD MSTORE DUP1 PUSH1 0xC0 DUP4 ADD MLOAD AND PUSH1 0xC0 DUP5 ADD MSTORE DUP1 PUSH1 0xE0 DUP4 ADD MLOAD AND PUSH1 0xE0 DUP5 ADD MSTORE PUSH2 0x100 SWAP1 DUP2 DUP4 ADD MLOAD AND SWAP1 DUP4 ADD MSTORE PUSH2 0x120 DUP1 SWAP2 ADD MLOAD ISZERO ISZERO SWAP2 ADD MSTORE JUMP JUMPDEST PUSH8 0xFFFFFFFFFFFFFFFF DUP2 GT PUSH2 0x18AA JUMPI PUSH1 0x40 MSTORE JUMP JUMPDEST PUSH4 0x4E487B71 PUSH1 0xE0 SHL PUSH1 0x0 MSTORE PUSH1 0x41 PUSH1 0x4 MSTORE PUSH1 0x24 PUSH1 0x0 REVERT JUMPDEST PUSH1 0x40 DUP2 ADD SWAP1 DUP2 LT PUSH8 0xFFFFFFFFFFFFFFFF DUP3 GT OR PUSH2 0x18AA JUMPI PUSH1 0x40 MSTORE JUMP JUMPDEST SWAP1 PUSH1 0x1F DUP1 NOT SWAP2 ADD AND DUP2 ADD SWAP1 DUP2 LT PUSH8 0xFFFFFFFFFFFFFFFF DUP3 GT OR PUSH2 0x18AA JUMPI PUSH1 0x40 MSTORE JUMP JUMPDEST PUSH8 0xFFFFFFFFFFFFFFFF DUP2 GT PUSH2 0x18AA JUMPI PUSH1 0x5 SHL PUSH1 0x20 ADD SWAP1 JUMP JUMPDEST SWAP1 DUP1 PUSH1 0x1F DUP4 ADD SLT ISZERO PUSH2 0x44E JUMPI PUSH1 0x20 SWAP1 DUP3 CALLDATALOAD PUSH2 0x1930 DUP2 PUSH2 0x18FE JUMP JUMPDEST SWAP4 PUSH2 0x193E PUSH1 0x40 MLOAD SWAP6 DUP7 PUSH2 0x18DC JUMP JUMPDEST DUP2 DUP6 MSTORE PUSH1 0x20 DUP1 DUP7 ADD SWAP3 PUSH1 0x5 SHL DUP3 ADD ADD SWAP3 DUP4 GT PUSH2 0x44E JUMPI PUSH1 0x20 ADD SWAP1 JUMPDEST DUP3 DUP3 LT PUSH2 0x1967 JUMPI POP POP POP POP SWAP1 JUMP JUMPDEST DUP2 CALLDATALOAD DUP2 MSTORE SWAP1 DUP4 ADD SWAP1 DUP4 ADD PUSH2 0x1959 JUMP JUMPDEST PUSH8 0xFFFFFFFFFFFFFFFF DUP2 GT PUSH2 0x18AA JUMPI PUSH1 0x1F ADD PUSH1 0x1F NOT AND PUSH1 0x20 ADD SWAP1 JUMP JUMPDEST PUSH1 0x40 MLOAD SWAP1 PUSH1 0xC0 DUP3 ADD DUP3 DUP2 LT PUSH8 0xFFFFFFFFFFFFFFFF DUP3 GT OR PUSH2 0x18AA JUMPI PUSH1 0x40 MSTORE DUP2 PUSH1 0xA0 PUSH1 0x0 SWAP2 DUP3 DUP2 MSTORE DUP3 PUSH1 0x20 DUP3 ADD MSTORE DUP3 PUSH1 0x40 DUP3 ADD MSTORE DUP3 PUSH1 0x60 DUP3 ADD MSTORE DUP3 PUSH1 0x80 DUP3 ADD MSTORE ADD MSTORE JUMP JUMPDEST SWAP1 DUP2 PUSH1 0x20 SWAP2 SUB SLT PUSH2 0x44E JUMPI MLOAD PUSH1 0x1 PUSH1 0x1 PUSH1 0xA0 SHL SUB DUP2 AND DUP2 SUB PUSH2 0x44E JUMPI SWAP1 JUMP JUMPDEST MLOAD SWAP1 PUSH2 0xFFFF DUP3 AND DUP3 SUB PUSH2 0x44E JUMPI JUMP JUMPDEST MLOAD SWAP1 PUSH1 0xFF DUP3 AND DUP3 SUB PUSH2 0x44E JUMPI JUMP JUMPDEST MLOAD SWAP1 DUP2 ISZERO ISZERO DUP3 SUB PUSH2 0x44E JUMPI JUMP JUMPDEST PUSH2 0x1A26 PUSH2 0x1992 JUMP JUMPDEST SWAP1 PUSH1 0x1 PUSH1 0x1 PUSH1 0xA0 SHL SUB SWAP1 DUP2 AND DUP1 ISZERO PUSH2 0x1C37 JUMPI DUP1 DUP4 MSTORE PUSH1 0x40 DUP1 MLOAD PUSH4 0xDFE1681 PUSH1 0xE0 SHL DUP2 MSTORE PUSH1 0x20 SWAP4 SWAP2 SWAP1 DUP5 DUP2 PUSH1 0x4 DUP2 DUP8 GAS STATICCALL SWAP1 DUP2 ISZERO PUSH2 0x1BE2 JUMPI SWAP1 DUP4 SWAP2 PUSH1 0x0 SWAP2 PUSH2 0x1C1A JUMPI JUMPDEST POP AND DUP6 DUP6 ADD MSTORE DUP1 MLOAD PUSH4 0xD21220A7 PUSH1 0xE0 SHL DUP2 MSTORE DUP5 DUP2 PUSH1 0x4 DUP2 DUP8 GAS STATICCALL SWAP1 DUP2 ISZERO PUSH2 0x1BE2 JUMPI SWAP1 DUP4 SWAP2 PUSH1 0x0 SWAP2 PUSH2 0x1BED JUMPI JUMPDEST POP AND DUP6 DUP3 ADD MSTORE DUP1 MLOAD PUSH4 0xD343281 PUSH1 0xE1 SHL DUP2 MSTORE SWAP4 DUP1 DUP6 PUSH1 0x4 DUP2 DUP8 GAS STATICCALL SWAP5 DUP6 ISZERO PUSH2 0x1BE2 JUMPI PUSH1 0x0 SWAP6 PUSH2 0x1BA2 JUMPI JUMPDEST POP PUSH1 0x4 PUSH1 0xE0 PUSH1 0x80 DUP9 ADD SWAP6 PUSH1 0x1 PUSH1 0x1 PUSH1 0x80 SHL SUB DUP1 SWAP9 AND DUP8 MSTORE DUP5 MLOAD SWAP3 DUP4 DUP1 SWAP3 PUSH4 0x39DB0079 PUSH1 0xE2 SHL DUP3 MSTORE GAS STATICCALL SWAP3 DUP4 ISZERO PUSH2 0x1B98 JUMPI PUSH1 0x0 SWAP4 PUSH2 0x1B0B JUMPI JUMPDEST POP POP POP AND PUSH1 0x60 DUP5 ADD MSTORE MLOAD AND ISZERO ISZERO PUSH1 0xA0 DUP3 ADD MSTORE SWAP1 JUMP JUMPDEST SWAP1 SWAP2 SWAP3 PUSH1 0xE0 DUP4 RETURNDATASIZE PUSH1 0xE0 GT PUSH2 0x1B90 JUMPI JUMPDEST DUP2 PUSH2 0x1B27 PUSH1 0xE0 SWAP4 DUP4 PUSH2 0x18DC JUMP JUMPDEST DUP2 ADD SUB SLT PUSH2 0x16F JUMPI DUP3 MLOAD SWAP4 DUP6 DUP6 AND DUP6 SUB PUSH2 0x1500 JUMPI DUP4 ADD MLOAD DUP1 PUSH1 0x2 SIGNEXTEND SUB PUSH2 0x16F JUMPI POP DUP2 PUSH2 0x1B59 PUSH1 0xC0 SWAP3 PUSH2 0x1B87 SWAP5 ADD PUSH2 0x19F4 JUMP JUMPDEST POP PUSH2 0x1B66 PUSH1 0x60 DUP3 ADD PUSH2 0x19F4 JUMP JUMPDEST POP PUSH2 0x1B73 PUSH1 0x80 DUP3 ADD PUSH2 0x1A03 JUMP JUMPDEST POP PUSH2 0x1B80 PUSH1 0xA0 DUP3 ADD PUSH2 0x1A03 JUMP JUMPDEST POP ADD PUSH2 0x1A11 JUMP JUMPDEST POP CODESIZE DUP1 DUP1 PUSH2 0x1AF6 JUMP JUMPDEST RETURNDATASIZE SWAP2 POP PUSH2 0x1B1A JUMP JUMPDEST MLOAD RETURNDATASIZE PUSH1 0x0 DUP3 RETURNDATACOPY RETURNDATASIZE SWAP1 REVERT JUMPDEST DUP2 DUP2 DUP2 SWAP8 SWAP4 RETURNDATASIZE DUP4 GT PUSH2 0x1BDB JUMPI JUMPDEST PUSH2 0x1BB9 DUP2 DUP4 PUSH2 0x18DC JUMP JUMPDEST DUP2 ADD SUB SLT PUSH2 0x1500 JUMPI MLOAD SWAP1 PUSH1 0x1 PUSH1 0x1 PUSH1 0x80 SHL SUB DUP3 AND DUP3 SUB PUSH2 0x16F JUMPI POP SWAP4 CODESIZE PUSH2 0x1ABE JUMP JUMPDEST POP RETURNDATASIZE PUSH2 0x1BAF JUMP JUMPDEST DUP3 MLOAD RETURNDATASIZE PUSH1 0x0 DUP3 RETURNDATACOPY RETURNDATASIZE SWAP1 REVERT JUMPDEST PUSH2 0x1C0D SWAP2 POP DUP7 RETURNDATASIZE DUP9 GT PUSH2 0x1C13 JUMPI JUMPDEST PUSH2 0x1C05 DUP2 DUP4 PUSH2 0x18DC JUMP JUMPDEST DUP2 ADD SWAP1 PUSH2 0x19D5 JUMP JUMPDEST CODESIZE PUSH2 0x1A94 JUMP JUMPDEST POP RETURNDATASIZE PUSH2 0x1BFB JUMP JUMPDEST PUSH2 0x1C31 SWAP2 POP DUP7 RETURNDATASIZE DUP9 GT PUSH2 0x1C13 JUMPI PUSH2 0x1C05 DUP2 DUP4 PUSH2 0x18DC JUMP JUMPDEST CODESIZE PUSH2 0x1A68 JUMP JUMPDEST POP POP PUSH1 0x0 PUSH1 0xA0 DUP3 ADD MSTORE SWAP1 JUMP JUMPDEST PUSH1 0x40 MLOAD SWAP1 PUSH2 0x140 DUP3 ADD DUP3 DUP2 LT PUSH8 0xFFFFFFFFFFFFFFFF DUP3 GT OR PUSH2 0x18AA JUMPI PUSH1 0x40 MSTORE DUP2 PUSH2 0x120 PUSH1 0x0 SWAP2 DUP3 DUP2 MSTORE DUP3 PUSH1 0x20 DUP3 ADD MSTORE DUP3 PUSH1 0x40 DUP3 ADD MSTORE DUP3 PUSH1 0x60 DUP3 ADD MSTORE DUP3 PUSH1 0x80 DUP3 ADD MSTORE DUP3 PUSH1 0xA0 DUP3 ADD MSTORE DUP3 PUSH1 0xC0 DUP3 ADD MSTORE DUP3 PUSH1 0xE0 DUP3 ADD MSTORE DUP3 PUSH2 0x100 DUP3 ADD MSTORE ADD MSTORE JUMP JUMPDEST MLOAD SWAP1 PUSH1 0x1 PUSH1 0x1 PUSH1 0xA0 SHL SUB DUP3 AND DUP3 SUB PUSH2 0x44E JUMPI JUMP JUMPDEST PUSH1 0x0 JUMPDEST DUP4 DUP2 LT PUSH2 0x1CC8 JUMPI POP POP PUSH1 0x0 SWAP2 ADD MSTORE JUMP JUMPDEST DUP2 DUP2 ADD MLOAD DUP4 DUP3 ADD MSTORE PUSH1 0x20 ADD PUSH2 0x1CB8 JUMP JUMPDEST SWAP2 SWAP1 PUSH1 0x40 DUP4 DUP3 SUB SLT PUSH2 0x44E JUMPI PUSH2 0x1CED DUP4 PUSH2 0x1CA1 JUMP JUMPDEST SWAP3 PUSH1 0x20 DUP2 ADD MLOAD SWAP1 PUSH8 0xFFFFFFFFFFFFFFFF DUP3 GT PUSH2 0x44E JUMPI ADD DUP2 PUSH1 0x1F DUP3 ADD SLT ISZERO PUSH2 0x44E JUMPI DUP1 MLOAD PUSH2 0x1D1A DUP2 PUSH2 0x1976 JUMP JUMPDEST SWAP3 PUSH2 0x1D28 PUSH1 0x40 MLOAD SWAP5 DUP6 PUSH2 0x18DC JUMP JUMPDEST DUP2 DUP5 MSTORE PUSH1 0x20 DUP3 DUP5 ADD ADD GT PUSH2 0x44E JUMPI PUSH2 0x1D46 SWAP2 PUSH1 0x20 DUP1 DUP6 ADD SWAP2 ADD PUSH2 0x1CB5 JUMP JUMPDEST SWAP1 JUMP JUMPDEST PUSH2 0x1D51 PUSH2 0x1C43 JUMP JUMPDEST PUSH1 0x1 PUSH1 0x1 PUSH1 0xA0 SHL SUB SWAP2 DUP3 AND DUP1 DUP3 MSTORE PUSH1 0x40 DUP1 MLOAD PUSH3 0x4D7B09 PUSH1 0xE8 SHL DUP2 MSTORE SWAP3 SWAP4 SWAP3 SWAP1 SWAP2 PUSH1 0x4 SWAP2 PUSH1 0x20 SWAP2 SWAP1 DUP3 DUP2 DUP6 DUP2 DUP6 GAS STATICCALL SWAP1 DUP2 ISZERO PUSH2 0x20B4 JUMPI PUSH1 0x0 SWAP2 PUSH2 0x207F JUMPI JUMPDEST POP DUP6 AND DUP7 DUP4 ADD SWAP1 DUP2 MSTORE DUP5 MLOAD PUSH4 0x625048E9 PUSH1 0xE1 SHL DUP2 MSTORE DUP4 DUP2 DUP7 DUP2 DUP7 GAS STATICCALL DUP1 ISZERO PUSH2 0x2028 JUMPI DUP8 SWAP1 PUSH1 0x0 SWAP1 PUSH2 0x2049 JUMPI JUMPDEST DUP2 SWAP3 POP AND SWAP2 DUP3 DUP8 DUP11 ADD MSTORE MLOAD AND DUP7 PUSH1 0x6 SLOAD AND EQ SWAP1 DUP2 PUSH2 0x203B JUMPI JUMPDEST POP ISZERO DUP1 ISZERO PUSH2 0x120 DUP9 ADD MSTORE PUSH2 0x2033 JUMPI DUP4 MLOAD PUSH4 0x3153115 PUSH1 0xE3 SHL SWAP4 DUP5 DUP3 MSTORE PUSH1 0x0 DUP2 DUP4 ADD MSTORE PUSH1 0x0 DUP3 PUSH1 0x24 DUP2 DUP7 GAS STATICCALL SWAP2 DUP3 ISZERO PUSH2 0x2028 JUMPI PUSH1 0x0 SWAP3 PUSH2 0x200A JUMPI JUMPDEST POP DUP6 MLOAD SWAP2 DUP6 DUP4 MSTORE PUSH1 0x1 DUP3 DUP5 ADD MSTORE PUSH1 0x0 DUP4 PUSH1 0x24 DUP2 DUP8 GAS STATICCALL SWAP3 DUP4 ISZERO PUSH2 0x1FC1 JUMPI PUSH1 0x0 SWAP4 PUSH2 0x1FEC JUMPI JUMPDEST POP DUP7 MLOAD SWAP6 DUP1 DUP8 MSTORE PUSH1 0x2 DUP4 DUP9 ADD MSTORE PUSH1 0x0 DUP8 PUSH1 0x24 DUP2 DUP9 GAS STATICCALL SWAP7 DUP8 ISZERO PUSH2 0x1F8E JUMPI PUSH1 0x0 SWAP8 PUSH2 0x1FCC JUMPI JUMPDEST POP PUSH1 0x0 SWAP1 PUSH1 0x24 DUP10 MLOAD DUP1 SWAP8 DUP2 SWAP4 DUP3 MSTORE PUSH1 0x3 DUP8 DUP4 ADD MSTORE GAS STATICCALL SWAP4 DUP5 ISZERO PUSH2 0x1FC1 JUMPI SWAP1 DUP9 SWAP2 PUSH1 0x0 SWAP6 PUSH2 0x1F99 JUMPI JUMPDEST POP DUP2 AND PUSH1 0x60 DUP11 ADD DUP2 SWAP1 MSTORE SWAP3 DUP2 AND PUSH1 0x80 DUP11 ADD SWAP1 DUP2 MSTORE SWAP6 AND PUSH1 0xA0 DUP10 ADD DUP2 SWAP1 MSTORE SWAP3 DUP8 AND PUSH1 0xC0 DUP10 ADD SWAP1 DUP2 MSTORE PUSH1 0x5 SLOAD DUP8 MLOAD PUSH4 0xD9A641E1 PUSH1 0xE0 SHL DUP1 DUP3 MSTORE PUSH1 0x1 PUSH1 0x1 PUSH1 0xA0 SHL SUB SWAP6 DUP7 AND DUP6 DUP4 ADD SWAP1 DUP2 MSTORE SWAP6 SWAP1 SWAP7 AND PUSH1 0x20 DUP7 ADD MSTORE SWAP5 SWAP7 SWAP2 SWAP5 SWAP1 DUP10 AND SWAP4 DUP7 SWAP1 DUP3 SWAP1 DUP2 SWAP1 PUSH1 0x40 ADD SUB DUP2 DUP8 GAS STATICCALL SWAP1 DUP2 ISZERO PUSH2 0x1F8E JUMPI DUP7 SWAP6 SWAP5 SWAP4 SWAP3 DUP11 DUP1 SWAP4 DUP2 SWAP4 PUSH1 0x0 SWAP2 PUSH2 0x1F71 JUMPI JUMPDEST POP AND PUSH1 0xE0 DUP14 ADD MSTORE MLOAD SWAP5 MLOAD DUP10 MLOAD SWAP9 DUP10 MSTORE SWAP5 AND PUSH1 0x1 PUSH1 0x1 PUSH1 0xA0 SHL SUB SWAP1 DUP2 AND SWAP3 DUP9 ADD SWAP3 DUP4 MSTORE SWAP4 AND SWAP1 SWAP3 AND PUSH1 0x20 DUP4 ADD MSTORE DUP5 SWAP2 DUP3 SWAP1 DUP2 SWAP1 PUSH1 0x40 ADD SUB SWAP2 GAS STATICCALL SWAP3 DUP4 ISZERO PUSH2 0x1B98 JUMPI POP PUSH1 0x0 SWAP3 PUSH2 0x1F54 JUMPI JUMPDEST POP POP AND PUSH2 0x100 DUP3 ADD MSTORE SWAP1 JUMP JUMPDEST PUSH2 0x1F6A SWAP3 POP DUP1 RETURNDATASIZE LT PUSH2 0x1C13 JUMPI PUSH2 0x1C05 DUP2 DUP4 PUSH2 0x18DC JUMP JUMPDEST CODESIZE DUP1 PUSH2 0x1F48 JUMP JUMPDEST PUSH2 0x1F88 SWAP2 POP DUP10 RETURNDATASIZE DUP12 GT PUSH2 0x1C13 JUMPI PUSH2 0x1C05 DUP2 DUP4 PUSH2 0x18DC JUMP JUMPDEST CODESIZE PUSH2 0x1EFF JUMP JUMPDEST DUP9 MLOAD RETURNDATASIZE PUSH1 0x0 DUP3 RETURNDATACOPY RETURNDATASIZE SWAP1 REVERT JUMPDEST DUP3 SWAP2 SWAP6 POP PUSH2 0x1FB9 SWAP1 RETURNDATASIZE DUP1 PUSH1 0x0 DUP4 RETURNDATACOPY PUSH2 0x1FB1 DUP2 DUP4 PUSH2 0x18DC JUMP JUMPDEST DUP2 ADD SWAP1 PUSH2 0x1CD8 JUMP JUMPDEST POP SWAP5 SWAP1 PUSH2 0x1E7F JUMP JUMPDEST DUP8 MLOAD RETURNDATASIZE PUSH1 0x0 DUP3 RETURNDATACOPY RETURNDATASIZE SWAP1 REVERT JUMPDEST PUSH1 0x0 SWAP2 SWAP8 POP PUSH2 0x1FE4 SWAP1 RETURNDATASIZE DUP1 DUP5 DUP4 RETURNDATACOPY PUSH2 0x1FB1 DUP2 DUP4 PUSH2 0x18DC JUMP JUMPDEST POP SWAP7 SWAP1 PUSH2 0x1E57 JUMP JUMPDEST PUSH2 0x2002 SWAP2 SWAP4 POP RETURNDATASIZE DUP1 PUSH1 0x0 DUP4 RETURNDATACOPY PUSH2 0x1FB1 DUP2 DUP4 PUSH2 0x18DC JUMP JUMPDEST POP SWAP2 CODESIZE PUSH2 0x1E32 JUMP JUMPDEST PUSH2 0x2020 SWAP2 SWAP3 POP RETURNDATASIZE DUP1 PUSH1 0x0 DUP4 RETURNDATACOPY PUSH2 0x1FB1 DUP2 DUP4 PUSH2 0x18DC JUMP JUMPDEST POP SWAP1 CODESIZE PUSH2 0x1E0D JUMP JUMPDEST DUP7 MLOAD RETURNDATASIZE PUSH1 0x0 DUP3 RETURNDATACOPY RETURNDATASIZE SWAP1 REVERT JUMPDEST POP POP POP POP POP SWAP1 JUMP JUMPDEST SWAP1 POP DUP6 PUSH1 0x7 SLOAD AND EQ CODESIZE PUSH2 0x1DD3 JUMP JUMPDEST POP POP DUP4 DUP2 DUP2 RETURNDATASIZE DUP4 GT PUSH2 0x2078 JUMPI JUMPDEST PUSH2 0x2060 DUP2 DUP4 PUSH2 0x18DC JUMP JUMPDEST DUP2 ADD SUB SLT PUSH2 0x44E JUMPI DUP7 PUSH2 0x2073 DUP2 SWAP3 PUSH2 0x1CA1 JUMP JUMPDEST PUSH2 0x1DBA JUMP JUMPDEST POP RETURNDATASIZE PUSH2 0x2056 JUMP JUMPDEST SWAP1 POP DUP3 DUP2 DUP2 RETURNDATASIZE DUP4 GT PUSH2 0x20AD JUMPI JUMPDEST PUSH2 0x2096 DUP2 DUP4 PUSH2 0x18DC JUMP JUMPDEST DUP2 ADD SUB SLT PUSH2 0x44E JUMPI PUSH2 0x20A7 SWAP1 PUSH2 0x1CA1 JUMP JUMPDEST CODESIZE PUSH2 0x1D8E JUMP JUMPDEST POP RETURNDATASIZE PUSH2 0x208C JUMP JUMPDEST DUP6 MLOAD RETURNDATASIZE PUSH1 0x0 DUP3 RETURNDATACOPY RETURNDATASIZE SWAP1 REVERT JUMPDEST DUP1 MLOAD ISZERO PUSH2 0x20CC JUMPI PUSH1 0x20 ADD SWAP1 JUMP JUMPDEST PUSH4 0x4E487B71 PUSH1 0xE0 SHL PUSH1 0x0 MSTORE PUSH1 0x32 PUSH1 0x4 MSTORE PUSH1 0x24 PUSH1 0x0 REVERT JUMPDEST SWAP1 PUSH1 0x4 DUP3 LT ISZERO PUSH2 0x20EF JUMPI MSTORE JUMP JUMPDEST PUSH4 0x4E487B71 PUSH1 0xE0 SHL PUSH1 0x0 MSTORE PUSH1 0x21 PUSH1 0x4 MSTORE PUSH1 0x24 PUSH1 0x0 REVERT JUMPDEST SWAP2 SWAP1 DUP3 SUB SWAP2 DUP3 GT PUSH2 0x2112 JUMPI JUMP JUMPDEST PUSH4 0x4E487B71 PUSH1 0xE0 SHL PUSH1 0x0 MSTORE PUSH1 0x11 PUSH1 0x4 MSTORE PUSH1 0x24 PUSH1 0x0 REVERT JUMPDEST PUSH1 0x0 SLOAD PUSH1 0x1 PUSH1 0x1 PUSH1 0xA0 SHL SUB AND CALLER SUB PUSH2 0x213C JUMPI JUMP JUMPDEST PUSH1 0x40 MLOAD PUSH4 0x118CDAA7 PUSH1 0xE0 SHL DUP2 MSTORE CALLER PUSH1 0x4 DUP3 ADD MSTORE PUSH1 0x24 SWAP1 REVERT JUMPDEST PUSH1 0x40 MLOAD PUSH4 0xA9059CBB PUSH1 0xE0 SHL PUSH1 0x20 DUP1 DUP4 ADD SWAP2 DUP3 MSTORE PUSH1 0x1 PUSH1 0x1 PUSH1 0xA0 SHL SUB SWAP5 SWAP1 SWAP5 AND PUSH1 0x24 DUP4 ADD MSTORE PUSH1 0x44 DUP1 DUP4 ADD SWAP6 SWAP1 SWAP6 MSTORE SWAP4 DUP2 MSTORE SWAP1 SWAP3 PUSH1 0x0 SWAP2 PUSH2 0x2194 PUSH1 0x64 DUP3 PUSH2 0x18DC JUMP JUMPDEST MLOAD SWAP1 DUP3 DUP6 GAS CALL ISZERO PUSH2 0x21E7 JUMPI PUSH1 0x0 MLOAD RETURNDATASIZE PUSH2 0x21DE JUMPI POP PUSH1 0x1 PUSH1 0x1 PUSH1 0xA0 SHL SUB DUP2 AND EXTCODESIZE ISZERO JUMPDEST PUSH2 0x21BC JUMPI POP JUMP JUMPDEST PUSH1 0x40 MLOAD PUSH4 0x5274AFE7 PUSH1 0xE0 SHL DUP2 MSTORE PUSH1 0x1 PUSH1 0x1 PUSH1 0xA0 SHL SUB SWAP1 SWAP2 AND PUSH1 0x4 DUP3 ADD MSTORE PUSH1 0x24 SWAP1 REVERT JUMPDEST PUSH1 0x1 EQ ISZERO PUSH2 0x21B5 JUMP JUMPDEST PUSH1 0x40 MLOAD RETURNDATASIZE PUSH1 0x0 DUP3 RETURNDATACOPY RETURNDATASIZE SWAP1 REVERT JUMPDEST ISZERO PUSH2 0x21FA JUMPI JUMP JUMPDEST PUSH1 0x40 MLOAD PUSH3 0x461BCD PUSH1 0xE5 SHL DUP2 MSTORE PUSH1 0x20 PUSH1 0x4 DUP3 ADD MSTORE PUSH1 0x13 PUSH1 0x24 DUP3 ADD MSTORE PUSH19 0x109BDD1A081C1BDBDB1CC81C995C5D5A5C9959 PUSH1 0x6A SHL PUSH1 0x44 DUP3 ADD MSTORE PUSH1 0x64 SWAP1 REVERT JUMPDEST PUSH1 0x1 PUSH1 0x1 PUSH1 0xA0 SHL SUB SWAP1 DUP2 AND SWAP3 SWAP1 SWAP2 SWAP1 DUP4 ISZERO DUP1 ISZERO PUSH2 0x2455 JUMPI JUMPDEST PUSH2 0x244C JUMPI PUSH1 0x40 SWAP4 DUP5 MLOAD PUSH4 0xDFE1681 PUSH1 0xE0 SHL DUP2 MSTORE PUSH1 0x20 SWAP4 DUP5 DUP3 PUSH1 0x4 DUP2 DUP7 GAS STATICCALL SWAP2 DUP3 ISZERO PUSH2 0x1FC1 JUMPI DUP6 SWAP1 PUSH1 0x0 SWAP4 PUSH2 0x242C JUMPI JUMPDEST POP DUP8 MLOAD PUSH4 0xD21220A7 PUSH1 0xE0 SHL DUP2 MSTORE SWAP3 SWAP4 DUP4 SWAP1 PUSH1 0x4 SWAP1 DUP3 SWAP1 GAS STATICCALL SWAP2 DUP3 ISZERO PUSH2 0x1FC1 JUMPI SWAP1 DUP7 SWAP2 PUSH1 0x0 SWAP4 PUSH2 0x240D JUMPI JUMPDEST POP AND SWAP2 DUP6 DUP2 AND DUP4 SUB PUSH2 0x2405 JUMPI POP SWAP1 JUMPDEST PUSH1 0x3 SLOAD DUP7 MLOAD PUSH4 0x95EA7B3 PUSH1 0xE0 SHL DUP2 MSTORE SWAP1 DUP7 AND PUSH1 0x1 PUSH1 0x1 PUSH1 0xA0 SHL SUB AND PUSH1 0x4 DUP3 ADD MSTORE PUSH1 0x24 DUP2 ADD DUP5 SWAP1 MSTORE DUP5 DUP2 PUSH1 0x44 DUP2 PUSH1 0x0 DUP7 GAS CALL DUP1 ISZERO PUSH2 0x1FC1 JUMPI PUSH2 0x23D1 JUMPI JUMPDEST POP DUP6 MLOAD SWAP2 PUSH1 0xE0 DUP4 ADD SWAP1 DUP4 DUP3 LT PUSH8 0xFFFFFFFFFFFFFFFF DUP4 GT OR PUSH2 0x18AA JUMPI DUP6 SWAP5 DUP9 SWAP4 DUP9 SWAP4 DUP6 MSTORE DUP6 MSTORE DUP3 DUP7 DUP7 ADD SWAP3 AND DUP3 MSTORE DUP4 DUP6 ADD SWAP1 ADDRESS DUP3 MSTORE PUSH1 0x60 DUP7 ADD TIMESTAMP DUP2 MSTORE PUSH1 0x80 DUP8 ADD SWAP2 DUP3 MSTORE DUP5 PUSH1 0xA0 DUP9 ADD SWAP4 PUSH1 0x0 DUP6 MSTORE DUP2 PUSH1 0xC0 DUP11 ADD SWAP7 PUSH1 0x0 DUP9 MSTORE DUP2 PUSH1 0x3 SLOAD AND SWAP10 MLOAD SWAP14 DUP15 SWAP12 PUSH4 0x178CA231 PUSH1 0xE3 SHL DUP14 MSTORE MLOAD AND PUSH1 0x4 DUP13 ADD MSTORE MLOAD AND PUSH1 0x24 DUP11 ADD MSTORE MLOAD AND PUSH1 0x44 DUP9 ADD MSTORE MLOAD PUSH1 0x64 DUP8 ADD MSTORE MLOAD PUSH1 0x84 DUP7 ADD MSTORE MLOAD PUSH1 0xA4 DUP6 ADD MSTORE MLOAD AND PUSH1 0xC4 DUP4 ADD MSTORE DUP2 GAS PUSH1 0xE4 SWAP3 PUSH1 0x0 SWAP2 CALL SWAP3 DUP4 ISZERO PUSH2 0x1B98 JUMPI POP PUSH1 0x0 SWAP3 PUSH2 0x23A7 JUMPI POP POP SWAP1 JUMP JUMPDEST SWAP1 DUP1 SWAP3 POP DUP2 RETURNDATASIZE DUP4 GT PUSH2 0x23CA JUMPI JUMPDEST PUSH2 0x23BE DUP2 DUP4 PUSH2 0x18DC JUMP JUMPDEST DUP2 ADD SUB SLT PUSH2 0x44E JUMPI MLOAD SWAP1 JUMP JUMPDEST POP RETURNDATASIZE PUSH2 0x23B4 JUMP JUMPDEST DUP5 DUP2 DUP2 RETURNDATASIZE DUP4 GT PUSH2 0x23FE JUMPI JUMPDEST PUSH2 0x23E6 DUP2 DUP4 PUSH2 0x18DC JUMP JUMPDEST DUP2 ADD SUB SLT PUSH2 0x44E JUMPI PUSH2 0x23F7 SWAP1 PUSH2 0x1A11 JUMP JUMPDEST POP CODESIZE PUSH2 0x22F1 JUMP JUMPDEST POP RETURNDATASIZE PUSH2 0x23DC JUMP JUMPDEST SWAP1 POP SWAP1 PUSH2 0x22B5 JUMP JUMPDEST PUSH2 0x2425 SWAP2 SWAP4 POP DUP7 RETURNDATASIZE DUP9 GT PUSH2 0x1C13 JUMPI PUSH2 0x1C05 DUP2 DUP4 PUSH2 0x18DC JUMP JUMPDEST SWAP2 CODESIZE PUSH2 0x22A6 JUMP JUMPDEST PUSH1 0x4 SWAP4 POP PUSH2 0x2446 SWAP1 DUP3 RETURNDATASIZE DUP5 GT PUSH2 0x1C13 JUMPI PUSH2 0x1C05 DUP2 DUP4 PUSH2 0x18DC JUMP JUMPDEST SWAP3 PUSH2 0x227C JUMP JUMPDEST POP POP POP POP PUSH1 0x0 SWAP1 JUMP JUMPDEST POP DUP1 ISZERO PUSH2 0x224D JUMP INVALID LOG2 PUSH5 0x6970667358 0x22 SLT KECCAK256 PUSH10 0xFE4AB92205539A7E7AD2 0xD1 0xCC 0x1F DIV ADDRESS BASEFEE 0xD6 PUSH27 0x6E4E1656EE1CCF3C3A36F73C6D64736F6C63430008180033000000 "},"methodIdentifiers":{"algebraFactory()":"a7b64b04","analyzeArbitrageOpportunity(address)":"50b1776a","balancerVault()":"158274a5","executeProposalArbitrage(address,address,uint256,uint8,uint256)":"b4830f56","futarchyRouter()":"0db188b1","getPoolInfo(address)":"06bfa938","gnoToken()":"c61f2184","loadProposal(address)":"4c16effc","owner()":"8da5cb5b","receiveFlashLoan(address[],uint256[],uint256[],bytes)":"f04f2707","recoverTokens(address,uint256)":"069c9fae","renounceOwnership()":"715018a6","sdaiToken()":"aeda99ef","setContracts(address,address,address,address)":"bf989b6e","setExpectedTokens(address,address)":"e2d1af1e","swaprRouter()":"4ad74299","transferOwnership(address)":"f2fde38b"}}}}}