{"contracts/GnosisFlashArbitrageV3.sol":{"GnosisFlashArbitrageV3":{"abi":[{"inputs":[{"internalType":"address","name":"_balancerVault","type":"address"},{"internalType":"address","name":"_balancerV2Vault","type":"address"},{"internalType":"address","name":"_swaprRouter","type":"address"},{"internalType":"address","name":"_futarchyRouter","type":"address"},{"internalType":"address","name":"_algebraFactory","type":"address"},{"internalType":"address","name":"_gnoToken","type":"address"},{"internalType":"address","name":"_sdaiToken","type":"address"}],"stateMutability":"nonpayable","type":"constructor"},{"inputs":[{"internalType":"uint256","name":"balanceAfter","type":"uint256"},{"internalType":"uint256","name":"borrowAmount","type":"uint256"},{"internalType":"string","name":"reason","type":"string"}],"name":"ArbitrageFailed","type":"error"},{"inputs":[{"internalType":"address","name":"owner","type":"address"}],"name":"OwnableInvalidOwner","type":"error"},{"inputs":[{"internalType":"address","name":"account","type":"address"}],"name":"OwnableUnauthorizedAccount","type":"error"},{"inputs":[],"name":"ReentrancyGuardReentrantCall","type":"error"},{"inputs":[{"internalType":"address","name":"token","type":"address"}],"name":"SafeERC20FailedOperation","type":"error"},{"anonymous":false,"inputs":[{"indexed":true,"internalType":"address","name":"proposal","type":"address"},{"indexed":false,"internalType":"enum GnosisFlashArbitrageV3.ArbitrageDirection","name":"direction","type":"uint8"},{"indexed":false,"internalType":"address","name":"borrowToken","type":"address"},{"indexed":false,"internalType":"uint256","name":"borrowAmount","type":"uint256"},{"indexed":false,"internalType":"uint256","name":"profit","type":"uint256"},{"indexed":false,"internalType":"address","name":"profitRecipient","type":"address"}],"name":"ArbitrageExecuted","type":"event"},{"anonymous":false,"inputs":[{"indexed":true,"internalType":"address","name":"previousOwner","type":"address"},{"indexed":true,"internalType":"address","name":"newOwner","type":"address"}],"name":"OwnershipTransferred","type":"event"},{"inputs":[],"name":"algebraFactory","outputs":[{"internalType":"contract IAlgebraFactory","name":"","type":"address"}],"stateMutability":"view","type":"function"},{"inputs":[],"name":"balancerV2Vault","outputs":[{"internalType":"contract IBalancerV2Vault","name":"","type":"address"}],"stateMutability":"view","type":"function"},{"inputs":[],"name":"balancerVault","outputs":[{"internalType":"contract IBalancerV3Vault","name":"","type":"address"}],"stateMutability":"view","type":"function"},{"inputs":[{"internalType":"address","name":"proposalAddress","type":"address"},{"internalType":"address","name":"borrowToken","type":"address"},{"internalType":"uint256","name":"borrowAmount","type":"uint256"},{"internalType":"enum GnosisFlashArbitrageV3.ArbitrageDirection","name":"direction","type":"uint8"},{"internalType":"uint256","name":"minProfit","type":"uint256"}],"name":"executeArbitrage","outputs":[{"components":[{"internalType":"bool","name":"success","type":"bool"},{"internalType":"uint256","name":"profit","type":"uint256"},{"internalType":"uint256","name":"leftoverYesGno","type":"uint256"},{"internalType":"uint256","name":"leftoverNoGno","type":"uint256"},{"internalType":"uint256","name":"leftoverYesSdai","type":"uint256"},{"internalType":"uint256","name":"leftoverNoSdai","type":"uint256"},{"internalType":"uint256","name":"leftoverGno","type":"uint256"},{"internalType":"uint256","name":"leftoverSdai","type":"uint256"}],"internalType":"struct GnosisFlashArbitrageV3.ArbitrageResult","name":"result","type":"tuple"}],"stateMutability":"nonpayable","type":"function"},{"inputs":[],"name":"futarchyRouter","outputs":[{"internalType":"contract IFutarchyRouter","name":"","type":"address"}],"stateMutability":"view","type":"function"},{"inputs":[],"name":"gnoToken","outputs":[{"internalType":"address","name":"","type":"address"}],"stateMutability":"view","type":"function"},{"inputs":[{"internalType":"address","name":"proposalAddress","type":"address"}],"name":"loadProposal","outputs":[{"components":[{"internalType":"address","name":"proposal","type":"address"},{"internalType":"address","name":"collateralToken1","type":"address"},{"internalType":"address","name":"collateralToken2","type":"address"},{"internalType":"address","name":"yesGno","type":"address"},{"internalType":"address","name":"noGno","type":"address"},{"internalType":"address","name":"yesSdai","type":"address"},{"internalType":"address","name":"noSdai","type":"address"},{"internalType":"address","name":"yesPool","type":"address"},{"internalType":"address","name":"noPool","type":"address"},{"internalType":"bool","name":"isValid","type":"bool"}],"internalType":"struct GnosisFlashArbitrageV3.ProposalInfo","name":"info","type":"tuple"}],"stateMutability":"view","type":"function"},{"inputs":[{"internalType":"address","name":"borrowToken","type":"address"},{"internalType":"uint256","name":"borrowAmount","type":"uint256"}],"name":"onUnlock","outputs":[{"internalType":"bytes","name":"","type":"bytes"}],"stateMutability":"nonpayable","type":"function"},{"inputs":[],"name":"owner","outputs":[{"internalType":"address","name":"","type":"address"}],"stateMutability":"view","type":"function"},{"inputs":[{"internalType":"address","name":"token","type":"address"},{"internalType":"uint256","name":"amount","type":"uint256"}],"name":"recoverTokens","outputs":[],"stateMutability":"nonpayable","type":"function"},{"inputs":[],"name":"renounceOwnership","outputs":[],"stateMutability":"nonpayable","type":"function"},{"inputs":[],"name":"sdaiToken","outputs":[{"internalType":"address","name":"","type":"address"}],"stateMutability":"view","type":"function"},{"inputs":[],"name":"swaprRouter","outputs":[{"internalType":"contract IAlgebraSwapRouter","name":"","type":"address"}],"stateMutability":"view","type":"function"},{"inputs":[{"internalType":"address","name":"newOwner","type":"address"}],"name":"transferOwnership","outputs":[],"stateMutability":"nonpayable","type":"function"},{"stateMutability":"payable","type":"receive"}],"evm":{"bytecode":{"linkReferences":{},"object":"6080346200017157601f62002e1938819003918201601f19168301916001600160401b03831184841017620001765780849260e09460405283398101031262000171576200004d816200018c565b6200005b602083016200018c565b62000069604084016200018c565b9062000078606085016200018c565b9162000087608086016200018c565b94620000a460c06200009c60a084016200018c565b92016200018c565b923315620001585760005496879660018060a01b039687809681809681809660018060a01b03199e8f339116176000556040519f823391167f8be0079c531659141344cd1fd0a4f28419497f9722a3daafe3b4186f6b6457e0600080a360018055168d6002541617600255168b60035416176003551689600454161760045516876005541617600555168560065416176006551683600754161760075516906008541617600855612c779081620001a28239f35b604051631e4fbdf760e01b815260006004820152602490fd5b600080fd5b634e487b7160e01b600052604160045260246000fd5b51906001600160a01b0382168203620001715756fe6080604052600436101561001b575b361561001957600080fd5b005b6000803560e01c8063069c9fae146121765780630774f1bb14611f4a5780630db188b114611f2157806310c0a15714611ef8578063158274a514611ecf5780634ad7429914611ea65780634c16effc14611e00578063715018a614611da657806375140be4146101f55780638da5cb5b146101ce578063a7b64b04146101a5578063aeda99ef1461017c578063c61f2184146101535763f2fde38b146100c1575061000e565b34610150576020366003190112610150576100da6121b2565b6100e26127ff565b6001600160a01b0390811690811561013757600054826bffffffffffffffffffffffff60a01b821617600055167f8be0079c531659141344cd1fd0a4f28419497f9722a3daafe3b4186f6b6457e0600080a380f35b604051631e4fbdf760e01b815260048101849052602490fd5b80fd5b50346101505780600319360112610150576007546040516001600160a01b039091168152602090f35b50346101505780600319360112610150576008546040516001600160a01b039091168152602090f35b50346101505780600319360112610150576006546040516001600160a01b039091168152602090f35b5034610150578060031936011261015057546040516001600160a01b039091168152602090f35b50346101505760403660031901126101505761020f6121b2565b6002549091906001600160a01b031633819003611d6b57803b15611d675781809160646040518094819363ae63932960e01b835260018060a01b038916600484015230602484015260243560448401525af18015610a5b57611d58575b5060095490916102846001600160a01b0383166123ff565b9161012083015115611d205760a01c60ff1661029f81612322565b6113dd576007546001600160a01b0390811690821681900361138e5760055460405163095ea7b360e01b81526001600160a01b0390911660048201526024803590820152906020908290604490829088905af1801561099d5761136f575b50600554825160075485926001600160a01b03908116929181169116823b1561136b576040516301abf04560e71b81526001600160a01b03918216600482015291166024808301919091523560448201529082908290606490829084905af18015610a5b57611357575b505060608201516040516370a0823160e01b815230600482015290602090829060249082906001600160a01b03165afa90811561099d578491611325575b508015158061130f575b6112e7575b5060808201516040516370a0823160e01b815230600482015290602090829060249082906001600160a01b03165afa90811561099d5784916112b5575b508015158061129e575b611275575b5060a08201516040516370a0823160e01b81523060048201528491602090829060249082906001600160a01b03165afa908115610a5b578291611240575b5060c08401516040516370a0823160e01b815230600482015290602090829060249082906001600160a01b03165afa9081156109fd57839161120b575b508082101561120457505b806110b7575b50506008546040516370a0823160e01b81523060048201526001600160a01b0390911690602081602481855afa90811561093d578591611085575b5080610c15575b50505b6040516370a0823160e01b8152306004820152906020826024816001600160a01b0385165afa91821561099d578492610be1575b506024358210610b955781602435810311610b8157600a54602435830310610b365760025460405163a9059cbb60e01b81526001600160a01b039091166004820152602480359082015260208180604481010381886001600160a01b0387165af1801561093d57610b07575b506002546040516315afd40960e01b81526001600160a01b03838116600483015260248035908301529091602091839160449183918a91165af1801561093d57610adc575b5060249384358303610ab8575b600b546060850180516040516370a0823160e01b81523060048201529791966001600160a01b03938416949390926020928a928391165afa958615610a5b578296610a83575b60249750868481610a66575b50505060808101516040516370a0823160e01b81523060048201529760209189919082906001600160a01b03165afa8015610a5b578290610a28575b6024975080610a08575b60a08201516040516370a0823160e01b8152306004820152986020918a919082906001600160a01b03165afa9182156109fd5783926109c8575b60249850826109a8575b60c08101516040516370a0823160e01b8152306004820152996020918b919082906001600160a01b03165afa98891561099d578499610969575b50888581610948575b50506008546040516370a0823160e01b81523060048201529591506001600160a01b0316602086602481845afa95861561093d578596610909575b508582816108f8575b50506007546040516370a0823160e01b81523060048201526001600160a01b03909116929150602081602481865afa9586156108ec579561089f575b509361088a9960a0946108689a98946108769a9894847f54577c03a6068d982e6e64819897c53751527329a92f19bdd64963313175c4a1998161088e575b505050604051996107b08b612265565b60018b526024358a0360208c01528060408c01528160608c01528260808c015283888c01528460c08c01528560e08c0152600160ff19600c541617600c556024358a03600d55600e55600f556010556011556012556013556009549060ff82841c1694600180851b03600b5416916040519661082b81612322565b8752600180861b031660208701526024356040870152602435900360608601526080850152600180831b031692a2604051928391602083016121c8565b03601f198101835282612300565b604051918291602083526020830190612240565b0390f35b6108979261282b565b3884816107a0565b9398969297959194506020843d6020116108e4575b816108c160209383612300565b810103126108df57925195979496919590949093909261088a610762565b600080fd5b3d91506108b4565b604051903d90823e3d90fd5b6109019261282b565b388582610726565b9095506020813d602011610935575b8161092560209383612300565b810103126108df5751943861071d565b3d9150610918565b6040513d87823e3d90fd5b60c09092015161096192906001600160a01b031661282b565b3888856106e2565b9098506020813d602011610995575b8161098560209383612300565b810103126108df575197386106d9565b3d9150610978565b6040513d86823e3d90fd5b60a08101516109c390849087906001600160a01b031661282b565b61069f565b91506020883d6020116109f5575b816109e360209383612300565b810103126108df576024975191610695565b3d91506109d6565b6040513d85823e3d90fd5b6080820151610a2390829086906001600160a01b031661282b565b61065b565b506020873d602011610a53575b81610a4260209383612300565b810103126108df5760249651610651565b3d9150610a35565b6040513d84823e3d90fd5b9151610a7b92906001600160a01b031661282b565b388684610615565b95506020873d602011610ab0575b81610a9e60209383612300565b810103126108df576024965195610609565b3d9150610a91565b600b54610ad79086358503906001600160a01b0390811690851661282b565b6105c3565b602090813d8311610b00575b610af28183612300565b810103126108df57386105b6565b503d610ae8565b610b289060203d602011610b2f575b610b208183612300565b8101906127e7565b5038610571565b503d610b16565b60a48260405190633566cf0d60e01b82526004820152602435602482015260606044820152601460648201527350726f6669742062656c6f77206d696e696d756d60601b6084820152fd5b634e487b7160e01b84526011600452602484fd5b60a48260405190633566cf0d60e01b825260048201526024356024820152606060448201526015606482015274496e73756666696369656e7420746f20726570617960581b6084820152fd5b9091506020813d602011610c0d575b81610bfd60209383612300565b810103126108df57519038610505565b3d9150610bf0565b60405191610c22836122ac565b60048352608036602085013780610c3884612b12565b5273ddafbb505ad214d7b80b1f830fccc89b60fb7a83610c5784612b35565b5273e91d153e0b41518a2ce8dd3d7944fa863463a97d610c7684612b45565b526007546001600160a01b0316610c8c84612b55565b52610c95612b65565b92604051610ca2816122ac565b7f7644fa5d0ea14fcf3e813fdf93ca9544f8567655000000000000000000000066815287602082015260016040820152836060820152604051610ce4816122e4565b8881526080820152610cf585612b12565b52610cff84612b12565b50604051610d0c816122ac565b7f2086f52651837600180de173b09470f54ef7491000000000000000000000004f81526001602082015260026040820152876060820152604051610d4f816122e4565b8881526080820152610d6085612b35565b52610d6a84612b35565b50604051610d77816122ac565b7f8189c4c96826d016a99986394103dfa9ae41e7ee0002000000000000000000aa81526002602082015260036040820152876060820152604051610dba816122e4565b8881526080820152610dcb85612b45565b52610dd584612b45565b50610e81602060405194610de8866122c8565b308652898287015230604087015289606087015260405194610e09866122ac565b600486526080368488013781610e1e87612b12565b526001600160ff1b0380610e3188612b35565b5280610e3c88612b45565b52610e4687612b55565b5260035460405163095ea7b360e01b81526001600160a01b0390911660048201526024810192909252909283919082908c9082906044820190565b03925af1801561107a5761105b575b508692939160018060a01b03600354169160405195869463945bcec960e01b865261012486016000600488015261012060248801528151809152610144906020828901928260051b8a01019301916000905b828210610ff357505050506003198682030160448701526020808451928381520193019060005b818110610fce57505081516001600160a01b03908116606488015260208084015115156084890152604084015190911660a4880152606090920151151560c4870152506003198583030160e4860152825180835291810192019060005b818110610fb257505050838380924261010483015203925af1801561099d57610f90575b806104ce565b610fab903d8086833e610fa38183612300565b810190612bc5565b5038610f8a565b825184528a965087955060209384019390920191600101610f66565b82516001600160a01b031685528c985089975060209485019490920191600101610f09565b9295979950926020611046819260019497999b6101431990820301865260a060808a5180518452858101518685015260408101516040850152606081015160608501520151918160808201520190612240565b96019201920192899795938d99979593610ee2565b6110739060203d602011610b2f57610b208183612300565b5038610e90565b6040513d8a823e3d90fd5b90506020813d6020116110af575b816110a060209383612300565b810103126108df5751386104c7565b3d9150611093565b60a084015160055460405163095ea7b360e01b81526001600160a01b0391821660048201526024810184905291602091839160449183918891165af180156109fd576111e5575b5060c084015160055460405163095ea7b360e01b81526001600160a01b0391821660048201526024810184905291602091839160449183918891165af180156109fd576111c6575b5060055484516008546001600160a01b03908116939181169216803b156111c257604051637abef8d160e01b81526001600160a01b039384166004820152939092166024840152604483015282908290606490829084905af18015610a5b571561048c576111b390612298565b6111be57823861048c565b8280fd5b8480fd5b6111de9060203d602011610b2f57610b208183612300565b5038611146565b6111fd9060203d602011610b2f57610b208183612300565b50386110fe565b9050610486565b9250506020823d602011611238575b8161122760209383612300565b810103126108df578491513861047b565b3d915061121a565b9150506020813d60201161126d575b8161125c60209383612300565b810103126108df578390513861043e565b3d915061124f565b610100830151608084015161129792916001600160a01b0391821691166128c7565b5038610400565b506101008301516001600160a01b031615156103fb565b90506020813d6020116112df575b816112d060209383612300565b810103126108df5751386103f1565b3d91506112c3565b60e0830151606084015161130892916001600160a01b0391821691166128c7565b50386103b4565b5060e08301516001600160a01b031615156103af565b90506020813d60201161134f575b8161134060209383612300565b810103126108df5751386103a5565b3d9150611333565b61136090612298565b6111be578238610367565b8380fd5b6113879060203d602011610b2f57610b208183612300565b50386102fd565b60405162461bcd60e51b815260206004820152602160248201527f53504f545f53504c495420726571756972657320626f72726f77696e6720474e6044820152604f60f81b6064820152608490fd5b6008546001600160a01b03908116908216819003611cd05760055460405163095ea7b360e01b81526001600160a01b0390911660048201526024803590820152906020908290604490829088905af1801561099d57611cb1575b50600554825160085485926001600160a01b03908116929181169116823b1561136b576040516301abf04560e71b81526001600160a01b03918216600482015291166024808301919091523560448201529082908290606490829084905af18015610a5b57611c9d575b505060a08201516040516370a0823160e01b815230600482015290602090829060249082906001600160a01b03165afa90811561099d578491611c6b575b5080151580611c55575b611c2d575b5060c08201516040516370a0823160e01b815230600482015290602090829060249082906001600160a01b03165afa90811561099d578491611bfb575b5080151580611be4575b611bbb575b5060608201516040516370a0823160e01b81523060048201528491602090829060249082906001600160a01b03165afa908115610a5b578291611b86575b5060808401516040516370a0823160e01b815230600482015290602090829060249082906001600160a01b03165afa9081156109fd578391611b51575b5080821015611b4a57505b80611a05575b50506007546040516370a0823160e01b81523060048201526001600160a01b0390911690602081602481855afa90811561093d5785916119d3575b508061160f575b50506104d1565b6040519161161c836122ac565b6004835260803660208501378061163284612b12565b5273e91d153e0b41518a2ce8dd3d7944fa863463a97d61165184612b35565b5273ddafbb505ad214d7b80b1f830fccc89b60fb7a8361167084612b45565b526008546001600160a01b031661168684612b55565b5261168f612b65565b9260405161169c816122ac565b7f8189c4c96826d016a99986394103dfa9ae41e7ee0002000000000000000000aa8152876020820152600160408201528360608201526040516116de816122e4565b88815260808201526116ef85612b12565b526116f984612b12565b50604051611706816122ac565b7f2086f52651837600180de173b09470f54ef7491000000000000000000000004f81526001602082015260026040820152876060820152604051611749816122e4565b888152608082015261175a85612b35565b5261176484612b35565b50604051611771816122ac565b7f7644fa5d0ea14fcf3e813fdf93ca9544f8567655000000000000000000000066815260026020820152600360408201528760608201526040516117b4816122e4565b88815260808201526117c585612b45565b526117cf84612b45565b506117e2602060405194610de8866122c8565b03925af1801561107a576119b4575b508692939160018060a01b03600354169160405195869463945bcec960e01b865261012486016000600488015261012060248801528151809152610144906020828901928260051b8a01019301916000905b82821061194c57505050506003198682030160448701526020808451928381520193019060005b81811061192757505081516001600160a01b03908116606488015260208084015115156084890152604084015190911660a4880152606090920151151560c4870152506003198583030160e4860152825180835291810192019060005b81811061190b57505050838380924261010483015203925af1801561099d576118f1575b80611608565b611904903d8086833e610fa38183612300565b50386118eb565b825184528a9650879550602093840193909201916001016118c7565b82516001600160a01b031685528c98508997506020948501949092019160010161186a565b929597995092602061199f819260019497999b6101431990820301865260a060808a5180518452858101518685015260408101516040850152606081015160608501520151918160808201520190612240565b96019201920192899795938d99979593611843565b6119cc9060203d602011610b2f57610b208183612300565b50386117f1565b90506020813d6020116119fd575b816119ee60209383612300565b810103126108df575138611601565b3d91506119e1565b606084015160055460405163095ea7b360e01b81526001600160a01b0391821660048201526024810184905291602091839160449183918891165af180156109fd57611b2b575b50608084015160055460405163095ea7b360e01b81526001600160a01b0391821660048201526024810184905291602091839160449183918891165af180156109fd57611b0c575b5060055484516007546001600160a01b03908116939181169216803b156111c257604051637abef8d160e01b81526001600160a01b039384166004820152939092166024840152604483015282908290606490829084905af18015610a5b57156115c657611b0190612298565b6111be5782386115c6565b611b249060203d602011610b2f57610b208183612300565b5038611a94565b611b439060203d602011610b2f57610b208183612300565b5038611a4c565b90506115c0565b9250506020823d602011611b7e575b81611b6d60209383612300565b810103126108df57849151386115b5565b3d9150611b60565b9150506020813d602011611bb3575b81611ba260209383612300565b810103126108df5783905138611578565b3d9150611b95565b61010083015160c0840151611bdd92916001600160a01b0391821691166128c7565b503861153a565b506101008301516001600160a01b03161515611535565b90506020813d602011611c25575b81611c1660209383612300565b810103126108df57513861152b565b3d9150611c09565b60e083015160a0840151611c4e92916001600160a01b0391821691166128c7565b50386114ee565b5060e08301516001600160a01b031615156114e9565b90506020813d602011611c95575b81611c8660209383612300565b810103126108df5751386114df565b3d9150611c79565b611ca690612298565b6111be5782386114a1565b611cc99060203d602011610b2f57610b208183612300565b5038611437565b60405162461bcd60e51b815260206004820152602260248201527f4d455247455f53504f5420726571756972657320626f72726f77696e67207344604482015261414960f01b6064820152608490fd5b60405162461bcd60e51b815260206004820152601060248201526f125b9d985b1a59081c1c9bdc1bdcd85b60821b6044820152606490fd5b611d6190612298565b3861026c565b5080fd5b60405162461bcd60e51b815260206004820152601360248201527213db9b1e4810985b185b98d95c8815985d5b1d606a1b6044820152606490fd5b5034610150578060031936011261015057611dbf6127ff565b80546001600160a01b03198116825581906001600160a01b03167f8be0079c531659141344cd1fd0a4f28419497f9722a3daafe3b4186f6b6457e08280a380f35b503461015057602036600319011261015057610140611e25611e206121b2565b6123ff565b6040519060018060a01b038082511683528060208301511660208401528060408301511660408401528060608301511660608401528060808301511660808401528060a08301511660a08401528060c08301511660c08401528060e08301511660e08401526101009081830151169083015261012080910151151590820152f35b50346101505780600319360112610150576004546040516001600160a01b039091168152602090f35b50346101505780600319360112610150576002546040516001600160a01b039091168152602090f35b50346101505780600319360112610150576003546040516001600160a01b039091168152602090f35b50346101505780600319360112610150576005546040516001600160a01b039091168152602090f35b50346101505760a036600319011261015057611f646121b2565b602435906001600160a01b03808316830361136b576064359160028310156111c2578460e0604051611f9581612265565b8281528260208201528260408201528260608201528260808201528260a08201528260c08201520152611fc66127ff565b6002600154146121645761206285939261209992859460026001558260095491611fef81612322565b60ff60a01b60a09190911b1692166001600160a81b0319919091161717600955608435600a55600b8054336001600160a01b031991821617909155604051631d4502f960e21b60208201526001600160a01b03979097166024880152604480359088015295916120709083906064820190565b03601f198101845283612300565b60025416906040519687809481936348c8949160e01b8352602060048401526024830190612240565b03925af1801561215757612112575b61088a82604051906120b982612265565b60ff600c541615158252600d546020830152600e546040830152600f546060830152601054608083015260115460a083015260125460c083015260135460e08301526009541660095560018055604051918291826121c8565b3d8082853e6121218185612300565b830192602081850312611d675780519167ffffffffffffffff83116101505750926121509161088a9401612342565b50386120a8565b50604051903d90823e3d90fd5b604051633ee5aeb560e01b8152600490fd5b5034610150576040366003190112610150576121af6121936121b2565b61219b6127ff565b6024359033906001600160a01b031661282b565b80f35b600435906001600160a01b03821682036108df57565b91909160e0806101008301948051151584526020810151602085015260408101516040850152606081015160608501526080810151608085015260a081015160a085015260c081015160c08501520151910152565b60005b8381106122305750506000910152565b8181015183820152602001612220565b906020916122598151809281855285808601910161221d565b601f01601f1916010190565b610100810190811067ffffffffffffffff82111761228257604052565b634e487b7160e01b600052604160045260246000fd5b67ffffffffffffffff811161228257604052565b60a0810190811067ffffffffffffffff82111761228257604052565b6080810190811067ffffffffffffffff82111761228257604052565b6020810190811067ffffffffffffffff82111761228257604052565b90601f8019910116810190811067ffffffffffffffff82111761228257604052565b6002111561232c57565b634e487b7160e01b600052602160045260246000fd5b81601f820112156108df57805167ffffffffffffffff81116122825760405192612376601f8301601f191660200185612300565b818452602082840101116108df57612394916020808501910161221d565b90565b51906001600160a01b03821682036108df57565b9190916040818403126108df576123c181612397565b92602082015167ffffffffffffffff81116108df576123949201612342565b908160209103126108df57516001600160a01b03811681036108df5790565b906040805192610140840184811067ffffffffffffffff8211176122825782526020918285019260008085528287018181528160608901528160808901528160a08901528160c08901528160e08901526101009582878a0152610120890198838a52809960018060a01b0380981693848352875193624d7b0960e81b8552600494888187818a5afa9081156127a557908b9189916127af575b50168152885163625048e960e11b8152888187818a5afa9081156127a557908b92918991612766575b50821680935251168960075416149081612758575b5015908115905261274d5750845190630315311560e31b80835284828401528483602481875afa928315612743578593612726575b508651928184526001838501528584602481885afa9384156126d8578694612709575b508751918083526002848401528683602481895afa9283156126ff5790879182946126e2575b5060248a518098819382526003888301525afa9485156126d85791899187969594938e9998966126ac575b50608083809216998a6060820152019416845216918260a08d01528860c08d01941684526125e0868a60065416948a518093819263d9a641e160e01b9c8d845288840190602090939293604083019460018060a01b03809216845216910152565b0381875afa9081156126a25787959493928e60e08d809581958c91612685575b50169101525194518a51998a5294166001600160a01b039081169289019283529316909216602083015285918290819060400103915afa93841561267b57509261264e575b50501690830152565b61266d9250803d10612674575b6126658183612300565b8101906123e0565b3880612645565b503d61265b565b51903d90823e3d90fd5b61269c91508b3d8d11612674576126658183612300565b38612600565b89513d88823e3d90fd5b83809297506126ce6080923d808c833e6126c68183612300565b8101906123ab565b509792505061257f565b88513d88823e3d90fd5b6126f79194503d8084833e6126c68183612300565b509238612554565b89513d89823e3d90fd5b61271e9194503d8088833e6126c68183612300565b50923861252e565b61273b9193503d8087833e6126c68183612300565b50913861250b565b87513d87823e3d90fd5b985050505050505050565b9050886008541614386124d6565b809293508a8092503d831161279e575b6127808183612300565b8101031261279a57908a6127948193612397565b906124c1565b8780fd5b503d612776565b8a513d8a823e3d90fd5b8092508a8092503d83116127e0575b6127c88183612300565b8101031261279a576127da8b91612397565b38612498565b503d6127be565b908160209103126108df575180151581036108df5790565b6000546001600160a01b0316330361281357565b60405163118cdaa760e01b8152336004820152602490fd5b60405163a9059cbb60e01b60208281019182526001600160a01b039094166024830152604482019490945290926000916128688160648101610868565b519082855af1156128bb576000513d6128b257506001600160a01b0381163b155b6128905750565b604051635274afe760e01b81526001600160a01b039091166004820152602490fd5b60011415612889565b6040513d6000823e3d90fd5b6001600160a01b039081169290919083158015612b0a575b612b0157604093845191630dfe168160e01b835260209360049285858581845afa948515612aaa57908691600096612adc575b50885163d21220a760e01b81529291908390869082905afa918215612aaa57908791600093612abd575b5016938681168503612ab55750905b8254875163095ea7b360e01b81529087166001600160a01b03168185019081526020810183905286908290819060400103816000895af18015612aaa57612a8d575b5086519360e0850185811067ffffffffffffffff821117612a7857928792879695928a95865286528387870192168252848601308152846060880191428352608089019384528160a08a01956000875260c08b019760008952828154169a519e8f9c8d63178ca23160e31b90525116908c0152511660248a0152511660448801525160648701525160848601525160a4850152511660c4830152815a60e492600091f1928315612a6e5750600092612a4457505090565b90809250813d8311612a67575b612a5b8183612300565b810103126108df575190565b503d612a51565b513d6000823e3d90fd5b604185634e487b7160e01b6000525260246000fd5b612aa390863d8811610b2f57610b208183612300565b503861298d565b88513d6000823e3d90fd5b90509061294b565b612ad5919350873d8911612674576126658183612300565b913861293c565b82919650612af8908694933d8411612674576126658183612300565b95909192612912565b50505050600090565b5080156128df565b805115612b1f5760200190565b634e487b7160e01b600052603260045260246000fd5b805160011015612b1f5760400190565b805160021015612b1f5760600190565b805160031015612b1f5760800190565b6040805191612b73836122c8565b60038352829160005b606080821015612bbd57825160209291612b95826122ac565b6000825283906000828401526000868401526000818401526080830152828801015201612b7c565b505050909150565b9060209081838203126108df57825167ffffffffffffffff938482116108df570181601f820112156108df578051938411612282578360051b9060405194612c0f85840187612300565b855283808601928201019283116108df578301905b828210612c32575050505090565b81518152908301908301612c2456fea2646970667358221220c85cc0884de34a2257bf16f533c7cfbb09fda0416bb4a246ee8f58152a7a191b64736f6c63430008180033","opcodes":"PUSH1 0x80 CALLVALUE PUSH3 0x171 JUMPI PUSH1 0x1F PUSH3 0x2E19 CODESIZE DUP2 SWAP1 SUB SWAP2 DUP3 ADD PUSH1 0x1F NOT AND DUP4 ADD SWAP2 PUSH1 0x1 PUSH1 0x1 PUSH1 0x40 SHL SUB DUP4 GT DUP5 DUP5 LT OR PUSH3 0x176 JUMPI DUP1 DUP5 SWAP3 PUSH1 0xE0 SWAP5 PUSH1 0x40 MSTORE DUP4 CODECOPY DUP2 ADD SUB SLT PUSH3 0x171 JUMPI PUSH3 0x4D DUP2 PUSH3 0x18C JUMP JUMPDEST PUSH3 0x5B PUSH1 0x20 DUP4 ADD PUSH3 0x18C JUMP JUMPDEST PUSH3 0x69 PUSH1 0x40 DUP5 ADD PUSH3 0x18C JUMP JUMPDEST SWAP1 PUSH3 0x78 PUSH1 0x60 DUP6 ADD PUSH3 0x18C JUMP JUMPDEST SWAP2 PUSH3 0x87 PUSH1 0x80 DUP7 ADD PUSH3 0x18C JUMP JUMPDEST SWAP5 PUSH3 0xA4 PUSH1 0xC0 PUSH3 0x9C PUSH1 0xA0 DUP5 ADD PUSH3 0x18C JUMP JUMPDEST SWAP3 ADD PUSH3 0x18C JUMP JUMPDEST SWAP3 CALLER ISZERO PUSH3 0x158 JUMPI PUSH1 0x0 SLOAD SWAP7 DUP8 SWAP7 PUSH1 0x1 DUP1 PUSH1 0xA0 SHL SUB SWAP7 DUP8 DUP1 SWAP7 DUP2 DUP1 SWAP7 DUP2 DUP1 SWAP7 PUSH1 0x1 DUP1 PUSH1 0xA0 SHL SUB NOT SWAP15 DUP16 CALLER SWAP2 AND OR PUSH1 0x0 SSTORE PUSH1 0x40 MLOAD SWAP16 DUP3 CALLER SWAP2 AND PUSH32 0x8BE0079C531659141344CD1FD0A4F28419497F9722A3DAAFE3B4186F6B6457E0 PUSH1 0x0 DUP1 LOG3 PUSH1 0x1 DUP1 SSTORE AND DUP14 PUSH1 0x2 SLOAD AND OR PUSH1 0x2 SSTORE AND DUP12 PUSH1 0x3 SLOAD AND OR PUSH1 0x3 SSTORE AND DUP10 PUSH1 0x4 SLOAD AND OR PUSH1 0x4 SSTORE AND DUP8 PUSH1 0x5 SLOAD AND OR PUSH1 0x5 SSTORE AND DUP6 PUSH1 0x6 SLOAD AND OR PUSH1 0x6 SSTORE AND DUP4 PUSH1 0x7 SLOAD AND OR PUSH1 0x7 SSTORE AND SWAP1 PUSH1 0x8 SLOAD AND OR PUSH1 0x8 SSTORE PUSH2 0x2C77 SWAP1 DUP2 PUSH3 0x1A2 DUP3 CODECOPY RETURN JUMPDEST PUSH1 0x40 MLOAD PUSH4 0x1E4FBDF7 PUSH1 0xE0 SHL DUP2 MSTORE PUSH1 0x0 PUSH1 0x4 DUP3 ADD MSTORE PUSH1 0x24 SWAP1 REVERT JUMPDEST PUSH1 0x0 DUP1 REVERT JUMPDEST PUSH4 0x4E487B71 PUSH1 0xE0 SHL PUSH1 0x0 MSTORE PUSH1 0x41 PUSH1 0x4 MSTORE PUSH1 0x24 PUSH1 0x0 REVERT JUMPDEST MLOAD SWAP1 PUSH1 0x1 PUSH1 0x1 PUSH1 0xA0 SHL SUB DUP3 AND DUP3 SUB PUSH3 0x171 JUMPI JUMP INVALID PUSH1 0x80 PUSH1 0x40 MSTORE PUSH1 0x4 CALLDATASIZE LT ISZERO PUSH2 0x1B JUMPI JUMPDEST CALLDATASIZE ISZERO PUSH2 0x19 JUMPI PUSH1 0x0 DUP1 REVERT JUMPDEST STOP JUMPDEST PUSH1 0x0 DUP1 CALLDATALOAD PUSH1 0xE0 SHR DUP1 PUSH4 0x69C9FAE EQ PUSH2 0x2176 JUMPI DUP1 PUSH4 0x774F1BB EQ PUSH2 0x1F4A JUMPI DUP1 PUSH4 0xDB188B1 EQ PUSH2 0x1F21 JUMPI DUP1 PUSH4 0x10C0A157 EQ PUSH2 0x1EF8 JUMPI DUP1 PUSH4 0x158274A5 EQ PUSH2 0x1ECF JUMPI DUP1 PUSH4 0x4AD74299 EQ PUSH2 0x1EA6 JUMPI DUP1 PUSH4 0x4C16EFFC EQ PUSH2 0x1E00 JUMPI DUP1 PUSH4 0x715018A6 EQ PUSH2 0x1DA6 JUMPI DUP1 PUSH4 0x75140BE4 EQ PUSH2 0x1F5 JUMPI DUP1 PUSH4 0x8DA5CB5B EQ PUSH2 0x1CE JUMPI DUP1 PUSH4 0xA7B64B04 EQ PUSH2 0x1A5 JUMPI DUP1 PUSH4 0xAEDA99EF EQ PUSH2 0x17C JUMPI DUP1 PUSH4 0xC61F2184 EQ PUSH2 0x153 JUMPI PUSH4 0xF2FDE38B EQ PUSH2 0xC1 JUMPI POP PUSH2 0xE JUMP JUMPDEST CALLVALUE PUSH2 0x150 JUMPI PUSH1 0x20 CALLDATASIZE PUSH1 0x3 NOT ADD SLT PUSH2 0x150 JUMPI PUSH2 0xDA PUSH2 0x21B2 JUMP JUMPDEST PUSH2 0xE2 PUSH2 0x27FF JUMP JUMPDEST PUSH1 0x1 PUSH1 0x1 PUSH1 0xA0 SHL SUB SWAP1 DUP2 AND SWAP1 DUP2 ISZERO PUSH2 0x137 JUMPI PUSH1 0x0 SLOAD DUP3 PUSH12 0xFFFFFFFFFFFFFFFFFFFFFFFF PUSH1 0xA0 SHL DUP3 AND OR PUSH1 0x0 SSTORE AND PUSH32 0x8BE0079C531659141344CD1FD0A4F28419497F9722A3DAAFE3B4186F6B6457E0 PUSH1 0x0 DUP1 LOG3 DUP1 RETURN JUMPDEST PUSH1 0x40 MLOAD PUSH4 0x1E4FBDF7 PUSH1 0xE0 SHL DUP2 MSTORE PUSH1 0x4 DUP2 ADD DUP5 SWAP1 MSTORE PUSH1 0x24 SWAP1 REVERT JUMPDEST DUP1 REVERT JUMPDEST POP CALLVALUE PUSH2 0x150 JUMPI DUP1 PUSH1 0x3 NOT CALLDATASIZE ADD SLT PUSH2 0x150 JUMPI PUSH1 0x7 SLOAD PUSH1 0x40 MLOAD PUSH1 0x1 PUSH1 0x1 PUSH1 0xA0 SHL SUB SWAP1 SWAP2 AND DUP2 MSTORE PUSH1 0x20 SWAP1 RETURN JUMPDEST POP CALLVALUE PUSH2 0x150 JUMPI DUP1 PUSH1 0x3 NOT CALLDATASIZE ADD SLT PUSH2 0x150 JUMPI PUSH1 0x8 SLOAD PUSH1 0x40 MLOAD PUSH1 0x1 PUSH1 0x1 PUSH1 0xA0 SHL SUB SWAP1 SWAP2 AND DUP2 MSTORE PUSH1 0x20 SWAP1 RETURN JUMPDEST POP CALLVALUE PUSH2 0x150 JUMPI DUP1 PUSH1 0x3 NOT CALLDATASIZE ADD SLT PUSH2 0x150 JUMPI PUSH1 0x6 SLOAD PUSH1 0x40 MLOAD PUSH1 0x1 PUSH1 0x1 PUSH1 0xA0 SHL SUB SWAP1 SWAP2 AND DUP2 MSTORE PUSH1 0x20 SWAP1 RETURN JUMPDEST POP CALLVALUE PUSH2 0x150 JUMPI DUP1 PUSH1 0x3 NOT CALLDATASIZE ADD SLT PUSH2 0x150 JUMPI SLOAD PUSH1 0x40 MLOAD PUSH1 0x1 PUSH1 0x1 PUSH1 0xA0 SHL SUB SWAP1 SWAP2 AND DUP2 MSTORE PUSH1 0x20 SWAP1 RETURN JUMPDEST POP CALLVALUE PUSH2 0x150 JUMPI PUSH1 0x40 CALLDATASIZE PUSH1 0x3 NOT ADD SLT PUSH2 0x150 JUMPI PUSH2 0x20F PUSH2 0x21B2 JUMP JUMPDEST PUSH1 0x2 SLOAD SWAP1 SWAP2 SWAP1 PUSH1 0x1 PUSH1 0x1 PUSH1 0xA0 SHL SUB AND CALLER DUP2 SWAP1 SUB PUSH2 0x1D6B JUMPI DUP1 EXTCODESIZE ISZERO PUSH2 0x1D67 JUMPI DUP2 DUP1 SWAP2 PUSH1 0x64 PUSH1 0x40 MLOAD DUP1 SWAP5 DUP2 SWAP4 PUSH4 0xAE639329 PUSH1 0xE0 SHL DUP4 MSTORE PUSH1 0x1 DUP1 PUSH1 0xA0 SHL SUB DUP10 AND PUSH1 0x4 DUP5 ADD MSTORE ADDRESS PUSH1 0x24 DUP5 ADD MSTORE PUSH1 0x24 CALLDATALOAD PUSH1 0x44 DUP5 ADD MSTORE GAS CALL DUP1 ISZERO PUSH2 0xA5B JUMPI PUSH2 0x1D58 JUMPI JUMPDEST POP PUSH1 0x9 SLOAD SWAP1 SWAP2 PUSH2 0x284 PUSH1 0x1 PUSH1 0x1 PUSH1 0xA0 SHL SUB DUP4 AND PUSH2 0x23FF JUMP JUMPDEST SWAP2 PUSH2 0x120 DUP4 ADD MLOAD ISZERO PUSH2 0x1D20 JUMPI PUSH1 0xA0 SHR PUSH1 0xFF AND PUSH2 0x29F DUP2 PUSH2 0x2322 JUMP JUMPDEST PUSH2 0x13DD JUMPI PUSH1 0x7 SLOAD PUSH1 0x1 PUSH1 0x1 PUSH1 0xA0 SHL SUB SWAP1 DUP2 AND SWAP1 DUP3 AND DUP2 SWAP1 SUB PUSH2 0x138E JUMPI PUSH1 0x5 SLOAD PUSH1 0x40 MLOAD PUSH4 0x95EA7B3 PUSH1 0xE0 SHL DUP2 MSTORE PUSH1 0x1 PUSH1 0x1 PUSH1 0xA0 SHL SUB SWAP1 SWAP2 AND PUSH1 0x4 DUP3 ADD MSTORE PUSH1 0x24 DUP1 CALLDATALOAD SWAP1 DUP3 ADD MSTORE SWAP1 PUSH1 0x20 SWAP1 DUP3 SWAP1 PUSH1 0x44 SWAP1 DUP3 SWAP1 DUP9 SWAP1 GAS CALL DUP1 ISZERO PUSH2 0x99D JUMPI PUSH2 0x136F JUMPI JUMPDEST POP PUSH1 0x5 SLOAD DUP3 MLOAD PUSH1 0x7 SLOAD DUP6 SWAP3 PUSH1 0x1 PUSH1 0x1 PUSH1 0xA0 SHL SUB SWAP1 DUP2 AND SWAP3 SWAP2 DUP2 AND SWAP2 AND DUP3 EXTCODESIZE ISZERO PUSH2 0x136B JUMPI PUSH1 0x40 MLOAD PUSH4 0x1ABF045 PUSH1 0xE7 SHL DUP2 MSTORE PUSH1 0x1 PUSH1 0x1 PUSH1 0xA0 SHL SUB SWAP2 DUP3 AND PUSH1 0x4 DUP3 ADD MSTORE SWAP2 AND PUSH1 0x24 DUP1 DUP4 ADD SWAP2 SWAP1 SWAP2 MSTORE CALLDATALOAD PUSH1 0x44 DUP3 ADD MSTORE SWAP1 DUP3 SWAP1 DUP3 SWAP1 PUSH1 0x64 SWAP1 DUP3 SWAP1 DUP5 SWAP1 GAS CALL DUP1 ISZERO PUSH2 0xA5B JUMPI PUSH2 0x1357 JUMPI JUMPDEST POP POP PUSH1 0x60 DUP3 ADD MLOAD PUSH1 0x40 MLOAD PUSH4 0x70A08231 PUSH1 0xE0 SHL DUP2 MSTORE ADDRESS PUSH1 0x4 DUP3 ADD MSTORE SWAP1 PUSH1 0x20 SWAP1 DUP3 SWAP1 PUSH1 0x24 SWAP1 DUP3 SWAP1 PUSH1 0x1 PUSH1 0x1 PUSH1 0xA0 SHL SUB AND GAS STATICCALL SWAP1 DUP2 ISZERO PUSH2 0x99D JUMPI DUP5 SWAP2 PUSH2 0x1325 JUMPI JUMPDEST POP DUP1 ISZERO ISZERO DUP1 PUSH2 0x130F JUMPI JUMPDEST PUSH2 0x12E7 JUMPI JUMPDEST POP PUSH1 0x80 DUP3 ADD MLOAD PUSH1 0x40 MLOAD PUSH4 0x70A08231 PUSH1 0xE0 SHL DUP2 MSTORE ADDRESS PUSH1 0x4 DUP3 ADD MSTORE SWAP1 PUSH1 0x20 SWAP1 DUP3 SWAP1 PUSH1 0x24 SWAP1 DUP3 SWAP1 PUSH1 0x1 PUSH1 0x1 PUSH1 0xA0 SHL SUB AND GAS STATICCALL SWAP1 DUP2 ISZERO PUSH2 0x99D JUMPI DUP5 SWAP2 PUSH2 0x12B5 JUMPI JUMPDEST POP DUP1 ISZERO ISZERO DUP1 PUSH2 0x129E JUMPI JUMPDEST PUSH2 0x1275 JUMPI JUMPDEST POP PUSH1 0xA0 DUP3 ADD MLOAD PUSH1 0x40 MLOAD PUSH4 0x70A08231 PUSH1 0xE0 SHL DUP2 MSTORE ADDRESS PUSH1 0x4 DUP3 ADD MSTORE DUP5 SWAP2 PUSH1 0x20 SWAP1 DUP3 SWAP1 PUSH1 0x24 SWAP1 DUP3 SWAP1 PUSH1 0x1 PUSH1 0x1 PUSH1 0xA0 SHL SUB AND GAS STATICCALL SWAP1 DUP2 ISZERO PUSH2 0xA5B JUMPI DUP3 SWAP2 PUSH2 0x1240 JUMPI JUMPDEST POP PUSH1 0xC0 DUP5 ADD MLOAD PUSH1 0x40 MLOAD PUSH4 0x70A08231 PUSH1 0xE0 SHL DUP2 MSTORE ADDRESS PUSH1 0x4 DUP3 ADD MSTORE SWAP1 PUSH1 0x20 SWAP1 DUP3 SWAP1 PUSH1 0x24 SWAP1 DUP3 SWAP1 PUSH1 0x1 PUSH1 0x1 PUSH1 0xA0 SHL SUB AND GAS STATICCALL SWAP1 DUP2 ISZERO PUSH2 0x9FD JUMPI DUP4 SWAP2 PUSH2 0x120B JUMPI JUMPDEST POP DUP1 DUP3 LT ISZERO PUSH2 0x1204 JUMPI POP JUMPDEST DUP1 PUSH2 0x10B7 JUMPI JUMPDEST POP POP PUSH1 0x8 SLOAD PUSH1 0x40 MLOAD PUSH4 0x70A08231 PUSH1 0xE0 SHL DUP2 MSTORE ADDRESS PUSH1 0x4 DUP3 ADD MSTORE PUSH1 0x1 PUSH1 0x1 PUSH1 0xA0 SHL SUB SWAP1 SWAP2 AND SWAP1 PUSH1 0x20 DUP2 PUSH1 0x24 DUP2 DUP6 GAS STATICCALL SWAP1 DUP2 ISZERO PUSH2 0x93D JUMPI DUP6 SWAP2 PUSH2 0x1085 JUMPI JUMPDEST POP DUP1 PUSH2 0xC15 JUMPI JUMPDEST POP POP JUMPDEST PUSH1 0x40 MLOAD PUSH4 0x70A08231 PUSH1 0xE0 SHL DUP2 MSTORE ADDRESS PUSH1 0x4 DUP3 ADD MSTORE SWAP1 PUSH1 0x20 DUP3 PUSH1 0x24 DUP2 PUSH1 0x1 PUSH1 0x1 PUSH1 0xA0 SHL SUB DUP6 AND GAS STATICCALL SWAP2 DUP3 ISZERO PUSH2 0x99D JUMPI DUP5 SWAP3 PUSH2 0xBE1 JUMPI JUMPDEST POP PUSH1 0x24 CALLDATALOAD DUP3 LT PUSH2 0xB95 JUMPI DUP2 PUSH1 0x24 CALLDATALOAD DUP2 SUB GT PUSH2 0xB81 JUMPI PUSH1 0xA SLOAD PUSH1 0x24 CALLDATALOAD DUP4 SUB LT PUSH2 0xB36 JUMPI PUSH1 0x2 SLOAD PUSH1 0x40 MLOAD PUSH4 0xA9059CBB PUSH1 0xE0 SHL DUP2 MSTORE PUSH1 0x1 PUSH1 0x1 PUSH1 0xA0 SHL SUB SWAP1 SWAP2 AND PUSH1 0x4 DUP3 ADD MSTORE PUSH1 0x24 DUP1 CALLDATALOAD SWAP1 DUP3 ADD MSTORE PUSH1 0x20 DUP2 DUP1 PUSH1 0x44 DUP2 ADD SUB DUP2 DUP9 PUSH1 0x1 PUSH1 0x1 PUSH1 0xA0 SHL SUB DUP8 AND GAS CALL DUP1 ISZERO PUSH2 0x93D JUMPI PUSH2 0xB07 JUMPI JUMPDEST POP PUSH1 0x2 SLOAD PUSH1 0x40 MLOAD PUSH4 0x15AFD409 PUSH1 0xE0 SHL DUP2 MSTORE PUSH1 0x1 PUSH1 0x1 PUSH1 0xA0 SHL SUB DUP4 DUP2 AND PUSH1 0x4 DUP4 ADD MSTORE PUSH1 0x24 DUP1 CALLDATALOAD SWAP1 DUP4 ADD MSTORE SWAP1 SWAP2 PUSH1 0x20 SWAP2 DUP4 SWAP2 PUSH1 0x44 SWAP2 DUP4 SWAP2 DUP11 SWAP2 AND GAS CALL DUP1 ISZERO PUSH2 0x93D JUMPI PUSH2 0xADC JUMPI JUMPDEST POP PUSH1 0x24 SWAP4 DUP5 CALLDATALOAD DUP4 SUB PUSH2 0xAB8 JUMPI JUMPDEST PUSH1 0xB SLOAD PUSH1 0x60 DUP6 ADD DUP1 MLOAD PUSH1 0x40 MLOAD PUSH4 0x70A08231 PUSH1 0xE0 SHL DUP2 MSTORE ADDRESS PUSH1 0x4 DUP3 ADD MSTORE SWAP8 SWAP2 SWAP7 PUSH1 0x1 PUSH1 0x1 PUSH1 0xA0 SHL SUB SWAP4 DUP5 AND SWAP5 SWAP4 SWAP1 SWAP3 PUSH1 0x20 SWAP3 DUP11 SWAP3 DUP4 SWAP2 AND GAS STATICCALL SWAP6 DUP7 ISZERO PUSH2 0xA5B JUMPI DUP3 SWAP7 PUSH2 0xA83 JUMPI JUMPDEST PUSH1 0x24 SWAP8 POP DUP7 DUP5 DUP2 PUSH2 0xA66 JUMPI JUMPDEST POP POP POP PUSH1 0x80 DUP2 ADD MLOAD PUSH1 0x40 MLOAD PUSH4 0x70A08231 PUSH1 0xE0 SHL DUP2 MSTORE ADDRESS PUSH1 0x4 DUP3 ADD MSTORE SWAP8 PUSH1 0x20 SWAP2 DUP10 SWAP2 SWAP1 DUP3 SWAP1 PUSH1 0x1 PUSH1 0x1 PUSH1 0xA0 SHL SUB AND GAS STATICCALL DUP1 ISZERO PUSH2 0xA5B JUMPI DUP3 SWAP1 PUSH2 0xA28 JUMPI JUMPDEST PUSH1 0x24 SWAP8 POP DUP1 PUSH2 0xA08 JUMPI JUMPDEST PUSH1 0xA0 DUP3 ADD MLOAD PUSH1 0x40 MLOAD PUSH4 0x70A08231 PUSH1 0xE0 SHL DUP2 MSTORE ADDRESS PUSH1 0x4 DUP3 ADD MSTORE SWAP9 PUSH1 0x20 SWAP2 DUP11 SWAP2 SWAP1 DUP3 SWAP1 PUSH1 0x1 PUSH1 0x1 PUSH1 0xA0 SHL SUB AND GAS STATICCALL SWAP2 DUP3 ISZERO PUSH2 0x9FD JUMPI DUP4 SWAP3 PUSH2 0x9C8 JUMPI JUMPDEST PUSH1 0x24 SWAP9 POP DUP3 PUSH2 0x9A8 JUMPI JUMPDEST PUSH1 0xC0 DUP2 ADD MLOAD PUSH1 0x40 MLOAD PUSH4 0x70A08231 PUSH1 0xE0 SHL DUP2 MSTORE ADDRESS PUSH1 0x4 DUP3 ADD MSTORE SWAP10 PUSH1 0x20 SWAP2 DUP12 SWAP2 SWAP1 DUP3 SWAP1 PUSH1 0x1 PUSH1 0x1 PUSH1 0xA0 SHL SUB AND GAS STATICCALL SWAP9 DUP10 ISZERO PUSH2 0x99D JUMPI DUP5 SWAP10 PUSH2 0x969 JUMPI JUMPDEST POP DUP9 DUP6 DUP2 PUSH2 0x948 JUMPI JUMPDEST POP POP PUSH1 0x8 SLOAD PUSH1 0x40 MLOAD PUSH4 0x70A08231 PUSH1 0xE0 SHL DUP2 MSTORE ADDRESS PUSH1 0x4 DUP3 ADD MSTORE SWAP6 SWAP2 POP PUSH1 0x1 PUSH1 0x1 PUSH1 0xA0 SHL SUB AND PUSH1 0x20 DUP7 PUSH1 0x24 DUP2 DUP5 GAS STATICCALL SWAP6 DUP7 ISZERO PUSH2 0x93D JUMPI DUP6 SWAP7 PUSH2 0x909 JUMPI JUMPDEST POP DUP6 DUP3 DUP2 PUSH2 0x8F8 JUMPI JUMPDEST POP POP PUSH1 0x7 SLOAD PUSH1 0x40 MLOAD PUSH4 0x70A08231 PUSH1 0xE0 SHL DUP2 MSTORE ADDRESS PUSH1 0x4 DUP3 ADD MSTORE PUSH1 0x1 PUSH1 0x1 PUSH1 0xA0 SHL SUB SWAP1 SWAP2 AND SWAP3 SWAP2 POP PUSH1 0x20 DUP2 PUSH1 0x24 DUP2 DUP7 GAS STATICCALL SWAP6 DUP7 ISZERO PUSH2 0x8EC JUMPI SWAP6 PUSH2 0x89F JUMPI JUMPDEST POP SWAP4 PUSH2 0x88A SWAP10 PUSH1 0xA0 SWAP5 PUSH2 0x868 SWAP11 SWAP9 SWAP5 PUSH2 0x876 SWAP11 SWAP9 SWAP5 DUP5 PUSH32 0x54577C03A6068D982E6E64819897C53751527329A92F19BDD64963313175C4A1 SWAP10 DUP2 PUSH2 0x88E JUMPI JUMPDEST POP POP POP PUSH1 0x40 MLOAD SWAP10 PUSH2 0x7B0 DUP12 PUSH2 0x2265 JUMP JUMPDEST PUSH1 0x1 DUP12 MSTORE PUSH1 0x24 CALLDATALOAD DUP11 SUB PUSH1 0x20 DUP13 ADD MSTORE DUP1 PUSH1 0x40 DUP13 ADD MSTORE DUP2 PUSH1 0x60 DUP13 ADD MSTORE DUP3 PUSH1 0x80 DUP13 ADD MSTORE DUP4 DUP9 DUP13 ADD MSTORE DUP5 PUSH1 0xC0 DUP13 ADD MSTORE DUP6 PUSH1 0xE0 DUP13 ADD MSTORE PUSH1 0x1 PUSH1 0xFF NOT PUSH1 0xC SLOAD AND OR PUSH1 0xC SSTORE PUSH1 0x24 CALLDATALOAD DUP11 SUB PUSH1 0xD SSTORE PUSH1 0xE SSTORE PUSH1 0xF SSTORE PUSH1 0x10 SSTORE PUSH1 0x11 SSTORE PUSH1 0x12 SSTORE PUSH1 0x13 SSTORE PUSH1 0x9 SLOAD SWAP1 PUSH1 0xFF DUP3 DUP5 SHR AND SWAP5 PUSH1 0x1 DUP1 DUP6 SHL SUB PUSH1 0xB SLOAD AND SWAP2 PUSH1 0x40 MLOAD SWAP7 PUSH2 0x82B DUP2 PUSH2 0x2322 JUMP JUMPDEST DUP8 MSTORE PUSH1 0x1 DUP1 DUP7 SHL SUB AND PUSH1 0x20 DUP8 ADD MSTORE PUSH1 0x24 CALLDATALOAD PUSH1 0x40 DUP8 ADD MSTORE PUSH1 0x24 CALLDATALOAD SWAP1 SUB PUSH1 0x60 DUP7 ADD MSTORE PUSH1 0x80 DUP6 ADD MSTORE PUSH1 0x1 DUP1 DUP4 SHL SUB AND SWAP3 LOG2 PUSH1 0x40 MLOAD SWAP3 DUP4 SWAP2 PUSH1 0x20 DUP4 ADD PUSH2 0x21C8 JUMP JUMPDEST SUB PUSH1 0x1F NOT DUP2 ADD DUP4 MSTORE DUP3 PUSH2 0x2300 JUMP JUMPDEST PUSH1 0x40 MLOAD SWAP2 DUP3 SWAP2 PUSH1 0x20 DUP4 MSTORE PUSH1 0x20 DUP4 ADD SWAP1 PUSH2 0x2240 JUMP JUMPDEST SUB SWAP1 RETURN JUMPDEST PUSH2 0x897 SWAP3 PUSH2 0x282B JUMP JUMPDEST CODESIZE DUP5 DUP2 PUSH2 0x7A0 JUMP JUMPDEST SWAP4 SWAP9 SWAP7 SWAP3 SWAP8 SWAP6 SWAP2 SWAP5 POP PUSH1 0x20 DUP5 RETURNDATASIZE PUSH1 0x20 GT PUSH2 0x8E4 JUMPI JUMPDEST DUP2 PUSH2 0x8C1 PUSH1 0x20 SWAP4 DUP4 PUSH2 0x2300 JUMP JUMPDEST DUP2 ADD SUB SLT PUSH2 0x8DF JUMPI SWAP3 MLOAD SWAP6 SWAP8 SWAP5 SWAP7 SWAP2 SWAP6 SWAP1 SWAP5 SWAP1 SWAP4 SWAP1 SWAP3 PUSH2 0x88A PUSH2 0x762 JUMP JUMPDEST PUSH1 0x0 DUP1 REVERT JUMPDEST RETURNDATASIZE SWAP2 POP PUSH2 0x8B4 JUMP JUMPDEST PUSH1 0x40 MLOAD SWAP1 RETURNDATASIZE SWAP1 DUP3 RETURNDATACOPY RETURNDATASIZE SWAP1 REVERT JUMPDEST PUSH2 0x901 SWAP3 PUSH2 0x282B JUMP JUMPDEST CODESIZE DUP6 DUP3 PUSH2 0x726 JUMP JUMPDEST SWAP1 SWAP6 POP PUSH1 0x20 DUP2 RETURNDATASIZE PUSH1 0x20 GT PUSH2 0x935 JUMPI JUMPDEST DUP2 PUSH2 0x925 PUSH1 0x20 SWAP4 DUP4 PUSH2 0x2300 JUMP JUMPDEST DUP2 ADD SUB SLT PUSH2 0x8DF JUMPI MLOAD SWAP5 CODESIZE PUSH2 0x71D JUMP JUMPDEST RETURNDATASIZE SWAP2 POP PUSH2 0x918 JUMP JUMPDEST PUSH1 0x40 MLOAD RETURNDATASIZE DUP8 DUP3 RETURNDATACOPY RETURNDATASIZE SWAP1 REVERT JUMPDEST PUSH1 0xC0 SWAP1 SWAP3 ADD MLOAD PUSH2 0x961 SWAP3 SWAP1 PUSH1 0x1 PUSH1 0x1 PUSH1 0xA0 SHL SUB AND PUSH2 0x282B JUMP JUMPDEST CODESIZE DUP9 DUP6 PUSH2 0x6E2 JUMP JUMPDEST SWAP1 SWAP9 POP PUSH1 0x20 DUP2 RETURNDATASIZE PUSH1 0x20 GT PUSH2 0x995 JUMPI JUMPDEST DUP2 PUSH2 0x985 PUSH1 0x20 SWAP4 DUP4 PUSH2 0x2300 JUMP JUMPDEST DUP2 ADD SUB SLT PUSH2 0x8DF JUMPI MLOAD SWAP8 CODESIZE PUSH2 0x6D9 JUMP JUMPDEST RETURNDATASIZE SWAP2 POP PUSH2 0x978 JUMP JUMPDEST PUSH1 0x40 MLOAD RETURNDATASIZE DUP7 DUP3 RETURNDATACOPY RETURNDATASIZE SWAP1 REVERT JUMPDEST PUSH1 0xA0 DUP2 ADD MLOAD PUSH2 0x9C3 SWAP1 DUP5 SWAP1 DUP8 SWAP1 PUSH1 0x1 PUSH1 0x1 PUSH1 0xA0 SHL SUB AND PUSH2 0x282B JUMP JUMPDEST PUSH2 0x69F JUMP JUMPDEST SWAP2 POP PUSH1 0x20 DUP9 RETURNDATASIZE PUSH1 0x20 GT PUSH2 0x9F5 JUMPI JUMPDEST DUP2 PUSH2 0x9E3 PUSH1 0x20 SWAP4 DUP4 PUSH2 0x2300 JUMP JUMPDEST DUP2 ADD SUB SLT PUSH2 0x8DF JUMPI PUSH1 0x24 SWAP8 MLOAD SWAP2 PUSH2 0x695 JUMP JUMPDEST RETURNDATASIZE SWAP2 POP PUSH2 0x9D6 JUMP JUMPDEST PUSH1 0x40 MLOAD RETURNDATASIZE DUP6 DUP3 RETURNDATACOPY RETURNDATASIZE SWAP1 REVERT JUMPDEST PUSH1 0x80 DUP3 ADD MLOAD PUSH2 0xA23 SWAP1 DUP3 SWAP1 DUP7 SWAP1 PUSH1 0x1 PUSH1 0x1 PUSH1 0xA0 SHL SUB AND PUSH2 0x282B JUMP JUMPDEST PUSH2 0x65B JUMP JUMPDEST POP PUSH1 0x20 DUP8 RETURNDATASIZE PUSH1 0x20 GT PUSH2 0xA53 JUMPI JUMPDEST DUP2 PUSH2 0xA42 PUSH1 0x20 SWAP4 DUP4 PUSH2 0x2300 JUMP JUMPDEST DUP2 ADD SUB SLT PUSH2 0x8DF JUMPI PUSH1 0x24 SWAP7 MLOAD PUSH2 0x651 JUMP JUMPDEST RETURNDATASIZE SWAP2 POP PUSH2 0xA35 JUMP JUMPDEST PUSH1 0x40 MLOAD RETURNDATASIZE DUP5 DUP3 RETURNDATACOPY RETURNDATASIZE SWAP1 REVERT JUMPDEST SWAP2 MLOAD PUSH2 0xA7B SWAP3 SWAP1 PUSH1 0x1 PUSH1 0x1 PUSH1 0xA0 SHL SUB AND PUSH2 0x282B JUMP JUMPDEST CODESIZE DUP7 DUP5 PUSH2 0x615 JUMP JUMPDEST SWAP6 POP PUSH1 0x20 DUP8 RETURNDATASIZE PUSH1 0x20 GT PUSH2 0xAB0 JUMPI JUMPDEST DUP2 PUSH2 0xA9E PUSH1 0x20 SWAP4 DUP4 PUSH2 0x2300 JUMP JUMPDEST DUP2 ADD SUB SLT PUSH2 0x8DF JUMPI PUSH1 0x24 SWAP7 MLOAD SWAP6 PUSH2 0x609 JUMP JUMPDEST RETURNDATASIZE SWAP2 POP PUSH2 0xA91 JUMP JUMPDEST PUSH1 0xB SLOAD PUSH2 0xAD7 SWAP1 DUP7 CALLDATALOAD DUP6 SUB SWAP1 PUSH1 0x1 PUSH1 0x1 PUSH1 0xA0 SHL SUB SWAP1 DUP2 AND SWAP1 DUP6 AND PUSH2 0x282B JUMP JUMPDEST PUSH2 0x5C3 JUMP JUMPDEST PUSH1 0x20 SWAP1 DUP2 RETURNDATASIZE DUP4 GT PUSH2 0xB00 JUMPI JUMPDEST PUSH2 0xAF2 DUP2 DUP4 PUSH2 0x2300 JUMP JUMPDEST DUP2 ADD SUB SLT PUSH2 0x8DF JUMPI CODESIZE PUSH2 0x5B6 JUMP JUMPDEST POP RETURNDATASIZE PUSH2 0xAE8 JUMP JUMPDEST PUSH2 0xB28 SWAP1 PUSH1 0x20 RETURNDATASIZE PUSH1 0x20 GT PUSH2 0xB2F JUMPI JUMPDEST PUSH2 0xB20 DUP2 DUP4 PUSH2 0x2300 JUMP JUMPDEST DUP2 ADD SWAP1 PUSH2 0x27E7 JUMP JUMPDEST POP CODESIZE PUSH2 0x571 JUMP JUMPDEST POP RETURNDATASIZE PUSH2 0xB16 JUMP JUMPDEST PUSH1 0xA4 DUP3 PUSH1 0x40 MLOAD SWAP1 PUSH4 0x3566CF0D PUSH1 0xE0 SHL DUP3 MSTORE PUSH1 0x4 DUP3 ADD MSTORE PUSH1 0x24 CALLDATALOAD PUSH1 0x24 DUP3 ADD MSTORE PUSH1 0x60 PUSH1 0x44 DUP3 ADD MSTORE PUSH1 0x14 PUSH1 0x64 DUP3 ADD MSTORE PUSH20 0x50726F6669742062656C6F77206D696E696D756D PUSH1 0x60 SHL PUSH1 0x84 DUP3 ADD MSTORE REVERT JUMPDEST PUSH4 0x4E487B71 PUSH1 0xE0 SHL DUP5 MSTORE PUSH1 0x11 PUSH1 0x4 MSTORE PUSH1 0x24 DUP5 REVERT JUMPDEST PUSH1 0xA4 DUP3 PUSH1 0x40 MLOAD SWAP1 PUSH4 0x3566CF0D PUSH1 0xE0 SHL DUP3 MSTORE PUSH1 0x4 DUP3 ADD MSTORE PUSH1 0x24 CALLDATALOAD PUSH1 0x24 DUP3 ADD MSTORE PUSH1 0x60 PUSH1 0x44 DUP3 ADD MSTORE PUSH1 0x15 PUSH1 0x64 DUP3 ADD MSTORE PUSH21 0x496E73756666696369656E7420746F207265706179 PUSH1 0x58 SHL PUSH1 0x84 DUP3 ADD MSTORE REVERT JUMPDEST SWAP1 SWAP2 POP PUSH1 0x20 DUP2 RETURNDATASIZE PUSH1 0x20 GT PUSH2 0xC0D JUMPI JUMPDEST DUP2 PUSH2 0xBFD PUSH1 0x20 SWAP4 DUP4 PUSH2 0x2300 JUMP JUMPDEST DUP2 ADD SUB SLT PUSH2 0x8DF JUMPI MLOAD SWAP1 CODESIZE PUSH2 0x505 JUMP JUMPDEST RETURNDATASIZE SWAP2 POP PUSH2 0xBF0 JUMP JUMPDEST PUSH1 0x40 MLOAD SWAP2 PUSH2 0xC22 DUP4 PUSH2 0x22AC JUMP JUMPDEST PUSH1 0x4 DUP4 MSTORE PUSH1 0x80 CALLDATASIZE PUSH1 0x20 DUP6 ADD CALLDATACOPY DUP1 PUSH2 0xC38 DUP5 PUSH2 0x2B12 JUMP JUMPDEST MSTORE PUSH20 0xDDAFBB505AD214D7B80B1F830FCCC89B60FB7A83 PUSH2 0xC57 DUP5 PUSH2 0x2B35 JUMP JUMPDEST MSTORE PUSH20 0xE91D153E0B41518A2CE8DD3D7944FA863463A97D PUSH2 0xC76 DUP5 PUSH2 0x2B45 JUMP JUMPDEST MSTORE PUSH1 0x7 SLOAD PUSH1 0x1 PUSH1 0x1 PUSH1 0xA0 SHL SUB AND PUSH2 0xC8C DUP5 PUSH2 0x2B55 JUMP JUMPDEST MSTORE PUSH2 0xC95 PUSH2 0x2B65 JUMP JUMPDEST SWAP3 PUSH1 0x40 MLOAD PUSH2 0xCA2 DUP2 PUSH2 0x22AC JUMP JUMPDEST PUSH32 0x7644FA5D0EA14FCF3E813FDF93CA9544F8567655000000000000000000000066 DUP2 MSTORE DUP8 PUSH1 0x20 DUP3 ADD MSTORE PUSH1 0x1 PUSH1 0x40 DUP3 ADD MSTORE DUP4 PUSH1 0x60 DUP3 ADD MSTORE PUSH1 0x40 MLOAD PUSH2 0xCE4 DUP2 PUSH2 0x22E4 JUMP JUMPDEST DUP9 DUP2 MSTORE PUSH1 0x80 DUP3 ADD MSTORE PUSH2 0xCF5 DUP6 PUSH2 0x2B12 JUMP JUMPDEST MSTORE PUSH2 0xCFF DUP5 PUSH2 0x2B12 JUMP JUMPDEST POP PUSH1 0x40 MLOAD PUSH2 0xD0C DUP2 PUSH2 0x22AC JUMP JUMPDEST PUSH32 0x2086F52651837600180DE173B09470F54EF7491000000000000000000000004F DUP2 MSTORE PUSH1 0x1 PUSH1 0x20 DUP3 ADD MSTORE PUSH1 0x2 PUSH1 0x40 DUP3 ADD MSTORE DUP8 PUSH1 0x60 DUP3 ADD MSTORE PUSH1 0x40 MLOAD PUSH2 0xD4F DUP2 PUSH2 0x22E4 JUMP JUMPDEST DUP9 DUP2 MSTORE PUSH1 0x80 DUP3 ADD MSTORE PUSH2 0xD60 DUP6 PUSH2 0x2B35 JUMP JUMPDEST MSTORE PUSH2 0xD6A DUP5 PUSH2 0x2B35 JUMP JUMPDEST POP PUSH1 0x40 MLOAD PUSH2 0xD77 DUP2 PUSH2 0x22AC JUMP JUMPDEST PUSH32 0x8189C4C96826D016A99986394103DFA9AE41E7EE0002000000000000000000AA DUP2 MSTORE PUSH1 0x2 PUSH1 0x20 DUP3 ADD MSTORE PUSH1 0x3 PUSH1 0x40 DUP3 ADD MSTORE DUP8 PUSH1 0x60 DUP3 ADD MSTORE PUSH1 0x40 MLOAD PUSH2 0xDBA DUP2 PUSH2 0x22E4 JUMP JUMPDEST DUP9 DUP2 MSTORE PUSH1 0x80 DUP3 ADD MSTORE PUSH2 0xDCB DUP6 PUSH2 0x2B45 JUMP JUMPDEST MSTORE PUSH2 0xDD5 DUP5 PUSH2 0x2B45 JUMP JUMPDEST POP PUSH2 0xE81 PUSH1 0x20 PUSH1 0x40 MLOAD SWAP5 PUSH2 0xDE8 DUP7 PUSH2 0x22C8 JUMP JUMPDEST ADDRESS DUP7 MSTORE DUP10 DUP3 DUP8 ADD MSTORE ADDRESS PUSH1 0x40 DUP8 ADD MSTORE DUP10 PUSH1 0x60 DUP8 ADD MSTORE PUSH1 0x40 MLOAD SWAP5 PUSH2 0xE09 DUP7 PUSH2 0x22AC JUMP JUMPDEST PUSH1 0x4 DUP7 MSTORE PUSH1 0x80 CALLDATASIZE DUP5 DUP9 ADD CALLDATACOPY DUP2 PUSH2 0xE1E DUP8 PUSH2 0x2B12 JUMP JUMPDEST MSTORE PUSH1 0x1 PUSH1 0x1 PUSH1 0xFF SHL SUB DUP1 PUSH2 0xE31 DUP9 PUSH2 0x2B35 JUMP JUMPDEST MSTORE DUP1 PUSH2 0xE3C DUP9 PUSH2 0x2B45 JUMP JUMPDEST MSTORE PUSH2 0xE46 DUP8 PUSH2 0x2B55 JUMP JUMPDEST MSTORE PUSH1 0x3 SLOAD PUSH1 0x40 MLOAD PUSH4 0x95EA7B3 PUSH1 0xE0 SHL DUP2 MSTORE PUSH1 0x1 PUSH1 0x1 PUSH1 0xA0 SHL SUB SWAP1 SWAP2 AND PUSH1 0x4 DUP3 ADD MSTORE PUSH1 0x24 DUP2 ADD SWAP3 SWAP1 SWAP3 MSTORE SWAP1 SWAP3 DUP4 SWAP2 SWAP1 DUP3 SWAP1 DUP13 SWAP1 DUP3 SWAP1 PUSH1 0x44 DUP3 ADD SWAP1 JUMP JUMPDEST SUB SWAP3 GAS CALL DUP1 ISZERO PUSH2 0x107A JUMPI PUSH2 0x105B JUMPI JUMPDEST POP DUP7 SWAP3 SWAP4 SWAP2 PUSH1 0x1 DUP1 PUSH1 0xA0 SHL SUB PUSH1 0x3 SLOAD AND SWAP2 PUSH1 0x40 MLOAD SWAP6 DUP7 SWAP5 PUSH4 0x945BCEC9 PUSH1 0xE0 SHL DUP7 MSTORE PUSH2 0x124 DUP7 ADD PUSH1 0x0 PUSH1 0x4 DUP9 ADD MSTORE PUSH2 0x120 PUSH1 0x24 DUP9 ADD MSTORE DUP2 MLOAD DUP1 SWAP2 MSTORE PUSH2 0x144 SWAP1 PUSH1 0x20 DUP3 DUP10 ADD SWAP3 DUP3 PUSH1 0x5 SHL DUP11 ADD ADD SWAP4 ADD SWAP2 PUSH1 0x0 SWAP1 JUMPDEST DUP3 DUP3 LT PUSH2 0xFF3 JUMPI POP POP POP POP PUSH1 0x3 NOT DUP7 DUP3 SUB ADD PUSH1 0x44 DUP8 ADD MSTORE PUSH1 0x20 DUP1 DUP5 MLOAD SWAP3 DUP4 DUP2 MSTORE ADD SWAP4 ADD SWAP1 PUSH1 0x0 JUMPDEST DUP2 DUP2 LT PUSH2 0xFCE JUMPI POP POP DUP2 MLOAD PUSH1 0x1 PUSH1 0x1 PUSH1 0xA0 SHL SUB SWAP1 DUP2 AND PUSH1 0x64 DUP9 ADD MSTORE PUSH1 0x20 DUP1 DUP5 ADD MLOAD ISZERO ISZERO PUSH1 0x84 DUP10 ADD MSTORE PUSH1 0x40 DUP5 ADD MLOAD SWAP1 SWAP2 AND PUSH1 0xA4 DUP9 ADD MSTORE PUSH1 0x60 SWAP1 SWAP3 ADD MLOAD ISZERO ISZERO PUSH1 0xC4 DUP8 ADD MSTORE POP PUSH1 0x3 NOT DUP6 DUP4 SUB ADD PUSH1 0xE4 DUP7 ADD MSTORE DUP3 MLOAD DUP1 DUP4 MSTORE SWAP2 DUP2 ADD SWAP3 ADD SWAP1 PUSH1 0x0 JUMPDEST DUP2 DUP2 LT PUSH2 0xFB2 JUMPI POP POP POP DUP4 DUP4 DUP1 SWAP3 TIMESTAMP PUSH2 0x104 DUP4 ADD MSTORE SUB SWAP3 GAS CALL DUP1 ISZERO PUSH2 0x99D JUMPI PUSH2 0xF90 JUMPI JUMPDEST DUP1 PUSH2 0x4CE JUMP JUMPDEST PUSH2 0xFAB SWAP1 RETURNDATASIZE DUP1 DUP7 DUP4 RETURNDATACOPY PUSH2 0xFA3 DUP2 DUP4 PUSH2 0x2300 JUMP JUMPDEST DUP2 ADD SWAP1 PUSH2 0x2BC5 JUMP JUMPDEST POP CODESIZE PUSH2 0xF8A JUMP JUMPDEST DUP3 MLOAD DUP5 MSTORE DUP11 SWAP7 POP DUP8 SWAP6 POP PUSH1 0x20 SWAP4 DUP5 ADD SWAP4 SWAP1 SWAP3 ADD SWAP2 PUSH1 0x1 ADD PUSH2 0xF66 JUMP JUMPDEST DUP3 MLOAD PUSH1 0x1 PUSH1 0x1 PUSH1 0xA0 SHL SUB AND DUP6 MSTORE DUP13 SWAP9 POP DUP10 SWAP8 POP PUSH1 0x20 SWAP5 DUP6 ADD SWAP5 SWAP1 SWAP3 ADD SWAP2 PUSH1 0x1 ADD PUSH2 0xF09 JUMP JUMPDEST SWAP3 SWAP6 SWAP8 SWAP10 POP SWAP3 PUSH1 0x20 PUSH2 0x1046 DUP2 SWAP3 PUSH1 0x1 SWAP5 SWAP8 SWAP10 SWAP12 PUSH2 0x143 NOT SWAP1 DUP3 SUB ADD DUP7 MSTORE PUSH1 0xA0 PUSH1 0x80 DUP11 MLOAD DUP1 MLOAD DUP5 MSTORE DUP6 DUP2 ADD MLOAD DUP7 DUP6 ADD MSTORE PUSH1 0x40 DUP2 ADD MLOAD PUSH1 0x40 DUP6 ADD MSTORE PUSH1 0x60 DUP2 ADD MLOAD PUSH1 0x60 DUP6 ADD MSTORE ADD MLOAD SWAP2 DUP2 PUSH1 0x80 DUP3 ADD MSTORE ADD SWAP1 PUSH2 0x2240 JUMP JUMPDEST SWAP7 ADD SWAP3 ADD SWAP3 ADD SWAP3 DUP10 SWAP8 SWAP6 SWAP4 DUP14 SWAP10 SWAP8 SWAP6 SWAP4 PUSH2 0xEE2 JUMP JUMPDEST PUSH2 0x1073 SWAP1 PUSH1 0x20 RETURNDATASIZE PUSH1 0x20 GT PUSH2 0xB2F JUMPI PUSH2 0xB20 DUP2 DUP4 PUSH2 0x2300 JUMP JUMPDEST POP CODESIZE PUSH2 0xE90 JUMP JUMPDEST PUSH1 0x40 MLOAD RETURNDATASIZE DUP11 DUP3 RETURNDATACOPY RETURNDATASIZE SWAP1 REVERT JUMPDEST SWAP1 POP PUSH1 0x20 DUP2 RETURNDATASIZE PUSH1 0x20 GT PUSH2 0x10AF JUMPI JUMPDEST DUP2 PUSH2 0x10A0 PUSH1 0x20 SWAP4 DUP4 PUSH2 0x2300 JUMP JUMPDEST DUP2 ADD SUB SLT PUSH2 0x8DF JUMPI MLOAD CODESIZE PUSH2 0x4C7 JUMP JUMPDEST RETURNDATASIZE SWAP2 POP PUSH2 0x1093 JUMP JUMPDEST PUSH1 0xA0 DUP5 ADD MLOAD PUSH1 0x5 SLOAD PUSH1 0x40 MLOAD PUSH4 0x95EA7B3 PUSH1 0xE0 SHL DUP2 MSTORE PUSH1 0x1 PUSH1 0x1 PUSH1 0xA0 SHL SUB SWAP2 DUP3 AND PUSH1 0x4 DUP3 ADD MSTORE PUSH1 0x24 DUP2 ADD DUP5 SWAP1 MSTORE SWAP2 PUSH1 0x20 SWAP2 DUP4 SWAP2 PUSH1 0x44 SWAP2 DUP4 SWAP2 DUP9 SWAP2 AND GAS CALL DUP1 ISZERO PUSH2 0x9FD JUMPI PUSH2 0x11E5 JUMPI JUMPDEST POP PUSH1 0xC0 DUP5 ADD MLOAD PUSH1 0x5 SLOAD PUSH1 0x40 MLOAD PUSH4 0x95EA7B3 PUSH1 0xE0 SHL DUP2 MSTORE PUSH1 0x1 PUSH1 0x1 PUSH1 0xA0 SHL SUB SWAP2 DUP3 AND PUSH1 0x4 DUP3 ADD MSTORE PUSH1 0x24 DUP2 ADD DUP5 SWAP1 MSTORE SWAP2 PUSH1 0x20 SWAP2 DUP4 SWAP2 PUSH1 0x44 SWAP2 DUP4 SWAP2 DUP9 SWAP2 AND GAS CALL DUP1 ISZERO PUSH2 0x9FD JUMPI PUSH2 0x11C6 JUMPI JUMPDEST POP PUSH1 0x5 SLOAD DUP5 MLOAD PUSH1 0x8 SLOAD PUSH1 0x1 PUSH1 0x1 PUSH1 0xA0 SHL SUB SWAP1 DUP2 AND SWAP4 SWAP2 DUP2 AND SWAP3 AND DUP1 EXTCODESIZE ISZERO PUSH2 0x11C2 JUMPI PUSH1 0x40 MLOAD PUSH4 0x7ABEF8D1 PUSH1 0xE0 SHL DUP2 MSTORE PUSH1 0x1 PUSH1 0x1 PUSH1 0xA0 SHL SUB SWAP4 DUP5 AND PUSH1 0x4 DUP3 ADD MSTORE SWAP4 SWAP1 SWAP3 AND PUSH1 0x24 DUP5 ADD MSTORE PUSH1 0x44 DUP4 ADD MSTORE DUP3 SWAP1 DUP3 SWAP1 PUSH1 0x64 SWAP1 DUP3 SWAP1 DUP5 SWAP1 GAS CALL DUP1 ISZERO PUSH2 0xA5B JUMPI ISZERO PUSH2 0x48C JUMPI PUSH2 0x11B3 SWAP1 PUSH2 0x2298 JUMP JUMPDEST PUSH2 0x11BE JUMPI DUP3 CODESIZE PUSH2 0x48C JUMP JUMPDEST DUP3 DUP1 REVERT JUMPDEST DUP5 DUP1 REVERT JUMPDEST PUSH2 0x11DE SWAP1 PUSH1 0x20 RETURNDATASIZE PUSH1 0x20 GT PUSH2 0xB2F JUMPI PUSH2 0xB20 DUP2 DUP4 PUSH2 0x2300 JUMP JUMPDEST POP CODESIZE PUSH2 0x1146 JUMP JUMPDEST PUSH2 0x11FD SWAP1 PUSH1 0x20 RETURNDATASIZE PUSH1 0x20 GT PUSH2 0xB2F JUMPI PUSH2 0xB20 DUP2 DUP4 PUSH2 0x2300 JUMP JUMPDEST POP CODESIZE PUSH2 0x10FE JUMP JUMPDEST SWAP1 POP PUSH2 0x486 JUMP JUMPDEST SWAP3 POP POP PUSH1 0x20 DUP3 RETURNDATASIZE PUSH1 0x20 GT PUSH2 0x1238 JUMPI JUMPDEST DUP2 PUSH2 0x1227 PUSH1 0x20 SWAP4 DUP4 PUSH2 0x2300 JUMP JUMPDEST DUP2 ADD SUB SLT PUSH2 0x8DF JUMPI DUP5 SWAP2 MLOAD CODESIZE PUSH2 0x47B JUMP JUMPDEST RETURNDATASIZE SWAP2 POP PUSH2 0x121A JUMP JUMPDEST SWAP2 POP POP PUSH1 0x20 DUP2 RETURNDATASIZE PUSH1 0x20 GT PUSH2 0x126D JUMPI JUMPDEST DUP2 PUSH2 0x125C PUSH1 0x20 SWAP4 DUP4 PUSH2 0x2300 JUMP JUMPDEST DUP2 ADD SUB SLT PUSH2 0x8DF JUMPI DUP4 SWAP1 MLOAD CODESIZE PUSH2 0x43E JUMP JUMPDEST RETURNDATASIZE SWAP2 POP PUSH2 0x124F JUMP JUMPDEST PUSH2 0x100 DUP4 ADD MLOAD PUSH1 0x80 DUP5 ADD MLOAD PUSH2 0x1297 SWAP3 SWAP2 PUSH1 0x1 PUSH1 0x1 PUSH1 0xA0 SHL SUB SWAP2 DUP3 AND SWAP2 AND PUSH2 0x28C7 JUMP JUMPDEST POP CODESIZE PUSH2 0x400 JUMP JUMPDEST POP PUSH2 0x100 DUP4 ADD MLOAD PUSH1 0x1 PUSH1 0x1 PUSH1 0xA0 SHL SUB AND ISZERO ISZERO PUSH2 0x3FB JUMP JUMPDEST SWAP1 POP PUSH1 0x20 DUP2 RETURNDATASIZE PUSH1 0x20 GT PUSH2 0x12DF JUMPI JUMPDEST DUP2 PUSH2 0x12D0 PUSH1 0x20 SWAP4 DUP4 PUSH2 0x2300 JUMP JUMPDEST DUP2 ADD SUB SLT PUSH2 0x8DF JUMPI MLOAD CODESIZE PUSH2 0x3F1 JUMP JUMPDEST RETURNDATASIZE SWAP2 POP PUSH2 0x12C3 JUMP JUMPDEST PUSH1 0xE0 DUP4 ADD MLOAD PUSH1 0x60 DUP5 ADD MLOAD PUSH2 0x1308 SWAP3 SWAP2 PUSH1 0x1 PUSH1 0x1 PUSH1 0xA0 SHL SUB SWAP2 DUP3 AND SWAP2 AND PUSH2 0x28C7 JUMP JUMPDEST POP CODESIZE PUSH2 0x3B4 JUMP JUMPDEST POP PUSH1 0xE0 DUP4 ADD MLOAD PUSH1 0x1 PUSH1 0x1 PUSH1 0xA0 SHL SUB AND ISZERO ISZERO PUSH2 0x3AF JUMP JUMPDEST SWAP1 POP PUSH1 0x20 DUP2 RETURNDATASIZE PUSH1 0x20 GT PUSH2 0x134F JUMPI JUMPDEST DUP2 PUSH2 0x1340 PUSH1 0x20 SWAP4 DUP4 PUSH2 0x2300 JUMP JUMPDEST DUP2 ADD SUB SLT PUSH2 0x8DF JUMPI MLOAD CODESIZE PUSH2 0x3A5 JUMP JUMPDEST RETURNDATASIZE SWAP2 POP PUSH2 0x1333 JUMP JUMPDEST PUSH2 0x1360 SWAP1 PUSH2 0x2298 JUMP JUMPDEST PUSH2 0x11BE JUMPI DUP3 CODESIZE PUSH2 0x367 JUMP JUMPDEST DUP4 DUP1 REVERT JUMPDEST PUSH2 0x1387 SWAP1 PUSH1 0x20 RETURNDATASIZE PUSH1 0x20 GT PUSH2 0xB2F JUMPI PUSH2 0xB20 DUP2 DUP4 PUSH2 0x2300 JUMP JUMPDEST POP CODESIZE PUSH2 0x2FD JUMP JUMPDEST PUSH1 0x40 MLOAD PUSH3 0x461BCD PUSH1 0xE5 SHL DUP2 MSTORE PUSH1 0x20 PUSH1 0x4 DUP3 ADD MSTORE PUSH1 0x21 PUSH1 0x24 DUP3 ADD MSTORE PUSH32 0x53504F545F53504C495420726571756972657320626F72726F77696E6720474E PUSH1 0x44 DUP3 ADD MSTORE PUSH1 0x4F PUSH1 0xF8 SHL PUSH1 0x64 DUP3 ADD MSTORE PUSH1 0x84 SWAP1 REVERT JUMPDEST PUSH1 0x8 SLOAD PUSH1 0x1 PUSH1 0x1 PUSH1 0xA0 SHL SUB SWAP1 DUP2 AND SWAP1 DUP3 AND DUP2 SWAP1 SUB PUSH2 0x1CD0 JUMPI PUSH1 0x5 SLOAD PUSH1 0x40 MLOAD PUSH4 0x95EA7B3 PUSH1 0xE0 SHL DUP2 MSTORE PUSH1 0x1 PUSH1 0x1 PUSH1 0xA0 SHL SUB SWAP1 SWAP2 AND PUSH1 0x4 DUP3 ADD MSTORE PUSH1 0x24 DUP1 CALLDATALOAD SWAP1 DUP3 ADD MSTORE SWAP1 PUSH1 0x20 SWAP1 DUP3 SWAP1 PUSH1 0x44 SWAP1 DUP3 SWAP1 DUP9 SWAP1 GAS CALL DUP1 ISZERO PUSH2 0x99D JUMPI PUSH2 0x1CB1 JUMPI JUMPDEST POP PUSH1 0x5 SLOAD DUP3 MLOAD PUSH1 0x8 SLOAD DUP6 SWAP3 PUSH1 0x1 PUSH1 0x1 PUSH1 0xA0 SHL SUB SWAP1 DUP2 AND SWAP3 SWAP2 DUP2 AND SWAP2 AND DUP3 EXTCODESIZE ISZERO PUSH2 0x136B JUMPI PUSH1 0x40 MLOAD PUSH4 0x1ABF045 PUSH1 0xE7 SHL DUP2 MSTORE PUSH1 0x1 PUSH1 0x1 PUSH1 0xA0 SHL SUB SWAP2 DUP3 AND PUSH1 0x4 DUP3 ADD MSTORE SWAP2 AND PUSH1 0x24 DUP1 DUP4 ADD SWAP2 SWAP1 SWAP2 MSTORE CALLDATALOAD PUSH1 0x44 DUP3 ADD MSTORE SWAP1 DUP3 SWAP1 DUP3 SWAP1 PUSH1 0x64 SWAP1 DUP3 SWAP1 DUP5 SWAP1 GAS CALL DUP1 ISZERO PUSH2 0xA5B JUMPI PUSH2 0x1C9D JUMPI JUMPDEST POP POP PUSH1 0xA0 DUP3 ADD MLOAD PUSH1 0x40 MLOAD PUSH4 0x70A08231 PUSH1 0xE0 SHL DUP2 MSTORE ADDRESS PUSH1 0x4 DUP3 ADD MSTORE SWAP1 PUSH1 0x20 SWAP1 DUP3 SWAP1 PUSH1 0x24 SWAP1 DUP3 SWAP1 PUSH1 0x1 PUSH1 0x1 PUSH1 0xA0 SHL SUB AND GAS STATICCALL SWAP1 DUP2 ISZERO PUSH2 0x99D JUMPI DUP5 SWAP2 PUSH2 0x1C6B JUMPI JUMPDEST POP DUP1 ISZERO ISZERO DUP1 PUSH2 0x1C55 JUMPI JUMPDEST PUSH2 0x1C2D JUMPI JUMPDEST POP PUSH1 0xC0 DUP3 ADD MLOAD PUSH1 0x40 MLOAD PUSH4 0x70A08231 PUSH1 0xE0 SHL DUP2 MSTORE ADDRESS PUSH1 0x4 DUP3 ADD MSTORE SWAP1 PUSH1 0x20 SWAP1 DUP3 SWAP1 PUSH1 0x24 SWAP1 DUP3 SWAP1 PUSH1 0x1 PUSH1 0x1 PUSH1 0xA0 SHL SUB AND GAS STATICCALL SWAP1 DUP2 ISZERO PUSH2 0x99D JUMPI DUP5 SWAP2 PUSH2 0x1BFB JUMPI JUMPDEST POP DUP1 ISZERO ISZERO DUP1 PUSH2 0x1BE4 JUMPI JUMPDEST PUSH2 0x1BBB JUMPI JUMPDEST POP PUSH1 0x60 DUP3 ADD MLOAD PUSH1 0x40 MLOAD PUSH4 0x70A08231 PUSH1 0xE0 SHL DUP2 MSTORE ADDRESS PUSH1 0x4 DUP3 ADD MSTORE DUP5 SWAP2 PUSH1 0x20 SWAP1 DUP3 SWAP1 PUSH1 0x24 SWAP1 DUP3 SWAP1 PUSH1 0x1 PUSH1 0x1 PUSH1 0xA0 SHL SUB AND GAS STATICCALL SWAP1 DUP2 ISZERO PUSH2 0xA5B JUMPI DUP3 SWAP2 PUSH2 0x1B86 JUMPI JUMPDEST POP PUSH1 0x80 DUP5 ADD MLOAD PUSH1 0x40 MLOAD PUSH4 0x70A08231 PUSH1 0xE0 SHL DUP2 MSTORE ADDRESS PUSH1 0x4 DUP3 ADD MSTORE SWAP1 PUSH1 0x20 SWAP1 DUP3 SWAP1 PUSH1 0x24 SWAP1 DUP3 SWAP1 PUSH1 0x1 PUSH1 0x1 PUSH1 0xA0 SHL SUB AND GAS STATICCALL SWAP1 DUP2 ISZERO PUSH2 0x9FD JUMPI DUP4 SWAP2 PUSH2 0x1B51 JUMPI JUMPDEST POP DUP1 DUP3 LT ISZERO PUSH2 0x1B4A JUMPI POP JUMPDEST DUP1 PUSH2 0x1A05 JUMPI JUMPDEST POP POP PUSH1 0x7 SLOAD PUSH1 0x40 MLOAD PUSH4 0x70A08231 PUSH1 0xE0 SHL DUP2 MSTORE ADDRESS PUSH1 0x4 DUP3 ADD MSTORE PUSH1 0x1 PUSH1 0x1 PUSH1 0xA0 SHL SUB SWAP1 SWAP2 AND SWAP1 PUSH1 0x20 DUP2 PUSH1 0x24 DUP2 DUP6 GAS STATICCALL SWAP1 DUP2 ISZERO PUSH2 0x93D JUMPI DUP6 SWAP2 PUSH2 0x19D3 JUMPI JUMPDEST POP DUP1 PUSH2 0x160F JUMPI JUMPDEST POP POP PUSH2 0x4D1 JUMP JUMPDEST PUSH1 0x40 MLOAD SWAP2 PUSH2 0x161C DUP4 PUSH2 0x22AC JUMP JUMPDEST PUSH1 0x4 DUP4 MSTORE PUSH1 0x80 CALLDATASIZE PUSH1 0x20 DUP6 ADD CALLDATACOPY DUP1 PUSH2 0x1632 DUP5 PUSH2 0x2B12 JUMP JUMPDEST MSTORE PUSH20 0xE91D153E0B41518A2CE8DD3D7944FA863463A97D PUSH2 0x1651 DUP5 PUSH2 0x2B35 JUMP JUMPDEST MSTORE PUSH20 0xDDAFBB505AD214D7B80B1F830FCCC89B60FB7A83 PUSH2 0x1670 DUP5 PUSH2 0x2B45 JUMP JUMPDEST MSTORE PUSH1 0x8 SLOAD PUSH1 0x1 PUSH1 0x1 PUSH1 0xA0 SHL SUB AND PUSH2 0x1686 DUP5 PUSH2 0x2B55 JUMP JUMPDEST MSTORE PUSH2 0x168F PUSH2 0x2B65 JUMP JUMPDEST SWAP3 PUSH1 0x40 MLOAD PUSH2 0x169C DUP2 PUSH2 0x22AC JUMP JUMPDEST PUSH32 0x8189C4C96826D016A99986394103DFA9AE41E7EE0002000000000000000000AA DUP2 MSTORE DUP8 PUSH1 0x20 DUP3 ADD MSTORE PUSH1 0x1 PUSH1 0x40 DUP3 ADD MSTORE DUP4 PUSH1 0x60 DUP3 ADD MSTORE PUSH1 0x40 MLOAD PUSH2 0x16DE DUP2 PUSH2 0x22E4 JUMP JUMPDEST DUP9 DUP2 MSTORE PUSH1 0x80 DUP3 ADD MSTORE PUSH2 0x16EF DUP6 PUSH2 0x2B12 JUMP JUMPDEST MSTORE PUSH2 0x16F9 DUP5 PUSH2 0x2B12 JUMP JUMPDEST POP PUSH1 0x40 MLOAD PUSH2 0x1706 DUP2 PUSH2 0x22AC JUMP JUMPDEST PUSH32 0x2086F52651837600180DE173B09470F54EF7491000000000000000000000004F DUP2 MSTORE PUSH1 0x1 PUSH1 0x20 DUP3 ADD MSTORE PUSH1 0x2 PUSH1 0x40 DUP3 ADD MSTORE DUP8 PUSH1 0x60 DUP3 ADD MSTORE PUSH1 0x40 MLOAD PUSH2 0x1749 DUP2 PUSH2 0x22E4 JUMP JUMPDEST DUP9 DUP2 MSTORE PUSH1 0x80 DUP3 ADD MSTORE PUSH2 0x175A DUP6 PUSH2 0x2B35 JUMP JUMPDEST MSTORE PUSH2 0x1764 DUP5 PUSH2 0x2B35 JUMP JUMPDEST POP PUSH1 0x40 MLOAD PUSH2 0x1771 DUP2 PUSH2 0x22AC JUMP JUMPDEST PUSH32 0x7644FA5D0EA14FCF3E813FDF93CA9544F8567655000000000000000000000066 DUP2 MSTORE PUSH1 0x2 PUSH1 0x20 DUP3 ADD MSTORE PUSH1 0x3 PUSH1 0x40 DUP3 ADD MSTORE DUP8 PUSH1 0x60 DUP3 ADD MSTORE PUSH1 0x40 MLOAD PUSH2 0x17B4 DUP2 PUSH2 0x22E4 JUMP JUMPDEST DUP9 DUP2 MSTORE PUSH1 0x80 DUP3 ADD MSTORE PUSH2 0x17C5 DUP6 PUSH2 0x2B45 JUMP JUMPDEST MSTORE PUSH2 0x17CF DUP5 PUSH2 0x2B45 JUMP JUMPDEST POP PUSH2 0x17E2 PUSH1 0x20 PUSH1 0x40 MLOAD SWAP5 PUSH2 0xDE8 DUP7 PUSH2 0x22C8 JUMP JUMPDEST SUB SWAP3 GAS CALL DUP1 ISZERO PUSH2 0x107A JUMPI PUSH2 0x19B4 JUMPI JUMPDEST POP DUP7 SWAP3 SWAP4 SWAP2 PUSH1 0x1 DUP1 PUSH1 0xA0 SHL SUB PUSH1 0x3 SLOAD AND SWAP2 PUSH1 0x40 MLOAD SWAP6 DUP7 SWAP5 PUSH4 0x945BCEC9 PUSH1 0xE0 SHL DUP7 MSTORE PUSH2 0x124 DUP7 ADD PUSH1 0x0 PUSH1 0x4 DUP9 ADD MSTORE PUSH2 0x120 PUSH1 0x24 DUP9 ADD MSTORE DUP2 MLOAD DUP1 SWAP2 MSTORE PUSH2 0x144 SWAP1 PUSH1 0x20 DUP3 DUP10 ADD SWAP3 DUP3 PUSH1 0x5 SHL DUP11 ADD ADD SWAP4 ADD SWAP2 PUSH1 0x0 SWAP1 JUMPDEST DUP3 DUP3 LT PUSH2 0x194C JUMPI POP POP POP POP PUSH1 0x3 NOT DUP7 DUP3 SUB ADD PUSH1 0x44 DUP8 ADD MSTORE PUSH1 0x20 DUP1 DUP5 MLOAD SWAP3 DUP4 DUP2 MSTORE ADD SWAP4 ADD SWAP1 PUSH1 0x0 JUMPDEST DUP2 DUP2 LT PUSH2 0x1927 JUMPI POP POP DUP2 MLOAD PUSH1 0x1 PUSH1 0x1 PUSH1 0xA0 SHL SUB SWAP1 DUP2 AND PUSH1 0x64 DUP9 ADD MSTORE PUSH1 0x20 DUP1 DUP5 ADD MLOAD ISZERO ISZERO PUSH1 0x84 DUP10 ADD MSTORE PUSH1 0x40 DUP5 ADD MLOAD SWAP1 SWAP2 AND PUSH1 0xA4 DUP9 ADD MSTORE PUSH1 0x60 SWAP1 SWAP3 ADD MLOAD ISZERO ISZERO PUSH1 0xC4 DUP8 ADD MSTORE POP PUSH1 0x3 NOT DUP6 DUP4 SUB ADD PUSH1 0xE4 DUP7 ADD MSTORE DUP3 MLOAD DUP1 DUP4 MSTORE SWAP2 DUP2 ADD SWAP3 ADD SWAP1 PUSH1 0x0 JUMPDEST DUP2 DUP2 LT PUSH2 0x190B JUMPI POP POP POP DUP4 DUP4 DUP1 SWAP3 TIMESTAMP PUSH2 0x104 DUP4 ADD MSTORE SUB SWAP3 GAS CALL DUP1 ISZERO PUSH2 0x99D JUMPI PUSH2 0x18F1 JUMPI JUMPDEST DUP1 PUSH2 0x1608 JUMP JUMPDEST PUSH2 0x1904 SWAP1 RETURNDATASIZE DUP1 DUP7 DUP4 RETURNDATACOPY PUSH2 0xFA3 DUP2 DUP4 PUSH2 0x2300 JUMP JUMPDEST POP CODESIZE PUSH2 0x18EB JUMP JUMPDEST DUP3 MLOAD DUP5 MSTORE DUP11 SWAP7 POP DUP8 SWAP6 POP PUSH1 0x20 SWAP4 DUP5 ADD SWAP4 SWAP1 SWAP3 ADD SWAP2 PUSH1 0x1 ADD PUSH2 0x18C7 JUMP JUMPDEST DUP3 MLOAD PUSH1 0x1 PUSH1 0x1 PUSH1 0xA0 SHL SUB AND DUP6 MSTORE DUP13 SWAP9 POP DUP10 SWAP8 POP PUSH1 0x20 SWAP5 DUP6 ADD SWAP5 SWAP1 SWAP3 ADD SWAP2 PUSH1 0x1 ADD PUSH2 0x186A JUMP JUMPDEST SWAP3 SWAP6 SWAP8 SWAP10 POP SWAP3 PUSH1 0x20 PUSH2 0x199F DUP2 SWAP3 PUSH1 0x1 SWAP5 SWAP8 SWAP10 SWAP12 PUSH2 0x143 NOT SWAP1 DUP3 SUB ADD DUP7 MSTORE PUSH1 0xA0 PUSH1 0x80 DUP11 MLOAD DUP1 MLOAD DUP5 MSTORE DUP6 DUP2 ADD MLOAD DUP7 DUP6 ADD MSTORE PUSH1 0x40 DUP2 ADD MLOAD PUSH1 0x40 DUP6 ADD MSTORE PUSH1 0x60 DUP2 ADD MLOAD PUSH1 0x60 DUP6 ADD MSTORE ADD MLOAD SWAP2 DUP2 PUSH1 0x80 DUP3 ADD MSTORE ADD SWAP1 PUSH2 0x2240 JUMP JUMPDEST SWAP7 ADD SWAP3 ADD SWAP3 ADD SWAP3 DUP10 SWAP8 SWAP6 SWAP4 DUP14 SWAP10 SWAP8 SWAP6 SWAP4 PUSH2 0x1843 JUMP JUMPDEST PUSH2 0x19CC SWAP1 PUSH1 0x20 RETURNDATASIZE PUSH1 0x20 GT PUSH2 0xB2F JUMPI PUSH2 0xB20 DUP2 DUP4 PUSH2 0x2300 JUMP JUMPDEST POP CODESIZE PUSH2 0x17F1 JUMP JUMPDEST SWAP1 POP PUSH1 0x20 DUP2 RETURNDATASIZE PUSH1 0x20 GT PUSH2 0x19FD JUMPI JUMPDEST DUP2 PUSH2 0x19EE PUSH1 0x20 SWAP4 DUP4 PUSH2 0x2300 JUMP JUMPDEST DUP2 ADD SUB SLT PUSH2 0x8DF JUMPI MLOAD CODESIZE PUSH2 0x1601 JUMP JUMPDEST RETURNDATASIZE SWAP2 POP PUSH2 0x19E1 JUMP JUMPDEST PUSH1 0x60 DUP5 ADD MLOAD PUSH1 0x5 SLOAD PUSH1 0x40 MLOAD PUSH4 0x95EA7B3 PUSH1 0xE0 SHL DUP2 MSTORE PUSH1 0x1 PUSH1 0x1 PUSH1 0xA0 SHL SUB SWAP2 DUP3 AND PUSH1 0x4 DUP3 ADD MSTORE PUSH1 0x24 DUP2 ADD DUP5 SWAP1 MSTORE SWAP2 PUSH1 0x20 SWAP2 DUP4 SWAP2 PUSH1 0x44 SWAP2 DUP4 SWAP2 DUP9 SWAP2 AND GAS CALL DUP1 ISZERO PUSH2 0x9FD JUMPI PUSH2 0x1B2B JUMPI JUMPDEST POP PUSH1 0x80 DUP5 ADD MLOAD PUSH1 0x5 SLOAD PUSH1 0x40 MLOAD PUSH4 0x95EA7B3 PUSH1 0xE0 SHL DUP2 MSTORE PUSH1 0x1 PUSH1 0x1 PUSH1 0xA0 SHL SUB SWAP2 DUP3 AND PUSH1 0x4 DUP3 ADD MSTORE PUSH1 0x24 DUP2 ADD DUP5 SWAP1 MSTORE SWAP2 PUSH1 0x20 SWAP2 DUP4 SWAP2 PUSH1 0x44 SWAP2 DUP4 SWAP2 DUP9 SWAP2 AND GAS CALL DUP1 ISZERO PUSH2 0x9FD JUMPI PUSH2 0x1B0C JUMPI JUMPDEST POP PUSH1 0x5 SLOAD DUP5 MLOAD PUSH1 0x7 SLOAD PUSH1 0x1 PUSH1 0x1 PUSH1 0xA0 SHL SUB SWAP1 DUP2 AND SWAP4 SWAP2 DUP2 AND SWAP3 AND DUP1 EXTCODESIZE ISZERO PUSH2 0x11C2 JUMPI PUSH1 0x40 MLOAD PUSH4 0x7ABEF8D1 PUSH1 0xE0 SHL DUP2 MSTORE PUSH1 0x1 PUSH1 0x1 PUSH1 0xA0 SHL SUB SWAP4 DUP5 AND PUSH1 0x4 DUP3 ADD MSTORE SWAP4 SWAP1 SWAP3 AND PUSH1 0x24 DUP5 ADD MSTORE PUSH1 0x44 DUP4 ADD MSTORE DUP3 SWAP1 DUP3 SWAP1 PUSH1 0x64 SWAP1 DUP3 SWAP1 DUP5 SWAP1 GAS CALL DUP1 ISZERO PUSH2 0xA5B JUMPI ISZERO PUSH2 0x15C6 JUMPI PUSH2 0x1B01 SWAP1 PUSH2 0x2298 JUMP JUMPDEST PUSH2 0x11BE JUMPI DUP3 CODESIZE PUSH2 0x15C6 JUMP JUMPDEST PUSH2 0x1B24 SWAP1 PUSH1 0x20 RETURNDATASIZE PUSH1 0x20 GT PUSH2 0xB2F JUMPI PUSH2 0xB20 DUP2 DUP4 PUSH2 0x2300 JUMP JUMPDEST POP CODESIZE PUSH2 0x1A94 JUMP JUMPDEST PUSH2 0x1B43 SWAP1 PUSH1 0x20 RETURNDATASIZE PUSH1 0x20 GT PUSH2 0xB2F JUMPI PUSH2 0xB20 DUP2 DUP4 PUSH2 0x2300 JUMP JUMPDEST POP CODESIZE PUSH2 0x1A4C JUMP JUMPDEST SWAP1 POP PUSH2 0x15C0 JUMP JUMPDEST SWAP3 POP POP PUSH1 0x20 DUP3 RETURNDATASIZE PUSH1 0x20 GT PUSH2 0x1B7E JUMPI JUMPDEST DUP2 PUSH2 0x1B6D PUSH1 0x20 SWAP4 DUP4 PUSH2 0x2300 JUMP JUMPDEST DUP2 ADD SUB SLT PUSH2 0x8DF JUMPI DUP5 SWAP2 MLOAD CODESIZE PUSH2 0x15B5 JUMP JUMPDEST RETURNDATASIZE SWAP2 POP PUSH2 0x1B60 JUMP JUMPDEST SWAP2 POP POP PUSH1 0x20 DUP2 RETURNDATASIZE PUSH1 0x20 GT PUSH2 0x1BB3 JUMPI JUMPDEST DUP2 PUSH2 0x1BA2 PUSH1 0x20 SWAP4 DUP4 PUSH2 0x2300 JUMP JUMPDEST DUP2 ADD SUB SLT PUSH2 0x8DF JUMPI DUP4 SWAP1 MLOAD CODESIZE PUSH2 0x1578 JUMP JUMPDEST RETURNDATASIZE SWAP2 POP PUSH2 0x1B95 JUMP JUMPDEST PUSH2 0x100 DUP4 ADD MLOAD PUSH1 0xC0 DUP5 ADD MLOAD PUSH2 0x1BDD SWAP3 SWAP2 PUSH1 0x1 PUSH1 0x1 PUSH1 0xA0 SHL SUB SWAP2 DUP3 AND SWAP2 AND PUSH2 0x28C7 JUMP JUMPDEST POP CODESIZE PUSH2 0x153A JUMP JUMPDEST POP PUSH2 0x100 DUP4 ADD MLOAD PUSH1 0x1 PUSH1 0x1 PUSH1 0xA0 SHL SUB AND ISZERO ISZERO PUSH2 0x1535 JUMP JUMPDEST SWAP1 POP PUSH1 0x20 DUP2 RETURNDATASIZE PUSH1 0x20 GT PUSH2 0x1C25 JUMPI JUMPDEST DUP2 PUSH2 0x1C16 PUSH1 0x20 SWAP4 DUP4 PUSH2 0x2300 JUMP JUMPDEST DUP2 ADD SUB SLT PUSH2 0x8DF JUMPI MLOAD CODESIZE PUSH2 0x152B JUMP JUMPDEST RETURNDATASIZE SWAP2 POP PUSH2 0x1C09 JUMP JUMPDEST PUSH1 0xE0 DUP4 ADD MLOAD PUSH1 0xA0 DUP5 ADD MLOAD PUSH2 0x1C4E SWAP3 SWAP2 PUSH1 0x1 PUSH1 0x1 PUSH1 0xA0 SHL SUB SWAP2 DUP3 AND SWAP2 AND PUSH2 0x28C7 JUMP JUMPDEST POP CODESIZE PUSH2 0x14EE JUMP JUMPDEST POP PUSH1 0xE0 DUP4 ADD MLOAD PUSH1 0x1 PUSH1 0x1 PUSH1 0xA0 SHL SUB AND ISZERO ISZERO PUSH2 0x14E9 JUMP JUMPDEST SWAP1 POP PUSH1 0x20 DUP2 RETURNDATASIZE PUSH1 0x20 GT PUSH2 0x1C95 JUMPI JUMPDEST DUP2 PUSH2 0x1C86 PUSH1 0x20 SWAP4 DUP4 PUSH2 0x2300 JUMP JUMPDEST DUP2 ADD SUB SLT PUSH2 0x8DF JUMPI MLOAD CODESIZE PUSH2 0x14DF JUMP JUMPDEST RETURNDATASIZE SWAP2 POP PUSH2 0x1C79 JUMP JUMPDEST PUSH2 0x1CA6 SWAP1 PUSH2 0x2298 JUMP JUMPDEST PUSH2 0x11BE JUMPI DUP3 CODESIZE PUSH2 0x14A1 JUMP JUMPDEST PUSH2 0x1CC9 SWAP1 PUSH1 0x20 RETURNDATASIZE PUSH1 0x20 GT PUSH2 0xB2F JUMPI PUSH2 0xB20 DUP2 DUP4 PUSH2 0x2300 JUMP JUMPDEST POP CODESIZE PUSH2 0x1437 JUMP JUMPDEST PUSH1 0x40 MLOAD PUSH3 0x461BCD PUSH1 0xE5 SHL DUP2 MSTORE PUSH1 0x20 PUSH1 0x4 DUP3 ADD MSTORE PUSH1 0x22 PUSH1 0x24 DUP3 ADD MSTORE PUSH32 0x4D455247455F53504F5420726571756972657320626F72726F77696E67207344 PUSH1 0x44 DUP3 ADD MSTORE PUSH2 0x4149 PUSH1 0xF0 SHL PUSH1 0x64 DUP3 ADD MSTORE PUSH1 0x84 SWAP1 REVERT JUMPDEST PUSH1 0x40 MLOAD PUSH3 0x461BCD PUSH1 0xE5 SHL DUP2 MSTORE PUSH1 0x20 PUSH1 0x4 DUP3 ADD MSTORE PUSH1 0x10 PUSH1 0x24 DUP3 ADD MSTORE PUSH16 0x125B9D985B1A59081C1C9BDC1BDCD85B PUSH1 0x82 SHL PUSH1 0x44 DUP3 ADD MSTORE PUSH1 0x64 SWAP1 REVERT JUMPDEST PUSH2 0x1D61 SWAP1 PUSH2 0x2298 JUMP JUMPDEST CODESIZE PUSH2 0x26C JUMP JUMPDEST POP DUP1 REVERT JUMPDEST PUSH1 0x40 MLOAD PUSH3 0x461BCD PUSH1 0xE5 SHL DUP2 MSTORE PUSH1 0x20 PUSH1 0x4 DUP3 ADD MSTORE PUSH1 0x13 PUSH1 0x24 DUP3 ADD MSTORE PUSH19 0x13DB9B1E4810985B185B98D95C8815985D5B1D PUSH1 0x6A SHL PUSH1 0x44 DUP3 ADD MSTORE PUSH1 0x64 SWAP1 REVERT JUMPDEST POP CALLVALUE PUSH2 0x150 JUMPI DUP1 PUSH1 0x3 NOT CALLDATASIZE ADD SLT PUSH2 0x150 JUMPI PUSH2 0x1DBF PUSH2 0x27FF JUMP JUMPDEST DUP1 SLOAD PUSH1 0x1 PUSH1 0x1 PUSH1 0xA0 SHL SUB NOT DUP2 AND DUP3 SSTORE DUP2 SWAP1 PUSH1 0x1 PUSH1 0x1 PUSH1 0xA0 SHL SUB AND PUSH32 0x8BE0079C531659141344CD1FD0A4F28419497F9722A3DAAFE3B4186F6B6457E0 DUP3 DUP1 LOG3 DUP1 RETURN JUMPDEST POP CALLVALUE PUSH2 0x150 JUMPI PUSH1 0x20 CALLDATASIZE PUSH1 0x3 NOT ADD SLT PUSH2 0x150 JUMPI PUSH2 0x140 PUSH2 0x1E25 PUSH2 0x1E20 PUSH2 0x21B2 JUMP JUMPDEST PUSH2 0x23FF JUMP JUMPDEST PUSH1 0x40 MLOAD SWAP1 PUSH1 0x1 DUP1 PUSH1 0xA0 SHL SUB DUP1 DUP3 MLOAD AND DUP4 MSTORE DUP1 PUSH1 0x20 DUP4 ADD MLOAD AND PUSH1 0x20 DUP5 ADD MSTORE DUP1 PUSH1 0x40 DUP4 ADD MLOAD AND PUSH1 0x40 DUP5 ADD MSTORE DUP1 PUSH1 0x60 DUP4 ADD MLOAD AND PUSH1 0x60 DUP5 ADD MSTORE DUP1 PUSH1 0x80 DUP4 ADD MLOAD AND PUSH1 0x80 DUP5 ADD MSTORE DUP1 PUSH1 0xA0 DUP4 ADD MLOAD AND PUSH1 0xA0 DUP5 ADD MSTORE DUP1 PUSH1 0xC0 DUP4 ADD MLOAD AND PUSH1 0xC0 DUP5 ADD MSTORE DUP1 PUSH1 0xE0 DUP4 ADD MLOAD AND PUSH1 0xE0 DUP5 ADD MSTORE PUSH2 0x100 SWAP1 DUP2 DUP4 ADD MLOAD AND SWAP1 DUP4 ADD MSTORE PUSH2 0x120 DUP1 SWAP2 ADD MLOAD ISZERO ISZERO SWAP1 DUP3 ADD MSTORE RETURN JUMPDEST POP CALLVALUE PUSH2 0x150 JUMPI DUP1 PUSH1 0x3 NOT CALLDATASIZE ADD SLT PUSH2 0x150 JUMPI PUSH1 0x4 SLOAD PUSH1 0x40 MLOAD PUSH1 0x1 PUSH1 0x1 PUSH1 0xA0 SHL SUB SWAP1 SWAP2 AND DUP2 MSTORE PUSH1 0x20 SWAP1 RETURN JUMPDEST POP CALLVALUE PUSH2 0x150 JUMPI DUP1 PUSH1 0x3 NOT CALLDATASIZE ADD SLT PUSH2 0x150 JUMPI PUSH1 0x2 SLOAD PUSH1 0x40 MLOAD PUSH1 0x1 PUSH1 0x1 PUSH1 0xA0 SHL SUB SWAP1 SWAP2 AND DUP2 MSTORE PUSH1 0x20 SWAP1 RETURN JUMPDEST POP CALLVALUE PUSH2 0x150 JUMPI DUP1 PUSH1 0x3 NOT CALLDATASIZE ADD SLT PUSH2 0x150 JUMPI PUSH1 0x3 SLOAD PUSH1 0x40 MLOAD PUSH1 0x1 PUSH1 0x1 PUSH1 0xA0 SHL SUB SWAP1 SWAP2 AND DUP2 MSTORE PUSH1 0x20 SWAP1 RETURN JUMPDEST POP CALLVALUE PUSH2 0x150 JUMPI DUP1 PUSH1 0x3 NOT CALLDATASIZE ADD SLT PUSH2 0x150 JUMPI PUSH1 0x5 SLOAD PUSH1 0x40 MLOAD PUSH1 0x1 PUSH1 0x1 PUSH1 0xA0 SHL SUB SWAP1 SWAP2 AND DUP2 MSTORE PUSH1 0x20 SWAP1 RETURN JUMPDEST POP CALLVALUE PUSH2 0x150 JUMPI PUSH1 0xA0 CALLDATASIZE PUSH1 0x3 NOT ADD SLT PUSH2 0x150 JUMPI PUSH2 0x1F64 PUSH2 0x21B2 JUMP JUMPDEST PUSH1 0x24 CALLDATALOAD SWAP1 PUSH1 0x1 PUSH1 0x1 PUSH1 0xA0 SHL SUB DUP1 DUP4 AND DUP4 SUB PUSH2 0x136B JUMPI PUSH1 0x64 CALLDATALOAD SWAP2 PUSH1 0x2 DUP4 LT ISZERO PUSH2 0x11C2 JUMPI DUP5 PUSH1 0xE0 PUSH1 0x40 MLOAD PUSH2 0x1F95 DUP2 PUSH2 0x2265 JUMP JUMPDEST DUP3 DUP2 MSTORE DUP3 PUSH1 0x20 DUP3 ADD MSTORE DUP3 PUSH1 0x40 DUP3 ADD MSTORE DUP3 PUSH1 0x60 DUP3 ADD MSTORE DUP3 PUSH1 0x80 DUP3 ADD MSTORE DUP3 PUSH1 0xA0 DUP3 ADD MSTORE DUP3 PUSH1 0xC0 DUP3 ADD MSTORE ADD MSTORE PUSH2 0x1FC6 PUSH2 0x27FF JUMP JUMPDEST PUSH1 0x2 PUSH1 0x1 SLOAD EQ PUSH2 0x2164 JUMPI PUSH2 0x2062 DUP6 SWAP4 SWAP3 PUSH2 0x2099 SWAP3 DUP6 SWAP5 PUSH1 0x2 PUSH1 0x1 SSTORE DUP3 PUSH1 0x9 SLOAD SWAP2 PUSH2 0x1FEF DUP2 PUSH2 0x2322 JUMP JUMPDEST PUSH1 0xFF PUSH1 0xA0 SHL PUSH1 0xA0 SWAP2 SWAP1 SWAP2 SHL AND SWAP3 AND PUSH1 0x1 PUSH1 0x1 PUSH1 0xA8 SHL SUB NOT SWAP2 SWAP1 SWAP2 AND OR OR PUSH1 0x9 SSTORE PUSH1 0x84 CALLDATALOAD PUSH1 0xA SSTORE PUSH1 0xB DUP1 SLOAD CALLER PUSH1 0x1 PUSH1 0x1 PUSH1 0xA0 SHL SUB NOT SWAP2 DUP3 AND OR SWAP1 SWAP2 SSTORE PUSH1 0x40 MLOAD PUSH4 0x1D4502F9 PUSH1 0xE2 SHL PUSH1 0x20 DUP3 ADD MSTORE PUSH1 0x1 PUSH1 0x1 PUSH1 0xA0 SHL SUB SWAP8 SWAP1 SWAP8 AND PUSH1 0x24 DUP9 ADD MSTORE PUSH1 0x44 DUP1 CALLDATALOAD SWAP1 DUP9 ADD MSTORE SWAP6 SWAP2 PUSH2 0x2070 SWAP1 DUP4 SWAP1 PUSH1 0x64 DUP3 ADD SWAP1 JUMP JUMPDEST SUB PUSH1 0x1F NOT DUP2 ADD DUP5 MSTORE DUP4 PUSH2 0x2300 JUMP JUMPDEST PUSH1 0x2 SLOAD AND SWAP1 PUSH1 0x40 MLOAD SWAP7 DUP8 DUP1 SWAP5 DUP2 SWAP4 PUSH4 0x48C89491 PUSH1 0xE0 SHL DUP4 MSTORE PUSH1 0x20 PUSH1 0x4 DUP5 ADD MSTORE PUSH1 0x24 DUP4 ADD SWAP1 PUSH2 0x2240 JUMP JUMPDEST SUB SWAP3 GAS CALL DUP1 ISZERO PUSH2 0x2157 JUMPI PUSH2 0x2112 JUMPI JUMPDEST PUSH2 0x88A DUP3 PUSH1 0x40 MLOAD SWAP1 PUSH2 0x20B9 DUP3 PUSH2 0x2265 JUMP JUMPDEST PUSH1 0xFF PUSH1 0xC SLOAD AND ISZERO ISZERO DUP3 MSTORE PUSH1 0xD SLOAD PUSH1 0x20 DUP4 ADD MSTORE PUSH1 0xE SLOAD PUSH1 0x40 DUP4 ADD MSTORE PUSH1 0xF SLOAD PUSH1 0x60 DUP4 ADD MSTORE PUSH1 0x10 SLOAD PUSH1 0x80 DUP4 ADD MSTORE PUSH1 0x11 SLOAD PUSH1 0xA0 DUP4 ADD MSTORE PUSH1 0x12 SLOAD PUSH1 0xC0 DUP4 ADD MSTORE PUSH1 0x13 SLOAD PUSH1 0xE0 DUP4 ADD MSTORE PUSH1 0x9 SLOAD AND PUSH1 0x9 SSTORE PUSH1 0x1 DUP1 SSTORE PUSH1 0x40 MLOAD SWAP2 DUP3 SWAP2 DUP3 PUSH2 0x21C8 JUMP JUMPDEST RETURNDATASIZE DUP1 DUP3 DUP6 RETURNDATACOPY PUSH2 0x2121 DUP2 DUP6 PUSH2 0x2300 JUMP JUMPDEST DUP4 ADD SWAP3 PUSH1 0x20 DUP2 DUP6 SUB SLT PUSH2 0x1D67 JUMPI DUP1 MLOAD SWAP2 PUSH8 0xFFFFFFFFFFFFFFFF DUP4 GT PUSH2 0x150 JUMPI POP SWAP3 PUSH2 0x2150 SWAP2 PUSH2 0x88A SWAP5 ADD PUSH2 0x2342 JUMP JUMPDEST POP CODESIZE PUSH2 0x20A8 JUMP JUMPDEST POP PUSH1 0x40 MLOAD SWAP1 RETURNDATASIZE SWAP1 DUP3 RETURNDATACOPY RETURNDATASIZE SWAP1 REVERT JUMPDEST PUSH1 0x40 MLOAD PUSH4 0x3EE5AEB5 PUSH1 0xE0 SHL DUP2 MSTORE PUSH1 0x4 SWAP1 REVERT JUMPDEST POP CALLVALUE PUSH2 0x150 JUMPI PUSH1 0x40 CALLDATASIZE PUSH1 0x3 NOT ADD SLT PUSH2 0x150 JUMPI PUSH2 0x21AF PUSH2 0x2193 PUSH2 0x21B2 JUMP JUMPDEST PUSH2 0x219B PUSH2 0x27FF JUMP JUMPDEST PUSH1 0x24 CALLDATALOAD SWAP1 CALLER SWAP1 PUSH1 0x1 PUSH1 0x1 PUSH1 0xA0 SHL SUB AND PUSH2 0x282B JUMP JUMPDEST DUP1 RETURN JUMPDEST PUSH1 0x4 CALLDATALOAD SWAP1 PUSH1 0x1 PUSH1 0x1 PUSH1 0xA0 SHL SUB DUP3 AND DUP3 SUB PUSH2 0x8DF JUMPI JUMP JUMPDEST SWAP2 SWAP1 SWAP2 PUSH1 0xE0 DUP1 PUSH2 0x100 DUP4 ADD SWAP5 DUP1 MLOAD ISZERO ISZERO DUP5 MSTORE PUSH1 0x20 DUP2 ADD MLOAD PUSH1 0x20 DUP6 ADD MSTORE PUSH1 0x40 DUP2 ADD MLOAD PUSH1 0x40 DUP6 ADD MSTORE PUSH1 0x60 DUP2 ADD MLOAD PUSH1 0x60 DUP6 ADD MSTORE PUSH1 0x80 DUP2 ADD MLOAD PUSH1 0x80 DUP6 ADD MSTORE PUSH1 0xA0 DUP2 ADD MLOAD PUSH1 0xA0 DUP6 ADD MSTORE PUSH1 0xC0 DUP2 ADD MLOAD PUSH1 0xC0 DUP6 ADD MSTORE ADD MLOAD SWAP2 ADD MSTORE JUMP JUMPDEST PUSH1 0x0 JUMPDEST DUP4 DUP2 LT PUSH2 0x2230 JUMPI POP POP PUSH1 0x0 SWAP2 ADD MSTORE JUMP JUMPDEST DUP2 DUP2 ADD MLOAD DUP4 DUP3 ADD MSTORE PUSH1 0x20 ADD PUSH2 0x2220 JUMP JUMPDEST SWAP1 PUSH1 0x20 SWAP2 PUSH2 0x2259 DUP2 MLOAD DUP1 SWAP3 DUP2 DUP6 MSTORE DUP6 DUP1 DUP7 ADD SWAP2 ADD PUSH2 0x221D JUMP JUMPDEST PUSH1 0x1F ADD PUSH1 0x1F NOT AND ADD ADD SWAP1 JUMP JUMPDEST PUSH2 0x100 DUP2 ADD SWAP1 DUP2 LT PUSH8 0xFFFFFFFFFFFFFFFF DUP3 GT OR PUSH2 0x2282 JUMPI PUSH1 0x40 MSTORE JUMP JUMPDEST PUSH4 0x4E487B71 PUSH1 0xE0 SHL PUSH1 0x0 MSTORE PUSH1 0x41 PUSH1 0x4 MSTORE PUSH1 0x24 PUSH1 0x0 REVERT JUMPDEST PUSH8 0xFFFFFFFFFFFFFFFF DUP2 GT PUSH2 0x2282 JUMPI PUSH1 0x40 MSTORE JUMP JUMPDEST PUSH1 0xA0 DUP2 ADD SWAP1 DUP2 LT PUSH8 0xFFFFFFFFFFFFFFFF DUP3 GT OR PUSH2 0x2282 JUMPI PUSH1 0x40 MSTORE JUMP JUMPDEST PUSH1 0x80 DUP2 ADD SWAP1 DUP2 LT PUSH8 0xFFFFFFFFFFFFFFFF DUP3 GT OR PUSH2 0x2282 JUMPI PUSH1 0x40 MSTORE JUMP JUMPDEST PUSH1 0x20 DUP2 ADD SWAP1 DUP2 LT PUSH8 0xFFFFFFFFFFFFFFFF DUP3 GT OR PUSH2 0x2282 JUMPI PUSH1 0x40 MSTORE JUMP JUMPDEST SWAP1 PUSH1 0x1F DUP1 NOT SWAP2 ADD AND DUP2 ADD SWAP1 DUP2 LT PUSH8 0xFFFFFFFFFFFFFFFF DUP3 GT OR PUSH2 0x2282 JUMPI PUSH1 0x40 MSTORE JUMP JUMPDEST PUSH1 0x2 GT ISZERO PUSH2 0x232C JUMPI JUMP JUMPDEST PUSH4 0x4E487B71 PUSH1 0xE0 SHL PUSH1 0x0 MSTORE PUSH1 0x21 PUSH1 0x4 MSTORE PUSH1 0x24 PUSH1 0x0 REVERT JUMPDEST DUP2 PUSH1 0x1F DUP3 ADD SLT ISZERO PUSH2 0x8DF JUMPI DUP1 MLOAD PUSH8 0xFFFFFFFFFFFFFFFF DUP2 GT PUSH2 0x2282 JUMPI PUSH1 0x40 MLOAD SWAP3 PUSH2 0x2376 PUSH1 0x1F DUP4 ADD PUSH1 0x1F NOT AND PUSH1 0x20 ADD DUP6 PUSH2 0x2300 JUMP JUMPDEST DUP2 DUP5 MSTORE PUSH1 0x20 DUP3 DUP5 ADD ADD GT PUSH2 0x8DF JUMPI PUSH2 0x2394 SWAP2 PUSH1 0x20 DUP1 DUP6 ADD SWAP2 ADD PUSH2 0x221D JUMP JUMPDEST SWAP1 JUMP JUMPDEST MLOAD SWAP1 PUSH1 0x1 PUSH1 0x1 PUSH1 0xA0 SHL SUB DUP3 AND DUP3 SUB PUSH2 0x8DF JUMPI JUMP JUMPDEST SWAP2 SWAP1 SWAP2 PUSH1 0x40 DUP2 DUP5 SUB SLT PUSH2 0x8DF JUMPI PUSH2 0x23C1 DUP2 PUSH2 0x2397 JUMP JUMPDEST SWAP3 PUSH1 0x20 DUP3 ADD MLOAD PUSH8 0xFFFFFFFFFFFFFFFF DUP2 GT PUSH2 0x8DF JUMPI PUSH2 0x2394 SWAP3 ADD PUSH2 0x2342 JUMP JUMPDEST SWAP1 DUP2 PUSH1 0x20 SWAP2 SUB SLT PUSH2 0x8DF JUMPI MLOAD PUSH1 0x1 PUSH1 0x1 PUSH1 0xA0 SHL SUB DUP2 AND DUP2 SUB PUSH2 0x8DF JUMPI SWAP1 JUMP JUMPDEST SWAP1 PUSH1 0x40 DUP1 MLOAD SWAP3 PUSH2 0x140 DUP5 ADD DUP5 DUP2 LT PUSH8 0xFFFFFFFFFFFFFFFF DUP3 GT OR PUSH2 0x2282 JUMPI DUP3 MSTORE PUSH1 0x20 SWAP2 DUP3 DUP6 ADD SWAP3 PUSH1 0x0 DUP1 DUP6 MSTORE DUP3 DUP8 ADD DUP2 DUP2 MSTORE DUP2 PUSH1 0x60 DUP10 ADD MSTORE DUP2 PUSH1 0x80 DUP10 ADD MSTORE DUP2 PUSH1 0xA0 DUP10 ADD MSTORE DUP2 PUSH1 0xC0 DUP10 ADD MSTORE DUP2 PUSH1 0xE0 DUP10 ADD MSTORE PUSH2 0x100 SWAP6 DUP3 DUP8 DUP11 ADD MSTORE PUSH2 0x120 DUP10 ADD SWAP9 DUP4 DUP11 MSTORE DUP1 SWAP10 PUSH1 0x1 DUP1 PUSH1 0xA0 SHL SUB DUP1 SWAP9 AND SWAP4 DUP5 DUP4 MSTORE DUP8 MLOAD SWAP4 PUSH3 0x4D7B09 PUSH1 0xE8 SHL DUP6 MSTORE PUSH1 0x4 SWAP5 DUP9 DUP2 DUP8 DUP2 DUP11 GAS STATICCALL SWAP1 DUP2 ISZERO PUSH2 0x27A5 JUMPI SWAP1 DUP12 SWAP2 DUP10 SWAP2 PUSH2 0x27AF JUMPI JUMPDEST POP AND DUP2 MSTORE DUP9 MLOAD PUSH4 0x625048E9 PUSH1 0xE1 SHL DUP2 MSTORE DUP9 DUP2 DUP8 DUP2 DUP11 GAS STATICCALL SWAP1 DUP2 ISZERO PUSH2 0x27A5 JUMPI SWAP1 DUP12 SWAP3 SWAP2 DUP10 SWAP2 PUSH2 0x2766 JUMPI JUMPDEST POP DUP3 AND DUP1 SWAP4 MSTORE MLOAD AND DUP10 PUSH1 0x7 SLOAD AND EQ SWAP1 DUP2 PUSH2 0x2758 JUMPI JUMPDEST POP ISZERO SWAP1 DUP2 ISZERO SWAP1 MSTORE PUSH2 0x274D JUMPI POP DUP5 MLOAD SWAP1 PUSH4 0x3153115 PUSH1 0xE3 SHL DUP1 DUP4 MSTORE DUP5 DUP3 DUP5 ADD MSTORE DUP5 DUP4 PUSH1 0x24 DUP2 DUP8 GAS STATICCALL SWAP3 DUP4 ISZERO PUSH2 0x2743 JUMPI DUP6 SWAP4 PUSH2 0x2726 JUMPI JUMPDEST POP DUP7 MLOAD SWAP3 DUP2 DUP5 MSTORE PUSH1 0x1 DUP4 DUP6 ADD MSTORE DUP6 DUP5 PUSH1 0x24 DUP2 DUP9 GAS STATICCALL SWAP4 DUP5 ISZERO PUSH2 0x26D8 JUMPI DUP7 SWAP5 PUSH2 0x2709 JUMPI JUMPDEST POP DUP8 MLOAD SWAP2 DUP1 DUP4 MSTORE PUSH1 0x2 DUP5 DUP5 ADD MSTORE DUP7 DUP4 PUSH1 0x24 DUP2 DUP10 GAS STATICCALL SWAP3 DUP4 ISZERO PUSH2 0x26FF JUMPI SWAP1 DUP8 SWAP2 DUP3 SWAP5 PUSH2 0x26E2 JUMPI JUMPDEST POP PUSH1 0x24 DUP11 MLOAD DUP1 SWAP9 DUP2 SWAP4 DUP3 MSTORE PUSH1 0x3 DUP9 DUP4 ADD MSTORE GAS STATICCALL SWAP5 DUP6 ISZERO PUSH2 0x26D8 JUMPI SWAP2 DUP10 SWAP2 DUP8 SWAP7 SWAP6 SWAP5 SWAP4 DUP15 SWAP10 SWAP9 SWAP7 PUSH2 0x26AC JUMPI JUMPDEST POP PUSH1 0x80 DUP4 DUP1 SWAP3 AND SWAP10 DUP11 PUSH1 0x60 DUP3 ADD MSTORE ADD SWAP5 AND DUP5 MSTORE AND SWAP2 DUP3 PUSH1 0xA0 DUP14 ADD MSTORE DUP9 PUSH1 0xC0 DUP14 ADD SWAP5 AND DUP5 MSTORE PUSH2 0x25E0 DUP7 DUP11 PUSH1 0x6 SLOAD AND SWAP5 DUP11 MLOAD DUP1 SWAP4 DUP2 SWAP3 PUSH4 0xD9A641E1 PUSH1 0xE0 SHL SWAP13 DUP14 DUP5 MSTORE DUP9 DUP5 ADD SWAP1 PUSH1 0x20 SWAP1 SWAP4 SWAP3 SWAP4 PUSH1 0x40 DUP4 ADD SWAP5 PUSH1 0x1 DUP1 PUSH1 0xA0 SHL SUB DUP1 SWAP3 AND DUP5 MSTORE AND SWAP2 ADD MSTORE JUMP JUMPDEST SUB DUP2 DUP8 GAS STATICCALL SWAP1 DUP2 ISZERO PUSH2 0x26A2 JUMPI DUP8 SWAP6 SWAP5 SWAP4 SWAP3 DUP15 PUSH1 0xE0 DUP14 DUP1 SWAP6 DUP2 SWAP6 DUP13 SWAP2 PUSH2 0x2685 JUMPI JUMPDEST POP AND SWAP2 ADD MSTORE MLOAD SWAP5 MLOAD DUP11 MLOAD SWAP10 DUP11 MSTORE SWAP5 AND PUSH1 0x1 PUSH1 0x1 PUSH1 0xA0 SHL SUB SWAP1 DUP2 AND SWAP3 DUP10 ADD SWAP3 DUP4 MSTORE SWAP4 AND SWAP1 SWAP3 AND PUSH1 0x20 DUP4 ADD MSTORE DUP6 SWAP2 DUP3 SWAP1 DUP2 SWAP1 PUSH1 0x40 ADD SUB SWAP2 GAS STATICCALL SWAP4 DUP5 ISZERO PUSH2 0x267B JUMPI POP SWAP3 PUSH2 0x264E JUMPI JUMPDEST POP POP AND SWAP1 DUP4 ADD MSTORE JUMP JUMPDEST PUSH2 0x266D SWAP3 POP DUP1 RETURNDATASIZE LT PUSH2 0x2674 JUMPI JUMPDEST PUSH2 0x2665 DUP2 DUP4 PUSH2 0x2300 JUMP JUMPDEST DUP2 ADD SWAP1 PUSH2 0x23E0 JUMP JUMPDEST CODESIZE DUP1 PUSH2 0x2645 JUMP JUMPDEST POP RETURNDATASIZE PUSH2 0x265B JUMP JUMPDEST MLOAD SWAP1 RETURNDATASIZE SWAP1 DUP3 RETURNDATACOPY RETURNDATASIZE SWAP1 REVERT JUMPDEST PUSH2 0x269C SWAP2 POP DUP12 RETURNDATASIZE DUP14 GT PUSH2 0x2674 JUMPI PUSH2 0x2665 DUP2 DUP4 PUSH2 0x2300 JUMP JUMPDEST CODESIZE PUSH2 0x2600 JUMP JUMPDEST DUP10 MLOAD RETURNDATASIZE DUP9 DUP3 RETURNDATACOPY RETURNDATASIZE SWAP1 REVERT JUMPDEST DUP4 DUP1 SWAP3 SWAP8 POP PUSH2 0x26CE PUSH1 0x80 SWAP3 RETURNDATASIZE DUP1 DUP13 DUP4 RETURNDATACOPY PUSH2 0x26C6 DUP2 DUP4 PUSH2 0x2300 JUMP JUMPDEST DUP2 ADD SWAP1 PUSH2 0x23AB JUMP JUMPDEST POP SWAP8 SWAP3 POP POP PUSH2 0x257F JUMP JUMPDEST DUP9 MLOAD RETURNDATASIZE DUP9 DUP3 RETURNDATACOPY RETURNDATASIZE SWAP1 REVERT JUMPDEST PUSH2 0x26F7 SWAP2 SWAP5 POP RETURNDATASIZE DUP1 DUP5 DUP4 RETURNDATACOPY PUSH2 0x26C6 DUP2 DUP4 PUSH2 0x2300 JUMP JUMPDEST POP SWAP3 CODESIZE PUSH2 0x2554 JUMP JUMPDEST DUP10 MLOAD RETURNDATASIZE DUP10 DUP3 RETURNDATACOPY RETURNDATASIZE SWAP1 REVERT JUMPDEST PUSH2 0x271E SWAP2 SWAP5 POP RETURNDATASIZE DUP1 DUP9 DUP4 RETURNDATACOPY PUSH2 0x26C6 DUP2 DUP4 PUSH2 0x2300 JUMP JUMPDEST POP SWAP3 CODESIZE PUSH2 0x252E JUMP JUMPDEST PUSH2 0x273B SWAP2 SWAP4 POP RETURNDATASIZE DUP1 DUP8 DUP4 RETURNDATACOPY PUSH2 0x26C6 DUP2 DUP4 PUSH2 0x2300 JUMP JUMPDEST POP SWAP2 CODESIZE PUSH2 0x250B JUMP JUMPDEST DUP8 MLOAD RETURNDATASIZE DUP8 DUP3 RETURNDATACOPY RETURNDATASIZE SWAP1 REVERT JUMPDEST SWAP9 POP POP POP POP POP POP POP POP JUMP JUMPDEST SWAP1 POP DUP9 PUSH1 0x8 SLOAD AND EQ CODESIZE PUSH2 0x24D6 JUMP JUMPDEST DUP1 SWAP3 SWAP4 POP DUP11 DUP1 SWAP3 POP RETURNDATASIZE DUP4 GT PUSH2 0x279E JUMPI JUMPDEST PUSH2 0x2780 DUP2 DUP4 PUSH2 0x2300 JUMP JUMPDEST DUP2 ADD SUB SLT PUSH2 0x279A JUMPI SWAP1 DUP11 PUSH2 0x2794 DUP2 SWAP4 PUSH2 0x2397 JUMP JUMPDEST SWAP1 PUSH2 0x24C1 JUMP JUMPDEST DUP8 DUP1 REVERT JUMPDEST POP RETURNDATASIZE PUSH2 0x2776 JUMP JUMPDEST DUP11 MLOAD RETURNDATASIZE DUP11 DUP3 RETURNDATACOPY RETURNDATASIZE SWAP1 REVERT JUMPDEST DUP1 SWAP3 POP DUP11 DUP1 SWAP3 POP RETURNDATASIZE DUP4 GT PUSH2 0x27E0 JUMPI JUMPDEST PUSH2 0x27C8 DUP2 DUP4 PUSH2 0x2300 JUMP JUMPDEST DUP2 ADD SUB SLT PUSH2 0x279A JUMPI PUSH2 0x27DA DUP12 SWAP2 PUSH2 0x2397 JUMP JUMPDEST CODESIZE PUSH2 0x2498 JUMP JUMPDEST POP RETURNDATASIZE PUSH2 0x27BE JUMP JUMPDEST SWAP1 DUP2 PUSH1 0x20 SWAP2 SUB SLT PUSH2 0x8DF JUMPI MLOAD DUP1 ISZERO ISZERO DUP2 SUB PUSH2 0x8DF JUMPI SWAP1 JUMP JUMPDEST PUSH1 0x0 SLOAD PUSH1 0x1 PUSH1 0x1 PUSH1 0xA0 SHL SUB AND CALLER SUB PUSH2 0x2813 JUMPI JUMP JUMPDEST PUSH1 0x40 MLOAD PUSH4 0x118CDAA7 PUSH1 0xE0 SHL DUP2 MSTORE CALLER PUSH1 0x4 DUP3 ADD MSTORE PUSH1 0x24 SWAP1 REVERT JUMPDEST PUSH1 0x40 MLOAD PUSH4 0xA9059CBB PUSH1 0xE0 SHL PUSH1 0x20 DUP3 DUP2 ADD SWAP2 DUP3 MSTORE PUSH1 0x1 PUSH1 0x1 PUSH1 0xA0 SHL SUB SWAP1 SWAP5 AND PUSH1 0x24 DUP4 ADD MSTORE PUSH1 0x44 DUP3 ADD SWAP5 SWAP1 SWAP5 MSTORE SWAP1 SWAP3 PUSH1 0x0 SWAP2 PUSH2 0x2868 DUP2 PUSH1 0x64 DUP2 ADD PUSH2 0x868 JUMP JUMPDEST MLOAD SWAP1 DUP3 DUP6 GAS CALL ISZERO PUSH2 0x28BB JUMPI PUSH1 0x0 MLOAD RETURNDATASIZE PUSH2 0x28B2 JUMPI POP PUSH1 0x1 PUSH1 0x1 PUSH1 0xA0 SHL SUB DUP2 AND EXTCODESIZE ISZERO JUMPDEST PUSH2 0x2890 JUMPI POP JUMP JUMPDEST PUSH1 0x40 MLOAD PUSH4 0x5274AFE7 PUSH1 0xE0 SHL DUP2 MSTORE PUSH1 0x1 PUSH1 0x1 PUSH1 0xA0 SHL SUB SWAP1 SWAP2 AND PUSH1 0x4 DUP3 ADD MSTORE PUSH1 0x24 SWAP1 REVERT JUMPDEST PUSH1 0x1 EQ ISZERO PUSH2 0x2889 JUMP JUMPDEST PUSH1 0x40 MLOAD RETURNDATASIZE PUSH1 0x0 DUP3 RETURNDATACOPY RETURNDATASIZE SWAP1 REVERT JUMPDEST PUSH1 0x1 PUSH1 0x1 PUSH1 0xA0 SHL SUB SWAP1 DUP2 AND SWAP3 SWAP1 SWAP2 SWAP1 DUP4 ISZERO DUP1 ISZERO PUSH2 0x2B0A JUMPI JUMPDEST PUSH2 0x2B01 JUMPI PUSH1 0x40 SWAP4 DUP5 MLOAD SWAP2 PUSH4 0xDFE1681 PUSH1 0xE0 SHL DUP4 MSTORE PUSH1 0x20 SWAP4 PUSH1 0x4 SWAP3 DUP6 DUP6 DUP6 DUP2 DUP5 GAS STATICCALL SWAP5 DUP6 ISZERO PUSH2 0x2AAA JUMPI SWAP1 DUP7 SWAP2 PUSH1 0x0 SWAP7 PUSH2 0x2ADC JUMPI JUMPDEST POP DUP9 MLOAD PUSH4 0xD21220A7 PUSH1 0xE0 SHL DUP2 MSTORE SWAP3 SWAP2 SWAP1 DUP4 SWAP1 DUP7 SWAP1 DUP3 SWAP1 GAS STATICCALL SWAP2 DUP3 ISZERO PUSH2 0x2AAA JUMPI SWAP1 DUP8 SWAP2 PUSH1 0x0 SWAP4 PUSH2 0x2ABD JUMPI JUMPDEST POP AND SWAP4 DUP7 DUP2 AND DUP6 SUB PUSH2 0x2AB5 JUMPI POP SWAP1 JUMPDEST DUP3 SLOAD DUP8 MLOAD PUSH4 0x95EA7B3 PUSH1 0xE0 SHL DUP2 MSTORE SWAP1 DUP8 AND PUSH1 0x1 PUSH1 0x1 PUSH1 0xA0 SHL SUB AND DUP2 DUP6 ADD SWAP1 DUP2 MSTORE PUSH1 0x20 DUP2 ADD DUP4 SWAP1 MSTORE DUP7 SWAP1 DUP3 SWAP1 DUP2 SWAP1 PUSH1 0x40 ADD SUB DUP2 PUSH1 0x0 DUP10 GAS CALL DUP1 ISZERO PUSH2 0x2AAA JUMPI PUSH2 0x2A8D JUMPI JUMPDEST POP DUP7 MLOAD SWAP4 PUSH1 0xE0 DUP6 ADD DUP6 DUP2 LT PUSH8 0xFFFFFFFFFFFFFFFF DUP3 GT OR PUSH2 0x2A78 JUMPI SWAP3 DUP8 SWAP3 DUP8 SWAP7 SWAP6 SWAP3 DUP11 SWAP6 DUP7 MSTORE DUP7 MSTORE DUP4 DUP8 DUP8 ADD SWAP3 AND DUP3 MSTORE DUP5 DUP7 ADD ADDRESS DUP2 MSTORE DUP5 PUSH1 0x60 DUP9 ADD SWAP2 TIMESTAMP DUP4 MSTORE PUSH1 0x80 DUP10 ADD SWAP4 DUP5 MSTORE DUP2 PUSH1 0xA0 DUP11 ADD SWAP6 PUSH1 0x0 DUP8 MSTORE PUSH1 0xC0 DUP12 ADD SWAP8 PUSH1 0x0 DUP10 MSTORE DUP3 DUP2 SLOAD AND SWAP11 MLOAD SWAP15 DUP16 SWAP13 DUP14 PUSH4 0x178CA231 PUSH1 0xE3 SHL SWAP1 MSTORE MLOAD AND SWAP1 DUP13 ADD MSTORE MLOAD AND PUSH1 0x24 DUP11 ADD MSTORE MLOAD AND PUSH1 0x44 DUP9 ADD MSTORE MLOAD PUSH1 0x64 DUP8 ADD MSTORE MLOAD PUSH1 0x84 DUP7 ADD MSTORE MLOAD PUSH1 0xA4 DUP6 ADD MSTORE MLOAD AND PUSH1 0xC4 DUP4 ADD MSTORE DUP2 GAS PUSH1 0xE4 SWAP3 PUSH1 0x0 SWAP2 CALL SWAP3 DUP4 ISZERO PUSH2 0x2A6E JUMPI POP PUSH1 0x0 SWAP3 PUSH2 0x2A44 JUMPI POP POP SWAP1 JUMP JUMPDEST SWAP1 DUP1 SWAP3 POP DUP2 RETURNDATASIZE DUP4 GT PUSH2 0x2A67 JUMPI JUMPDEST PUSH2 0x2A5B DUP2 DUP4 PUSH2 0x2300 JUMP JUMPDEST DUP2 ADD SUB SLT PUSH2 0x8DF JUMPI MLOAD SWAP1 JUMP JUMPDEST POP RETURNDATASIZE PUSH2 0x2A51 JUMP JUMPDEST MLOAD RETURNDATASIZE PUSH1 0x0 DUP3 RETURNDATACOPY RETURNDATASIZE SWAP1 REVERT JUMPDEST PUSH1 0x41 DUP6 PUSH4 0x4E487B71 PUSH1 0xE0 SHL PUSH1 0x0 MSTORE MSTORE PUSH1 0x24 PUSH1 0x0 REVERT JUMPDEST PUSH2 0x2AA3 SWAP1 DUP7 RETURNDATASIZE DUP9 GT PUSH2 0xB2F JUMPI PUSH2 0xB20 DUP2 DUP4 PUSH2 0x2300 JUMP JUMPDEST POP CODESIZE PUSH2 0x298D JUMP JUMPDEST DUP9 MLOAD RETURNDATASIZE PUSH1 0x0 DUP3 RETURNDATACOPY RETURNDATASIZE SWAP1 REVERT JUMPDEST SWAP1 POP SWAP1 PUSH2 0x294B JUMP JUMPDEST PUSH2 0x2AD5 SWAP2 SWAP4 POP DUP8 RETURNDATASIZE DUP10 GT PUSH2 0x2674 JUMPI PUSH2 0x2665 DUP2 DUP4 PUSH2 0x2300 JUMP JUMPDEST SWAP2 CODESIZE PUSH2 0x293C JUMP JUMPDEST DUP3 SWAP2 SWAP7 POP PUSH2 0x2AF8 SWAP1 DUP7 SWAP5 SWAP4 RETURNDATASIZE DUP5 GT PUSH2 0x2674 JUMPI PUSH2 0x2665 DUP2 DUP4 PUSH2 0x2300 JUMP JUMPDEST SWAP6 SWAP1 SWAP2 SWAP3 PUSH2 0x2912 JUMP JUMPDEST POP POP POP POP PUSH1 0x0 SWAP1 JUMP JUMPDEST POP DUP1 ISZERO PUSH2 0x28DF JUMP JUMPDEST DUP1 MLOAD ISZERO PUSH2 0x2B1F JUMPI PUSH1 0x20 ADD SWAP1 JUMP JUMPDEST PUSH4 0x4E487B71 PUSH1 0xE0 SHL PUSH1 0x0 MSTORE PUSH1 0x32 PUSH1 0x4 MSTORE PUSH1 0x24 PUSH1 0x0 REVERT JUMPDEST DUP1 MLOAD PUSH1 0x1 LT ISZERO PUSH2 0x2B1F JUMPI PUSH1 0x40 ADD SWAP1 JUMP JUMPDEST DUP1 MLOAD PUSH1 0x2 LT ISZERO PUSH2 0x2B1F JUMPI PUSH1 0x60 ADD SWAP1 JUMP JUMPDEST DUP1 MLOAD PUSH1 0x3 LT ISZERO PUSH2 0x2B1F JUMPI PUSH1 0x80 ADD SWAP1 JUMP JUMPDEST PUSH1 0x40 DUP1 MLOAD SWAP2 PUSH2 0x2B73 DUP4 PUSH2 0x22C8 JUMP JUMPDEST PUSH1 0x3 DUP4 MSTORE DUP3 SWAP2 PUSH1 0x0 JUMPDEST PUSH1 0x60 DUP1 DUP3 LT ISZERO PUSH2 0x2BBD JUMPI DUP3 MLOAD PUSH1 0x20 SWAP3 SWAP2 PUSH2 0x2B95 DUP3 PUSH2 0x22AC JUMP JUMPDEST PUSH1 0x0 DUP3 MSTORE DUP4 SWAP1 PUSH1 0x0 DUP3 DUP5 ADD MSTORE PUSH1 0x0 DUP7 DUP5 ADD MSTORE PUSH1 0x0 DUP2 DUP5 ADD MSTORE PUSH1 0x80 DUP4 ADD MSTORE DUP3 DUP9 ADD ADD MSTORE ADD PUSH2 0x2B7C JUMP JUMPDEST POP POP POP SWAP1 SWAP2 POP JUMP JUMPDEST SWAP1 PUSH1 0x20 SWAP1 DUP2 DUP4 DUP3 SUB SLT PUSH2 0x8DF JUMPI DUP3 MLOAD PUSH8 0xFFFFFFFFFFFFFFFF SWAP4 DUP5 DUP3 GT PUSH2 0x8DF JUMPI ADD DUP2 PUSH1 0x1F DUP3 ADD SLT ISZERO PUSH2 0x8DF JUMPI DUP1 MLOAD SWAP4 DUP5 GT PUSH2 0x2282 JUMPI DUP4 PUSH1 0x5 SHL SWAP1 PUSH1 0x40 MLOAD SWAP5 PUSH2 0x2C0F DUP6 DUP5 ADD DUP8 PUSH2 0x2300 JUMP JUMPDEST DUP6 MSTORE DUP4 DUP1 DUP7 ADD SWAP3 DUP3 ADD ADD SWAP3 DUP4 GT PUSH2 0x8DF JUMPI DUP4 ADD SWAP1 JUMPDEST DUP3 DUP3 LT PUSH2 0x2C32 JUMPI POP POP POP POP SWAP1 JUMP JUMPDEST DUP2 MLOAD DUP2 MSTORE SWAP1 DUP4 ADD SWAP1 DUP4 ADD PUSH2 0x2C24 JUMP INVALID LOG2 PUSH5 0x6970667358 0x22 SLT KECCAK256 0xC8 TLOAD 0xC0 DUP9 0x4D 0xE3 BLOBBASEFEE 0x22 JUMPI 0xBF AND CREATE2 CALLER 0xC7 0xCF 0xBB MULMOD REVERT LOG0 COINBASE PUSH12 0xB4A246EE8F58152A7A191B64 PUSH20 0x6F6C634300081800330000000000000000000000 "},"methodIdentifiers":{"algebraFactory()":"a7b64b04","balancerV2Vault()":"10c0a157","balancerVault()":"158274a5","executeArbitrage(address,address,uint256,uint8,uint256)":"0774f1bb","futarchyRouter()":"0db188b1","gnoToken()":"c61f2184","loadProposal(address)":"4c16effc","onUnlock(address,uint256)":"75140be4","owner()":"8da5cb5b","recoverTokens(address,uint256)":"069c9fae","renounceOwnership()":"715018a6","sdaiToken()":"aeda99ef","swaprRouter()":"4ad74299","transferOwnership(address)":"f2fde38b"}}}}}