{
  "_format": "hh-sol-artifact-1",
  "contractName": "GnosisFlashArbitrageV2",
  "sourceName": "contracts/GnosisFlashArbitrageV2.sol",
  "abi": [
    {
      "inputs": [
        {
          "internalType": "address",
          "name": "_balancerVault",
          "type": "address"
        },
        {
          "internalType": "address",
          "name": "_swaprRouter",
          "type": "address"
        },
        {
          "internalType": "address",
          "name": "_futarchyRouter",
          "type": "address"
        },
        {
          "internalType": "address",
          "name": "_algebraFactory",
          "type": "address"
        },
        {
          "internalType": "address",
          "name": "_gnoToken",
          "type": "address"
        },
        {
          "internalType": "address",
          "name": "_sdaiToken",
          "type": "address"
        }
      ],
      "stateMutability": "nonpayable",
      "type": "constructor"
    },
    {
      "inputs": [
        {
          "internalType": "address",
          "name": "owner",
          "type": "address"
        }
      ],
      "name": "OwnableInvalidOwner",
      "type": "error"
    },
    {
      "inputs": [
        {
          "internalType": "address",
          "name": "account",
          "type": "address"
        }
      ],
      "name": "OwnableUnauthorizedAccount",
      "type": "error"
    },
    {
      "inputs": [],
      "name": "ReentrancyGuardReentrantCall",
      "type": "error"
    },
    {
      "inputs": [
        {
          "internalType": "address",
          "name": "token",
          "type": "address"
        }
      ],
      "name": "SafeERC20FailedOperation",
      "type": "error"
    },
    {
      "anonymous": false,
      "inputs": [
        {
          "indexed": true,
          "internalType": "address",
          "name": "proposal",
          "type": "address"
        },
        {
          "indexed": false,
          "internalType": "enum GnosisFlashArbitrageV2.ArbitrageDirection",
          "name": "direction",
          "type": "uint8"
        },
        {
          "indexed": false,
          "internalType": "address",
          "name": "borrowToken",
          "type": "address"
        },
        {
          "indexed": false,
          "internalType": "uint256",
          "name": "borrowAmount",
          "type": "uint256"
        },
        {
          "indexed": false,
          "internalType": "uint256",
          "name": "profit",
          "type": "uint256"
        },
        {
          "indexed": false,
          "internalType": "address",
          "name": "profitRecipient",
          "type": "address"
        }
      ],
      "name": "ArbitrageExecuted",
      "type": "event"
    },
    {
      "anonymous": false,
      "inputs": [
        {
          "indexed": true,
          "internalType": "address",
          "name": "previousOwner",
          "type": "address"
        },
        {
          "indexed": true,
          "internalType": "address",
          "name": "newOwner",
          "type": "address"
        }
      ],
      "name": "OwnershipTransferred",
      "type": "event"
    },
    {
      "anonymous": false,
      "inputs": [
        {
          "indexed": true,
          "internalType": "address",
          "name": "proposal",
          "type": "address"
        },
        {
          "indexed": false,
          "internalType": "address",
          "name": "yesPool",
          "type": "address"
        },
        {
          "indexed": false,
          "internalType": "uint128",
          "name": "yesLiquidity",
          "type": "uint128"
        },
        {
          "indexed": false,
          "internalType": "address",
          "name": "noPool",
          "type": "address"
        },
        {
          "indexed": false,
          "internalType": "uint128",
          "name": "noLiquidity",
          "type": "uint128"
        }
      ],
      "name": "PoolsDiscovered",
      "type": "event"
    },
    {
      "anonymous": false,
      "inputs": [
        {
          "indexed": true,
          "internalType": "address",
          "name": "proposal",
          "type": "address"
        },
        {
          "indexed": false,
          "internalType": "address",
          "name": "yesGno",
          "type": "address"
        },
        {
          "indexed": false,
          "internalType": "address",
          "name": "noGno",
          "type": "address"
        },
        {
          "indexed": false,
          "internalType": "address",
          "name": "yesSdai",
          "type": "address"
        },
        {
          "indexed": false,
          "internalType": "address",
          "name": "noSdai",
          "type": "address"
        },
        {
          "indexed": false,
          "internalType": "address",
          "name": "yesPool",
          "type": "address"
        },
        {
          "indexed": false,
          "internalType": "address",
          "name": "noPool",
          "type": "address"
        }
      ],
      "name": "ProposalValidated",
      "type": "event"
    },
    {
      "inputs": [],
      "name": "algebraFactory",
      "outputs": [
        {
          "internalType": "contract IAlgebraFactory",
          "name": "",
          "type": "address"
        }
      ],
      "stateMutability": "view",
      "type": "function"
    },
    {
      "inputs": [
        {
          "internalType": "address",
          "name": "proposalAddress",
          "type": "address"
        }
      ],
      "name": "analyzeArbitrageOpportunity",
      "outputs": [
        {
          "components": [
            {
              "internalType": "address",
              "name": "proposal",
              "type": "address"
            },
            {
              "internalType": "address",
              "name": "collateralToken1",
              "type": "address"
            },
            {
              "internalType": "address",
              "name": "collateralToken2",
              "type": "address"
            },
            {
              "internalType": "address",
              "name": "yesGno",
              "type": "address"
            },
            {
              "internalType": "address",
              "name": "noGno",
              "type": "address"
            },
            {
              "internalType": "address",
              "name": "yesSdai",
              "type": "address"
            },
            {
              "internalType": "address",
              "name": "noSdai",
              "type": "address"
            },
            {
              "internalType": "address",
              "name": "yesPool",
              "type": "address"
            },
            {
              "internalType": "address",
              "name": "noPool",
              "type": "address"
            },
            {
              "internalType": "bool",
              "name": "isValid",
              "type": "bool"
            }
          ],
          "internalType": "struct GnosisFlashArbitrageV2.ProposalInfo",
          "name": "proposalInfo",
          "type": "tuple"
        },
        {
          "components": [
            {
              "internalType": "address",
              "name": "pool",
              "type": "address"
            },
            {
              "internalType": "address",
              "name": "token0",
              "type": "address"
            },
            {
              "internalType": "address",
              "name": "token1",
              "type": "address"
            },
            {
              "internalType": "uint160",
              "name": "sqrtPriceX96",
              "type": "uint160"
            },
            {
              "internalType": "uint128",
              "name": "liquidity",
              "type": "uint128"
            },
            {
              "internalType": "bool",
              "name": "exists",
              "type": "bool"
            }
          ],
          "internalType": "struct GnosisFlashArbitrageV2.PoolInfo",
          "name": "yesPoolInfo",
          "type": "tuple"
        },
        {
          "components": [
            {
              "internalType": "address",
              "name": "pool",
              "type": "address"
            },
            {
              "internalType": "address",
              "name": "token0",
              "type": "address"
            },
            {
              "internalType": "address",
              "name": "token1",
              "type": "address"
            },
            {
              "internalType": "uint160",
              "name": "sqrtPriceX96",
              "type": "uint160"
            },
            {
              "internalType": "uint128",
              "name": "liquidity",
              "type": "uint128"
            },
            {
              "internalType": "bool",
              "name": "exists",
              "type": "bool"
            }
          ],
          "internalType": "struct GnosisFlashArbitrageV2.PoolInfo",
          "name": "noPoolInfo",
          "type": "tuple"
        }
      ],
      "stateMutability": "view",
      "type": "function"
    },
    {
      "inputs": [],
      "name": "balancerVault",
      "outputs": [
        {
          "internalType": "contract IBalancerVault",
          "name": "",
          "type": "address"
        }
      ],
      "stateMutability": "view",
      "type": "function"
    },
    {
      "inputs": [
        {
          "internalType": "address",
          "name": "proposalAddress",
          "type": "address"
        },
        {
          "internalType": "address",
          "name": "borrowToken",
          "type": "address"
        },
        {
          "internalType": "uint256",
          "name": "borrowAmount",
          "type": "uint256"
        },
        {
          "internalType": "enum GnosisFlashArbitrageV2.ArbitrageDirection",
          "name": "direction",
          "type": "uint8"
        },
        {
          "internalType": "uint256",
          "name": "minProfit",
          "type": "uint256"
        }
      ],
      "name": "executeProposalArbitrage",
      "outputs": [],
      "stateMutability": "nonpayable",
      "type": "function"
    },
    {
      "inputs": [],
      "name": "futarchyRouter",
      "outputs": [
        {
          "internalType": "contract IFutarchyRouter",
          "name": "",
          "type": "address"
        }
      ],
      "stateMutability": "view",
      "type": "function"
    },
    {
      "inputs": [
        {
          "internalType": "address",
          "name": "poolAddress",
          "type": "address"
        }
      ],
      "name": "getPoolInfo",
      "outputs": [
        {
          "components": [
            {
              "internalType": "address",
              "name": "pool",
              "type": "address"
            },
            {
              "internalType": "address",
              "name": "token0",
              "type": "address"
            },
            {
              "internalType": "address",
              "name": "token1",
              "type": "address"
            },
            {
              "internalType": "uint160",
              "name": "sqrtPriceX96",
              "type": "uint160"
            },
            {
              "internalType": "uint128",
              "name": "liquidity",
              "type": "uint128"
            },
            {
              "internalType": "bool",
              "name": "exists",
              "type": "bool"
            }
          ],
          "internalType": "struct GnosisFlashArbitrageV2.PoolInfo",
          "name": "info",
          "type": "tuple"
        }
      ],
      "stateMutability": "view",
      "type": "function"
    },
    {
      "inputs": [],
      "name": "gnoToken",
      "outputs": [
        {
          "internalType": "address",
          "name": "",
          "type": "address"
        }
      ],
      "stateMutability": "view",
      "type": "function"
    },
    {
      "inputs": [
        {
          "internalType": "address",
          "name": "proposalAddress",
          "type": "address"
        }
      ],
      "name": "loadProposal",
      "outputs": [
        {
          "components": [
            {
              "internalType": "address",
              "name": "proposal",
              "type": "address"
            },
            {
              "internalType": "address",
              "name": "collateralToken1",
              "type": "address"
            },
            {
              "internalType": "address",
              "name": "collateralToken2",
              "type": "address"
            },
            {
              "internalType": "address",
              "name": "yesGno",
              "type": "address"
            },
            {
              "internalType": "address",
              "name": "noGno",
              "type": "address"
            },
            {
              "internalType": "address",
              "name": "yesSdai",
              "type": "address"
            },
            {
              "internalType": "address",
              "name": "noSdai",
              "type": "address"
            },
            {
              "internalType": "address",
              "name": "yesPool",
              "type": "address"
            },
            {
              "internalType": "address",
              "name": "noPool",
              "type": "address"
            },
            {
              "internalType": "bool",
              "name": "isValid",
              "type": "bool"
            }
          ],
          "internalType": "struct GnosisFlashArbitrageV2.ProposalInfo",
          "name": "info",
          "type": "tuple"
        }
      ],
      "stateMutability": "view",
      "type": "function"
    },
    {
      "inputs": [],
      "name": "owner",
      "outputs": [
        {
          "internalType": "address",
          "name": "",
          "type": "address"
        }
      ],
      "stateMutability": "view",
      "type": "function"
    },
    {
      "inputs": [
        {
          "internalType": "contract IERC20[]",
          "name": "tokens",
          "type": "address[]"
        },
        {
          "internalType": "uint256[]",
          "name": "amounts",
          "type": "uint256[]"
        },
        {
          "internalType": "uint256[]",
          "name": "feeAmounts",
          "type": "uint256[]"
        },
        {
          "internalType": "bytes",
          "name": "userData",
          "type": "bytes"
        }
      ],
      "name": "receiveFlashLoan",
      "outputs": [],
      "stateMutability": "nonpayable",
      "type": "function"
    },
    {
      "inputs": [
        {
          "internalType": "address",
          "name": "token",
          "type": "address"
        },
        {
          "internalType": "uint256",
          "name": "amount",
          "type": "uint256"
        }
      ],
      "name": "recoverTokens",
      "outputs": [],
      "stateMutability": "nonpayable",
      "type": "function"
    },
    {
      "inputs": [],
      "name": "renounceOwnership",
      "outputs": [],
      "stateMutability": "nonpayable",
      "type": "function"
    },
    {
      "inputs": [],
      "name": "sdaiToken",
      "outputs": [
        {
          "internalType": "address",
          "name": "",
          "type": "address"
        }
      ],
      "stateMutability": "view",
      "type": "function"
    },
    {
      "inputs": [
        {
          "internalType": "address",
          "name": "_balancerVault",
          "type": "address"
        },
        {
          "internalType": "address",
          "name": "_swaprRouter",
          "type": "address"
        },
        {
          "internalType": "address",
          "name": "_futarchyRouter",
          "type": "address"
        },
        {
          "internalType": "address",
          "name": "_algebraFactory",
          "type": "address"
        }
      ],
      "name": "setContracts",
      "outputs": [],
      "stateMutability": "nonpayable",
      "type": "function"
    },
    {
      "inputs": [
        {
          "internalType": "address",
          "name": "_gno",
          "type": "address"
        },
        {
          "internalType": "address",
          "name": "_sdai",
          "type": "address"
        }
      ],
      "name": "setExpectedTokens",
      "outputs": [],
      "stateMutability": "nonpayable",
      "type": "function"
    },
    {
      "inputs": [],
      "name": "swaprRouter",
      "outputs": [
        {
          "internalType": "contract IAlgebraSwapRouter",
          "name": "",
          "type": "address"
        }
      ],
      "stateMutability": "view",
      "type": "function"
    },
    {
      "inputs": [
        {
          "internalType": "address",
          "name": "newOwner",
          "type": "address"
        }
      ],
      "name": "transferOwnership",
      "outputs": [],
      "stateMutability": "nonpayable",
      "type": "function"
    },
    {
      "stateMutability": "payable",
      "type": "receive"
    }
  ],
  "bytecode": "0x6080346200015657601f6200261a38819003918201601f19168301916001600160401b038311848410176200015b5780849260c09460405283398101031262000156576200004d8162000171565b6200005b6020830162000171565b916200006a6040820162000171565b90620000796060820162000171565b916200009660a06200008e6080850162000171565b930162000171565b9133156200013d576000549560018060a01b03948580948180948160018060a01b03199b8d8d339116176000556040519d823391167f8be0079c531659141344cd1fd0a4f28419497f9722a3daafe3b4186f6b6457e0600080a360018055168b600254161760025516896003541617600355168760045416176004551685600554161760055516836006541617600655169060075416176007556124939081620001878239f35b604051631e4fbdf760e01b815260006004820152602490fd5b600080fd5b634e487b7160e01b600052604160045260246000fd5b51906001600160a01b0382168203620001565756fe6080604052600436101561001b575b361561001957600080fd5b005b600060e08135811c908163069c9fae1461176657816306bfa938146117355781630db188b11461170c578163158274a5146116e35781634ad74299146116ba5781634c16effc1461168857816350b1776a146115d7578163715018a61461157d5781638da5cb5b14611556578163a7b64b041461152d578163aeda99ef14611504578163b4830f5614610f83578163bf989b6e14610eb1578163c61f218414610e88578163e2d1af1e14610e32578163f04f270714610172575063f2fde38b146100e5575061000e565b3461016f57602036600319011261016f576100fe61179f565b610106612128565b6001600160a01b0390811690811561015657600054826001600160601b0360a01b821617600055167f8be0079c531659141344cd1fd0a4f28419497f9722a3daafe3b4186f6b6457e0600080a380f35b604051631e4fbdf760e01b815260048101849052602490fd5b80fd5b823461016f57608036600319011261016f5767ffffffffffffffff91600435838111610e2e5736602382011215610e2e5760249360048201356101b4816118fe565b926101c260405194856118dc565b818452602091878386019160051b83010191368311610ce1578801905b828210610e0f575050508535828111610e0b57610200903690600401611916565b92604435838111610e0757610219903690600401611916565b94606435938411610e075736602385011215610e075783600401359561023e87611976565b9661024c60405198896118dc565b80885284880195368b8383010111610d2557818a928c8893018937890101526002546001600160a01b03959086163303610dcd576040888051810103126108855751968588168098036108855760400151926004841015610885576102bf866102b76102c6936120bf565b5116976120bf565b51916120bf565b51810196878211610dba57856102dc8892611d49565b93856104cd578461030695965001818151161515806104bd575b6102ff906121f3565b5116612235565b5060a081015183168481036104b85750826060820151165b6040516370a0823160e01b81523060048201529083828a818885165afa9182156104ad57889261047e575b508482610465575b505050505b6040516370a0823160e01b815230600482015281818881875afa90811561045a578691610428575b508481106103e6578461039091612105565b600b54116103ac57506103a99394506002541690612154565b80f35b6064906014876040519262461bcd60e51b845260048401528201527350726f6669742062656c6f77206d696e696d756d60601b6044820152fd5b606487836040519162461bcd60e51b83528160048401528201527f496e73756666696369656e7420746f20726570617920666c617368206c6f616e6044820152fd5b90508181813d8311610453575b61043f81836118dc565b8101031261044e57518761037e565b600080fd5b503d610435565b6040513d88823e3d90fd5b61010061047494015116612235565b5086808084610351565b9091508381813d83116104a6575b61049681836118dc565b8101031261044e57519089610349565b503d61048c565b6040513d8a823e3d90fd5b61031e565b50610100860151821615156102f6565b9150929193600181146000146105b6575061050890820193838551161515806105a6575b6104fa906121f3565b878461010085015116612235565b5060c0810151821686810361059e575060800151165b6040516370a0823160e01b81523060048201529083828a818885165afa9182156104ad57889261056f575b50848261055a575b50505050610356565b610565935116612235565b5086808084610551565b9091508381813d8311610597575b61058781836118dc565b8101031261044e57519089610549565b503d61057d565b91505061051e565b50610100830151841615156104f1565b9192909160028103610af15750506040820190858251168714610a9a5784830180516004805460405163095ea7b360e01b808252918b166001600160a01b03169281019290925260248201889052969291889082908b16818f816044810103925af1801561095357610a62575b50876004541690888087511691511690823b15610a5e576040516301abf04560e71b81526001600160a01b0391821660048201529116602482015260448101929092528a908290606490829084905af18015610a5357908a91610a3f575b505060608301908a8783511692876040518093816370a0823160e01b978882523060048301525afa918215610953578c92610a10575b508882151580610a02575b6109e6575b50505050608083018a8688835116604051928380928782523060048301525afa90811561090c578b916109b9575b50801515806109a9575b61098b575b505060a08301938a8688875116604051928380928782523060048301525afa90811561090c578b9161095e575b508b8760c08701948a865116926040518094819382523060048301525afa908115610953579188918a938e9161091f575b50808210156109175750965b87610781575b5050505050505050610356565b5160048054604051868152908c166001600160a01b0316918101919091526024810189905292839116818e816044810103925af1801561090c579188879289946108c8575b509351600480546040519384528b166001600160a01b031690830152602482019290925292839116818c81604481015b03925af180156108bd57610889575b508480806004541693511691511690823b1561088557604051637abef8d160e01b81526001600160a01b03918216600482015291166024820152604481019290925286908290606490829084905af1801561045a5790869161086d575b808080868682610774565b61087690611896565b610881578487610862565b8480fd5b8880fd5b8481813d83116108b6575b61089e81836118dc565b81010312610885576108af90611a11565b5089610805565b503d610894565b6040513d8b823e3d90fd5b925050929181813d8311610905575b6108e181836118dc565b81010312610901576107f6928888936108fa8994611a11565b50946107c6565b8a80fd5b503d6108d7565b6040513d8d823e3d90fd5b90509661076e565b92809294508391503d831161094c575b61093981836118dc565b8101031261044e5788918891518f610762565b503d61092f565b6040513d8e823e3d90fd5b90508681813d8311610984575b61097581836118dc565b8101031261044e57518c610731565b503d61096b565b6109a19188806101008801511691511690612235565b508a80610704565b50876101008601511615156106ff565b90508681813d83116109df575b6109d081836118dc565b8101031261044e57518c6106f5565b503d6109c6565b806109f8948801511691511690612235565b508a8080886106c7565b5080848801511615156106c2565b9091508781813d8311610a38575b610a2881836118dc565b8101031261044e5751908d6106b7565b503d610a1e565b610a4890611896565b61088557888b610681565b6040513d8c823e3d90fd5b8c80fd5b8781813d8311610a93575b610a7781836118dc565b81010312610a8f57610a8890611a11565b508c610623565b8b80fd5b503d610a6d565b60405162461bcd60e51b815260048101869052602a818c01527f53504f545f53504c495420726571756972657320626f72726f77696e6720474e6044820152694f206469726563746c7960b01b6064820152608490fd5b600390949192939414610b075750505050610356565b60011c9183015116818682610da8575b5050508361010083015116908582610d96575b50505060608101908382511660405184818b816370a0823160e01b958682523060048301525afa9081156108bd578991610d69575b5060808301918587845116918c6040518094819382523060048301525afa908115610a5357908792918b91610d38575b5080821015610d305750935b84610ba8575b5090610551565b516004805460405163095ea7b360e01b808252918a166001600160a01b031692810192909252602482018790529290918791839116818d816044810103925af18015610a5357918786928894610cec575b509351600480546040519384528a166001600160a01b031690830152602482019290925292839116818b81604481015b03925af180156104ad57610cb4575b508360045416908484818351169201511690823b1561088557604051637abef8d160e01b81526001600160a01b03918216600482015291166024820152604481019290925286908290606490829084905af1801561045a57908691610ca0575b808481610ba1565b610ca990611896565b610881578487610c98565b8381813d8311610ce5575b610cc981836118dc565b81010312610ce157610cda90611a11565b5088610c38565b8780fd5b503d610cbf565b925050929181813d8311610d29575b610d0581836118dc565b81010312610d2557610c2992878793610d1e8894611a11565b5094610bf9565b8980fd5b503d610cfb565b905093610b9b565b809350878092503d8311610d62575b610d5181836118dc565b8101031261044e578691518c610b8f565b503d610d47565b90508481813d8311610d8f575b610d8081836118dc565b8101031261044e57518a610b5f565b503d610d76565b610d9f92612235565b50878085610b2a565b610db192612235565b50888186610b17565b634e487b7160e01b895260116004528989fd5b60405162461bcd60e51b8152600481018690526013818c01527213db9b1e4810985b185b98d95c8815985d5b1d606a1b6044820152606490fd5b8680fd5b8580fd5b81356001600160a01b03811681036108855781529083019083016101df565b8280fd5b823461016f57604036600319011261016f57610e4c61179f565b610e546117b5565b610e5c612128565b60018060a01b0390816001600160601b0360a01b93168360065416176006551690600754161760075580f35b823461016f578060031936011261016f576006546040516001600160a01b039091168152602090f35b823461016f57608036600319011261016f57610ecb61179f565b610ed36117b5565b6001600160a01b03604435818116929083900361044e576064359382851680950361044e578290610f02612128565b1680610f6a575b501680610f51575b5080610f38575b5080610f22575080f35b6001600160601b0360a01b600554161760055580f35b6001600160601b0360a01b600454161760045582610f18565b6001600160601b0360a01b600354161760035583610f11565b6001600160601b0360a01b600254161760025585610f09565b9050346115005760a036600319011261150057610f9e61179f565b610fa66117b5565b91600460643510156114fc5760843590610fbe612128565b6002600154146114ea576002600155610fd683611d49565b9061012082015115611490578101805161010090610ffc906001600160a01b0316611a1e565b92018051909190611015906001600160a01b0316611a1e565b9060a084015115801590611483575b1561143e5751608093840151925191840151604080516001600160a01b0393841681526001600160801b039586166020820152938316908401529092166060820152908416917fd90ad5a9a96a2cc69b90ec290ccb6ef651d2507f677baba2ff37a8bd3336731a91a26040516370a0823160e01b8152306004820152906020826024816001600160a01b0388165afa91821561139a57859261140a575b5060405167ffffffffffffffff919060a08101838111828210176113f65760405260018060a01b038516815260018060a01b0386166020820152604435604082015281606082015260806064359101526001600160601b0360a01b60018060a01b03851681600854161760085560018060a01b038616906009541617600955604435600a55600b5560ff19600c541660ff6064351617600c55604051611166816118c0565b60018152602036818301376001600160a01b038516611184826120bf565b5260405190611192826118c0565b60018252602036818401376044356111a9836120bf565b52600254604080516001600160a01b038881166020830152909592169291906111d69086016064356120e2565b60408552846060810110906060860111176113f65760608401604052813b15610ce15790879291632e1c224f60e11b606086015260e4850130606487015260806084870152815180915260206101048701920190855b8181106113d4575050506063198582030160a486015260208084519283815201930190845b8181106113bb575050506063198483030160c4850152835180835261127d816020850160208801611cb5565b6060850192601f909101601f191601849003603f190190829084905af1801561139a576113a5575b506040516370a0823160e01b81523060048201526020816024816001600160a01b0388165afa90811561139a578591611364575b509161130860a0927f54577c03a6068d982e6e64819897c53751527329a92f19bdd64963313175c4a194612105565b8061134d575b6040519461131e866064356120e2565b600180851b0316602086015260443560408601526060850152336080850152600180831b031692a26001805580f35b61135f8133600180871b038816612154565b61130e565b9290506020833d602011611392575b81611380602093836118dc565b8101031261044e5791516113086112d9565b3d9150611373565b6040513d87823e3d90fd5b60606113b49195929501611896565b92386112a5565b825185528a955060209485019490920191600101611251565b82516001600160a01b031684528b96506020938401939092019160010161122c565b634e487b7160e01b88526041600452602488fd5b9091506020813d602011611436575b81611426602093836118dc565b81010312610881575190386110c1565b3d9150611419565b60405162461bcd60e51b815260206004820152601c60248201527f4e6f20706f6f6c7320666f756e6420666f7220617262697472616765000000006044820152606490fd5b5060a08201511515611024565b60405162461bcd60e51b815260206004820152602c60248201527f496e76616c69642070726f706f73616c3a20636f6c6c61746572616c20746f6b60448201526b0cadce640dad2e6dac2e8c6d60a31b6064820152608490fd5b604051633ee5aeb560e01b8152600490fd5b8380fd5b5080fd5b823461016f578060031936011261016f576007546040516001600160a01b039091168152602090f35b823461016f578060031936011261016f576005546040516001600160a01b039091168152602090f35b823461016f578060031936011261016f57546040516001600160a01b039091168152602090f35b823461016f578060031936011261016f57611596612128565b80546001600160a01b03198116825581906001600160a01b03167f8be0079c531659141344cd1fd0a4f28419497f9722a3daafe3b4186f6b6457e08280a380f35b905034611500576020366003190112611500576116516102c0926115f961179f565b9050611603611c43565b5061160c611992565b61161d611617611992565b92611d49565b93610120850151611653575b506116469061163b604051809661181a565b6101408501906117cb565b6102008301906117cb565bf35b8401516001600160a01b039250611646915061168190611674908416611a1e565b9261010086015116611a1e565b9190611629565b823461016f57602036600319011261016f576101406116ad6116a861179f565b611d49565b611651604051809261181a565b823461016f578060031936011261016f576003546040516001600160a01b039091168152602090f35b823461016f578060031936011261016f576002546040516001600160a01b039091168152602090f35b823461016f578060031936011261016f576004546040516001600160a01b039091168152602090f35b823461016f57602036600319011261016f5760c061175961175461179f565b611a1e565b61165160405180926117cb565b823461016f57604036600319011261016f576103a961178361179f565b61178b612128565b6024359033906001600160a01b0316612154565b600435906001600160a01b038216820361044e57565b602435906001600160a01b038216820361044e57565b60a08091600180831b0380825116855280602083015116602086015280604083015116604086015260608201511660608501526001600160801b03608082015116608085015201511515910152565b60018060a01b038082511683528060208301511660208401528060408301511660408401528060608301511660608401528060808301511660808401528060a08301511660a08401528060c08301511660c08401528060e08301511660e084015261010090818301511690830152610120809101511515910152565b67ffffffffffffffff81116118aa57604052565b634e487b7160e01b600052604160045260246000fd5b6040810190811067ffffffffffffffff8211176118aa57604052565b90601f8019910116810190811067ffffffffffffffff8211176118aa57604052565b67ffffffffffffffff81116118aa5760051b60200190565b9080601f8301121561044e576020908235611930816118fe565b9361193e60405195866118dc565b81855260208086019260051b82010192831161044e57602001905b828210611967575050505090565b81358152908301908301611959565b67ffffffffffffffff81116118aa57601f01601f191660200190565b6040519060c0820182811067ffffffffffffffff8211176118aa576040528160a06000918281528260208201528260408201528260608201528260808201520152565b9081602091031261044e57516001600160a01b038116810361044e5790565b519061ffff8216820361044e57565b519060ff8216820361044e57565b5190811515820361044e57565b611a26611992565b906001600160a01b039081168015611c375780835260408051630dfe168160e01b815260209391908481600481875afa908115611be257908391600091611c1a575b501685850152805163d21220a760e01b81528481600481875afa908115611be257908391600091611bed575b5016858201528051630d34328160e11b8152938085600481875afa948515611be257600095611ba2575b50600460e060808801956001600160801b0380981687528451928380926339db007960e21b82525afa928315611b9857600093611b0b575b5050501660608401525116151560a082015290565b90919260e0833d60e011611b90575b81611b2760e093836118dc565b8101031261016f578251938585168503611500578301518060020b0361016f575081611b5960c092611b8794016119f4565b50611b66606082016119f4565b50611b7360808201611a03565b50611b8060a08201611a03565b5001611a11565b50388080611af6565b3d9150611b1a565b513d6000823e3d90fd5b81818197933d8311611bdb575b611bb981836118dc565b810103126115005751906001600160801b038216820361016f57509338611abe565b503d611baf565b82513d6000823e3d90fd5b611c0d9150863d8811611c13575b611c0581836118dc565b8101906119d5565b38611a94565b503d611bfb565b611c319150863d8811611c1357611c0581836118dc565b38611a68565b5050600060a082015290565b60405190610140820182811067ffffffffffffffff8211176118aa57604052816101206000918281528260208201528260408201528260608201528260808201528260a08201528260c08201528260e0820152826101008201520152565b51906001600160a01b038216820361044e57565b60005b838110611cc85750506000910152565b8181015183820152602001611cb8565b919060408382031261044e57611ced83611ca1565b9260208101519067ffffffffffffffff821161044e570181601f8201121561044e578051611d1a81611976565b92611d2860405194856118dc565b8184526020828401011161044e57611d469160208085019101611cb5565b90565b611d51611c43565b6001600160a01b0391821680825260408051624d7b0960e81b815292939290916004916020919082818581855afa9081156120b45760009161207f575b508516868301908152845163625048e960e11b815283818681865afa8015612028578790600090612049575b819250169182878a01525116866006541614908161203b575b50158015610120880152612033578351630315311560e31b93848252600081830152600082602481865afa9182156120285760009261200a575b50855191858352600182840152600083602481875afa928315611fc157600093611fec575b50865195808752600283880152600087602481885afa968715611f8e57600097611fcc575b50600090602489518097819382526003878301525afa938415611fc157908891600095611f99575b50811660608a0181905292811660808a01908152951660a0890181905292871660c08901908152600554875163d9a641e160e01b8082526001600160a01b0395861685830190815295909616602086015294969194908916938690829081906040010381875afa908115611f8e5786959493928a80938193600091611f71575b501660e08d0152519451895198895294166001600160a01b039081169288019283529316909216602083015284918290819060400103915afa928315611b985750600092611f54575b50501661010082015290565b611f6a9250803d10611c1357611c0581836118dc565b3880611f48565b611f889150893d8b11611c1357611c0581836118dc565b38611eff565b88513d6000823e3d90fd5b82919550611fb9903d806000833e611fb181836118dc565b810190611cd8565b509490611e7f565b87513d6000823e3d90fd5b6000919750611fe4903d8084833e611fb181836118dc565b509690611e57565b6120029193503d806000833e611fb181836118dc565b509138611e32565b6120209192503d806000833e611fb181836118dc565b509038611e0d565b86513d6000823e3d90fd5b505050505090565b905085600754161438611dd3565b50508381813d8311612078575b61206081836118dc565b8101031261044e57866120738192611ca1565b611dba565b503d612056565b90508281813d83116120ad575b61209681836118dc565b8101031261044e576120a790611ca1565b38611d8e565b503d61208c565b85513d6000823e3d90fd5b8051156120cc5760200190565b634e487b7160e01b600052603260045260246000fd5b9060048210156120ef5752565b634e487b7160e01b600052602160045260246000fd5b9190820391821161211257565b634e487b7160e01b600052601160045260246000fd5b6000546001600160a01b0316330361213c57565b60405163118cdaa760e01b8152336004820152602490fd5b60405163a9059cbb60e01b60208083019182526001600160a01b0394909416602483015260448083019590955293815290926000916121946064826118dc565b519082855af1156121e7576000513d6121de57506001600160a01b0381163b155b6121bc5750565b604051635274afe760e01b81526001600160a01b039091166004820152602490fd5b600114156121b5565b6040513d6000823e3d90fd5b156121fa57565b60405162461bcd60e51b8152602060048201526013602482015272109bdd1a081c1bdbdb1cc81c995c5d5a5c9959606a1b6044820152606490fd5b6001600160a01b039081169290919083158015612455575b61244c576040938451630dfe168160e01b81526020938482600481865afa918215611fc157859060009361242c575b50875163d21220a760e01b81529293839060049082905afa918215611fc15790869160009361240d575b50169185811683036124055750905b600354865163095ea7b360e01b81529086166001600160a01b031660048201526024810184905284816044816000865af18015611fc1576123d1575b5085519160e083019083821067ffffffffffffffff8311176118aa578594889388938552855282868601921682528385019030825260608601428152608087019182528460a0880193600085528160c08a019660008852816003541699519d8e9b63178ca23160e31b8d52511660048c0152511660248a0152511660448801525160648701525160848601525160a4850152511660c4830152815a60e492600091f1928315611b9857506000926123a757505090565b90809250813d83116123ca575b6123be81836118dc565b8101031261044e575190565b503d6123b4565b8481813d83116123fe575b6123e681836118dc565b8101031261044e576123f790611a11565b50386122f1565b503d6123dc565b9050906122b5565b612425919350863d8811611c1357611c0581836118dc565b91386122a6565b6004935061244690823d8411611c1357611c0581836118dc565b9261227c565b50505050600090565b50801561224d56fea264697066735822122069fe4ab92205539a7e7ad2d1cc1f043048d67a6e4e1656ee1ccf3c3a36f73c6d64736f6c63430008180033",
  "linkReferences": {},
  "deployedLinkReferences": {}
}