{
  "_format": "hh-sol-artifact-1",
  "contractName": "GnosisFlashArbitrage",
  "sourceName": "contracts/GnosisFlashArbitrage.sol",
  "abi": [
    {
      "inputs": [
        {
          "internalType": "address",
          "name": "_balancerVault",
          "type": "address"
        },
        {
          "internalType": "address",
          "name": "_swaprRouter",
          "type": "address"
        },
        {
          "internalType": "address",
          "name": "_futarchyRouter",
          "type": "address"
        },
        {
          "internalType": "address",
          "name": "_gnoToken",
          "type": "address"
        },
        {
          "internalType": "address",
          "name": "_sdaiToken",
          "type": "address"
        },
        {
          "internalType": "address",
          "name": "_wagnoToken",
          "type": "address"
        },
        {
          "internalType": "bytes32",
          "name": "_balancerPoolId",
          "type": "bytes32"
        }
      ],
      "stateMutability": "nonpayable",
      "type": "constructor"
    },
    {
      "inputs": [
        {
          "internalType": "address",
          "name": "owner",
          "type": "address"
        }
      ],
      "name": "OwnableInvalidOwner",
      "type": "error"
    },
    {
      "inputs": [
        {
          "internalType": "address",
          "name": "account",
          "type": "address"
        }
      ],
      "name": "OwnableUnauthorizedAccount",
      "type": "error"
    },
    {
      "inputs": [],
      "name": "ReentrancyGuardReentrantCall",
      "type": "error"
    },
    {
      "inputs": [
        {
          "internalType": "address",
          "name": "token",
          "type": "address"
        }
      ],
      "name": "SafeERC20FailedOperation",
      "type": "error"
    },
    {
      "anonymous": false,
      "inputs": [
        {
          "indexed": true,
          "internalType": "enum GnosisFlashArbitrage.ArbitrageType",
          "name": "arbType",
          "type": "uint8"
        },
        {
          "indexed": true,
          "internalType": "address",
          "name": "borrowedToken",
          "type": "address"
        },
        {
          "indexed": false,
          "internalType": "uint256",
          "name": "borrowedAmount",
          "type": "uint256"
        },
        {
          "indexed": false,
          "internalType": "uint256",
          "name": "profit",
          "type": "uint256"
        }
      ],
      "name": "ArbitrageExecuted",
      "type": "event"
    },
    {
      "anonymous": false,
      "inputs": [
        {
          "indexed": false,
          "internalType": "string",
          "name": "configName",
          "type": "string"
        },
        {
          "indexed": false,
          "internalType": "address",
          "name": "newValue",
          "type": "address"
        }
      ],
      "name": "ConfigUpdated",
      "type": "event"
    },
    {
      "anonymous": false,
      "inputs": [
        {
          "indexed": true,
          "internalType": "address",
          "name": "previousOwner",
          "type": "address"
        },
        {
          "indexed": true,
          "internalType": "address",
          "name": "newOwner",
          "type": "address"
        }
      ],
      "name": "OwnershipTransferred",
      "type": "event"
    },
    {
      "anonymous": false,
      "inputs": [
        {
          "indexed": false,
          "internalType": "bytes32",
          "name": "newPoolId",
          "type": "bytes32"
        }
      ],
      "name": "PoolIdUpdated",
      "type": "event"
    },
    {
      "anonymous": false,
      "inputs": [
        {
          "indexed": false,
          "internalType": "address",
          "name": "token",
          "type": "address"
        },
        {
          "indexed": false,
          "internalType": "uint256",
          "name": "amount",
          "type": "uint256"
        }
      ],
      "name": "TokensRecovered",
      "type": "event"
    },
    {
      "inputs": [],
      "name": "balancerPoolId",
      "outputs": [
        {
          "internalType": "bytes32",
          "name": "",
          "type": "bytes32"
        }
      ],
      "stateMutability": "view",
      "type": "function"
    },
    {
      "inputs": [],
      "name": "balancerVault",
      "outputs": [
        {
          "internalType": "contract IBalancerVault",
          "name": "",
          "type": "address"
        }
      ],
      "stateMutability": "view",
      "type": "function"
    },
    {
      "inputs": [
        {
          "internalType": "address",
          "name": "borrowToken",
          "type": "address"
        },
        {
          "internalType": "uint256",
          "name": "borrowAmount",
          "type": "uint256"
        },
        {
          "internalType": "enum GnosisFlashArbitrage.ArbitrageType",
          "name": "arbType",
          "type": "uint8"
        },
        {
          "internalType": "address",
          "name": "proposal",
          "type": "address"
        },
        {
          "internalType": "uint256",
          "name": "minProfit",
          "type": "uint256"
        }
      ],
      "name": "executeArbitrage",
      "outputs": [],
      "stateMutability": "nonpayable",
      "type": "function"
    },
    {
      "inputs": [],
      "name": "futarchyRouter",
      "outputs": [
        {
          "internalType": "contract IFutarchyRouter",
          "name": "",
          "type": "address"
        }
      ],
      "stateMutability": "view",
      "type": "function"
    },
    {
      "inputs": [],
      "name": "getPoolLiquidity",
      "outputs": [
        {
          "internalType": "address[]",
          "name": "tokens",
          "type": "address[]"
        },
        {
          "internalType": "uint256[]",
          "name": "balances",
          "type": "uint256[]"
        }
      ],
      "stateMutability": "view",
      "type": "function"
    },
    {
      "inputs": [],
      "name": "gnoToken",
      "outputs": [
        {
          "internalType": "address",
          "name": "",
          "type": "address"
        }
      ],
      "stateMutability": "view",
      "type": "function"
    },
    {
      "inputs": [],
      "name": "owner",
      "outputs": [
        {
          "internalType": "address",
          "name": "",
          "type": "address"
        }
      ],
      "stateMutability": "view",
      "type": "function"
    },
    {
      "inputs": [
        {
          "internalType": "contract IERC20[]",
          "name": "tokens",
          "type": "address[]"
        },
        {
          "internalType": "uint256[]",
          "name": "amounts",
          "type": "uint256[]"
        },
        {
          "internalType": "uint256[]",
          "name": "feeAmounts",
          "type": "uint256[]"
        },
        {
          "internalType": "bytes",
          "name": "userData",
          "type": "bytes"
        }
      ],
      "name": "receiveFlashLoan",
      "outputs": [],
      "stateMutability": "nonpayable",
      "type": "function"
    },
    {
      "inputs": [
        {
          "internalType": "address",
          "name": "token",
          "type": "address"
        },
        {
          "internalType": "uint256",
          "name": "amount",
          "type": "uint256"
        }
      ],
      "name": "recoverTokens",
      "outputs": [],
      "stateMutability": "nonpayable",
      "type": "function"
    },
    {
      "inputs": [],
      "name": "refreshApprovals",
      "outputs": [],
      "stateMutability": "nonpayable",
      "type": "function"
    },
    {
      "inputs": [],
      "name": "renounceOwnership",
      "outputs": [],
      "stateMutability": "nonpayable",
      "type": "function"
    },
    {
      "inputs": [],
      "name": "sdaiToken",
      "outputs": [
        {
          "internalType": "address",
          "name": "",
          "type": "address"
        }
      ],
      "stateMutability": "view",
      "type": "function"
    },
    {
      "inputs": [
        {
          "internalType": "bytes32",
          "name": "_poolId",
          "type": "bytes32"
        }
      ],
      "name": "setBalancerPoolId",
      "outputs": [],
      "stateMutability": "nonpayable",
      "type": "function"
    },
    {
      "inputs": [
        {
          "internalType": "address",
          "name": "_vault",
          "type": "address"
        }
      ],
      "name": "setBalancerVault",
      "outputs": [],
      "stateMutability": "nonpayable",
      "type": "function"
    },
    {
      "inputs": [
        {
          "internalType": "address",
          "name": "_router",
          "type": "address"
        }
      ],
      "name": "setFutarchyRouter",
      "outputs": [],
      "stateMutability": "nonpayable",
      "type": "function"
    },
    {
      "inputs": [
        {
          "internalType": "address",
          "name": "_router",
          "type": "address"
        }
      ],
      "name": "setSwaprRouter",
      "outputs": [],
      "stateMutability": "nonpayable",
      "type": "function"
    },
    {
      "inputs": [
        {
          "internalType": "address",
          "name": "_gno",
          "type": "address"
        },
        {
          "internalType": "address",
          "name": "_sdai",
          "type": "address"
        },
        {
          "internalType": "address",
          "name": "_wagno",
          "type": "address"
        }
      ],
      "name": "setTokens",
      "outputs": [],
      "stateMutability": "nonpayable",
      "type": "function"
    },
    {
      "inputs": [],
      "name": "swaprRouter",
      "outputs": [
        {
          "internalType": "contract IAlgebraSwapRouter",
          "name": "",
          "type": "address"
        }
      ],
      "stateMutability": "view",
      "type": "function"
    },
    {
      "inputs": [
        {
          "internalType": "address",
          "name": "newOwner",
          "type": "address"
        }
      ],
      "name": "transferOwnership",
      "outputs": [],
      "stateMutability": "nonpayable",
      "type": "function"
    },
    {
      "inputs": [],
      "name": "wagnoToken",
      "outputs": [
        {
          "internalType": "address",
          "name": "",
          "type": "address"
        }
      ],
      "stateMutability": "view",
      "type": "function"
    },
    {
      "inputs": [
        {
          "internalType": "address",
          "name": "token",
          "type": "address"
        }
      ],
      "name": "withdrawProfits",
      "outputs": [],
      "stateMutability": "nonpayable",
      "type": "function"
    },
    {
      "stateMutability": "payable",
      "type": "receive"
    }
  ],
  "bytecode": "0x6080604090808252346200036e5760e08162001f4c803803809162000025828562000373565b8339810103126200036e576200003b81620003ad565b906020916200004c838301620003ad565b916200005a858201620003ad565b906200006960608201620003ad565b936200007860808301620003ad565b60c06200008860a08501620003ad565b9301513315620003565788600096879384549060018060a01b03809b819a82808097819760018060a01b03199a8d338d8416179055519c7f8be0079c531659141344cd1fd0a4f28419497f9722a3daafe3b4186f6b6457e0843393169180a360018055169a8b896002541617600255168760035416176003558660049e8f9216915416178d55168460055416176005551695868360065416176006551690600754161760075560085582620002a6575b505050806007541680620001e3575b508060055416928362000164575b8551611b6f9081620003dd8239f35b6044859282541691848851968794859363095ea7b360e01b855284015260001960248401525af1908115620001d85750620001a3575b80808062000155565b81620001c792903d10620001d0575b620001be818362000373565b810190620003c2565b5038806200019a565b503d620001b2565b8451903d90823e3d90fd5b8160025416865163095ea7b360e01b9182825286820152868160448188600019978860248401525af180156200029c57908792916200027a575b506044846007541691868660035416938b51968795869485528b85015260248401525af1801562000270571562000147576200026890853d8711620001d057620001be818362000373565b503862000147565b86513d85823e3d90fd5b6200029490833d8511620001d057620001be818362000373565b50386200021d565b88513d87823e3d90fd5b63095ea7b360e01b9182825286820152868160448188600019978860248401525af180156200029c579087929162000334575b506044846006541691868660035416938b51968795869485528b85015260248401525af18015620002705762000312575b808062000138565b6200032c90853d8711620001d057620001be818362000373565b50386200030a565b6200034e90833d8511620001d057620001be818362000373565b5038620002d9565b8851631e4fbdf760e01b815260006004820152602490fd5b600080fd5b601f909101601f19168101906001600160401b038211908210176200039757604052565b634e487b7160e01b600052604160045260246000fd5b51906001600160a01b03821682036200036e57565b908160209103126200036e575180151581036200036e579056fe6080604052600436101561001b575b361561001957600080fd5b005b6000803560e01c8062362a77146113b2578063069c9fae146113395780630db188b114611310578063158274a5146112e75780633fd0b3bf14610e6f57806343d57a6414610c3b578063443be20914610bca5780634ad7429914610ba15780635360e6b9146109df57806354a754e11461094f5780635bddd2dc14610926578063715018a6146108cc5780638da5cb5b146108a5578063aeda99ef1461087c578063c61f218414610853578063c83e413514610805578063dbbb64b9146107e7578063e33ad7541461075a578063f04f270714610229578063f2fde38b1461019e5763f8c464521461010d575061000e565b3461019b57602036600319011261019b577ff65c1c942037215826383c2092043ca15aa3e8927c39dc5d5d3f0e6190c2a61d6080610149611463565b610151611624565b60018060a01b0316806001600160601b0360a01b60025416176002556040519060408252600d60408301526c18985b185b98d95c95985d5b1d609a1b60608301526020820152a180f35b80fd5b503461019b57602036600319011261019b576101b8611463565b6101c0611624565b6001600160a01b0390811690811561021057600054826001600160601b0360a01b821617600055167f8be0079c531659141344cd1fd0a4f28419497f9722a3daafe3b4186f6b6457e0600080a380f35b604051631e4fbdf760e01b815260048101849052602490fd5b503461019b57608036600319011261019b576004356001600160401b03808211610716573660238301121561071657816004013560246102688261151a565b9361027660405195866114f9565b828552602092828487019160051b8301019136831161072f578301905b828210610737575050508035838111610733576102b4903690600401611531565b91604491823585811161072f576102cf903690600401611531565b9360648035968088116106d657366023890112156106d657876004013590811161071a57896040519861030b87601f19601f860116018b6114f9565b828a52868a01923687828401011161071657808789930185378a0101526002546001600160a01b039190821633036106de576040898051810103126106da57519760058910156106da5760400151818116036106d65761038c6103858261037461037e9c611591565b51169a8b95611591565b5198611591565b5188611617565b91604051868187816370a0823160e01b988982523060048301525afa9081156105315787916106ad575b508a906000958b156000146105495760065485168b8480830361053c576103ef92506103e98860075416925b8383611819565b91611713565b505b876040518094819382523060048301525afa908115610531578c916104ff575b508381106104be5783610423916115f4565b96600b5488106104875750509061043e916002541689611650565b6104755750916040917fcf1de04eaf7e052dc04d13b306241b13c50bda85b2a52e6713e866d4884f27ab938351928352820152a380f35b634e487b7160e01b8752602160045286fd5b7350726f6669742062656c6f77206d696e696d756d60601b87916014886040519462461bcd60e51b86526004860152840152820152fd5b5060405162461bcd60e51b815260048101879052601d818701527f496e73756666696369656e742062616c616e636520746f20726570617900000081890152fd5b90508681813d831161052a575b61051681836114f9565b81010312610525575138610411565b600080fd5b503d61050c565b6040513d8e823e3d90fd5b6103e96103ef93926103e2565b91505060018a03610595576006548b91889185168b8482810361058857610582925061057c8860075416925b8383611713565b91611819565b506103f1565b61057c6105829392610575565b92919099959a9698949793506002851460001461061e5760405162461bcd60e51b8152600481018c90526041818a01527f4675746172636879206d65726765206e6f742079657420696d706c656d656e74818b01527f6564202d206e65656473205945532f4e4f20746f6b656e206164647265737365818c0152607360f81b608482015260a490fd5b9091929693979599949860009360038a1461063b57868b916103f1565b60405162461bcd60e51b8152600481018890526041818801527f46757461726368792073706c6974206e6f742079657420696d706c656d656e74818a01527f6564202d206e65656473205945532f4e4f20746f6b656e20616464726573736581840152607360f81b608482015260a490fd5b813d83116106cf575b6106c081836114f9565b810103126105255785386103b6565b503d6106b6565b8980fd5b8a80fd5b60405162461bcd60e51b8152600481018790526013818701527213db9b1e4810985b185b98d95c8815985d5b1d606a1b818901528390fd5b8280fd5b83634e487b7160e01b60005260416004526000fd5b8780fd5b8580fd5b81356001600160a01b0381168103610756578152908401908401610293565b8880fd5b503461019b57602036600319011261019b577ff65c1c942037215826383c2092043ca15aa3e8927c39dc5d5d3f0e6190c2a61d6080610797611463565b61079f611624565b60018060a01b0316806001600160601b0360a01b60035416176003556040519060408252600b60408301526a39bbb0b8392937baba32b960a91b60608301526020820152a180f35b503461019b578060031936011261019b576020600854604051908152f35b503461019b57602036600319011261019b577f2f987c69600c7f43198d04b77e073010cfbc33a77c546ec849df4cfb628187976020600435610845611624565b80600855604051908152a180f35b503461019b578060031936011261019b576005546040516001600160a01b039091168152602090f35b503461019b578060031936011261019b576006546040516001600160a01b039091168152602090f35b503461019b578060031936011261019b57546040516001600160a01b039091168152602090f35b503461019b578060031936011261019b576108e5611624565b600080546001600160a01b0319811682556001600160a01b03167f8be0079c531659141344cd1fd0a4f28419497f9722a3daafe3b4186f6b6457e08280a380f35b503461019b578060031936011261019b576007546040516001600160a01b039091168152602090f35b503461019b57602036600319011261019b577ff65c1c942037215826383c2092043ca15aa3e8927c39dc5d5d3f0e6190c2a61d608061098c611463565b610994611624565b60018060a01b0316806001600160601b0360a01b60045416176004556040519060408252600e60408301526d333aba30b931b43ca937baba32b960911b60608301526020820152a180f35b503461019b578060031936011261019b5760018060a01b039081600254169080600854602460405180958193631f29a8cd60e31b835260048301525afa908115610b955780928192610a84575b506040519260408401906040855280518092526060850195602080920193905b838210610a6b578680610a678a898382036020850152611479565b0390f35b8451811688529682019693820193600190910190610a4c565b925090503d8082843e610a9781846114f9565b820191606081840312610b915780516001600160401b0390818111610b715782019084601f83011215610b7157815192602092610ad38561151a565b94610ae160405196876114f9565b808652848087019160051b8301019188831161072f578501905b828210610b795750505082810151918211610b7557019380601f86011215610b71578451610b288161151a565b95610b3660405197886114f9565b818752838088019260051b820101928311610733578301905b828210610b625750505050919038610a2c565b81518152908301908301610b4f565b8380fd5b8480fd5b81518a81168103610756578152908501908501610afb565b5080fd5b604051903d90823e3d90fd5b503461019b578060031936011261019b576003546040516001600160a01b039091168152602090f35b503461019b57606036600319011261019b57610be4611463565b6001600160a01b039060243582811690819003610525576044359280841680940361052557610c11611624565b6001600160601b0360a01b9216826005541617600555816006541617600655600754161760075580f35b503461019b578060031936011261019b57610c54611624565b60065481906001600160a01b03908290821680610dbe575b50816007541680610cf7575b5050806005541680610c88575050f35b604460209260045416604051948593849263095ea7b360e01b8452600484015260001960248401525af18015610cec57610cc0575080f35b610ce19060203d602011610ce5575b610cd981836114f9565b810190611693565b5080f35b503d610ccf565b6040513d84823e3d90fd5b82600254166040519063095ea7b360e01b908183526004830152600019928360248401528260448160209788945af1918215610db3578492610d96575b5060448560075416918787600354169360405196879586948552600485015260248401525af18015610d8b57610d6d575b839150610c78565b81610d8392903d10610ce557610cd981836114f9565b503880610d65565b6040513d86823e3d90fd5b610dac90833d8511610ce557610cd981836114f9565b5038610d34565b6040513d88823e3d90fd5b82600254166040519063095ea7b360e01b908183526004830152600019928360248401528260448160209788945af1918215610db3578492610e52575b5060448560065416918787600354169360405196879586948552600485015260248401525af18015610d8b57610e34575b839150610c6c565b81610e4a92903d10610ce557610cd981836114f9565b503880610e2c565b610e6890833d8511610ce557610cd981836114f9565b5038610dfb565b503461019b5760a036600319011261019b57610e89611463565b60056044351015610b91576064356001600160a01b03811681036107165760843590610eb3611624565b6002600154146112d55760026001556040516370a0823160e01b8152306004820152916020836024816001600160a01b0388165afa9283156112ca578593611296575b5060405190610f04826114ad565b85825260405160a081018181106001600160401b038211176112825760409081526044358083526001600160a01b0386166020840152602435918301829052606083018490526080909201849052600980546001600160a81b03191660ff90931692909217600886901b610100600160a81b031617909155600a55600b558051906001600160401b03821161126e5768010000000000000000821161126e57600c5482600c5580831061122d575b50602001600c8652855b8281106111f057505050604051610fd2816114de565b60018152602036818301376001600160a01b038416610ff082611591565b5260405190610ffe826114de565b600182526020368184013760243561101583611591565b526002546040805160443560208201526001600160a01b03958616818301529081529316906001600160401b0360608501908111908511176111dc5760608401604052813b156111d85790869291632e1c224f60e11b606086015260e4850130606487015260806084870152815180915260206101048701920190855b8181106111b6575050506110b39060631993848783030160a4880152611479565b918483030160c48501526060840191846110d0605f1992826115b4565b0301908360608601915af18015610d8b57611181575b506040516370a0823160e01b8152306004820152906020826024816001600160a01b0387165afa8015610d8b57849061114d575b61112492506115f4565b80611132575b826001805580f35b6111469133906001600160a01b0316611650565b388061112a565b506020823d602011611179575b81611167602093836114f9565b8101031261052557611124915161111a565b3d915061115a565b6001600160401b0360608295939501116111a25760600160405291386110e6565b634e487b7160e01b82526041600452602482fd5b82516001600160a01b031684528a965060209384019390920191600101611092565b8680fd5b634e487b7160e01b87526041600452602487fd5b81516001600160a01b03167fdf6966c971051c3d54ec59162606531493a51404a002842f56009d7e5cf4a8c7820155602090910190600101610fbc565b7fdf6966c971051c3d54ec59162606531493a51404a002842f56009d7e5cf4a8c7908382015b8183018110611263575050610fb2565b888155600101611253565b634e487b7160e01b86526041600452602486fd5b634e487b7160e01b88526041600452602488fd5b9092506020813d6020116112c2575b816112b2602093836114f9565b81010312610b7557519138610ef6565b3d91506112a5565b6040513d87823e3d90fd5b604051633ee5aeb560e01b8152600490fd5b503461019b578060031936011261019b576002546040516001600160a01b039091168152602090f35b503461019b578060031936011261019b576004546040516001600160a01b039091168152602090f35b503461019b57604036600319011261019b577f46d2e6e71fc567877b817ff3d940571f989d4ee4d40f2b70806d36e738feef6f611374611463565b60243590611380611624565b61139482336001600160a01b038416611650565b604080516001600160a01b039290921682526020820192909252a180f35b503461019b57602036600319011261019b576113cc611463565b6113d4611624565b6040516370a0823160e01b81523060048201526001600160a01b039190911690602081602481855afa908115611458578391611426575b5080611415578280f35b611420913390611650565b38808280f35b90506020813d602011611450575b81611441602093836114f9565b8101031261071657513861140b565b3d9150611434565b6040513d85823e3d90fd5b600435906001600160a01b038216820361052557565b90815180825260208080930193019160005b828110611499575050505090565b83518552938101939281019260010161148b565b602081019081106001600160401b038211176114c857604052565b634e487b7160e01b600052604160045260246000fd5b604081019081106001600160401b038211176114c857604052565b90601f801991011681019081106001600160401b038211176114c857604052565b6001600160401b0381116114c85760051b60200190565b9080601f8301121561052557602090823561154b8161151a565b9361155960405195866114f9565b81855260208086019260051b82010192831161052557602001905b828210611582575050505090565b81358152908301908301611574565b80511561159e5760200190565b634e487b7160e01b600052603260045260246000fd5b919082519283825260005b8481106115e0575050826000602080949584010152601f8019910116010190565b6020818301810151848301820152016115bf565b9190820391821161160157565b634e487b7160e01b600052601160045260246000fd5b9190820180921161160157565b6000546001600160a01b0316330361163857565b60405163118cdaa760e01b8152336004820152602490fd5b60405163a9059cbb60e01b60208201526001600160a01b039290921660248301526044808301939093529181526116919161168c6064836114f9565b6116ab565b565b90816020910312610525575180151581036105255790565b906000602091828151910182855af115611707576000513d6116fe57506001600160a01b0381163b155b6116dc5750565b604051635274afe760e01b81526001600160a01b039091166004820152602490fd5b600114156116d5565b6040513d6000823e3d90fd5b6003546001600160a01b0391821691906117319085908316846119ef565b60405160e08101908082106001600160401b038311176114c85760209360e4926040528152828482019516855260408101953087526060820196428852608083019182528460a08401986000998a9485825260c087019286845284806003541696816040519e8f9d8e9c8d63178ca23160e31b9052511660048d0152511660248b0152511660448901525160648801525160848701525160a4860152511660c48401525af1918215610b955780926117e857505090565b9091506020823d602011611811575b81611804602093836114f9565b8101031261019b57505190565b3d91506117f7565b6002546001600160a01b03939291841691906118399084908616846119ef565b6008549060409485519160c08301936001600160401b0394848110868211176114c85788528352602094858401916000978884528986019283528460608701921682526080860190815289519161188f836114ad565b89835260a087019283528a519760808901908111898210176119db57918b9795939160e49b9a999795938952308852898801938b85528989019530875260608a01988d8a5288600254169b519e8f916352bbbe2960e01b835260e06004840152519101525160028110156119c75794876119478f9b968f9994968f9e9c979b80978f9d82908f9d6101048f015251166101248d015251166101448b0152516101648a01525160c06101848a01526101a48901906115b4565b955116602487015251151560448601525116606484015251151560848301528260a48301524260c483015203925af19384156119bc5750819361198b575b50505090565b9091809350813d83116119b5575b6119a381836114f9565b8101031261019b575051388080611985565b503d611999565b51913d9150823e3d90fd5b634e487b7160e01b8d52602160045260248dfd5b634e487b7160e01b8b52604160045260248bfd5b604051636eb1769f60e11b81523060048201526001600160a01b038381166024830181905260209591841694909290918682604481895afa801561170757600090611b0a575b611a3f9250611617565b60405163095ea7b360e01b8782018181526001600160a01b039490941660248301526044808301939093529181529490918690600090611a806064896114f9565b87519082885af1903d6000519083611aeb575b50505015611aa3575b5050505050565b6040519485015260248401526000604484015260448352608083018381106001600160401b038211176114c857611ae19361168c91604052826116ab565b3880808080611a9c565b91925090611b0057503b15155b388080611a93565b6001915014611af8565b508682813d8311611b32575b611b2081836114f9565b8101031261052557611a3f9151611a35565b503d611b1656fea264697066735822122014d30b4d470fe51731cb0125fde79ef04813592d0013298b7db2280530008b9564736f6c63430008180033",
  "linkReferences": {},
  "deployedLinkReferences": {}
}